{
  "abi": [
    {
      "anonymous": false,
      "inputs": [
        {
          "indexed": true,
          "internalType": "address",
          "name": "owner",
          "type": "address"
        },
        {
          "indexed": true,
          "internalType": "address",
          "name": "spender",
          "type": "address"
        },
        {
          "indexed": false,
          "internalType": "uint256",
          "name": "value",
          "type": "uint256"
        }
      ],
      "name": "Approval",
      "type": "event"
    },
    {
      "anonymous": false,
      "inputs": [
        {
          "indexed": true,
          "internalType": "address",
          "name": "to",
          "type": "address"
        },
        {
          "indexed": false,
          "internalType": "uint256",
          "name": "amount",
          "type": "uint256"
        }
      ],
      "name": "Deposit",
      "type": "event"
    },
    {
      "anonymous": false,
      "inputs": [
        {
          "indexed": true,
          "internalType": "address",
          "name": "from",
          "type": "address"
        },
        {
          "indexed": true,
          "internalType": "address",
          "name": "to",
          "type": "address"
        },
        {
          "indexed": false,
          "internalType": "uint256",
          "name": "value",
          "type": "uint256"
        }
      ],
      "name": "Transfer",
      "type": "event"
    },
    {
      "anonymous": false,
      "inputs": [
        {
          "indexed": true,
          "internalType": "address",
          "name": "from",
          "type": "address"
        },
        {
          "indexed": false,
          "internalType": "uint256",
          "name": "amount",
          "type": "uint256"
        }
      ],
      "name": "Withdrawal",
      "type": "event"
    },
    {
      "inputs": [
        {
          "internalType": "address",
          "name": "",
          "type": "address"
        },
        {
          "internalType": "address",
          "name": "",
          "type": "address"
        }
      ],
      "name": "allowance",
      "outputs": [
        {
          "internalType": "uint256",
          "name": "",
          "type": "uint256"
        }
      ],
      "stateMutability": "view",
      "type": "function"
    },
    {
      "inputs": [
        {
          "internalType": "address",
          "name": "guy",
          "type": "address"
        },
        {
          "internalType": "uint256",
          "name": "amount",
          "type": "uint256"
        }
      ],
      "name": "approve",
      "outputs": [
        {
          "internalType": "bool",
          "name": "",
          "type": "bool"
        }
      ],
      "stateMutability": "nonpayable",
      "type": "function"
    },
    {
      "inputs": [
        {
          "internalType": "address",
          "name": "",
          "type": "address"
        }
      ],
      "name": "balance",
      "outputs": [
        {
          "internalType": "uint256",
          "name": "",
          "type": "uint256"
        }
      ],
      "stateMutability": "view",
      "type": "function"
    },
    {
      "inputs": [
        {
          "internalType": "address",
          "name": "account",
          "type": "address"
        }
      ],
      "name": "balanceOf",
      "outputs": [
        {
          "internalType": "uint256",
          "name": "",
          "type": "uint256"
        }
      ],
      "stateMutability": "view",
      "type": "function"
    },
    {
      "inputs": [],
      "name": "decimals",
      "outputs": [
        {
          "internalType": "uint8",
          "name": "",
          "type": "uint8"
        }
      ],
      "stateMutability": "view",
      "type": "function"
    },
    {
      "inputs": [],
      "name": "deposit",
      "outputs": [],
      "stateMutability": "payable",
      "type": "function"
    },
    {
      "inputs": [],
      "name": "name",
      "outputs": [
        {
          "internalType": "string",
          "name": "",
          "type": "string"
        }
      ],
      "stateMutability": "view",
      "type": "function"
    },
    {
      "inputs": [],
      "name": "symbol",
      "outputs": [
        {
          "internalType": "string",
          "name": "",
          "type": "string"
        }
      ],
      "stateMutability": "view",
      "type": "function"
    },
    {
      "inputs": [],
      "name": "totalSupply",
      "outputs": [
        {
          "internalType": "uint256",
          "name": "",
          "type": "uint256"
        }
      ],
      "stateMutability": "view",
      "type": "function"
    },
    {
      "inputs": [
        {
          "internalType": "address",
          "name": "to",
          "type": "address"
        },
        {
          "internalType": "uint256",
          "name": "amount",
          "type": "uint256"
        }
      ],
      "name": "transfer",
      "outputs": [
        {
          "internalType": "bool",
          "name": "",
          "type": "bool"
        }
      ],
      "stateMutability": "nonpayable",
      "type": "function"
    },
    {
      "inputs": [
        {
          "internalType": "address",
          "name": "from",
          "type": "address"
        },
        {
          "internalType": "address",
          "name": "to",
          "type": "address"
        },
        {
          "internalType": "uint256",
          "name": "amount",
          "type": "uint256"
        }
      ],
      "name": "transferFrom",
      "outputs": [
        {
          "internalType": "bool",
          "name": "",
          "type": "bool"
        }
      ],
      "stateMutability": "nonpayable",
      "type": "function"
    },
    {
      "inputs": [
        {
          "internalType": "uint256",
          "name": "amount",
          "type": "uint256"
        }
      ],
      "name": "withdraw",
      "outputs": [],
      "stateMutability": "nonpayable",
      "type": "function"
    },
    {
      "stateMutability": "payable",
      "type": "receive"
    }
  ],
  "bytecode": {
    "object": "0x60c0604052600d60809081526c2bb930b83832b21022ba3432b960991b60a05260009061002c9082610114565b506040805180820190915260048152630ae8aa8960e31b60208201526001906100559082610114565b506002805460ff1916601217905534801561006f57600080fd5b506101d3565b634e487b7160e01b600052604160045260246000fd5b600181811c9082168061009f57607f821691505b6020821081036100bf57634e487b7160e01b600052602260045260246000fd5b50919050565b601f82111561010f57600081815260208120601f850160051c810160208610156100ec5750805b601f850160051c820191505b8181101561010b578281556001016100f8565b5050505b505050565b81516001600160401b0381111561012d5761012d610075565b6101418161013b845461008b565b846100c5565b602080601f831160018114610176576000841561015e5750858301515b600019600386901b1c1916600185901b17855561010b565b600085815260208120601f198616915b828110156101a557888601518255948401946001909101908401610186565b50858210156101c35787850151600019600388901b60f8161c191681555b5050505050600190811b01905550565b6107ff806101e26000396000f3fe6080604052600436106100ab5760003560e01c806370a082311161006457806370a08231146101a357806395d89b41146101d9578063a9059cbb146101ee578063d0e30db01461020e578063dd62ed3e14610216578063e3d670d71461024e57600080fd5b806306fdde03146100bf578063095ea7b3146100ea57806318160ddd1461011a57806323b872dd146101375780632e1a7d4d14610157578063313ce5671461017757600080fd5b366100ba576100b861027b565b005b600080fd5b3480156100cb57600080fd5b506100d46102d6565b6040516100e1919061061c565b60405180910390f35b3480156100f657600080fd5b5061010a610105366004610686565b610364565b60405190151581526020016100e1565b34801561012657600080fd5b50475b6040519081526020016100e1565b34801561014357600080fd5b5061010a6101523660046106b0565b6103d1565b34801561016357600080fd5b506100b86101723660046106ec565b610555565b34801561018357600080fd5b506002546101919060ff1681565b60405160ff90911681526020016100e1565b3480156101af57600080fd5b506101296101be366004610705565b6001600160a01b031660009081526003602052604090205490565b3480156101e557600080fd5b506100d46105fb565b3480156101fa57600080fd5b5061010a610209366004610686565b610608565b6100b861027b565b34801561022257600080fd5b50610129610231366004610720565b600460209081526000928352604080842090915290825290205481565b34801561025a57600080fd5b50610129610269366004610705565b60036020526000908152604090205481565b336000908152600360205260408120805434929061029a908490610769565b909155505060405134815233907fe1fffcc4923d04b559f4d29a8bfc6cda04eb5b0d3c460751c2402c5c5cc9109c9060200160405180910390a2565b600080546102e39061077c565b80601f016020809104026020016040519081016040528092919081815260200182805461030f9061077c565b801561035c5780601f106103315761010080835404028352916020019161035c565b820191906000526020600020905b81548152906001019060200180831161033f57829003601f168201915b505050505081565b3360008181526004602090815260408083206001600160a01b038716808552925280832085905551919290917f8c5be1e5ebec7d5bd14f71427d1e84f3dd0314c0f7b2291e5b200ac8c7c3b925906103bf9086815260200190565b60405180910390a35060015b92915050565b6001600160a01b0383166000908152600360205260408120548211156103f657600080fd5b6001600160a01b038416331480159061043457506001600160a01b038416600090815260046020908152604080832033845290915290205460001914155b156104a2576001600160a01b038416600090815260046020908152604080832033845290915290205482111561046957600080fd5b6001600160a01b03841660009081526004602090815260408083203384529091528120805484929061049c9084906107b6565b90915550505b6001600160a01b038416600090815260036020526040812080548492906104ca9084906107b6565b90915550506001600160a01b038316600090815260036020526040812080548492906104f7908490610769565b92505081905550826001600160a01b0316846001600160a01b03167fddf252ad1be2c89b69c2b068fc378daa952ba7f163c4a11628f55a4df523b3ef8460405161054391815260200190565b60405180910390a35060019392505050565b3360009081526003602052604090205481111561057157600080fd5b33600090815260036020526040812080548392906105909084906107b6565b9091555050604051339082156108fc029083906000818181858888f193505050501580156105c2573d6000803e3d6000fd5b5060405181815233907f7fcf532c15f0a6db0bd6d0e038bea71d30d808c7d98cb3bf7268a95bf5081b659060200160405180910390a250565b600180546102e39061077c565b60006106153384846103d1565b9392505050565b600060208083528351808285015260005b818110156106495785810183015185820160400152820161062d565b506000604082860101526040601f19601f8301168501019250505092915050565b80356001600160a01b038116811461068157600080fd5b919050565b6000806040838503121561069957600080fd5b6106a28361066a565b946020939093013593505050565b6000806000606084860312156106c557600080fd5b6106ce8461066a565b92506106dc6020850161066a565b9150604084013590509250925092565b6000602082840312156106fe57600080fd5b5035919050565b60006020828403121561071757600080fd5b6106158261066a565b6000806040838503121561073357600080fd5b61073c8361066a565b915061074a6020840161066a565b90509250929050565b634e487b7160e01b600052601160045260246000fd5b808201808211156103cb576103cb610753565b600181811c9082168061079057607f821691505b6020821081036107b057634e487b7160e01b600052602260045260246000fd5b50919050565b818103818111156103cb576103cb61075356fea264697066735822122088842a3f386031e197b4c691412bc943fa1a726c4bf1d64e5f2addc61337c2dd64736f6c63430008110033",
    "linkReferences": {}
  },
  "methodIdentifiers": {
    "allowance(address,address)": "dd62ed3e",
    "approve(address,uint256)": "095ea7b3",
    "balance(address)": "e3d670d7",
    "balanceOf(address)": "70a08231",
    "decimals()": "313ce567",
    "deposit()": "d0e30db0",
    "name()": "06fdde03",
    "symbol()": "95d89b41",
    "totalSupply()": "18160ddd",
    "transfer(address,uint256)": "a9059cbb",
    "transferFrom(address,address,uint256)": "23b872dd",
    "withdraw(uint256)": "2e1a7d4d"
  },
  "id": 29
}