{
  "abi": [
    {
      "inputs": [
        {
          "internalType": "address",
          "name": "_owner",
          "type": "address"
        },
        {
          "internalType": "uint256",
          "name": "_maxLen",
          "type": "uint256"
        },
        {
          "internalType": "uint256",
          "name": "_frequency",
          "type": "uint256"
        }
      ],
      "stateMutability": "nonpayable",
      "type": "constructor"
    },
    {
      "anonymous": false,
      "inputs": [
        {
          "indexed": true,
          "internalType": "address",
          "name": "currentOwner",
          "type": "address"
        },
        {
          "indexed": true,
          "internalType": "address",
          "name": "newOwner",
          "type": "address"
        }
      ],
      "name": "OwnershipTransferStarted",
      "type": "event"
    },
    {
      "anonymous": false,
      "inputs": [
        {
          "indexed": true,
          "internalType": "address",
          "name": "previousOwner",
          "type": "address"
        },
        {
          "indexed": true,
          "internalType": "address",
          "name": "newOwner",
          "type": "address"
        }
      ],
      "name": "OwnershipTransferred",
      "type": "event"
    },
    {
      "inputs": [],
      "name": "BLOCKS_PER_YEAR",
      "outputs": [
        {
          "internalType": "uint256",
          "name": "",
          "type": "uint256"
        }
      ],
      "stateMutability": "view",
      "type": "function"
    },
    {
      "inputs": [],
      "name": "acceptOwnership",
      "outputs": [],
      "stateMutability": "nonpayable",
      "type": "function"
    },
    {
      "inputs": [
        {
          "internalType": "address",
          "name": "pool",
          "type": "address"
        }
      ],
      "name": "addPriceInfo",
      "outputs": [],
      "stateMutability": "nonpayable",
      "type": "function"
    },
    {
      "inputs": [],
      "name": "frequency",
      "outputs": [
        {
          "internalType": "uint256",
          "name": "",
          "type": "uint256"
        }
      ],
      "stateMutability": "view",
      "type": "function"
    },
    {
      "inputs": [
        {
          "internalType": "address",
          "name": "pool",
          "type": "address"
        },
        {
          "internalType": "uint256",
          "name": "_frequency",
          "type": "uint256"
        }
      ],
      "name": "getTimeSeries",
      "outputs": [
        {
          "components": [
            {
              "components": [
                {
                  "internalType": "uint256",
                  "name": "timestamp",
                  "type": "uint256"
                },
                {
                  "internalType": "uint256",
                  "name": "blockNumber",
                  "type": "uint256"
                },
                {
                  "internalType": "uint256",
                  "name": "utilRate",
                  "type": "uint256"
                },
                {
                  "internalType": "uint256",
                  "name": "borrowRate",
                  "type": "uint256"
                },
                {
                  "internalType": "uint256",
                  "name": "accFeeIndex",
                  "type": "uint256"
                },
                {
                  "internalType": "uint256",
                  "name": "lastPrice",
                  "type": "uint256"
                },
                {
                  "internalType": "uint256",
                  "name": "indexRate",
                  "type": "uint256"
                }
              ],
              "internalType": "struct IPriceDataQueries.RawData[]",
              "name": "rawData",
              "type": "tuple[]"
            },
            {
              "components": [
                {
                  "internalType": "uint256",
                  "name": "timestamp",
                  "type": "uint256"
                },
                {
                  "internalType": "uint256",
                  "name": "open",
                  "type": "uint256"
                },
                {
                  "internalType": "uint256",
                  "name": "high",
                  "type": "uint256"
                },
                {
                  "internalType": "uint256",
                  "name": "low",
                  "type": "uint256"
                },
                {
                  "internalType": "uint256",
                  "name": "close",
                  "type": "uint256"
                }
              ],
              "internalType": "struct IPriceDataQueries.TimeSeries[]",
              "name": "dailyPrices",
              "type": "tuple[]"
            },
            {
              "components": [
                {
                  "internalType": "uint256",
                  "name": "timestamp",
                  "type": "uint256"
                },
                {
                  "internalType": "uint256",
                  "name": "open",
                  "type": "uint256"
                },
                {
                  "internalType": "uint256",
                  "name": "high",
                  "type": "uint256"
                },
                {
                  "internalType": "uint256",
                  "name": "low",
                  "type": "uint256"
                },
                {
                  "internalType": "uint256",
                  "name": "close",
                  "type": "uint256"
                }
              ],
              "internalType": "struct IPriceDataQueries.TimeSeries[]",
              "name": "utilRates",
              "type": "tuple[]"
            },
            {
              "components": [
                {
                  "internalType": "uint256",
                  "name": "timestamp",
                  "type": "uint256"
                },
                {
                  "internalType": "uint256",
                  "name": "open",
                  "type": "uint256"
                },
                {
                  "internalType": "uint256",
                  "name": "high",
                  "type": "uint256"
                },
                {
                  "internalType": "uint256",
                  "name": "low",
                  "type": "uint256"
                },
                {
                  "internalType": "uint256",
                  "name": "close",
                  "type": "uint256"
                }
              ],
              "internalType": "struct IPriceDataQueries.TimeSeries[]",
              "name": "borrowRates",
              "type": "tuple[]"
            },
            {
              "components": [
                {
                  "internalType": "uint256",
                  "name": "timestamp",
                  "type": "uint256"
                },
                {
                  "internalType": "uint256",
                  "name": "open",
                  "type": "uint256"
                },
                {
                  "internalType": "uint256",
                  "name": "high",
                  "type": "uint256"
                },
                {
                  "internalType": "uint256",
                  "name": "low",
                  "type": "uint256"
                },
                {
                  "internalType": "uint256",
                  "name": "close",
                  "type": "uint256"
                }
              ],
              "internalType": "struct IPriceDataQueries.TimeSeries[]",
              "name": "indexRates",
              "type": "tuple[]"
            }
          ],
          "internalType": "struct IPriceDataQueries.TimeSeriesData",
          "name": "_data",
          "type": "tuple"
        }
      ],
      "stateMutability": "view",
      "type": "function"
    },
    {
      "inputs": [
        {
          "internalType": "address",
          "name": "pool",
          "type": "address"
        },
        {
          "internalType": "uint256",
          "name": "index",
          "type": "uint256"
        }
      ],
      "name": "getTimeSeriesAt",
      "outputs": [
        {
          "components": [
            {
              "internalType": "uint32",
              "name": "timestamp",
              "type": "uint32"
            },
            {
              "internalType": "uint32",
              "name": "blockNumber",
              "type": "uint32"
            },
            {
              "internalType": "uint16",
              "name": "utilRate",
              "type": "uint16"
            },
            {
              "internalType": "uint16",
              "name": "borrowRate",
              "type": "uint16"
            },
            {
              "internalType": "uint64",
              "name": "accFeeIndex",
              "type": "uint64"
            },
            {
              "internalType": "uint96",
              "name": "lastPrice",
              "type": "uint96"
            }
          ],
          "internalType": "struct IPriceStore.PriceInfo",
          "name": "data",
          "type": "tuple"
        }
      ],
      "stateMutability": "view",
      "type": "function"
    },
    {
      "inputs": [],
      "name": "maxLen",
      "outputs": [
        {
          "internalType": "uint256",
          "name": "",
          "type": "uint256"
        }
      ],
      "stateMutability": "view",
      "type": "function"
    },
    {
      "inputs": [],
      "name": "nextTimestamp",
      "outputs": [
        {
          "internalType": "uint256",
          "name": "",
          "type": "uint256"
        }
      ],
      "stateMutability": "view",
      "type": "function"
    },
    {
      "inputs": [],
      "name": "owner",
      "outputs": [
        {
          "internalType": "address",
          "name": "",
          "type": "address"
        }
      ],
      "stateMutability": "view",
      "type": "function"
    },
    {
      "inputs": [],
      "name": "pendingOwner",
      "outputs": [
        {
          "internalType": "address",
          "name": "",
          "type": "address"
        }
      ],
      "stateMutability": "view",
      "type": "function"
    },
    {
      "inputs": [
        {
          "internalType": "uint256",
          "name": "_frequency",
          "type": "uint256"
        }
      ],
      "name": "setFrequency",
      "outputs": [],
      "stateMutability": "nonpayable",
      "type": "function"
    },
    {
      "inputs": [
        {
          "internalType": "uint256",
          "name": "_maxLen",
          "type": "uint256"
        }
      ],
      "name": "setMaxLen",
      "outputs": [],
      "stateMutability": "nonpayable",
      "type": "function"
    },
    {
      "inputs": [
        {
          "internalType": "address",
          "name": "_source",
          "type": "address"
        }
      ],
      "name": "setSource",
      "outputs": [],
      "stateMutability": "nonpayable",
      "type": "function"
    },
    {
      "inputs": [
        {
          "internalType": "address",
          "name": "pool",
          "type": "address"
        }
      ],
      "name": "size",
      "outputs": [
        {
          "internalType": "uint256",
          "name": "",
          "type": "uint256"
        }
      ],
      "stateMutability": "view",
      "type": "function"
    },
    {
      "inputs": [],
      "name": "source",
      "outputs": [
        {
          "internalType": "address",
          "name": "",
          "type": "address"
        }
      ],
      "stateMutability": "view",
      "type": "function"
    },
    {
      "inputs": [
        {
          "internalType": "address",
          "name": "",
          "type": "address"
        },
        {
          "internalType": "uint256",
          "name": "",
          "type": "uint256"
        }
      ],
      "name": "timeSeries",
      "outputs": [
        {
          "internalType": "uint32",
          "name": "timestamp",
          "type": "uint32"
        },
        {
          "internalType": "uint32",
          "name": "blockNumber",
          "type": "uint32"
        },
        {
          "internalType": "uint16",
          "name": "utilRate",
          "type": "uint16"
        },
        {
          "internalType": "uint16",
          "name": "borrowRate",
          "type": "uint16"
        },
        {
          "internalType": "uint64",
          "name": "accFeeIndex",
          "type": "uint64"
        },
        {
          "internalType": "uint96",
          "name": "lastPrice",
          "type": "uint96"
        }
      ],
      "stateMutability": "view",
      "type": "function"
    },
    {
      "inputs": [
        {
          "internalType": "address",
          "name": "newOwner",
          "type": "address"
        }
      ],
      "name": "transferOwnership",
      "outputs": [],
      "stateMutability": "nonpayable",
      "type": "function"
    }
  ],
  "bytecode": {
    "object": "0x608060405234801561001057600080fd5b5060405161167f38038061167f83398101604081905261002f91610081565b600080546001600160a01b0319166001600160a01b038516179055600482905582828261005b8161006a565b600655506100c4945050505050565b60008160000361007d5750610e10919050565b5090565b60008060006060848603121561009657600080fd5b83516001600160a01b03811681146100ad57600080fd5b602085015160409095015190969495509392505050565b6115ac806100d36000396000f3fe608060405234801561001057600080fd5b506004361061010b5760003560e01c8063a8026912116100a2578063ead50da311610071578063ead50da31461026e578063ee8557b814610277578063f2fde38b1461028a578063f426f03a1461029d578063f6bcf1a7146102b057600080fd5b8063a80269121461022c578063cba1c6651461023f578063d37db1d214610252578063e30c39781461025b57600080fd5b806379ba5097116100de57806379ba509714610184578063889870681461018e5780638da5cb5b146101b757806399caa23e146101ca57600080fd5b8063138f300314610110578063357e951f14610139578063583e10551461015057806367e828bf14610159575b600080fd5b61012361011e366004611240565b610335565b60405161013091906112cf565b60405180910390f35b61014260055481565b604051908152602001610130565b61014260045481565b60035461016c906001600160a01b031681565b6040516001600160a01b039091168152602001610130565b61018c610806565b005b61014261019c3660046113d2565b6001600160a01b031660009081526002602052604090205490565b60005461016c906001600160a01b031681565b6101dd6101d8366004611240565b6108aa565b6040805163ffffffff978816815296909516602087015261ffff93841694860194909452911660608401526001600160401b031660808301526001600160601b031660a082015260c001610130565b61018c61023a3660046113d2565b610924565b61018c61024d3660046113f4565b61094e565b61014260075481565b60015461016c906001600160a01b031681565b61014260065481565b61018c6102853660046113d2565b61095b565b61018c6102983660046113d2565b610c29565b61018c6102ab3660046113f4565b610cc6565b6102c36102be366004611240565b610cdd565b6040516101309190600060c08201905063ffffffff80845116835280602085015116602084015250604083015161ffff808216604085015280606086015116606085015250506001600160401b0360808401511660808301526001600160601b0360a08401511660a083015292915050565b6103676040518060a0016040528060608152602001606081526020016060815260200160608152602001606081525090565b600182101580610378575060188211155b6103b55760405162461bcd60e51b81526020600482015260096024820152684652455155454e435960b81b60448201526064015b60405180910390fd5b6001600160a01b03831660009081526002602052604081205460045481908115806103e05750600454155b156103ee5750505050610800565b8082106103fe5780925080820393505b6104118361040c8882611423565b610dbc565b610e1090960295945050508101600080808080865b868110156107f7576001600160a01b038b16600090815260026020526040812080548390811061045857610458611445565b60009182526020918290206040805160c081018252929091015463ffffffff808216845264010000000082041693830193909352600160401b830461ffff90811691830191909152600160501b8304166060820152600160601b82046001600160401b03166080820152600160a01b9091046001600160601b031660a082015290506104e381610fe8565b8a518051869081106104f7576104f7611445565b602002602001018190525088820361053857608081015161051b90620f424061145b565b6001600160401b03169650806020015163ffffffff1695506107ea565b60006105458888846110a1565b90508160800151620f424061055a919061145b565b6001600160401b03169750816020015163ffffffff169650808b60000151868151811061058957610589611445565b602090810291909101015160c00152815163ffffffff1686116106aa5785156105b3576001909301925b81516000908d906105ca9063ffffffff1682611486565b6105d49190611423565b90508c810196506105f2818460a001516001600160601b0316611128565b8c60200151868151811061060857610608611445565b602002602001018190525061062581846060015161ffff16611128565b8c60600151868151811061063b5761063b611445565b602002602001018190525061065881846040015161ffff16611128565b8c60400151868151811061066e5761066e611445565b60200260200101819052506106838183611128565b8c60800151868151811061069957610699611445565b6020026020010181905250506107e8565b6106de8b6020015185815181106106c3576106c3611445565b60200260200101518360a001516001600160601b0316611159565b8b6020015185815181106106f4576106f4611445565b602002602001018190525061072e8b60600151858151811061071857610718611445565b6020026020010151836060015161ffff16611159565b8b60600151858151811061074457610744611445565b602002602001018190525061077e8b60400151858151811061076857610768611445565b6020026020010151836040015161ffff16611159565b8b60400151858151811061079457610794611445565b60200260200101819052506107c68b6080015185815181106107b8576107b8611445565b602002602001015182611159565b8b6080015185815181106107dc576107dc611445565b60200260200101819052505b505b5060019283019201610426565b50505050505050505b92915050565b60015433906001600160a01b031681146108505760405162461bcd60e51b815260206004820152600b60248201526a2737ba2732bba7bbb732b960a91b60448201526064016103ac565b600080546001600160a01b038381166001600160a01b031980841682178555600180549091169055604051919092169283917f8be0079c531659141344cd1fd0a4f28419497f9722a3daafe3b4186f6b6457e09190a35050565b600260205281600052604060002081815481106108c657600080fd5b60009182526020909120015463ffffffff8082169350640100000000820416915061ffff600160401b8204811691600160501b8104909116906001600160401b03600160601b820416906001600160601b03600160a01b9091041686565b61092c611196565b600380546001600160a01b0319166001600160a01b0392909216919091179055565b610956611196565b600455565b6003546001600160a01b0316331461099e5760405162461bcd60e51b8152602060048201526006602482015265534f5552434560d01b60448201526064016103ac565b6005544290808210156109b057505050565b6006546000816109c08186611423565b6109ca9190611486565b90506109d6828261149d565b6005819055506000856001600160a01b031663871a78d26040518163ffffffff1660e01b815260040161010060405180830381865afa158015610a1d573d6000803e3d6000fd5b505050506040513d601f19601f82011682018060405250810190610a4191906114c6565b905060006040518060c001604052808463ffffffff1681526020018360c0015163ffffffff168152602001655af3107a40008460800151610a829190611423565b61ffff168152602001662386f26fc100008460600151610aa29190611423565b61ffff168152602001620f42408460000151610abe9190611423565b6001600160401b0316815260e08401516001600160601b03166020918201526001600160a01b038916600090815260029091526040902054600454919250908110610b44576001600160a01b0388166000908152600260205260409020600454610b289083611563565b81548110610b3857610b38611445565b60009182526020822001555b506001600160a01b03968716600090815260026020908152604080832080546001810182559084529282902084519301805492850151918501516060860151608087015160a0909701516001600160601b03908116600160a01b026001600160401b03909816600160601b02909d1661ffff918216600160501b0261ffff60501b1992909316600160401b02919091166bffffffff00000000000000001963ffffffff9586166401000000000267ffffffffffffffff199097169590971694909417949094179490941691909117929092179890981697909717179095555050505050565b610c31611196565b6001600160a01b038116610c755760405162461bcd60e51b815260206004820152600b60248201526a5a65726f4164647265737360a81b60448201526064016103ac565b600180546001600160a01b0319166001600160a01b0383811691821790925560008054604051929316917f38d16b8cac22d99fc7c124b9cd0de2d3fa1faef420bfe791d8c362d765e227009190a350565b610cce611196565b610cd7816111de565b60065550565b6040805160c08101825260008082526020808301829052828401829052606083018290526080830182905260a083018290526001600160a01b03861682526002905291909120805483908110610d3557610d35611445565b60009182526020918290206040805160c081018252929091015463ffffffff808216845264010000000082041693830193909352600160401b830461ffff90811691830191909152600160501b8304166060820152600160601b82046001600160401b03166080820152600160a01b9091046001600160601b031660a08201529392505050565b610dee6040518060a0016040528060608152602001606081526020016060815260200160608152602001606081525090565b6040518060a00160405280846001600160401b03811115610e1157610e116114b0565b604051908082528060200260200182016040528015610e8257816020015b610e6f6040518060e00160405280600081526020016000815260200160008152602001600081526020016000815260200160008152602001600081525090565b815260200190600190039081610e2f5790505b508152602001836001600160401b03811115610ea057610ea06114b0565b604051908082528060200260200182016040528015610ed957816020015b610ec66111f5565b815260200190600190039081610ebe5790505b508152602001836001600160401b03811115610ef757610ef76114b0565b604051908082528060200260200182016040528015610f3057816020015b610f1d6111f5565b815260200190600190039081610f155790505b508152602001836001600160401b03811115610f4e57610f4e6114b0565b604051908082528060200260200182016040528015610f8757816020015b610f746111f5565b815260200190600190039081610f6c5790505b508152602001836001600160401b03811115610fa557610fa56114b0565b604051908082528060200260200182016040528015610fde57816020015b610fcb6111f5565b815260200190600190039081610fc35790505b5090529392505050565b6110286040518060e00160405280600081526020016000815260200160008152602001600081526020016000815260200160008152602001600081525090565b6040518060e00160405280836000015163ffffffff168152602001836020015163ffffffff168152602001836040015161ffff168152602001836060015161ffff16815260200183608001516001600160401b031681526020018360a001516001600160601b0316815260200160008152509050919050565b600080670de0b6b3a7640000858460800151620f42406110c1919061145b565b6110d390670de0b6b3a764000061145b565b6001600160401b03166110e69190611423565b6110f09190611563565b905083836020015163ffffffff166111089190611563565b6007546111159083611486565b61111f9190611423565b95945050505050565b6111306111f5565b506040805160a08101825292835260208301829052820181905260608201819052608082015290565b6111616111f5565b8260400151821115611179576040830182905261118d565b826060015182101561118d57606083018290525b50608082015290565b6000546001600160a01b031633146111dc5760405162461bcd60e51b81526020600482015260096024820152682337b93134b23232b760b91b60448201526064016103ac565b565b6000816000036111f15750610e10919050565b5090565b6040518060a0016040528060008152602001600081526020016000815260200160008152602001600081525090565b80356001600160a01b038116811461123b57600080fd5b919050565b6000806040838503121561125357600080fd5b61125c83611224565b946020939093013593505050565b600081518084526020808501945080840160005b838110156112c457815180518852838101518489015260408082015190890152606080820151908901526080908101519088015260a0909601959082019060010161127e565b509495945050505050565b6000602080835260c0808401855160a0808588015282825180855260e094508489019150868401935060005b8181101561134e57845180518452888101518985015260408082015190850152606080820151908501526080808201519085015284810151858501528701518784015293870193918501916001016112fb565b5050858901519550601f1994508488820301604089015261136f818761126a565b955050604088015192508387860301606088015261138d858461126a565b945060608801519250838786030160808801526113aa858461126a565b94506080880151925083878603018188015250506113c8838261126a565b9695505050505050565b6000602082840312156113e457600080fd5b6113ed82611224565b9392505050565b60006020828403121561140657600080fd5b5035919050565b634e487b7160e01b600052601160045260246000fd5b60008261144057634e487b7160e01b600052601260045260246000fd5b500490565b634e487b7160e01b600052603260045260246000fd5b6001600160401b0381811683821602808216919082811461147e5761147e61140d565b505092915050565b80820281158282048414176108005761080061140d565b808201808211156108005761080061140d565b634e487b7160e01b600052604160045260246000fd5b60006101008083850312156114da57600080fd5b604051908101906001600160401b038211818310171561150a57634e487b7160e01b600052604160045260246000fd5b81604052835181526020840151602082015260408401516040820152606084015160608201526080840151608082015260a084015160a082015260c084015160c082015260e084015160e0820152809250505092915050565b818103818111156108005761080061140d56fea2646970667358221220a7ee24959e270afde752e4d6477575731d4d1264ffddf7e7155f3a91fc4aa4d264736f6c63430008110033",
    "linkReferences": {}
  },
  "methodIdentifiers": {
    "BLOCKS_PER_YEAR()": "d37db1d2",
    "acceptOwnership()": "79ba5097",
    "addPriceInfo(address)": "ee8557b8",
    "frequency()": "ead50da3",
    "getTimeSeries(address,uint256)": "138f3003",
    "getTimeSeriesAt(address,uint256)": "f6bcf1a7",
    "maxLen()": "583e1055",
    "nextTimestamp()": "357e951f",
    "owner()": "8da5cb5b",
    "pendingOwner()": "e30c3978",
    "setFrequency(uint256)": "f426f03a",
    "setMaxLen(uint256)": "cba1c665",
    "setSource(address)": "a8026912",
    "size(address)": "88987068",
    "source()": "67e828bf",
    "timeSeries(address,uint256)": "99caa23e",
    "transferOwnership(address)": "f2fde38b"
  },
  "id": 2
}