{
  "abi": [
    {
      "inputs": [
        {
          "internalType": "uint16",
          "name": "_protocolId",
          "type": "uint16"
        },
        {
          "internalType": "address",
          "name": "_factory",
          "type": "address"
        },
        {
          "internalType": "address",
          "name": "_longStrategy",
          "type": "address"
        },
        {
          "internalType": "address",
          "name": "_shortStrategy",
          "type": "address"
        },
        {
          "internalType": "address",
          "name": "_liquidationStrategy",
          "type": "address"
        }
      ],
      "stateMutability": "nonpayable",
      "type": "constructor"
    },
    {
      "anonymous": false,
      "inputs": [
        {
          "indexed": true,
          "internalType": "address",
          "name": "owner",
          "type": "address"
        },
        {
          "indexed": true,
          "internalType": "address",
          "name": "spender",
          "type": "address"
        },
        {
          "indexed": false,
          "internalType": "uint256",
          "name": "amount",
          "type": "uint256"
        }
      ],
      "name": "Approval",
      "type": "event"
    },
    {
      "anonymous": false,
      "inputs": [
        {
          "indexed": true,
          "internalType": "address",
          "name": "caller",
          "type": "address"
        },
        {
          "indexed": true,
          "internalType": "address",
          "name": "to",
          "type": "address"
        },
        {
          "indexed": false,
          "internalType": "uint256",
          "name": "assets",
          "type": "uint256"
        },
        {
          "indexed": false,
          "internalType": "uint256",
          "name": "shares",
          "type": "uint256"
        }
      ],
      "name": "Deposit",
      "type": "event"
    },
    {
      "anonymous": false,
      "inputs": [
        {
          "indexed": true,
          "internalType": "uint256",
          "name": "tokenId",
          "type": "uint256"
        },
        {
          "indexed": false,
          "internalType": "uint128[]",
          "name": "amounts",
          "type": "uint128[]"
        },
        {
          "indexed": false,
          "internalType": "uint256",
          "name": "lpTokens",
          "type": "uint256"
        },
        {
          "indexed": false,
          "internalType": "uint128",
          "name": "liquidity",
          "type": "uint128"
        },
        {
          "indexed": true,
          "internalType": "enum IStrategyEvents.TX_TYPE",
          "name": "txType",
          "type": "uint8"
        }
      ],
      "name": "ExternalSwap",
      "type": "event"
    },
    {
      "anonymous": false,
      "inputs": [
        {
          "indexed": true,
          "internalType": "uint256",
          "name": "tokenId",
          "type": "uint256"
        },
        {
          "indexed": false,
          "internalType": "uint128",
          "name": "collateral",
          "type": "uint128"
        },
        {
          "indexed": false,
          "internalType": "uint128",
          "name": "liquidity",
          "type": "uint128"
        },
        {
          "indexed": false,
          "internalType": "uint128",
          "name": "writeDownAmt",
          "type": "uint128"
        },
        {
          "indexed": false,
          "internalType": "enum IStrategyEvents.TX_TYPE",
          "name": "txType",
          "type": "uint8"
        },
        {
          "indexed": false,
          "internalType": "uint256[]",
          "name": "tokenIds",
          "type": "uint256[]"
        }
      ],
      "name": "Liquidation",
      "type": "event"
    },
    {
      "anonymous": false,
      "inputs": [
        {
          "indexed": true,
          "internalType": "address",
          "name": "caller",
          "type": "address"
        },
        {
          "indexed": false,
          "internalType": "uint256",
          "name": "tokenId",
          "type": "uint256"
        }
      ],
      "name": "LoanCreated",
      "type": "event"
    },
    {
      "anonymous": false,
      "inputs": [
        {
          "indexed": true,
          "internalType": "uint256",
          "name": "tokenId",
          "type": "uint256"
        },
        {
          "indexed": false,
          "internalType": "uint128[]",
          "name": "tokensHeld",
          "type": "uint128[]"
        },
        {
          "indexed": false,
          "internalType": "uint128",
          "name": "liquidity",
          "type": "uint128"
        },
        {
          "indexed": false,
          "internalType": "uint128",
          "name": "initLiquidity",
          "type": "uint128"
        },
        {
          "indexed": false,
          "internalType": "uint256",
          "name": "lpTokens",
          "type": "uint256"
        },
        {
          "indexed": false,
          "internalType": "uint96",
          "name": "rateIndex",
          "type": "uint96"
        },
        {
          "indexed": true,
          "internalType": "enum IStrategyEvents.TX_TYPE",
          "name": "txType",
          "type": "uint8"
        }
      ],
      "name": "LoanUpdated",
      "type": "event"
    },
    {
      "anonymous": false,
      "inputs": [
        {
          "indexed": false,
          "internalType": "uint256",
          "name": "lpTokenBalance",
          "type": "uint256"
        },
        {
          "indexed": false,
          "internalType": "uint256",
          "name": "lpTokenBorrowed",
          "type": "uint256"
        },
        {
          "indexed": false,
          "internalType": "uint48",
          "name": "lastBlockNumber",
          "type": "uint48"
        },
        {
          "indexed": false,
          "internalType": "uint96",
          "name": "accFeeIndex",
          "type": "uint96"
        },
        {
          "indexed": false,
          "internalType": "uint256",
          "name": "lpTokenBorrowedPlusInterest",
          "type": "uint256"
        },
        {
          "indexed": false,
          "internalType": "uint128",
          "name": "lpInvariant",
          "type": "uint128"
        },
        {
          "indexed": false,
          "internalType": "uint128",
          "name": "borrowedInvariant",
          "type": "uint128"
        },
        {
          "indexed": false,
          "internalType": "uint128[]",
          "name": "cfmmReserves",
          "type": "uint128[]"
        },
        {
          "indexed": true,
          "internalType": "enum IStrategyEvents.TX_TYPE",
          "name": "txType",
          "type": "uint8"
        }
      ],
      "name": "PoolUpdated",
      "type": "event"
    },
    {
      "anonymous": false,
      "inputs": [
        {
          "indexed": true,
          "internalType": "address",
          "name": "from",
          "type": "address"
        },
        {
          "indexed": true,
          "internalType": "address",
          "name": "to",
          "type": "address"
        },
        {
          "indexed": false,
          "internalType": "uint256",
          "name": "amount",
          "type": "uint256"
        }
      ],
      "name": "Transfer",
      "type": "event"
    },
    {
      "anonymous": false,
      "inputs": [
        {
          "indexed": true,
          "internalType": "address",
          "name": "caller",
          "type": "address"
        },
        {
          "indexed": true,
          "internalType": "address",
          "name": "to",
          "type": "address"
        },
        {
          "indexed": true,
          "internalType": "address",
          "name": "from",
          "type": "address"
        },
        {
          "indexed": false,
          "internalType": "uint256",
          "name": "assets",
          "type": "uint256"
        },
        {
          "indexed": false,
          "internalType": "uint256",
          "name": "shares",
          "type": "uint256"
        }
      ],
      "name": "Withdraw",
      "type": "event"
    },
    {
      "inputs": [],
      "name": "accFeeIndex",
      "outputs": [
        {
          "internalType": "uint256",
          "name": "",
          "type": "uint256"
        }
      ],
      "stateMutability": "view",
      "type": "function"
    },
    {
      "inputs": [
        {
          "internalType": "address",
          "name": "owner",
          "type": "address"
        },
        {
          "internalType": "address",
          "name": "spender",
          "type": "address"
        }
      ],
      "name": "allowance",
      "outputs": [
        {
          "internalType": "uint256",
          "name": "",
          "type": "uint256"
        }
      ],
      "stateMutability": "view",
      "type": "function"
    },
    {
      "inputs": [
        {
          "internalType": "address",
          "name": "spender",
          "type": "address"
        },
        {
          "internalType": "uint256",
          "name": "amount",
          "type": "uint256"
        }
      ],
      "name": "approve",
      "outputs": [
        {
          "internalType": "bool",
          "name": "",
          "type": "bool"
        }
      ],
      "stateMutability": "nonpayable",
      "type": "function"
    },
    {
      "inputs": [
        {
          "internalType": "address",
          "name": "account",
          "type": "address"
        }
      ],
      "name": "balanceOf",
      "outputs": [
        {
          "internalType": "uint256",
          "name": "",
          "type": "uint256"
        }
      ],
      "stateMutability": "view",
      "type": "function"
    },
    {
      "inputs": [
        {
          "internalType": "uint256[]",
          "name": "",
          "type": "uint256[]"
        }
      ],
      "name": "batchLiquidations",
      "outputs": [
        {
          "internalType": "uint256",
          "name": "totalLoanLiquidity",
          "type": "uint256"
        },
        {
          "internalType": "uint256",
          "name": "totalCollateral",
          "type": "uint256"
        },
        {
          "internalType": "uint256[]",
          "name": "refund",
          "type": "uint256[]"
        }
      ],
      "stateMutability": "nonpayable",
      "type": "function"
    },
    {
      "inputs": [
        {
          "internalType": "uint256",
          "name": "",
          "type": "uint256"
        },
        {
          "internalType": "uint256",
          "name": "",
          "type": "uint256"
        }
      ],
      "name": "borrowLiquidity",
      "outputs": [
        {
          "internalType": "uint256",
          "name": "liquidityBorrowed",
          "type": "uint256"
        },
        {
          "internalType": "uint256[]",
          "name": "amounts",
          "type": "uint256[]"
        }
      ],
      "stateMutability": "nonpayable",
      "type": "function"
    },
    {
      "inputs": [],
      "name": "borrowRate",
      "outputs": [
        {
          "internalType": "uint256",
          "name": "",
          "type": "uint256"
        }
      ],
      "stateMutability": "view",
      "type": "function"
    },
    {
      "inputs": [],
      "name": "cfmm",
      "outputs": [
        {
          "internalType": "address",
          "name": "",
          "type": "address"
        }
      ],
      "stateMutability": "view",
      "type": "function"
    },
    {
      "inputs": [],
      "name": "createLoan",
      "outputs": [
        {
          "internalType": "uint256",
          "name": "tokenId",
          "type": "uint256"
        }
      ],
      "stateMutability": "nonpayable",
      "type": "function"
    },
    {
      "inputs": [],
      "name": "decimals",
      "outputs": [
        {
          "internalType": "uint8",
          "name": "",
          "type": "uint8"
        }
      ],
      "stateMutability": "view",
      "type": "function"
    },
    {
      "inputs": [
        {
          "internalType": "uint256",
          "name": "",
          "type": "uint256"
        }
      ],
      "name": "decimals_",
      "outputs": [
        {
          "internalType": "uint8",
          "name": "",
          "type": "uint8"
        }
      ],
      "stateMutability": "view",
      "type": "function"
    },
    {
      "inputs": [
        {
          "internalType": "address",
          "name": "spender",
          "type": "address"
        },
        {
          "internalType": "uint256",
          "name": "subtractedValue",
          "type": "uint256"
        }
      ],
      "name": "decreaseAllowance",
      "outputs": [
        {
          "internalType": "bool",
          "name": "",
          "type": "bool"
        }
      ],
      "stateMutability": "nonpayable",
      "type": "function"
    },
    {
      "inputs": [
        {
          "internalType": "uint256",
          "name": "",
          "type": "uint256"
        },
        {
          "internalType": "uint256[]",
          "name": "",
          "type": "uint256[]"
        },
        {
          "internalType": "address",
          "name": "",
          "type": "address"
        }
      ],
      "name": "decreaseCollateral",
      "outputs": [
        {
          "internalType": "uint128[]",
          "name": "tokensHeld",
          "type": "uint128[]"
        }
      ],
      "stateMutability": "nonpayable",
      "type": "function"
    },
    {
      "inputs": [
        {
          "internalType": "address",
          "name": "",
          "type": "address"
        }
      ],
      "name": "depositNoPull",
      "outputs": [
        {
          "internalType": "uint256",
          "name": "shares",
          "type": "uint256"
        }
      ],
      "stateMutability": "nonpayable",
      "type": "function"
    },
    {
      "inputs": [
        {
          "internalType": "address",
          "name": "to",
          "type": "address"
        },
        {
          "internalType": "uint256[]",
          "name": "",
          "type": "uint256[]"
        },
        {
          "internalType": "uint256[]",
          "name": "",
          "type": "uint256[]"
        },
        {
          "internalType": "bytes",
          "name": "",
          "type": "bytes"
        }
      ],
      "name": "depositReserves",
      "outputs": [
        {
          "internalType": "uint256[]",
          "name": "reserves",
          "type": "uint256[]"
        },
        {
          "internalType": "uint256",
          "name": "shares",
          "type": "uint256"
        }
      ],
      "stateMutability": "nonpayable",
      "type": "function"
    },
    {
      "inputs": [],
      "name": "factory",
      "outputs": [
        {
          "internalType": "address",
          "name": "",
          "type": "address"
        }
      ],
      "stateMutability": "view",
      "type": "function"
    },
    {
      "inputs": [],
      "name": "getCFMMBalances",
      "outputs": [
        {
          "internalType": "uint128[]",
          "name": "cfmmReserves",
          "type": "uint128[]"
        },
        {
          "internalType": "uint256",
          "name": "cfmmInvariant",
          "type": "uint256"
        },
        {
          "internalType": "uint256",
          "name": "cfmmTotalSupply",
          "type": "uint256"
        }
      ],
      "stateMutability": "view",
      "type": "function"
    },
    {
      "inputs": [],
      "name": "getConstantPoolData",
      "outputs": [
        {
          "components": [
            {
              "internalType": "address",
              "name": "poolId",
              "type": "address"
            },
            {
              "internalType": "uint16",
              "name": "protocolId",
              "type": "uint16"
            },
            {
              "internalType": "address",
              "name": "longStrategy",
              "type": "address"
            },
            {
              "internalType": "address",
              "name": "shortStrategy",
              "type": "address"
            },
            {
              "internalType": "address",
              "name": "liquidationStrategy",
              "type": "address"
            },
            {
              "internalType": "address",
              "name": "factory",
              "type": "address"
            },
            {
              "internalType": "uint256",
              "name": "LP_TOKEN_BALANCE",
              "type": "uint256"
            },
            {
              "internalType": "uint256",
              "name": "LP_TOKEN_BORROWED",
              "type": "uint256"
            },
            {
              "internalType": "uint256",
              "name": "LP_TOKEN_BORROWED_PLUS_INTEREST",
              "type": "uint256"
            },
            {
              "internalType": "uint128",
              "name": "BORROWED_INVARIANT",
              "type": "uint128"
            },
            {
              "internalType": "uint128",
              "name": "LP_INVARIANT",
              "type": "uint128"
            },
            {
              "internalType": "address",
              "name": "cfmm",
              "type": "address"
            },
            {
              "internalType": "uint96",
              "name": "accFeeIndex",
              "type": "uint96"
            },
            {
              "internalType": "uint48",
              "name": "LAST_BLOCK_NUMBER",
              "type": "uint48"
            },
            {
              "internalType": "uint80",
              "name": "lastCFMMFeeIndex",
              "type": "uint80"
            },
            {
              "internalType": "uint128",
              "name": "lastCFMMInvariant",
              "type": "uint128"
            },
            {
              "internalType": "uint256",
              "name": "lastCFMMTotalSupply",
              "type": "uint256"
            },
            {
              "internalType": "uint256",
              "name": "totalSupply",
              "type": "uint256"
            },
            {
              "internalType": "address[]",
              "name": "tokens",
              "type": "address[]"
            },
            {
              "internalType": "string[]",
              "name": "symbols",
              "type": "string[]"
            },
            {
              "internalType": "string[]",
              "name": "names",
              "type": "string[]"
            },
            {
              "internalType": "uint8[]",
              "name": "decimals",
              "type": "uint8[]"
            },
            {
              "internalType": "uint128[]",
              "name": "TOKEN_BALANCE",
              "type": "uint128[]"
            },
            {
              "internalType": "uint128[]",
              "name": "CFMM_RESERVES",
              "type": "uint128[]"
            },
            {
              "internalType": "uint256",
              "name": "lastPrice",
              "type": "uint256"
            },
            {
              "internalType": "uint256",
              "name": "lastFeeIndex",
              "type": "uint256"
            },
            {
              "internalType": "uint256",
              "name": "borrowRate",
              "type": "uint256"
            },
            {
              "internalType": "uint256",
              "name": "utilizationRate",
              "type": "uint256"
            },
            {
              "internalType": "uint48",
              "name": "currBlockNumber",
              "type": "uint48"
            }
          ],
          "internalType": "struct IGammaPool.PoolData",
          "name": "data",
          "type": "tuple"
        }
      ],
      "stateMutability": "view",
      "type": "function"
    },
    {
      "inputs": [],
      "name": "getLastCFMMPrice",
      "outputs": [
        {
          "internalType": "uint256",
          "name": "",
          "type": "uint256"
        }
      ],
      "stateMutability": "view",
      "type": "function"
    },
    {
      "inputs": [],
      "name": "getLatestCFMMBalances",
      "outputs": [
        {
          "internalType": "uint128[]",
          "name": "cfmmReserves",
          "type": "uint128[]"
        },
        {
          "internalType": "uint256",
          "name": "cfmmInvariant",
          "type": "uint256"
        },
        {
          "internalType": "uint256",
          "name": "cfmmTotalSupply",
          "type": "uint256"
        }
      ],
      "stateMutability": "view",
      "type": "function"
    },
    {
      "inputs": [],
      "name": "getLatestCFMMReserves",
      "outputs": [
        {
          "internalType": "uint128[]",
          "name": "cfmmReserves",
          "type": "uint128[]"
        }
      ],
      "stateMutability": "view",
      "type": "function"
    },
    {
      "inputs": [],
      "name": "getLatestPoolData",
      "outputs": [
        {
          "components": [
            {
              "internalType": "address",
              "name": "poolId",
              "type": "address"
            },
            {
              "internalType": "uint16",
              "name": "protocolId",
              "type": "uint16"
            },
            {
              "internalType": "address",
              "name": "longStrategy",
              "type": "address"
            },
            {
              "internalType": "address",
              "name": "shortStrategy",
              "type": "address"
            },
            {
              "internalType": "address",
              "name": "liquidationStrategy",
              "type": "address"
            },
            {
              "internalType": "address",
              "name": "factory",
              "type": "address"
            },
            {
              "internalType": "uint256",
              "name": "LP_TOKEN_BALANCE",
              "type": "uint256"
            },
            {
              "internalType": "uint256",
              "name": "LP_TOKEN_BORROWED",
              "type": "uint256"
            },
            {
              "internalType": "uint256",
              "name": "LP_TOKEN_BORROWED_PLUS_INTEREST",
              "type": "uint256"
            },
            {
              "internalType": "uint128",
              "name": "BORROWED_INVARIANT",
              "type": "uint128"
            },
            {
              "internalType": "uint128",
              "name": "LP_INVARIANT",
              "type": "uint128"
            },
            {
              "internalType": "address",
              "name": "cfmm",
              "type": "address"
            },
            {
              "internalType": "uint96",
              "name": "accFeeIndex",
              "type": "uint96"
            },
            {
              "internalType": "uint48",
              "name": "LAST_BLOCK_NUMBER",
              "type": "uint48"
            },
            {
              "internalType": "uint80",
              "name": "lastCFMMFeeIndex",
              "type": "uint80"
            },
            {
              "internalType": "uint128",
              "name": "lastCFMMInvariant",
              "type": "uint128"
            },
            {
              "internalType": "uint256",
              "name": "lastCFMMTotalSupply",
              "type": "uint256"
            },
            {
              "internalType": "uint256",
              "name": "totalSupply",
              "type": "uint256"
            },
            {
              "internalType": "address[]",
              "name": "tokens",
              "type": "address[]"
            },
            {
              "internalType": "string[]",
              "name": "symbols",
              "type": "string[]"
            },
            {
              "internalType": "string[]",
              "name": "names",
              "type": "string[]"
            },
            {
              "internalType": "uint8[]",
              "name": "decimals",
              "type": "uint8[]"
            },
            {
              "internalType": "uint128[]",
              "name": "TOKEN_BALANCE",
              "type": "uint128[]"
            },
            {
              "internalType": "uint128[]",
              "name": "CFMM_RESERVES",
              "type": "uint128[]"
            },
            {
              "internalType": "uint256",
              "name": "lastPrice",
              "type": "uint256"
            },
            {
              "internalType": "uint256",
              "name": "lastFeeIndex",
              "type": "uint256"
            },
            {
              "internalType": "uint256",
              "name": "borrowRate",
              "type": "uint256"
            },
            {
              "internalType": "uint256",
              "name": "utilizationRate",
              "type": "uint256"
            },
            {
              "internalType": "uint48",
              "name": "currBlockNumber",
              "type": "uint48"
            }
          ],
          "internalType": "struct IGammaPool.PoolData",
          "name": "data",
          "type": "tuple"
        }
      ],
      "stateMutability": "view",
      "type": "function"
    },
    {
      "inputs": [],
      "name": "getLatestRates",
      "outputs": [
        {
          "components": [
            {
              "internalType": "uint256",
              "name": "accFeeIndex",
              "type": "uint256"
            },
            {
              "internalType": "uint256",
              "name": "lastCFMMFeeIndex",
              "type": "uint256"
            },
            {
              "internalType": "uint256",
              "name": "lastFeeIndex",
              "type": "uint256"
            },
            {
              "internalType": "uint256",
              "name": "borrowRate",
              "type": "uint256"
            },
            {
              "internalType": "uint256",
              "name": "utilizationRate",
              "type": "uint256"
            },
            {
              "internalType": "uint256",
              "name": "lastBlockNumber",
              "type": "uint256"
            },
            {
              "internalType": "uint256",
              "name": "currBlockNumber",
              "type": "uint256"
            },
            {
              "internalType": "uint256",
              "name": "lastPrice",
              "type": "uint256"
            }
          ],
          "internalType": "struct IGammaPool.RateData",
          "name": "data",
          "type": "tuple"
        }
      ],
      "stateMutability": "view",
      "type": "function"
    },
    {
      "inputs": [],
      "name": "getLoanCount",
      "outputs": [
        {
          "internalType": "uint256",
          "name": "",
          "type": "uint256"
        }
      ],
      "stateMutability": "view",
      "type": "function"
    },
    {
      "inputs": [
        {
          "internalType": "uint256",
          "name": "",
          "type": "uint256"
        },
        {
          "internalType": "uint256",
          "name": "",
          "type": "uint256"
        }
      ],
      "name": "getLoans",
      "outputs": [
        {
          "components": [
            {
              "internalType": "uint256",
              "name": "id",
              "type": "uint256"
            },
            {
              "internalType": "uint256",
              "name": "tokenId",
              "type": "uint256"
            },
            {
              "internalType": "address",
              "name": "poolId",
              "type": "address"
            },
            {
              "internalType": "uint96",
              "name": "rateIndex",
              "type": "uint96"
            },
            {
              "internalType": "uint128",
              "name": "initLiquidity",
              "type": "uint128"
            },
            {
              "internalType": "uint128",
              "name": "liquidity",
              "type": "uint128"
            },
            {
              "internalType": "uint256",
              "name": "lpTokens",
              "type": "uint256"
            },
            {
              "internalType": "uint128[]",
              "name": "tokensHeld",
              "type": "uint128[]"
            },
            {
              "internalType": "uint256",
              "name": "px",
              "type": "uint256"
            },
            {
              "internalType": "address[]",
              "name": "tokens",
              "type": "address[]"
            },
            {
              "internalType": "uint8[]",
              "name": "decimals",
              "type": "uint8[]"
            },
            {
              "internalType": "string[]",
              "name": "symbols",
              "type": "string[]"
            },
            {
              "internalType": "string[]",
              "name": "names",
              "type": "string[]"
            }
          ],
          "internalType": "struct IGammaPool.LoanData[]",
          "name": "_loans",
          "type": "tuple[]"
        }
      ],
      "stateMutability": "view",
      "type": "function"
    },
    {
      "inputs": [],
      "name": "getPoolBalances",
      "outputs": [
        {
          "internalType": "uint128[]",
          "name": "tokenBalances",
          "type": "uint128[]"
        },
        {
          "internalType": "uint256",
          "name": "lpTokenBalance",
          "type": "uint256"
        },
        {
          "internalType": "uint256",
          "name": "lpTokenBorrowed",
          "type": "uint256"
        },
        {
          "internalType": "uint256",
          "name": "lpTokenBorrowedPlusInterest",
          "type": "uint256"
        },
        {
          "internalType": "uint256",
          "name": "borrowedInvariant",
          "type": "uint256"
        },
        {
          "internalType": "uint256",
          "name": "lpInvariant",
          "type": "uint256"
        }
      ],
      "stateMutability": "view",
      "type": "function"
    },
    {
      "inputs": [],
      "name": "getPoolData",
      "outputs": [
        {
          "components": [
            {
              "internalType": "address",
              "name": "poolId",
              "type": "address"
            },
            {
              "internalType": "uint16",
              "name": "protocolId",
              "type": "uint16"
            },
            {
              "internalType": "address",
              "name": "longStrategy",
              "type": "address"
            },
            {
              "internalType": "address",
              "name": "shortStrategy",
              "type": "address"
            },
            {
              "internalType": "address",
              "name": "liquidationStrategy",
              "type": "address"
            },
            {
              "internalType": "address",
              "name": "factory",
              "type": "address"
            },
            {
              "internalType": "uint256",
              "name": "LP_TOKEN_BALANCE",
              "type": "uint256"
            },
            {
              "internalType": "uint256",
              "name": "LP_TOKEN_BORROWED",
              "type": "uint256"
            },
            {
              "internalType": "uint256",
              "name": "LP_TOKEN_BORROWED_PLUS_INTEREST",
              "type": "uint256"
            },
            {
              "internalType": "uint128",
              "name": "BORROWED_INVARIANT",
              "type": "uint128"
            },
            {
              "internalType": "uint128",
              "name": "LP_INVARIANT",
              "type": "uint128"
            },
            {
              "internalType": "address",
              "name": "cfmm",
              "type": "address"
            },
            {
              "internalType": "uint96",
              "name": "accFeeIndex",
              "type": "uint96"
            },
            {
              "internalType": "uint48",
              "name": "LAST_BLOCK_NUMBER",
              "type": "uint48"
            },
            {
              "internalType": "uint80",
              "name": "lastCFMMFeeIndex",
              "type": "uint80"
            },
            {
              "internalType": "uint128",
              "name": "lastCFMMInvariant",
              "type": "uint128"
            },
            {
              "internalType": "uint256",
              "name": "lastCFMMTotalSupply",
              "type": "uint256"
            },
            {
              "internalType": "uint256",
              "name": "totalSupply",
              "type": "uint256"
            },
            {
              "internalType": "address[]",
              "name": "tokens",
              "type": "address[]"
            },
            {
              "internalType": "string[]",
              "name": "symbols",
              "type": "string[]"
            },
            {
              "internalType": "string[]",
              "name": "names",
              "type": "string[]"
            },
            {
              "internalType": "uint8[]",
              "name": "decimals",
              "type": "uint8[]"
            },
            {
              "internalType": "uint128[]",
              "name": "TOKEN_BALANCE",
              "type": "uint128[]"
            },
            {
              "internalType": "uint128[]",
              "name": "CFMM_RESERVES",
              "type": "uint128[]"
            },
            {
              "internalType": "uint256",
              "name": "lastPrice",
              "type": "uint256"
            },
            {
              "internalType": "uint256",
              "name": "lastFeeIndex",
              "type": "uint256"
            },
            {
              "internalType": "uint256",
              "name": "borrowRate",
              "type": "uint256"
            },
            {
              "internalType": "uint256",
              "name": "utilizationRate",
              "type": "uint256"
            },
            {
              "internalType": "uint48",
              "name": "currBlockNumber",
              "type": "uint48"
            }
          ],
          "internalType": "struct IGammaPool.PoolData",
          "name": "data",
          "type": "tuple"
        }
      ],
      "stateMutability": "view",
      "type": "function"
    },
    {
      "inputs": [],
      "name": "getRates",
      "outputs": [
        {
          "internalType": "uint256",
          "name": "accFeeIndex",
          "type": "uint256"
        },
        {
          "internalType": "uint256",
          "name": "lastCFMMFeeIndex",
          "type": "uint256"
        },
        {
          "internalType": "uint256",
          "name": "lastBlockNumber",
          "type": "uint256"
        }
      ],
      "stateMutability": "view",
      "type": "function"
    },
    {
      "inputs": [
        {
          "internalType": "uint256",
          "name": "tokenId",
          "type": "uint256"
        }
      ],
      "name": "getRebalanceDeltas",
      "outputs": [
        {
          "internalType": "int256[]",
          "name": "deltas",
          "type": "int256[]"
        }
      ],
      "stateMutability": "view",
      "type": "function"
    },
    {
      "inputs": [],
      "name": "getTokensMetaData",
      "outputs": [
        {
          "internalType": "address[]",
          "name": "_tokens",
          "type": "address[]"
        },
        {
          "internalType": "string[]",
          "name": "_symbols",
          "type": "string[]"
        },
        {
          "internalType": "string[]",
          "name": "_names",
          "type": "string[]"
        },
        {
          "internalType": "uint8[]",
          "name": "_decimals",
          "type": "uint8[]"
        }
      ],
      "stateMutability": "view",
      "type": "function"
    },
    {
      "inputs": [
        {
          "internalType": "address",
          "name": "spender",
          "type": "address"
        },
        {
          "internalType": "uint256",
          "name": "addedValue",
          "type": "uint256"
        }
      ],
      "name": "increaseAllowance",
      "outputs": [
        {
          "internalType": "bool",
          "name": "",
          "type": "bool"
        }
      ],
      "stateMutability": "nonpayable",
      "type": "function"
    },
    {
      "inputs": [
        {
          "internalType": "uint256",
          "name": "",
          "type": "uint256"
        }
      ],
      "name": "increaseCollateral",
      "outputs": [
        {
          "internalType": "uint128[]",
          "name": "tokensHeld",
          "type": "uint128[]"
        }
      ],
      "stateMutability": "nonpayable",
      "type": "function"
    },
    {
      "inputs": [
        {
          "internalType": "address",
          "name": "_cfmm",
          "type": "address"
        },
        {
          "internalType": "address[]",
          "name": "_tokens",
          "type": "address[]"
        },
        {
          "internalType": "uint8[]",
          "name": "_decimals",
          "type": "uint8[]"
        },
        {
          "internalType": "bytes",
          "name": "",
          "type": "bytes"
        }
      ],
      "name": "initialize",
      "outputs": [],
      "stateMutability": "nonpayable",
      "type": "function"
    },
    {
      "inputs": [],
      "name": "lastPrice",
      "outputs": [
        {
          "internalType": "uint256",
          "name": "",
          "type": "uint256"
        }
      ],
      "stateMutability": "view",
      "type": "function"
    },
    {
      "inputs": [
        {
          "internalType": "uint256",
          "name": "",
          "type": "uint256"
        },
        {
          "internalType": "int256[]",
          "name": "",
          "type": "int256[]"
        },
        {
          "internalType": "uint256[]",
          "name": "",
          "type": "uint256[]"
        }
      ],
      "name": "liquidate",
      "outputs": [
        {
          "internalType": "uint256",
          "name": "loanLiquidity",
          "type": "uint256"
        },
        {
          "internalType": "uint256[]",
          "name": "refund",
          "type": "uint256[]"
        }
      ],
      "stateMutability": "nonpayable",
      "type": "function"
    },
    {
      "inputs": [
        {
          "internalType": "uint256",
          "name": "",
          "type": "uint256"
        }
      ],
      "name": "liquidateWithLP",
      "outputs": [
        {
          "internalType": "uint256",
          "name": "loanLiquidity",
          "type": "uint256"
        },
        {
          "internalType": "uint256[]",
          "name": "refund",
          "type": "uint256[]"
        }
      ],
      "stateMutability": "nonpayable",
      "type": "function"
    },
    {
      "inputs": [],
      "name": "liquidationStrategy",
      "outputs": [
        {
          "internalType": "address",
          "name": "",
          "type": "address"
        }
      ],
      "stateMutability": "view",
      "type": "function"
    },
    {
      "inputs": [
        {
          "internalType": "uint256",
          "name": "",
          "type": "uint256"
        }
      ],
      "name": "loan",
      "outputs": [
        {
          "components": [
            {
              "internalType": "uint256",
              "name": "id",
              "type": "uint256"
            },
            {
              "internalType": "uint256",
              "name": "tokenId",
              "type": "uint256"
            },
            {
              "internalType": "address",
              "name": "poolId",
              "type": "address"
            },
            {
              "internalType": "uint96",
              "name": "rateIndex",
              "type": "uint96"
            },
            {
              "internalType": "uint128",
              "name": "initLiquidity",
              "type": "uint128"
            },
            {
              "internalType": "uint128",
              "name": "liquidity",
              "type": "uint128"
            },
            {
              "internalType": "uint256",
              "name": "lpTokens",
              "type": "uint256"
            },
            {
              "internalType": "uint128[]",
              "name": "tokensHeld",
              "type": "uint128[]"
            },
            {
              "internalType": "uint256",
              "name": "px",
              "type": "uint256"
            },
            {
              "internalType": "address[]",
              "name": "tokens",
              "type": "address[]"
            },
            {
              "internalType": "uint8[]",
              "name": "decimals",
              "type": "uint8[]"
            },
            {
              "internalType": "string[]",
              "name": "symbols",
              "type": "string[]"
            },
            {
              "internalType": "string[]",
              "name": "names",
              "type": "string[]"
            }
          ],
          "internalType": "struct IGammaPool.LoanData",
          "name": "_loanData",
          "type": "tuple"
        }
      ],
      "stateMutability": "view",
      "type": "function"
    },
    {
      "inputs": [],
      "name": "longStrategy",
      "outputs": [
        {
          "internalType": "address",
          "name": "",
          "type": "address"
        }
      ],
      "stateMutability": "view",
      "type": "function"
    },
    {
      "inputs": [],
      "name": "name",
      "outputs": [
        {
          "internalType": "string",
          "name": "",
          "type": "string"
        }
      ],
      "stateMutability": "view",
      "type": "function"
    },
    {
      "inputs": [],
      "name": "owner",
      "outputs": [
        {
          "internalType": "address",
          "name": "",
          "type": "address"
        }
      ],
      "stateMutability": "view",
      "type": "function"
    },
    {
      "inputs": [],
      "name": "protocolId",
      "outputs": [
        {
          "internalType": "uint16",
          "name": "",
          "type": "uint16"
        }
      ],
      "stateMutability": "view",
      "type": "function"
    },
    {
      "inputs": [
        {
          "internalType": "uint256",
          "name": "",
          "type": "uint256"
        },
        {
          "internalType": "int256[]",
          "name": "",
          "type": "int256[]"
        }
      ],
      "name": "rebalanceCollateral",
      "outputs": [
        {
          "internalType": "uint128[]",
          "name": "tokensHeld",
          "type": "uint128[]"
        }
      ],
      "stateMutability": "nonpayable",
      "type": "function"
    },
    {
      "inputs": [
        {
          "internalType": "uint256",
          "name": "",
          "type": "uint256"
        },
        {
          "internalType": "uint256",
          "name": "",
          "type": "uint256"
        },
        {
          "internalType": "uint256[]",
          "name": "fees",
          "type": "uint256[]"
        }
      ],
      "name": "repayLiquidity",
      "outputs": [
        {
          "internalType": "uint256",
          "name": "liquidityPaid",
          "type": "uint256"
        },
        {
          "internalType": "uint256[]",
          "name": "amounts",
          "type": "uint256[]"
        }
      ],
      "stateMutability": "nonpayable",
      "type": "function"
    },
    {
      "inputs": [
        {
          "internalType": "uint256",
          "name": "_utilRate",
          "type": "uint256"
        },
        {
          "internalType": "uint256",
          "name": "_borrowRate",
          "type": "uint256"
        },
        {
          "internalType": "uint256",
          "name": "_accFeeIndex",
          "type": "uint256"
        },
        {
          "internalType": "uint256",
          "name": "_lastPrice",
          "type": "uint256"
        }
      ],
      "name": "setLatestRates",
      "outputs": [],
      "stateMutability": "nonpayable",
      "type": "function"
    },
    {
      "inputs": [],
      "name": "shortStrategy",
      "outputs": [
        {
          "internalType": "address",
          "name": "",
          "type": "address"
        }
      ],
      "stateMutability": "view",
      "type": "function"
    },
    {
      "inputs": [
        {
          "internalType": "address",
          "name": "",
          "type": "address"
        }
      ],
      "name": "skim",
      "outputs": [],
      "stateMutability": "nonpayable",
      "type": "function"
    },
    {
      "inputs": [],
      "name": "symbol",
      "outputs": [
        {
          "internalType": "string",
          "name": "",
          "type": "string"
        }
      ],
      "stateMutability": "view",
      "type": "function"
    },
    {
      "inputs": [],
      "name": "sync",
      "outputs": [],
      "stateMutability": "nonpayable",
      "type": "function"
    },
    {
      "inputs": [
        {
          "internalType": "address",
          "name": "posAddr",
          "type": "address"
        },
        {
          "internalType": "address[]",
          "name": "_tokens",
          "type": "address[]"
        },
        {
          "internalType": "uint256[]",
          "name": "amounts",
          "type": "uint256[]"
        },
        {
          "internalType": "address",
          "name": "payee",
          "type": "address"
        },
        {
          "internalType": "bytes",
          "name": "data",
          "type": "bytes"
        }
      ],
      "name": "testSendTokensCallback",
      "outputs": [],
      "stateMutability": "nonpayable",
      "type": "function"
    },
    {
      "inputs": [],
      "name": "tester",
      "outputs": [
        {
          "internalType": "address",
          "name": "",
          "type": "address"
        }
      ],
      "stateMutability": "view",
      "type": "function"
    },
    {
      "inputs": [],
      "name": "tokens",
      "outputs": [
        {
          "internalType": "address[]",
          "name": "",
          "type": "address[]"
        }
      ],
      "stateMutability": "view",
      "type": "function"
    },
    {
      "inputs": [
        {
          "internalType": "uint256",
          "name": "",
          "type": "uint256"
        }
      ],
      "name": "tokens_",
      "outputs": [
        {
          "internalType": "address",
          "name": "",
          "type": "address"
        }
      ],
      "stateMutability": "view",
      "type": "function"
    },
    {
      "inputs": [],
      "name": "totalSupply",
      "outputs": [
        {
          "internalType": "uint256",
          "name": "",
          "type": "uint256"
        }
      ],
      "stateMutability": "view",
      "type": "function"
    },
    {
      "inputs": [
        {
          "internalType": "address",
          "name": "to",
          "type": "address"
        },
        {
          "internalType": "uint256",
          "name": "amount",
          "type": "uint256"
        }
      ],
      "name": "transfer",
      "outputs": [
        {
          "internalType": "bool",
          "name": "",
          "type": "bool"
        }
      ],
      "stateMutability": "nonpayable",
      "type": "function"
    },
    {
      "inputs": [
        {
          "internalType": "address",
          "name": "from",
          "type": "address"
        },
        {
          "internalType": "address",
          "name": "to",
          "type": "address"
        },
        {
          "internalType": "uint256",
          "name": "amount",
          "type": "uint256"
        }
      ],
      "name": "transferFrom",
      "outputs": [
        {
          "internalType": "bool",
          "name": "",
          "type": "bool"
        }
      ],
      "stateMutability": "nonpayable",
      "type": "function"
    },
    {
      "inputs": [
        {
          "internalType": "uint256",
          "name": "tokenId",
          "type": "uint256"
        }
      ],
      "name": "updatePool",
      "outputs": [
        {
          "internalType": "uint256",
          "name": "",
          "type": "uint256"
        },
        {
          "internalType": "uint256",
          "name": "",
          "type": "uint256"
        }
      ],
      "stateMutability": "nonpayable",
      "type": "function"
    },
    {
      "inputs": [],
      "name": "utilRate",
      "outputs": [
        {
          "internalType": "uint256",
          "name": "",
          "type": "uint256"
        }
      ],
      "stateMutability": "view",
      "type": "function"
    },
    {
      "inputs": [
        {
          "internalType": "address[]",
          "name": "",
          "type": "address[]"
        },
        {
          "internalType": "address",
          "name": "",
          "type": "address"
        },
        {
          "internalType": "bytes",
          "name": "",
          "type": "bytes"
        }
      ],
      "name": "validateCFMM",
      "outputs": [
        {
          "internalType": "address[]",
          "name": "",
          "type": "address[]"
        }
      ],
      "stateMutability": "pure",
      "type": "function"
    },
    {
      "inputs": [
        {
          "internalType": "address",
          "name": "",
          "type": "address"
        }
      ],
      "name": "withdrawNoPull",
      "outputs": [
        {
          "internalType": "uint256",
          "name": "assets",
          "type": "uint256"
        }
      ],
      "stateMutability": "nonpayable",
      "type": "function"
    },
    {
      "inputs": [
        {
          "internalType": "address",
          "name": "",
          "type": "address"
        }
      ],
      "name": "withdrawReserves",
      "outputs": [
        {
          "internalType": "uint256[]",
          "name": "reserves",
          "type": "uint256[]"
        },
        {
          "internalType": "uint256",
          "name": "assets",
          "type": "uint256"
        }
      ],
      "stateMutability": "nonpayable",
      "type": "function"
    }
  ],
  "bytecode": {
    "object": "0x6101206040523480156200001257600080fd5b5060405162002e6138038062002e618339810160408190526200003591620000f2565b84848484846040518060400160405280600d81526020016c15195cdd11d85b5b58541bdbdb609a1b815250604051806040016040528060068152602001655447502d563160d01b81525081600390816200009091906200020f565b5060046200009f82826200020f565b50505061ffff9094166080526001600160a01b0392831660a05290821660c052811660e052166101005250620002db9350505050565b80516001600160a01b0381168114620000ed57600080fd5b919050565b600080600080600060a086880312156200010b57600080fd5b855161ffff811681146200011e57600080fd5b94506200012e60208701620000d5565b93506200013e60408701620000d5565b92506200014e60608701620000d5565b91506200015e60808701620000d5565b90509295509295909350565b634e487b7160e01b600052604160045260246000fd5b600181811c908216806200019557607f821691505b602082108103620001b657634e487b7160e01b600052602260045260246000fd5b50919050565b601f8211156200020a57600081815260208120601f850160051c81016020861015620001e55750805b601f850160051c820191505b818110156200020657828155600101620001f1565b5050505b505050565b81516001600160401b038111156200022b576200022b6200016a565b62000243816200023c845462000180565b84620001bc565b602080601f8311600181146200027b5760008415620002625750858301515b600019600386901b1c1916600185901b17855562000206565b600085815260208120601f198616915b82811015620002ac578886015182559484019460019091019084016200028b565b5085821015620002cb5787850151600019600388901b60f8161c191681555b5050505050600190811b01905550565b60805160a05160c05160e05161010051612b1e62000343600039600081816105d801526117d301526000818161074d01526117ab015260008181610551015261177a015260008181610849015261180f01526000818161089801526117530152612b1e6000f3fe608060405234801561001057600080fd5b50600436106103af5760003560e01c80638015d925116101f4578063bc25cf771161011a578063df3489e0116100ad578063f9b5533e1161007c578063f9b5533e14610931578063fb29238b1461078a578063fcc8bd7814610944578063fff6cae91461044b57600080fd5b8063df3489e0146108e0578063ea940b1d146108f3578063eff98e2414610906578063f344670d1461091957600080fd5b8063c914b437116100e9578063c914b43714610882578063cd1891871461088b578063da1f12ab14610893578063dd62ed3e146108cd57600080fd5b8063bc25cf7714610833578063c45a015514610844578063c70c07f71461078a578063c80994bb1461086b57600080fd5b806397509c4e11610192578063a9059cbb11610161578063a9059cbb146107e7578063a964e52c146107fa578063b8a838341461080d578063ba03915b1461082057600080fd5b806397509c4e1461078a5780639accab551461079f5780639d63848a146107bf578063a457c2d7146107d457600080fd5b8063871a78d2116101ce578063871a78d2146106df57806389c4fa12146107485780638da5cb5b1461076f57806395d89b411461078257600080fd5b80638015d9251461068a5780638308abd4146106ac57806386b20104146106bf57600080fd5b806340894f17116102d957806365418ef5116102775780637007d7da116102465780637007d7da1461063157806370a082311461063a57806374aa5fad146106635780637a6513721461066a57600080fd5b806365418ef5146105fa57806365ec1a451461060e5780636854f77b146106165780636f56f4d31461062957600080fd5b806352196812116102b3578063521968121461059f57806352375bb1146105a657806354fe2a96146105c05780635b311212146105d357600080fd5b806340894f17146105395780634932ed371461054c57806351eb05a61461057357600080fd5b806323b872dd11610351578063313ce56711610320578063313ce567146104e8578063365a5306146104fd578063395093511461051d5780633fb945db1461053057600080fd5b806323b872dd1461046957806328cad17f1461047c5780632a9bc3f61461049d5780633035aa9c146104bd57600080fd5b80630cfba8eb1161038d5780630cfba8eb1461040857806316d967ed1461042957806318160ddd1461044d578063192fdf101461045557600080fd5b8063053f14da146103b457806306fdde03146103d0578063095ea7b3146103e5575b600080fd5b6103bd600d5481565b6040519081526020015b60405180910390f35b6103d8610957565b6040516103c79190611ce0565b6103f86103f3366004611d0f565b6109e9565b60405190151581526020016103c7565b61041b610416366004611d3b565b610a03565b6040516103c7929190611d93565b61044b610437366004611db5565b600a93909355600b91909155600c55600d55565b005b6002546103bd565b6103bd610463366004611d3b565b50601090565b6103f8610477366004611de7565b610a95565b61048f61048a366004611e28565b610ab9565b6040516103c7929190611e4a565b6104b06104ab366004611eb7565b610ae6565b6040516103c79190611f3c565b6005546104d0906001600160a01b031681565b6040516001600160a01b0390911681526020016103c7565b60125b60405160ff90911681526020016103c7565b61051061050b366004611f4f565b610b0c565b6040516103c7919061214e565b6103f861052b366004611d0f565b610ba3565b6103bd600a5481565b61044b6105473660046121a3565b610bc5565b6104d07f000000000000000000000000000000000000000000000000000000000000000081565b61058a610581366004611f4f565b50600590600690565b604080519283526020830191909152016103c7565b60006103bd565b6105ae610ca6565b6040516103c796959493929190612250565b61041b6105ce3660046121a3565b610cf3565b6104d07f000000000000000000000000000000000000000000000000000000000000000081565b6103bd610608366004611d3b565b50600f90565b6103bd610d34565b61048f61062436600461228c565b610d51565b6104b0610d87565b6103bd600c5481565b6103bd610648366004611d3b565b6001600160a01b031660009081526020819052604090205490565b60076103bd565b61067d610678366004611f4f565b610daa565b6040516103c79190612306565b61069d61069836600461234a565b610ddf565b6040516103c79392919061238c565b6008546104d0906001600160a01b031681565b6106d26106cd366004611e28565b610e1a565b6040516103c791906123b4565b6106e7610e55565b6040516103c79190600061010082019050825182526020830151602083015260408301516040830152606083015160608301526080830151608083015260a083015160a083015260c083015160c083015260e083015160e083015292915050565b6104d07f000000000000000000000000000000000000000000000000000000000000000081565b6009546104d0906001600160a01b031681565b6103d8610ec3565b610792610ed2565b6040516103c79190612416565b6040805160098152605b6020820152600e918101919091526060016103c7565b6107c7610ee2565b6040516103c791906126bb565b6103f86107e2366004611d0f565b610f43565b6103f86107f5366004611d0f565b610fc3565b61048f6108083660046126ce565b610fd1565b6104b061081b366004611f4f565b611063565b6107c761082e366004612721565b61106c565b61044b610841366004611d3b565b50565b6104d07f000000000000000000000000000000000000000000000000000000000000000081565b610873611094565b6040516103c793929190612795565b6103bd600b5481565b6108736110c7565b6108ba7f000000000000000000000000000000000000000000000000000000000000000081565b60405161ffff90911681526020016103c7565b6103bd6108db3660046127ba565b6110fa565b61044b6108ee3660046127f3565b611125565b6104b06109013660046128b4565b611199565b61048f610914366004611f4f565b6111c4565b6109216111f3565b6040516103c79493929190612913565b6104d061093f366004611f4f565b61129a565b6104eb610952366004611f4f565b6112c4565b6060600380546109669061296b565b80601f01602080910402602001604051908101604052809291908181526020018280546109929061296b565b80156109df5780601f106109b4576101008083540402835291602001916109df565b820191906000526020600020905b8154815290600101906020018083116109c257829003601f168201915b5050505050905090565b6000336109f78185856112f8565b60019150505b92915050565b604080516003808252608082019092526060916000919060208201848036833701905050915060c882600081518110610a3e57610a3e6129a5565b60200260200101818152505061012c82600181518110610a6057610a606129a5565b60200260200101818152505061019082600281518110610a8257610a826129a5565b6020908102919091010152509160119150565b600033610aa385828561141c565b610aae858585611496565b506001949350505050565b60408051600280825260608083018452601793909291906020830190803683370190505090509250929050565b604080516002808252606080830184529260208301908036833701905050949350505050565b610b146119a0565b601481526005546001600160a01b031660408083019190915280516002808252606082018352909160208301908036833750505060e0820181905280516001919082908110610b6557610b656129a5565b6001600160801b03909216602092830291909101820152601560a0830152601660c08301526017606083015260186080830152601990820152919050565b6000336109f7818585610bb683836110fa565b610bc091906129d1565b6112f8565b600580546001600160a01b0319166001600160a01b038916179055610bec60068787611a2c565b50610bf960078585611a8f565b50336001600160a01b0316638308abd46040518163ffffffff1660e01b8152600401602060405180830381865afa158015610c38573d6000803e3d6000fd5b505050506040513d601f19601f82011682018060405250810190610c5c91906129e4565b600880546001600160a01b03929092166001600160a01b03199283168117909155600980549092163317909155610c9d9069152d02c7e14af6800000611664565b50505050505050565b60606000808080806001604051908082528060200260200182016040528015610cd9578160200160208202803683370190505b509660019650600295506003945060049350600592509050565b60408051600480825260a08201909252606091600091906020820160808036833701905050915060129050610d288982611664565b97509795505050505050565b6000610d41436064612a01565b610d4c9060136129d1565b905090565b60408051600280825260608281019093526000929160019181602001602082028036833701905050915091509550959350505050565b604080516002808252606080830184529260208301908036833701905050905090565b606060025b604051908082528060200260200182016040528015610dd8578160200160208202803683370190505b5092915050565b604080516002808252606082810190935260009283929091600391600491816020016020820280368337019050509250925092509250925092565b60408051600080825260208201909252606091610e4d565b610e3a6119a0565b815260200190600190039081610e325790505b509392505050565b610e9d60405180610100016040528060008152602001600081526020016000815260200160008152602001600081526020016000815260200160008152602001600081525090565b600a546080820152600b546060820152600c5481524360c0820152600d5460e082015290565b6060600480546109669061296b565b610eda611b33565b610d4c611743565b606060068054806020026020016040519081016040528092919081815260200182805480156109df57602002820191906000526020600020905b81546001600160a01b03168152600190910190602001808311610f1c575050505050905090565b60003381610f5182866110fa565b905083811015610fb65760405162461bcd60e51b815260206004820152602560248201527f45524332303a2064656372656173656420616c6c6f77616e63652062656c6f77604482015264207a65726f60d81b60648201526084015b60405180910390fd5b610aae82868684036112f8565b6000336109f7818585611496565b6000606060028314610fe4576000611022565b83836001818110610ff757610ff76129a5565b9050602002013584846000818110611011576110116129a5565b9050602002013561102291906129d1565b61102d8460186129d1565b61103791906129d1565b604080516002808252606082018352929450919060208301908036833701905050905094509492505050565b60606006610daf565b6040805160028082526060808301845292602083019080368337019050509695505050505050565b604080516002808252606082810190935260009182918160200160208202803683370190505093600c9350600d92509050565b60408051600280825260608281019093526000918291816020016020820280368337019050509360029350600392509050565b6001600160a01b03918216600090815260016020908152604080832093909416825291909152205490565b604051636464a1eb60e01b81526001600160a01b03891690636464a1eb9061115d908a908a908a908a908a908a908a90600401612a41565b600060405180830381600087803b15801561117757600080fd5b505af115801561118b573d6000803e3d6000fd5b505050505050505050505050565b60408051600780825261010082019092526060916020820160e0803683370190505095945050505050565b604080516002808252606082810190935260009291818160200160208202803683370190505091509150915091565b60408051600180825281830190925260609182918291829190602080830190803683375050604080516002808252606082019092529150602082015b606081526020019060019003908161122f5750506040805160038082526080820190925290602082015b606081526020019060019003908161125957505060408051600480825260a08201909252906020820160808036833701905050935093509350935090919293565b600681815481106112aa57600080fd5b6000918252602090912001546001600160a01b0316905081565b600781815481106112d457600080fd5b9060005260206000209060209182820401919006915054906101000a900460ff1681565b6001600160a01b03831661135a5760405162461bcd60e51b8152602060048201526024808201527f45524332303a20617070726f76652066726f6d20746865207a65726f206164646044820152637265737360e01b6064820152608401610fad565b6001600160a01b0382166113bb5760405162461bcd60e51b815260206004820152602260248201527f45524332303a20617070726f766520746f20746865207a65726f206164647265604482015261737360f01b6064820152608401610fad565b6001600160a01b0383811660008181526001602090815260408083209487168084529482529182902085905590518481527f8c5be1e5ebec7d5bd14f71427d1e84f3dd0314c0f7b2291e5b200ac8c7c3b925910160405180910390a3505050565b600061142884846110fa565b9050600019811461149057818110156114835760405162461bcd60e51b815260206004820152601d60248201527f45524332303a20696e73756666696369656e7420616c6c6f77616e63650000006044820152606401610fad565b61149084848484036112f8565b50505050565b6001600160a01b0383166114fa5760405162461bcd60e51b815260206004820152602560248201527f45524332303a207472616e736665722066726f6d20746865207a65726f206164604482015264647265737360d81b6064820152608401610fad565b6001600160a01b03821661155c5760405162461bcd60e51b815260206004820152602360248201527f45524332303a207472616e7366657220746f20746865207a65726f206164647260448201526265737360e81b6064820152608401610fad565b6001600160a01b038316600090815260208190526040902054818110156115d45760405162461bcd60e51b815260206004820152602660248201527f45524332303a207472616e7366657220616d6f756e7420657863656564732062604482015265616c616e636560d01b6064820152608401610fad565b6001600160a01b0380851660009081526020819052604080822085850390559185168152908120805484929061160b9084906129d1565b92505081905550826001600160a01b0316846001600160a01b03167fddf252ad1be2c89b69c2b068fc378daa952ba7f163c4a11628f55a4df523b3ef8460405161165791815260200190565b60405180910390a3611490565b6001600160a01b0382166116ba5760405162461bcd60e51b815260206004820152601f60248201527f45524332303a206d696e7420746f20746865207a65726f2061646472657373006044820152606401610fad565b80600260008282546116cc91906129d1565b90915550506001600160a01b038216600090815260208190526040812080548392906116f99084906129d1565b90915550506040518181526001600160a01b038316906000907fddf252ad1be2c89b69c2b068fc378daa952ba7f163c4a11628f55a4df523b3ef9060200160405180910390a35050565b61174b611b33565b30815261ffff7f00000000000000000000000000000000000000000000000000000000000000001660208201527f00000000000000000000000000000000000000000000000000000000000000006001600160a01b0390811660408301527f0000000000000000000000000000000000000000000000000000000000000000811660608301527f000000000000000000000000000000000000000000000000000000000000000081166080830152600580548216610160840152600e6101a08401527f000000000000000000000000000000000000000000000000000000000000000090911660a0830152600160c0830152600260e0830152600361010083015260046101208301526101408201526009610180820152600c6101e0820152600d61020082015261187b60025490565b61022082015260078054604080516020808402820181019092528281529291908301828280156118e857602002820191906000526020600020906000905b825461010083900a900460ff168152602060019283018181049485019490930390920291018084116118b95790505b5050505050816102a00181905250600680548060200260200160405190810160405280929190818152602001828054801561194c57602002820191906000526020600020905b81546001600160a01b0316815260019091019060200180831161192e575b505050505061024082015260408051600180825281830190925290602080830190803683375050506102c082015260408051600280825260608201835290916020830190803683375050506102e082015290565b604051806101a00160405280600081526020016000815260200160006001600160a01b0316815260200160006001600160601b0316815260200160006001600160801b0316815260200160006001600160801b03168152602001600081526020016060815260200160008152602001606081526020016060815260200160608152602001606081525090565b828054828255906000526020600020908101928215611a7f579160200282015b82811115611a7f5781546001600160a01b0319166001600160a01b03843516178255602090920191600190910190611a4c565b50611a8b929150611c85565b5090565b82805482825590600052602060002090601f01602090048101928215611a7f5791602002820160005b83821115611af957833560ff1683826101000a81548160ff021916908360ff1602179055509260200192600101602081600001049283019260010302611ab8565b8015611b265782816101000a81549060ff0219169055600101602081600001049283019260010302611af9565b5050611a8b929150611c85565b604051806103a0016040528060006001600160a01b03168152602001600061ffff16815260200160006001600160a01b0316815260200160006001600160a01b0316815260200160006001600160a01b0316815260200160006001600160a01b0316815260200160008152602001600081526020016000815260200160006001600160801b0316815260200160006001600160801b0316815260200160006001600160a01b0316815260200160006001600160601b03168152602001600065ffffffffffff168152602001600069ffffffffffffffffffff16815260200160006001600160801b03168152602001600081526020016000815260200160608152602001606081526020016060815260200160608152602001606081526020016060815260200160008152602001600081526020016000815260200160008152602001600065ffffffffffff1681525090565b5b80821115611a8b5760008155600101611c86565b6000815180845260005b81811015611cc057602081850181015186830182015201611ca4565b506000602082860101526020601f19601f83011685010191505092915050565b602081526000611cf36020830184611c9a565b9392505050565b6001600160a01b038116811461084157600080fd5b60008060408385031215611d2257600080fd5b8235611d2d81611cfa565b946020939093013593505050565b600060208284031215611d4d57600080fd5b8135611cf381611cfa565b600081518084526020808501945080840160005b83811015611d8857815187529582019590820190600101611d6c565b509495945050505050565b604081526000611da66040830185611d58565b90508260208301529392505050565b60008060008060808587031215611dcb57600080fd5b5050823594602084013594506040840135936060013592509050565b600080600060608486031215611dfc57600080fd5b8335611e0781611cfa565b92506020840135611e1781611cfa565b929592945050506040919091013590565b60008060408385031215611e3b57600080fd5b50508035926020909101359150565b828152604060208201526000611e636040830184611d58565b949350505050565b60008083601f840112611e7d57600080fd5b50813567ffffffffffffffff811115611e9557600080fd5b6020830191508360208260051b8501011115611eb057600080fd5b9250929050565b600080600060408486031215611ecc57600080fd5b83359250602084013567ffffffffffffffff811115611eea57600080fd5b611ef686828701611e6b565b9497909650939450505050565b600081518084526020808501945080840160005b83811015611d885781516001600160801b031687529582019590820190600101611f17565b602081526000611cf36020830184611f03565b600060208284031215611f6157600080fd5b5035919050565b600081518084526020808501945080840160005b83811015611d885781516001600160a01b031687529582019590820190600101611f7c565b600081518084526020808501945080840160005b83811015611d8857815160ff1687529582019590820190600101611fb5565b600081518084526020808501808196508360051b8101915082860160005b8581101561201c57828403895261200a848351611c9a565b98850198935090840190600101611ff2565b5091979650505050505050565b60006101a08251845260208301516020850152604083015161205660408601826001600160a01b03169052565b50606083015161207160608601826001600160601b03169052565b50608083015161208c60808601826001600160801b03169052565b5060a08301516120a760a08601826001600160801b03169052565b5060c083015160c085015260e08301518160e08601526120c982860182611f03565b91505061010080840151818601525061012080840151858303828701526120f08382611f68565b92505050610140808401518583038287015261210c8382611fa1565b9250505061016080840151858303828701526121288382611fd4565b9250505061018080840151858303828701526121448382611fd4565b9695505050505050565b602081526000611cf36020830184612029565b60008083601f84011261217357600080fd5b50813567ffffffffffffffff81111561218b57600080fd5b602083019150836020828501011115611eb057600080fd5b60008060008060008060006080888a0312156121be57600080fd5b87356121c981611cfa565b9650602088013567ffffffffffffffff808211156121e657600080fd5b6121f28b838c01611e6b565b909850965060408a013591508082111561220b57600080fd5b6122178b838c01611e6b565b909650945060608a013591508082111561223057600080fd5b5061223d8a828b01612161565b989b979a50959850939692959293505050565b60c08152600061226360c0830189611f03565b60208301979097525060408101949094526060840192909252608083015260a090910152919050565b6000806000806000606086880312156122a457600080fd5b85359450602086013567ffffffffffffffff808211156122c357600080fd5b6122cf89838a01611e6b565b909650945060408801359150808211156122e857600080fd5b506122f588828901611e6b565b969995985093965092949392505050565b6020808252825182820181905260009190848201906040850190845b8181101561233e57835183529284019291840191600101612322565b50909695505050505050565b6000806020838503121561235d57600080fd5b823567ffffffffffffffff81111561237457600080fd5b61238085828601611e6b565b90969095509350505050565b8381528260208201526060604082015260006123ab6060830184611d58565b95945050505050565b6000602080830181845280855180835260408601915060408160051b870101925083870160005b8281101561240957603f198886030184526123f7858351612029565b945092850192908501906001016123db565b5092979650505050505050565b602081526124306020820183516001600160a01b03169052565b60006020830151612447604084018261ffff169052565b5060408301516001600160a01b03811660608401525060608301516001600160a01b03811660808401525060808301516001600160a01b03811660a08401525060a08301516001600160a01b03811660c08401525060c083015160e08381019190915283015161010080840191909152830151610120808401919091528301516101406124de818501836001600160801b03169052565b84015190506101606124fa848201836001600160801b03169052565b8401519050610180612516848201836001600160a01b03169052565b84015190506101a0612532848201836001600160601b03169052565b84015190506101c061254d8482018365ffffffffffff169052565b84015190506101e061256c8482018369ffffffffffffffffffff169052565b8401519050610200612588848201836001600160801b03169052565b84015161022084810191909152840151610240808501919091528401516103a0610260808601829052919250906125c36103c0860184611f68565b9250808601519050601f196102808187860301818801526125e48584611fd4565b9450808801519250506102a08187860301818801526126038584611fd4565b9450808801519250506102c08187860301818801526126228584611fa1565b9450808801519250506102e08187860301818801526126418584611f03565b9450808801519250506103008187860301818801526126608584611f03565b908801516103208881019190915288015161034080890191909152880151610360808901919091528801516103808089019190915288015165ffffffffffff81168589015290945091506126b19050565b5090949350505050565b602081526000611cf36020830184611f68565b600080600080606085870312156126e457600080fd5b8435935060208501359250604085013567ffffffffffffffff81111561270957600080fd5b61271587828801611e6b565b95989497509550505050565b60008060008060006060868803121561273957600080fd5b853567ffffffffffffffff8082111561275157600080fd5b61275d89838a01611e6b565b90975095506020880135915061277282611cfa565b9093506040870135908082111561278857600080fd5b506122f588828901612161565b6060815260006127a86060830186611f03565b60208301949094525060400152919050565b600080604083850312156127cd57600080fd5b82356127d881611cfa565b915060208301356127e881611cfa565b809150509250929050565b60008060008060008060008060a0898b03121561280f57600080fd5b883561281a81611cfa565b9750602089013567ffffffffffffffff8082111561283757600080fd5b6128438c838d01611e6b565b909950975060408b013591508082111561285c57600080fd5b6128688c838d01611e6b565b909750955060608b0135915061287d82611cfa565b90935060808a0135908082111561289357600080fd5b506128a08b828c01612161565b999c989b5096995094979396929594505050565b600080600080606085870312156128ca57600080fd5b84359350602085013567ffffffffffffffff8111156128e857600080fd5b6128f487828801611e6b565b909450925050604085013561290881611cfa565b939692955090935050565b6080815260006129266080830187611f68565b82810360208401526129388187611fd4565b9050828103604084015261294c8186611fd4565b905082810360608401526129608185611fa1565b979650505050505050565b600181811c9082168061297f57607f821691505b60208210810361299f57634e487b7160e01b600052602260045260246000fd5b50919050565b634e487b7160e01b600052603260045260246000fd5b634e487b7160e01b600052601160045260246000fd5b808201808211156109fd576109fd6129bb565b6000602082840312156129f657600080fd5b8151611cf381611cfa565b80820281158282048414176109fd576109fd6129bb565b81835281816020850137506000828201602090810191909152601f909101601f19169091010190565b6080808252810187905260008860a08301825b8a811015612a84578235612a6781611cfa565b6001600160a01b0316825260209283019290910190600101612a54565b5083810360208501528781526001600160fb1b03881115612aa457600080fd5b8760051b9150818960208301376001600160a01b0387166040850152016020838203016060840152612ada602082018587612a18565b9a995050505050505050505056fea264697066735822122083341034126db82e3c25863faed307ecb5489bbdeebd38855bf2431f3db31af664736f6c63430008110033",
    "linkReferences": {}
  },
  "methodIdentifiers": {
    "accFeeIndex()": "7007d7da",
    "allowance(address,address)": "dd62ed3e",
    "approve(address,uint256)": "095ea7b3",
    "balanceOf(address)": "70a08231",
    "batchLiquidations(uint256[])": "8015d925",
    "borrowLiquidity(uint256,uint256)": "28cad17f",
    "borrowRate()": "c914b437",
    "cfmm()": "3035aa9c",
    "createLoan()": "65ec1a45",
    "decimals()": "313ce567",
    "decimals_(uint256)": "fcc8bd78",
    "decreaseAllowance(address,uint256)": "a457c2d7",
    "decreaseCollateral(uint256,uint256[],address)": "ea940b1d",
    "depositNoPull(address)": "65418ef5",
    "depositReserves(address,uint256[],uint256[],bytes)": "54fe2a96",
    "factory()": "c45a0155",
    "getCFMMBalances()": "c80994bb",
    "getConstantPoolData()": "97509c4e",
    "getLastCFMMPrice()": "74aa5fad",
    "getLatestCFMMBalances()": "cd189187",
    "getLatestCFMMReserves()": "6f56f4d3",
    "getLatestPoolData()": "c70c07f7",
    "getLatestRates()": "871a78d2",
    "getLoanCount()": "52196812",
    "getLoans(uint256,uint256)": "86b20104",
    "getPoolBalances()": "52375bb1",
    "getPoolData()": "fb29238b",
    "getRates()": "9accab55",
    "getRebalanceDeltas(uint256)": "7a651372",
    "getTokensMetaData()": "f344670d",
    "increaseAllowance(address,uint256)": "39509351",
    "increaseCollateral(uint256)": "b8a83834",
    "initialize(address,address[],uint8[],bytes)": "40894f17",
    "lastPrice()": "053f14da",
    "liquidate(uint256,int256[],uint256[])": "6854f77b",
    "liquidateWithLP(uint256)": "eff98e24",
    "liquidationStrategy()": "5b311212",
    "loan(uint256)": "365a5306",
    "longStrategy()": "4932ed37",
    "name()": "06fdde03",
    "owner()": "8da5cb5b",
    "protocolId()": "da1f12ab",
    "rebalanceCollateral(uint256,int256[])": "2a9bc3f6",
    "repayLiquidity(uint256,uint256,uint256[])": "a964e52c",
    "setLatestRates(uint256,uint256,uint256,uint256)": "16d967ed",
    "shortStrategy()": "89c4fa12",
    "skim(address)": "bc25cf77",
    "symbol()": "95d89b41",
    "sync()": "fff6cae9",
    "testSendTokensCallback(address,address[],uint256[],address,bytes)": "df3489e0",
    "tester()": "8308abd4",
    "tokens()": "9d63848a",
    "tokens_(uint256)": "f9b5533e",
    "totalSupply()": "18160ddd",
    "transfer(address,uint256)": "a9059cbb",
    "transferFrom(address,address,uint256)": "23b872dd",
    "updatePool(uint256)": "51eb05a6",
    "utilRate()": "3fb945db",
    "validateCFMM(address[],address,bytes)": "ba03915b",
    "withdrawNoPull(address)": "192fdf10",
    "withdrawReserves(address)": "0cfba8eb"
  },
  "id": 9
}