{
  "abi": [
    {
      "inputs": [
        {
          "internalType": "address",
          "name": "_factory",
          "type": "address"
        },
        {
          "internalType": "address",
          "name": "_WETH",
          "type": "address"
        },
        {
          "internalType": "address",
          "name": "_dataStore",
          "type": "address"
        }
      ],
      "stateMutability": "nonpayable",
      "type": "constructor"
    },
    {
      "inputs": [],
      "name": "AmountsMin",
      "type": "error"
    },
    {
      "inputs": [],
      "name": "ERC721ApproveOwner",
      "type": "error"
    },
    {
      "inputs": [],
      "name": "ERC721ApproveToCaller",
      "type": "error"
    },
    {
      "inputs": [],
      "name": "ERC721Forbidden",
      "type": "error"
    },
    {
      "inputs": [],
      "name": "ERC721InvalidTokenID",
      "type": "error"
    },
    {
      "inputs": [],
      "name": "ERC721MintToZeroAddress",
      "type": "error"
    },
    {
      "inputs": [],
      "name": "ERC721TokenExists",
      "type": "error"
    },
    {
      "inputs": [],
      "name": "ERC721TransferFromWrongOwner",
      "type": "error"
    },
    {
      "inputs": [],
      "name": "ERC721TransferToNonReceiver",
      "type": "error"
    },
    {
      "inputs": [],
      "name": "ERC721TransferToZeroAddress",
      "type": "error"
    },
    {
      "inputs": [],
      "name": "ERC721ZeroAddress",
      "type": "error"
    },
    {
      "inputs": [],
      "name": "Expired",
      "type": "error"
    },
    {
      "inputs": [],
      "name": "Forbidden",
      "type": "error"
    },
    {
      "inputs": [],
      "name": "NotEnoughTokens",
      "type": "error"
    },
    {
      "inputs": [],
      "name": "NotEnoughWETH",
      "type": "error"
    },
    {
      "inputs": [],
      "name": "NotGammaPool",
      "type": "error"
    },
    {
      "inputs": [],
      "name": "NotWETH",
      "type": "error"
    },
    {
      "inputs": [],
      "name": "STE_Fail",
      "type": "error"
    },
    {
      "inputs": [],
      "name": "STF_Fail",
      "type": "error"
    },
    {
      "inputs": [],
      "name": "ST_Fail",
      "type": "error"
    },
    {
      "anonymous": false,
      "inputs": [
        {
          "indexed": true,
          "internalType": "address",
          "name": "owner",
          "type": "address"
        },
        {
          "indexed": true,
          "internalType": "address",
          "name": "approved",
          "type": "address"
        },
        {
          "indexed": true,
          "internalType": "uint256",
          "name": "tokenId",
          "type": "uint256"
        }
      ],
      "name": "Approval",
      "type": "event"
    },
    {
      "anonymous": false,
      "inputs": [
        {
          "indexed": true,
          "internalType": "address",
          "name": "owner",
          "type": "address"
        },
        {
          "indexed": true,
          "internalType": "address",
          "name": "operator",
          "type": "address"
        },
        {
          "indexed": false,
          "internalType": "bool",
          "name": "approved",
          "type": "bool"
        }
      ],
      "name": "ApprovalForAll",
      "type": "event"
    },
    {
      "anonymous": false,
      "inputs": [
        {
          "indexed": true,
          "internalType": "address",
          "name": "pool",
          "type": "address"
        },
        {
          "indexed": false,
          "internalType": "uint256",
          "name": "tokenId",
          "type": "uint256"
        },
        {
          "indexed": false,
          "internalType": "uint256",
          "name": "liquidityBorrowed",
          "type": "uint256"
        },
        {
          "indexed": false,
          "internalType": "uint256[]",
          "name": "amounts",
          "type": "uint256[]"
        }
      ],
      "name": "BorrowLiquidity",
      "type": "event"
    },
    {
      "anonymous": false,
      "inputs": [
        {
          "indexed": true,
          "internalType": "address",
          "name": "pool",
          "type": "address"
        },
        {
          "indexed": true,
          "internalType": "address",
          "name": "owner",
          "type": "address"
        },
        {
          "indexed": false,
          "internalType": "uint256",
          "name": "tokenId",
          "type": "uint256"
        }
      ],
      "name": "CreateLoan",
      "type": "event"
    },
    {
      "anonymous": false,
      "inputs": [
        {
          "indexed": true,
          "internalType": "address",
          "name": "pool",
          "type": "address"
        },
        {
          "indexed": false,
          "internalType": "uint256",
          "name": "tokenId",
          "type": "uint256"
        },
        {
          "indexed": false,
          "internalType": "uint128[]",
          "name": "tokensHeld",
          "type": "uint128[]"
        }
      ],
      "name": "DecreaseCollateral",
      "type": "event"
    },
    {
      "anonymous": false,
      "inputs": [
        {
          "indexed": true,
          "internalType": "address",
          "name": "caller",
          "type": "address"
        },
        {
          "indexed": true,
          "internalType": "address",
          "name": "to",
          "type": "address"
        },
        {
          "indexed": false,
          "internalType": "uint256",
          "name": "assets",
          "type": "uint256"
        },
        {
          "indexed": false,
          "internalType": "uint256",
          "name": "shares",
          "type": "uint256"
        }
      ],
      "name": "Deposit",
      "type": "event"
    },
    {
      "anonymous": false,
      "inputs": [
        {
          "indexed": true,
          "internalType": "address",
          "name": "pool",
          "type": "address"
        },
        {
          "indexed": false,
          "internalType": "uint256",
          "name": "shares",
          "type": "uint256"
        }
      ],
      "name": "DepositNoPull",
      "type": "event"
    },
    {
      "anonymous": false,
      "inputs": [
        {
          "indexed": true,
          "internalType": "address",
          "name": "pool",
          "type": "address"
        },
        {
          "indexed": false,
          "internalType": "uint256[]",
          "name": "reserves",
          "type": "uint256[]"
        },
        {
          "indexed": false,
          "internalType": "uint256",
          "name": "shares",
          "type": "uint256"
        }
      ],
      "name": "DepositReserve",
      "type": "event"
    },
    {
      "anonymous": false,
      "inputs": [
        {
          "indexed": true,
          "internalType": "uint256",
          "name": "tokenId",
          "type": "uint256"
        },
        {
          "indexed": false,
          "internalType": "uint128[]",
          "name": "amounts",
          "type": "uint128[]"
        },
        {
          "indexed": false,
          "internalType": "uint256",
          "name": "lpTokens",
          "type": "uint256"
        },
        {
          "indexed": false,
          "internalType": "uint128",
          "name": "liquidity",
          "type": "uint128"
        },
        {
          "indexed": true,
          "internalType": "enum IStrategyEvents.TX_TYPE",
          "name": "txType",
          "type": "uint8"
        }
      ],
      "name": "ExternalSwap",
      "type": "event"
    },
    {
      "anonymous": false,
      "inputs": [
        {
          "indexed": true,
          "internalType": "address",
          "name": "pool",
          "type": "address"
        },
        {
          "indexed": false,
          "internalType": "uint256",
          "name": "tokenId",
          "type": "uint256"
        },
        {
          "indexed": false,
          "internalType": "uint128[]",
          "name": "tokensHeld",
          "type": "uint128[]"
        }
      ],
      "name": "IncreaseCollateral",
      "type": "event"
    },
    {
      "anonymous": false,
      "inputs": [
        {
          "indexed": true,
          "internalType": "uint256",
          "name": "tokenId",
          "type": "uint256"
        },
        {
          "indexed": false,
          "internalType": "uint128",
          "name": "collateral",
          "type": "uint128"
        },
        {
          "indexed": false,
          "internalType": "uint128",
          "name": "liquidity",
          "type": "uint128"
        },
        {
          "indexed": false,
          "internalType": "uint128",
          "name": "writeDownAmt",
          "type": "uint128"
        },
        {
          "indexed": false,
          "internalType": "enum IStrategyEvents.TX_TYPE",
          "name": "txType",
          "type": "uint8"
        },
        {
          "indexed": false,
          "internalType": "uint256[]",
          "name": "tokenIds",
          "type": "uint256[]"
        }
      ],
      "name": "Liquidation",
      "type": "event"
    },
    {
      "anonymous": false,
      "inputs": [
        {
          "indexed": true,
          "internalType": "address",
          "name": "caller",
          "type": "address"
        },
        {
          "indexed": false,
          "internalType": "uint256",
          "name": "tokenId",
          "type": "uint256"
        }
      ],
      "name": "LoanCreated",
      "type": "event"
    },
    {
      "anonymous": false,
      "inputs": [
        {
          "indexed": true,
          "internalType": "uint256",
          "name": "tokenId",
          "type": "uint256"
        },
        {
          "indexed": true,
          "internalType": "address",
          "name": "poolId",
          "type": "address"
        },
        {
          "indexed": true,
          "internalType": "address",
          "name": "owner",
          "type": "address"
        },
        {
          "indexed": false,
          "internalType": "uint128[]",
          "name": "tokensHeld",
          "type": "uint128[]"
        },
        {
          "indexed": false,
          "internalType": "uint256",
          "name": "liquidity",
          "type": "uint256"
        },
        {
          "indexed": false,
          "internalType": "uint256",
          "name": "lpTokens",
          "type": "uint256"
        },
        {
          "indexed": false,
          "internalType": "uint256",
          "name": "initLiquidity",
          "type": "uint256"
        },
        {
          "indexed": false,
          "internalType": "uint128[]",
          "name": "cfmmReserves",
          "type": "uint128[]"
        }
      ],
      "name": "LoanUpdate",
      "type": "event"
    },
    {
      "anonymous": false,
      "inputs": [
        {
          "indexed": true,
          "internalType": "uint256",
          "name": "tokenId",
          "type": "uint256"
        },
        {
          "indexed": false,
          "internalType": "uint128[]",
          "name": "tokensHeld",
          "type": "uint128[]"
        },
        {
          "indexed": false,
          "internalType": "uint128",
          "name": "liquidity",
          "type": "uint128"
        },
        {
          "indexed": false,
          "internalType": "uint128",
          "name": "initLiquidity",
          "type": "uint128"
        },
        {
          "indexed": false,
          "internalType": "uint256",
          "name": "lpTokens",
          "type": "uint256"
        },
        {
          "indexed": false,
          "internalType": "uint96",
          "name": "rateIndex",
          "type": "uint96"
        },
        {
          "indexed": true,
          "internalType": "enum IStrategyEvents.TX_TYPE",
          "name": "txType",
          "type": "uint8"
        }
      ],
      "name": "LoanUpdated",
      "type": "event"
    },
    {
      "anonymous": false,
      "inputs": [
        {
          "indexed": false,
          "internalType": "uint256",
          "name": "lpTokenBalance",
          "type": "uint256"
        },
        {
          "indexed": false,
          "internalType": "uint256",
          "name": "lpTokenBorrowed",
          "type": "uint256"
        },
        {
          "indexed": false,
          "internalType": "uint48",
          "name": "lastBlockNumber",
          "type": "uint48"
        },
        {
          "indexed": false,
          "internalType": "uint96",
          "name": "accFeeIndex",
          "type": "uint96"
        },
        {
          "indexed": false,
          "internalType": "uint256",
          "name": "lpTokenBorrowedPlusInterest",
          "type": "uint256"
        },
        {
          "indexed": false,
          "internalType": "uint128",
          "name": "lpInvariant",
          "type": "uint128"
        },
        {
          "indexed": false,
          "internalType": "uint128",
          "name": "borrowedInvariant",
          "type": "uint128"
        },
        {
          "indexed": false,
          "internalType": "uint128[]",
          "name": "cfmmReserves",
          "type": "uint128[]"
        },
        {
          "indexed": true,
          "internalType": "enum IStrategyEvents.TX_TYPE",
          "name": "txType",
          "type": "uint8"
        }
      ],
      "name": "PoolUpdated",
      "type": "event"
    },
    {
      "anonymous": false,
      "inputs": [
        {
          "indexed": true,
          "internalType": "address",
          "name": "pool",
          "type": "address"
        },
        {
          "indexed": false,
          "internalType": "uint256",
          "name": "tokenId",
          "type": "uint256"
        },
        {
          "indexed": false,
          "internalType": "uint128[]",
          "name": "tokensHeld",
          "type": "uint128[]"
        }
      ],
      "name": "RebalanceCollateral",
      "type": "event"
    },
    {
      "anonymous": false,
      "inputs": [
        {
          "indexed": true,
          "internalType": "address",
          "name": "pool",
          "type": "address"
        },
        {
          "indexed": false,
          "internalType": "uint256",
          "name": "tokenId",
          "type": "uint256"
        },
        {
          "indexed": false,
          "internalType": "uint256",
          "name": "liquidityPaid",
          "type": "uint256"
        },
        {
          "indexed": false,
          "internalType": "uint256[]",
          "name": "amounts",
          "type": "uint256[]"
        }
      ],
      "name": "RepayLiquidity",
      "type": "event"
    },
    {
      "anonymous": false,
      "inputs": [
        {
          "indexed": true,
          "internalType": "address",
          "name": "from",
          "type": "address"
        },
        {
          "indexed": true,
          "internalType": "address",
          "name": "to",
          "type": "address"
        },
        {
          "indexed": true,
          "internalType": "uint256",
          "name": "tokenId",
          "type": "uint256"
        }
      ],
      "name": "Transfer",
      "type": "event"
    },
    {
      "anonymous": false,
      "inputs": [
        {
          "indexed": true,
          "internalType": "address",
          "name": "caller",
          "type": "address"
        },
        {
          "indexed": true,
          "internalType": "address",
          "name": "to",
          "type": "address"
        },
        {
          "indexed": true,
          "internalType": "address",
          "name": "from",
          "type": "address"
        },
        {
          "indexed": false,
          "internalType": "uint256",
          "name": "assets",
          "type": "uint256"
        },
        {
          "indexed": false,
          "internalType": "uint256",
          "name": "shares",
          "type": "uint256"
        }
      ],
      "name": "Withdraw",
      "type": "event"
    },
    {
      "anonymous": false,
      "inputs": [
        {
          "indexed": true,
          "internalType": "address",
          "name": "pool",
          "type": "address"
        },
        {
          "indexed": false,
          "internalType": "uint256",
          "name": "assets",
          "type": "uint256"
        }
      ],
      "name": "WithdrawNoPull",
      "type": "event"
    },
    {
      "anonymous": false,
      "inputs": [
        {
          "indexed": true,
          "internalType": "address",
          "name": "pool",
          "type": "address"
        },
        {
          "indexed": false,
          "internalType": "uint256[]",
          "name": "reserves",
          "type": "uint256[]"
        },
        {
          "indexed": false,
          "internalType": "uint256",
          "name": "assets",
          "type": "uint256"
        }
      ],
      "name": "WithdrawReserve",
      "type": "event"
    },
    {
      "inputs": [],
      "name": "WETH",
      "outputs": [
        {
          "internalType": "address",
          "name": "",
          "type": "address"
        }
      ],
      "stateMutability": "view",
      "type": "function"
    },
    {
      "inputs": [
        {
          "internalType": "address",
          "name": "to",
          "type": "address"
        },
        {
          "internalType": "uint256",
          "name": "tokenId",
          "type": "uint256"
        }
      ],
      "name": "approve",
      "outputs": [],
      "stateMutability": "nonpayable",
      "type": "function"
    },
    {
      "inputs": [
        {
          "internalType": "address",
          "name": "owner",
          "type": "address"
        }
      ],
      "name": "balanceOf",
      "outputs": [
        {
          "internalType": "uint256",
          "name": "",
          "type": "uint256"
        }
      ],
      "stateMutability": "view",
      "type": "function"
    },
    {
      "inputs": [
        {
          "components": [
            {
              "internalType": "uint16",
              "name": "protocolId",
              "type": "uint16"
            },
            {
              "internalType": "address",
              "name": "cfmm",
              "type": "address"
            },
            {
              "internalType": "address",
              "name": "to",
              "type": "address"
            },
            {
              "internalType": "uint256",
              "name": "tokenId",
              "type": "uint256"
            },
            {
              "internalType": "uint256",
              "name": "lpTokens",
              "type": "uint256"
            },
            {
              "internalType": "uint256",
              "name": "deadline",
              "type": "uint256"
            },
            {
              "internalType": "uint256[]",
              "name": "amounts",
              "type": "uint256[]"
            },
            {
              "internalType": "uint256[]",
              "name": "withdraw",
              "type": "uint256[]"
            },
            {
              "internalType": "uint256[]",
              "name": "minBorrowed",
              "type": "uint256[]"
            },
            {
              "internalType": "int256[]",
              "name": "deltas",
              "type": "int256[]"
            },
            {
              "internalType": "uint128[]",
              "name": "minCollateral",
              "type": "uint128[]"
            }
          ],
          "internalType": "struct IPositionManager.BorrowAndRebalanceParams",
          "name": "params",
          "type": "tuple"
        }
      ],
      "name": "borrowAndRebalance",
      "outputs": [
        {
          "internalType": "uint128[]",
          "name": "tokensHeld",
          "type": "uint128[]"
        },
        {
          "internalType": "uint256",
          "name": "liquidityBorrowed",
          "type": "uint256"
        },
        {
          "internalType": "uint256[]",
          "name": "amounts",
          "type": "uint256[]"
        }
      ],
      "stateMutability": "nonpayable",
      "type": "function"
    },
    {
      "inputs": [
        {
          "components": [
            {
              "internalType": "uint16",
              "name": "protocolId",
              "type": "uint16"
            },
            {
              "internalType": "address",
              "name": "cfmm",
              "type": "address"
            },
            {
              "internalType": "uint256",
              "name": "tokenId",
              "type": "uint256"
            },
            {
              "internalType": "uint256",
              "name": "lpTokens",
              "type": "uint256"
            },
            {
              "internalType": "uint256",
              "name": "deadline",
              "type": "uint256"
            },
            {
              "internalType": "uint256[]",
              "name": "minBorrowed",
              "type": "uint256[]"
            }
          ],
          "internalType": "struct IPositionManager.BorrowLiquidityParams",
          "name": "params",
          "type": "tuple"
        }
      ],
      "name": "borrowLiquidity",
      "outputs": [
        {
          "internalType": "uint256",
          "name": "liquidityBorrowed",
          "type": "uint256"
        },
        {
          "internalType": "uint256[]",
          "name": "amounts",
          "type": "uint256[]"
        }
      ],
      "stateMutability": "nonpayable",
      "type": "function"
    },
    {
      "inputs": [
        {
          "internalType": "address",
          "name": "token",
          "type": "address"
        },
        {
          "internalType": "address",
          "name": "to",
          "type": "address"
        },
        {
          "internalType": "uint256",
          "name": "minAmt",
          "type": "uint256"
        }
      ],
      "name": "clearToken",
      "outputs": [],
      "stateMutability": "nonpayable",
      "type": "function"
    },
    {
      "inputs": [
        {
          "components": [
            {
              "internalType": "uint16",
              "name": "protocolId",
              "type": "uint16"
            },
            {
              "internalType": "address",
              "name": "cfmm",
              "type": "address"
            },
            {
              "internalType": "address",
              "name": "to",
              "type": "address"
            },
            {
              "internalType": "uint256",
              "name": "tokenId",
              "type": "uint256"
            },
            {
              "internalType": "uint256",
              "name": "liquidity",
              "type": "uint256"
            },
            {
              "internalType": "uint256",
              "name": "deadline",
              "type": "uint256"
            },
            {
              "internalType": "uint256[]",
              "name": "amounts",
              "type": "uint256[]"
            },
            {
              "internalType": "uint256[]",
              "name": "withdraw",
              "type": "uint256[]"
            },
            {
              "internalType": "uint256[]",
              "name": "minRepaid",
              "type": "uint256[]"
            },
            {
              "internalType": "int256[]",
              "name": "deltas",
              "type": "int256[]"
            },
            {
              "internalType": "uint128[]",
              "name": "minCollateral",
              "type": "uint128[]"
            },
            {
              "internalType": "uint256[]",
              "name": "fees",
              "type": "uint256[]"
            }
          ],
          "internalType": "struct IPositionManager.RebalanceRepayAndWithdrawParams",
          "name": "params",
          "type": "tuple"
        }
      ],
      "name": "closeLoan",
      "outputs": [
        {
          "internalType": "uint256",
          "name": "liquidityPaid",
          "type": "uint256"
        }
      ],
      "stateMutability": "nonpayable",
      "type": "function"
    },
    {
      "inputs": [
        {
          "internalType": "uint16",
          "name": "protocolId",
          "type": "uint16"
        },
        {
          "internalType": "address",
          "name": "cfmm",
          "type": "address"
        },
        {
          "internalType": "address",
          "name": "to",
          "type": "address"
        },
        {
          "internalType": "uint256",
          "name": "deadline",
          "type": "uint256"
        }
      ],
      "name": "createLoan",
      "outputs": [
        {
          "internalType": "uint256",
          "name": "tokenId",
          "type": "uint256"
        }
      ],
      "stateMutability": "nonpayable",
      "type": "function"
    },
    {
      "inputs": [
        {
          "components": [
            {
              "internalType": "uint16",
              "name": "protocolId",
              "type": "uint16"
            },
            {
              "internalType": "address",
              "name": "cfmm",
              "type": "address"
            },
            {
              "internalType": "address",
              "name": "to",
              "type": "address"
            },
            {
              "internalType": "uint256",
              "name": "lpTokens",
              "type": "uint256"
            },
            {
              "internalType": "uint256",
              "name": "deadline",
              "type": "uint256"
            },
            {
              "internalType": "uint256[]",
              "name": "amounts",
              "type": "uint256[]"
            },
            {
              "internalType": "uint256[]",
              "name": "minBorrowed",
              "type": "uint256[]"
            },
            {
              "internalType": "int256[]",
              "name": "deltas",
              "type": "int256[]"
            },
            {
              "internalType": "uint128[]",
              "name": "minCollateral",
              "type": "uint128[]"
            }
          ],
          "internalType": "struct IPositionManager.CreateLoanBorrowAndRebalanceParams",
          "name": "params",
          "type": "tuple"
        }
      ],
      "name": "createLoanBorrowAndRebalance",
      "outputs": [
        {
          "internalType": "uint256",
          "name": "tokenId",
          "type": "uint256"
        },
        {
          "internalType": "uint128[]",
          "name": "tokensHeld",
          "type": "uint128[]"
        },
        {
          "internalType": "uint256",
          "name": "liquidityBorrowed",
          "type": "uint256"
        },
        {
          "internalType": "uint256[]",
          "name": "amounts",
          "type": "uint256[]"
        }
      ],
      "stateMutability": "nonpayable",
      "type": "function"
    },
    {
      "inputs": [
        {
          "internalType": "address",
          "name": "to",
          "type": "address"
        }
      ],
      "name": "createTestLoan",
      "outputs": [
        {
          "internalType": "uint256",
          "name": "tokenId",
          "type": "uint256"
        }
      ],
      "stateMutability": "nonpayable",
      "type": "function"
    },
    {
      "inputs": [],
      "name": "dataStore",
      "outputs": [
        {
          "internalType": "address",
          "name": "",
          "type": "address"
        }
      ],
      "stateMutability": "view",
      "type": "function"
    },
    {
      "inputs": [
        {
          "components": [
            {
              "internalType": "uint16",
              "name": "protocolId",
              "type": "uint16"
            },
            {
              "internalType": "address",
              "name": "cfmm",
              "type": "address"
            },
            {
              "internalType": "address",
              "name": "to",
              "type": "address"
            },
            {
              "internalType": "uint256",
              "name": "tokenId",
              "type": "uint256"
            },
            {
              "internalType": "uint256",
              "name": "deadline",
              "type": "uint256"
            },
            {
              "internalType": "uint256[]",
              "name": "amounts",
              "type": "uint256[]"
            }
          ],
          "internalType": "struct IPositionManager.AddRemoveCollateralParams",
          "name": "params",
          "type": "tuple"
        }
      ],
      "name": "decreaseCollateral",
      "outputs": [
        {
          "internalType": "uint128[]",
          "name": "tokensHeld",
          "type": "uint128[]"
        }
      ],
      "stateMutability": "nonpayable",
      "type": "function"
    },
    {
      "inputs": [
        {
          "components": [
            {
              "internalType": "uint16",
              "name": "protocolId",
              "type": "uint16"
            },
            {
              "internalType": "address",
              "name": "cfmm",
              "type": "address"
            },
            {
              "internalType": "address",
              "name": "to",
              "type": "address"
            },
            {
              "internalType": "uint256",
              "name": "lpTokens",
              "type": "uint256"
            },
            {
              "internalType": "uint256",
              "name": "deadline",
              "type": "uint256"
            }
          ],
          "internalType": "struct IPositionManager.DepositWithdrawParams",
          "name": "params",
          "type": "tuple"
        }
      ],
      "name": "depositNoPull",
      "outputs": [
        {
          "internalType": "uint256",
          "name": "shares",
          "type": "uint256"
        }
      ],
      "stateMutability": "nonpayable",
      "type": "function"
    },
    {
      "inputs": [
        {
          "components": [
            {
              "internalType": "uint16",
              "name": "protocolId",
              "type": "uint16"
            },
            {
              "internalType": "address",
              "name": "cfmm",
              "type": "address"
            },
            {
              "internalType": "address",
              "name": "to",
              "type": "address"
            },
            {
              "internalType": "uint256",
              "name": "deadline",
              "type": "uint256"
            },
            {
              "internalType": "uint256[]",
              "name": "amountsDesired",
              "type": "uint256[]"
            },
            {
              "internalType": "uint256[]",
              "name": "amountsMin",
              "type": "uint256[]"
            }
          ],
          "internalType": "struct IPositionManager.DepositReservesParams",
          "name": "params",
          "type": "tuple"
        }
      ],
      "name": "depositReserves",
      "outputs": [
        {
          "internalType": "uint256[]",
          "name": "reserves",
          "type": "uint256[]"
        },
        {
          "internalType": "uint256",
          "name": "shares",
          "type": "uint256"
        }
      ],
      "stateMutability": "nonpayable",
      "type": "function"
    },
    {
      "inputs": [],
      "name": "factory",
      "outputs": [
        {
          "internalType": "address",
          "name": "",
          "type": "address"
        }
      ],
      "stateMutability": "view",
      "type": "function"
    },
    {
      "inputs": [
        {
          "internalType": "uint256",
          "name": "tokenId",
          "type": "uint256"
        }
      ],
      "name": "getApproved",
      "outputs": [
        {
          "internalType": "address",
          "name": "",
          "type": "address"
        }
      ],
      "stateMutability": "view",
      "type": "function"
    },
    {
      "inputs": [
        {
          "components": [
            {
              "internalType": "uint16",
              "name": "protocolId",
              "type": "uint16"
            },
            {
              "internalType": "address",
              "name": "cfmm",
              "type": "address"
            },
            {
              "internalType": "address",
              "name": "to",
              "type": "address"
            },
            {
              "internalType": "uint256",
              "name": "tokenId",
              "type": "uint256"
            },
            {
              "internalType": "uint256",
              "name": "deadline",
              "type": "uint256"
            },
            {
              "internalType": "uint256[]",
              "name": "amounts",
              "type": "uint256[]"
            }
          ],
          "internalType": "struct IPositionManager.AddRemoveCollateralParams",
          "name": "params",
          "type": "tuple"
        }
      ],
      "name": "increaseCollateral",
      "outputs": [
        {
          "internalType": "uint128[]",
          "name": "tokensHeld",
          "type": "uint128[]"
        }
      ],
      "stateMutability": "nonpayable",
      "type": "function"
    },
    {
      "inputs": [
        {
          "internalType": "address",
          "name": "owner",
          "type": "address"
        },
        {
          "internalType": "address",
          "name": "operator",
          "type": "address"
        }
      ],
      "name": "isApprovedForAll",
      "outputs": [
        {
          "internalType": "bool",
          "name": "",
          "type": "bool"
        }
      ],
      "stateMutability": "view",
      "type": "function"
    },
    {
      "inputs": [
        {
          "internalType": "address",
          "name": "gammaPool",
          "type": "address"
        }
      ],
      "name": "logPrice",
      "outputs": [],
      "stateMutability": "nonpayable",
      "type": "function"
    },
    {
      "inputs": [],
      "name": "name",
      "outputs": [
        {
          "internalType": "string",
          "name": "",
          "type": "string"
        }
      ],
      "stateMutability": "view",
      "type": "function"
    },
    {
      "inputs": [
        {
          "internalType": "uint256",
          "name": "tokenId",
          "type": "uint256"
        }
      ],
      "name": "ownerOf",
      "outputs": [
        {
          "internalType": "address",
          "name": "",
          "type": "address"
        }
      ],
      "stateMutability": "view",
      "type": "function"
    },
    {
      "inputs": [],
      "name": "priceStore",
      "outputs": [
        {
          "internalType": "address",
          "name": "",
          "type": "address"
        }
      ],
      "stateMutability": "view",
      "type": "function"
    },
    {
      "inputs": [
        {
          "components": [
            {
              "internalType": "uint16",
              "name": "protocolId",
              "type": "uint16"
            },
            {
              "internalType": "address",
              "name": "cfmm",
              "type": "address"
            },
            {
              "internalType": "uint256",
              "name": "tokenId",
              "type": "uint256"
            },
            {
              "internalType": "uint256",
              "name": "deadline",
              "type": "uint256"
            },
            {
              "internalType": "int256[]",
              "name": "deltas",
              "type": "int256[]"
            },
            {
              "internalType": "uint128[]",
              "name": "minCollateral",
              "type": "uint128[]"
            }
          ],
          "internalType": "struct IPositionManager.RebalanceCollateralParams",
          "name": "params",
          "type": "tuple"
        }
      ],
      "name": "rebalanceCollateral",
      "outputs": [
        {
          "internalType": "uint128[]",
          "name": "tokensHeld",
          "type": "uint128[]"
        }
      ],
      "stateMutability": "nonpayable",
      "type": "function"
    },
    {
      "inputs": [
        {
          "components": [
            {
              "internalType": "uint16",
              "name": "protocolId",
              "type": "uint16"
            },
            {
              "internalType": "address",
              "name": "cfmm",
              "type": "address"
            },
            {
              "internalType": "address",
              "name": "to",
              "type": "address"
            },
            {
              "internalType": "uint256",
              "name": "tokenId",
              "type": "uint256"
            },
            {
              "internalType": "uint256",
              "name": "liquidity",
              "type": "uint256"
            },
            {
              "internalType": "uint256",
              "name": "deadline",
              "type": "uint256"
            },
            {
              "internalType": "uint256[]",
              "name": "amounts",
              "type": "uint256[]"
            },
            {
              "internalType": "uint256[]",
              "name": "withdraw",
              "type": "uint256[]"
            },
            {
              "internalType": "uint256[]",
              "name": "minRepaid",
              "type": "uint256[]"
            },
            {
              "internalType": "int256[]",
              "name": "deltas",
              "type": "int256[]"
            },
            {
              "internalType": "uint128[]",
              "name": "minCollateral",
              "type": "uint128[]"
            },
            {
              "internalType": "uint256[]",
              "name": "fees",
              "type": "uint256[]"
            }
          ],
          "internalType": "struct IPositionManager.RebalanceRepayAndWithdrawParams",
          "name": "params",
          "type": "tuple"
        }
      ],
      "name": "rebalanceRepayAndWithdraw",
      "outputs": [
        {
          "internalType": "uint128[]",
          "name": "tokensHeld",
          "type": "uint128[]"
        },
        {
          "internalType": "uint256",
          "name": "liquidityPaid",
          "type": "uint256"
        },
        {
          "internalType": "uint256[]",
          "name": "amounts",
          "type": "uint256[]"
        }
      ],
      "stateMutability": "nonpayable",
      "type": "function"
    },
    {
      "inputs": [],
      "name": "refundETH",
      "outputs": [],
      "stateMutability": "payable",
      "type": "function"
    },
    {
      "inputs": [
        {
          "components": [
            {
              "internalType": "uint16",
              "name": "protocolId",
              "type": "uint16"
            },
            {
              "internalType": "address",
              "name": "cfmm",
              "type": "address"
            },
            {
              "internalType": "uint256",
              "name": "tokenId",
              "type": "uint256"
            },
            {
              "internalType": "uint256",
              "name": "liquidity",
              "type": "uint256"
            },
            {
              "internalType": "uint256",
              "name": "deadline",
              "type": "uint256"
            },
            {
              "internalType": "uint256[]",
              "name": "minRepaid",
              "type": "uint256[]"
            },
            {
              "internalType": "uint256[]",
              "name": "fees",
              "type": "uint256[]"
            }
          ],
          "internalType": "struct IPositionManager.RepayLiquidityParams",
          "name": "params",
          "type": "tuple"
        }
      ],
      "name": "repayLiquidity",
      "outputs": [
        {
          "internalType": "uint256",
          "name": "liquidityPaid",
          "type": "uint256"
        },
        {
          "internalType": "uint256[]",
          "name": "amounts",
          "type": "uint256[]"
        }
      ],
      "stateMutability": "nonpayable",
      "type": "function"
    },
    {
      "inputs": [
        {
          "internalType": "address",
          "name": "from",
          "type": "address"
        },
        {
          "internalType": "address",
          "name": "to",
          "type": "address"
        },
        {
          "internalType": "uint256",
          "name": "tokenId",
          "type": "uint256"
        }
      ],
      "name": "safeTransferFrom",
      "outputs": [],
      "stateMutability": "nonpayable",
      "type": "function"
    },
    {
      "inputs": [
        {
          "internalType": "address",
          "name": "from",
          "type": "address"
        },
        {
          "internalType": "address",
          "name": "to",
          "type": "address"
        },
        {
          "internalType": "uint256",
          "name": "tokenId",
          "type": "uint256"
        },
        {
          "internalType": "bytes",
          "name": "data",
          "type": "bytes"
        }
      ],
      "name": "safeTransferFrom",
      "outputs": [],
      "stateMutability": "nonpayable",
      "type": "function"
    },
    {
      "inputs": [
        {
          "internalType": "address[]",
          "name": "tokens",
          "type": "address[]"
        },
        {
          "internalType": "uint256[]",
          "name": "amounts",
          "type": "uint256[]"
        },
        {
          "internalType": "address",
          "name": "payee",
          "type": "address"
        },
        {
          "internalType": "bytes",
          "name": "data",
          "type": "bytes"
        }
      ],
      "name": "sendTokensCallback",
      "outputs": [],
      "stateMutability": "nonpayable",
      "type": "function"
    },
    {
      "inputs": [
        {
          "internalType": "address",
          "name": "operator",
          "type": "address"
        },
        {
          "internalType": "bool",
          "name": "approved",
          "type": "bool"
        }
      ],
      "name": "setApprovalForAll",
      "outputs": [],
      "stateMutability": "nonpayable",
      "type": "function"
    },
    {
      "inputs": [
        {
          "internalType": "address",
          "name": "_dataStore",
          "type": "address"
        }
      ],
      "name": "setDataStore",
      "outputs": [],
      "stateMutability": "nonpayable",
      "type": "function"
    },
    {
      "inputs": [
        {
          "internalType": "address",
          "name": "_priceStore",
          "type": "address"
        }
      ],
      "name": "setPriceStore",
      "outputs": [],
      "stateMutability": "nonpayable",
      "type": "function"
    },
    {
      "inputs": [
        {
          "internalType": "bytes4",
          "name": "interfaceId",
          "type": "bytes4"
        }
      ],
      "name": "supportsInterface",
      "outputs": [
        {
          "internalType": "bool",
          "name": "",
          "type": "bool"
        }
      ],
      "stateMutability": "view",
      "type": "function"
    },
    {
      "inputs": [],
      "name": "symbol",
      "outputs": [
        {
          "internalType": "string",
          "name": "",
          "type": "string"
        }
      ],
      "stateMutability": "view",
      "type": "function"
    },
    {
      "inputs": [
        {
          "internalType": "uint128[]",
          "name": "amounts",
          "type": "uint128[]"
        },
        {
          "internalType": "uint128[]",
          "name": "amountsMin",
          "type": "uint128[]"
        }
      ],
      "name": "testCheckMinCollateral",
      "outputs": [],
      "stateMutability": "pure",
      "type": "function"
    },
    {
      "inputs": [
        {
          "internalType": "uint256[]",
          "name": "amounts",
          "type": "uint256[]"
        },
        {
          "internalType": "uint256[]",
          "name": "amountsMin",
          "type": "uint256[]"
        }
      ],
      "name": "testCheckMinReserves",
      "outputs": [],
      "stateMutability": "pure",
      "type": "function"
    },
    {
      "inputs": [
        {
          "internalType": "uint256",
          "name": "",
          "type": "uint256"
        }
      ],
      "name": "tokenURI",
      "outputs": [
        {
          "internalType": "string",
          "name": "",
          "type": "string"
        }
      ],
      "stateMutability": "view",
      "type": "function"
    },
    {
      "inputs": [
        {
          "internalType": "address",
          "name": "from",
          "type": "address"
        },
        {
          "internalType": "address",
          "name": "to",
          "type": "address"
        },
        {
          "internalType": "uint256",
          "name": "tokenId",
          "type": "uint256"
        }
      ],
      "name": "transferFrom",
      "outputs": [],
      "stateMutability": "nonpayable",
      "type": "function"
    },
    {
      "inputs": [
        {
          "internalType": "uint256",
          "name": "minAmt",
          "type": "uint256"
        },
        {
          "internalType": "address",
          "name": "to",
          "type": "address"
        }
      ],
      "name": "unwrapWETH",
      "outputs": [],
      "stateMutability": "payable",
      "type": "function"
    },
    {
      "inputs": [
        {
          "components": [
            {
              "internalType": "uint16",
              "name": "protocolId",
              "type": "uint16"
            },
            {
              "internalType": "address",
              "name": "cfmm",
              "type": "address"
            },
            {
              "internalType": "address",
              "name": "to",
              "type": "address"
            },
            {
              "internalType": "uint256",
              "name": "lpTokens",
              "type": "uint256"
            },
            {
              "internalType": "uint256",
              "name": "deadline",
              "type": "uint256"
            }
          ],
          "internalType": "struct IPositionManager.DepositWithdrawParams",
          "name": "params",
          "type": "tuple"
        }
      ],
      "name": "withdrawNoPull",
      "outputs": [
        {
          "internalType": "uint256",
          "name": "assets",
          "type": "uint256"
        }
      ],
      "stateMutability": "nonpayable",
      "type": "function"
    },
    {
      "inputs": [
        {
          "components": [
            {
              "internalType": "uint16",
              "name": "protocolId",
              "type": "uint16"
            },
            {
              "internalType": "address",
              "name": "cfmm",
              "type": "address"
            },
            {
              "internalType": "address",
              "name": "to",
              "type": "address"
            },
            {
              "internalType": "uint256",
              "name": "amount",
              "type": "uint256"
            },
            {
              "internalType": "uint256",
              "name": "deadline",
              "type": "uint256"
            },
            {
              "internalType": "uint256[]",
              "name": "amountsMin",
              "type": "uint256[]"
            }
          ],
          "internalType": "struct IPositionManager.WithdrawReservesParams",
          "name": "params",
          "type": "tuple"
        }
      ],
      "name": "withdrawReserves",
      "outputs": [
        {
          "internalType": "uint256[]",
          "name": "reserves",
          "type": "uint256[]"
        },
        {
          "internalType": "uint256",
          "name": "assets",
          "type": "uint256"
        }
      ],
      "stateMutability": "nonpayable",
      "type": "function"
    },
    {
      "stateMutability": "payable",
      "type": "receive"
    }
  ],
  "bytecode": {
    "object": "0x60c06040523480156200001157600080fd5b506040516200424338038062004243833981016040819052620000349162000080565b6001600160a01b03918216608052600480546001600160a01b0319169183169190911790551660a052620000ca565b80516001600160a01b03811681146200007b57600080fd5b919050565b6000806000606084860312156200009657600080fd5b620000a18462000063565b9250620000b16020850162000063565b9150620000c16040850162000063565b90509250925092565b60805160a05161411b6200012860003960008181610759015281816113620152611e1f01526000818161025a015281816106b701528181611723015281816117d50152818161227b015281816122c10152612338015261411b6000f3fe60806040526004361061024a5760003560e01c8063787dcf0811610139578063c45a0155116100b6578063da07e86d1161007a578063da07e86d14610809578063e16d9ce514610829578063e7c0d71f1461083c578063e985e9c51461085c578063edb7c2fe1461087c578063ffdaabef1461089c57600080fd5b8063c45a015514610747578063c87b56dd1461077b578063ccbe764a146107a9578063d1b0eff5146107c9578063d22c164a146107e957600080fd5b8063a483ad3c116100fd578063a483ad3c14610668578063ad5c4648146106a5578063b768fc85146106d9578063b88d4fde146106f9578063bc8df09e1461071957600080fd5b8063787dcf08146105ac57806378fc3053146105cc57806381020dd6146105fa57806395d89b411461061a578063a22cb4651461064857600080fd5b806342842e0e116101c7578063660d0d671161018b578063660d0d67146104fc57806370a082311461051c57806373873e331461053c57806376c84a331461056c578063770b99dc1461058c57600080fd5b806342842e0e1461043f578063500065d21461045f5780636352211e1461049c5780636410522c146104bc5780636464a1eb146104dc57600080fd5b80630bab929d1161020e5780630bab929d1461039c5780630fbf5097146103ca57806312210e8a146103f757806323b872dd146103ff57806333cc39a31461041f57600080fd5b806301ffc9a71461029f57806306fdde03146102d4578063081812fc14610315578063095ea7b31461034d57806309b4dcf41461036d57600080fd5b3661029a57336001600160a01b037f0000000000000000000000000000000000000000000000000000000000000000161461029857604051635724f38560e01b815260040160405180910390fd5b005b600080fd5b3480156102ab57600080fd5b506102bf6102ba366004612faa565b6108bc565b60405190151581526020015b60405180910390f35b3480156102e057600080fd5b5060408051808201909152600f81526e2837b9b4ba34b7b726b0b730b3b2b960891b60208201525b6040516102cb9190613017565b34801561032157600080fd5b5061033561033036600461302a565b61090e565b6040516001600160a01b0390911681526020016102cb565b34801561035957600080fd5b50610298610368366004613058565b610935565b34801561037957600080fd5b5061038d610388366004613084565b6109c1565b6040516102cb93929190613133565b3480156103a857600080fd5b506103bc6103b7366004613168565b610c0f565b6040519081526020016102cb565b3480156103d657600080fd5b506103ea6103e5366004613192565b610d28565b6040516102cb91906131c6565b610298610dd2565b34801561040b57600080fd5b5061029861041a3660046131d9565b610de4565b34801561042b57600080fd5b506103bc61043a366004613168565b610df8565b34801561044b57600080fd5b5061029861045a3660046131d9565b610f04565b34801561046b57600080fd5b5061029861047a36600461321a565b600480546001600160a01b0319166001600160a01b0392909216919091179055565b3480156104a857600080fd5b506103356104b736600461302a565b610f1f565b3480156104c857600080fd5b506102986104d7366004613352565b610f55565b3480156104e857600080fd5b506102986104f7366004613400565b610f63565b34801561050857600080fd5b50600454610335906001600160a01b031681565b34801561052857600080fd5b506103bc61053736600461321a565b611002565b34801561054857600080fd5b5061055c6105573660046134db565b611047565b6040516102cb9493929190613516565b34801561057857600080fd5b506103bc610587366004613564565b61114a565b34801561059857600080fd5b506103bc6105a736600461321a565b611183565b3480156105b857600080fd5b5061038d6105c73660046135b3565b611194565b3480156105d857600080fd5b506105ec6105e7366004613192565b611261565b6040516102cb9291906135ee565b34801561060657600080fd5b506105ec610615366004613607565b6112d6565b34801561062657600080fd5b50604080518082019091526005815264504d2d563160d81b6020820152610308565b34801561065457600080fd5b5061029861066336600461364f565b611335565b34801561067457600080fd5b5061029861068336600461321a565b600580546001600160a01b0319166001600160a01b0392909216919091179055565b3480156106b157600080fd5b506103357f000000000000000000000000000000000000000000000000000000000000000081565b3480156106e557600080fd5b506102986106f436600461321a565b611340565b34801561070557600080fd5b506102986107143660046136af565b6113e1565b34801561072557600080fd5b50610739610734366004613192565b6113fc565b6040516102cb929190613758565b34801561075357600080fd5b506103357f000000000000000000000000000000000000000000000000000000000000000081565b34801561078757600080fd5b5061030861079636600461302a565b5060408051602081019091526000815290565b3480156107b557600080fd5b506102986107c43660046131d9565b611559565b3480156107d557600080fd5b506103ea6107e4366004613192565b6115f8565b3480156107f557600080fd5b5061029861080436600461377a565b611643565b34801561081557600080fd5b506103ea610824366004613192565b6116b0565b6102986108373660046137e5565b61170b565b34801561084857600080fd5b50610739610857366004613192565b611843565b34801561086857600080fd5b506102bf61087736600461380a565b6119df565b34801561088857600080fd5b506103bc610897366004613084565b611a0d565b3480156108a857600080fd5b50600554610335906001600160a01b031681565b60006001600160e01b031982166380ac58cd60e01b14806108ed57506001600160e01b03198216635b5e139f60e01b145b8061090857506301ffc9a760e01b6001600160e01b03198316145b92915050565b600061091982611cf5565b506000908152600260205260409020546001600160a01b031690565b600061094082610f1f565b9050806001600160a01b0316836001600160a01b031603610974576040516390c88f1160e01b815260040160405180910390fd5b336001600160a01b03821614801590610994575061099281336119df565b155b156109b257604051639f7791bd60e01b815260040160405180910390fd5b6109bc8383611d2a565b505050565b60606000606083606001356109d581611d98565b8460a001356109e381611dbf565b6000610a0a6109f86040890160208a0161321a565b610a0560208a018a613838565b611de0565b9050610a1960c0880188613853565b1580159150610a4d5750610a3060c0880188613853565b6000818110610a4157610a4161389c565b90506020020135600014155b15610a7057610a6d816060890135610a6860c08b018b613853565b611e4d565b95505b610a7e610120880188613853565b1580159150610ab35750610a96610120880188613853565b6000818110610aa757610aa761389c565b90506020020135600014155b15610b4957610b46816060890135610acf6101208b018b613853565b80806020026020016040519081016040528093929190818152602001838360200280828437600092019190915250610b0f925050506101408c018c613853565b80806020026020016040519081016040528093929190818152602001838360200280828437600092019190915250611f7d92505050565b95505b608087013515610b8857610b8281606089013560808a0135610b6f6101008c018c613853565b610b7d6101608e018e613853565b61203c565b90955093505b610b9560e0880188613853565b159050610bfc57610bf981610bb060608a0160408b0161321a565b60608a0135610bc260e08c018c613853565b8080602002602001604051908101604052809392919081815260200183836020028082843760009201919091525061214f92505050565b95505b610c0581612206565b5050509193909250565b60008160800135610c1f81611dbf565b6000610c41610c34604086016020870161321a565b610a056020870187613838565b9050610c538133838760600135612279565b6001600160a01b03811663192fdf10610c72606087016040880161321a565b6040516001600160e01b031960e084901b1681526001600160a01b0390911660048201526024016020604051808303816000875af1158015610cb8573d6000803e3d6000fd5b505050506040513d601f19601f82011682018060405250810190610cdc91906138b2565b9250806001600160a01b03167f62f6d78e7bcbb50bd3c10735875875bc356251f9cd9a543e413a0b583f25e66784604051610d1991815260200190565b60405180910390a25050919050565b60608160400135610d3881611d98565b8260600135610d4681611dbf565b6000610d68610d5b604087016020880161321a565b610a056020880188613838565b9050610dbf816040870135610d806080890189613853565b80806020026020016040519081016040528093929190818152602001838360200280828437600092019190915250610b0f9250505060a08a018a613853565b9350610dca81612206565b505050919050565b4715610de257610de2334761238a565b565b610ded81612418565b6109bc83838361243f565b60008160800135610e0881611dbf565b6000610e1d610c34604086016020870161321a565b9050610e3e610e32604086016020870161321a565b33838760600135612279565b6001600160a01b0381166365418ef5610e5d606087016040880161321a565b6040516001600160e01b031960e084901b1681526001600160a01b0390911660048201526024016020604051808303816000875af1158015610ea3573d6000803e3d6000fd5b505050506040513d601f19601f82011682018060405250810190610ec791906138b2565b9250806001600160a01b03167fc1e9289541827020cbcec2b1510bd9aed3740c65f7082bb7b3ee6a443bcc955f84604051610d1991815260200190565b6109bc838383604051806020016040528060008152506113e1565b6000818152602081905260408120546001600160a01b03168061090857604051633f0f7f7360e01b815260040160405180910390fd5b610f5f82826124d1565b5050565b6000610f71828401846138cb565b9050610f8581602001518260400151611de0565b6001600160a01b0316336001600160a01b031614610fb6576040516368e0934d60e01b815260040160405180910390fd5b610ff88888808060200260200160405190810160405280939291908181526020018383602002808284376000920191909152505084519150879050898961254b565b5050505050505050565b60006001600160a01b03821661102b57604051630bb6521b60e41b815260040160405180910390fd5b506001600160a01b031660009081526001602052604090205490565b6000606060006060846080013561105d81611dbf565b60006110726109f86040890160208a0161321a565b905061108d8161108860608a0160408b0161321a565b6125be565b95506110a18187610a6860a08b018b613853565b94506060870135156110cf576110c9818760608a01356110c460c08c018c613853565b612684565b90945092505b6110dc60e0880188613853565b1590506111385761113581876110f560e08b018b613853565b80806020026020016040519081016040528093929190818152602001838360200280828437600092019190915250610b0f925050506101008c018c613853565b94505b61114181612206565b50509193509193565b60008161115681611dbf565b60006111628688611de0565b905061116e81866125be565b925061117981612206565b5050949350505050565b600161118f8282612794565b919050565b60606000606083606001356111a881611d98565b8460a001356111b681611dbf565b60006111cb6109f86040890160208a0161321a565b90506111da60c0880188613853565b1590506111fa576111f7816060890135610a6860c08b018b613853565b95505b6080870135156112265761122081606089013560808a01356110c46101008c018c613853565b90955093505b611234610120880188613853565b159050610b8857611252816060890135610acf6101208b018b613853565b9550610b9560e0880188613853565b60006060826040013561127381611d98565b836080013561128181611dbf565b60006112a3611296604088016020890161321a565b610a056020890189613838565b90506112c081604088013560608901356110c460a08b018b613853565b90955093506112ce81612206565b505050915091565b6000606082604001356112e881611d98565b83608001356112f681611dbf565b600061130b611296604088016020890161321a565b90506112c0816040880135606089013561132860a08b018b613853565b610b7d60c08d018d613853565b610f5f3383836127ae565b6040516324de43d160e21b81526001600160a01b0382811660048301526000917f0000000000000000000000000000000000000000000000000000000000000000909116906393790f4490602401602060405180830381865afa1580156113ab573d6000803e3d6000fd5b505050506040513d601f19601f820116820180604052508101906113cf91906138b2565b11156113de576113de81612206565b50565b6113ea82612418565b6113f68484848461284d565b50505050565b60606000826080013561140e81611dbf565b6000611423610d5b604087016020880161321a565b90506114358133838860600135612279565b6001600160a01b038116630cfba8eb611454606088016040890161321a565b6040516001600160e01b031960e084901b1681526001600160a01b0390911660048201526024016000604051808303816000875af115801561149a573d6000803e3d6000fd5b505050506040513d6000823e601f3d908101601f191682016040526114c29190810190613995565b909450925061150f846114d860a0880188613853565b8080602002602001604051908101604052809392919081815260200183836020028082843760009201919091525061288192505050565b806001600160a01b03167ff7c61b41bfaa7908992135fe8a2c5a64a301e2ae748402a839ea672549bea7f5858560405161154a929190613758565b60405180910390a25050915091565b6040516370a0823160e01b81523060048201526000906001600160a01b038516906370a0823190602401602060405180830381865afa1580156115a0573d6000803e3d6000fd5b505050506040513d601f19601f820116820180604052508101906115c491906138b2565b9050818110156115e7576040516308aeed0f60e21b815260040160405180910390fd5b80156113f6576113f68484836128e9565b6060816060013561160881611d98565b826080013561161681611dbf565b600061162b610d5b604087016020880161321a565b9050610dbf816060870135610a6860a0890189613853565b6113f68484808060200260200160405190810160405280939291908181526020018383602002808284376000920191909152505060408051602080880282810182019093528782529093508792508691829185019084908082843760009201919091525061288192505050565b606081606001356116c081611d98565b82608001356116ce81611dbf565b60006116e3610d5b604087016020880161321a565b9050610dbf816116f9606088016040890161321a565b6060880135610bc260a08a018a613853565b6040516370a0823160e01b81523060048201526000907f00000000000000000000000000000000000000000000000000000000000000006001600160a01b0316906370a0823190602401602060405180830381865afa158015611772573d6000803e3d6000fd5b505050506040513d601f19601f8201168201806040525081019061179691906138b2565b9050828110156117b95760405163d666767760e01b815260040160405180910390fd5b80156109bc57604051632e1a7d4d60e01b8152600481018290527f00000000000000000000000000000000000000000000000000000000000000006001600160a01b031690632e1a7d4d90602401600060405180830381600087803b15801561182157600080fd5b505af1158015611835573d6000803e3d6000fd5b505050506109bc828261238a565b60606000826060013561185581611dbf565b600061186a610d5b604087016020880161321a565b90506001600160a01b0381166354fe2a9661188b606088016040890161321a565b6118986080890189613853565b6118a560a08b018b613853565b6040518060600160405280336001600160a01b031681526020018d60200160208101906118d2919061321a565b6001600160a01b031681526020908101906118ef908f018f613838565b61ffff9081169091526040805183516001600160a01b0390811660208084019190915285015116818301529201511660608201526080016040516020818303038152906040526040518763ffffffff1660e01b815260040161195696959493929190613a0d565b6000604051808303816000875af1158015611975573d6000803e3d6000fd5b505050506040513d6000823e601f3d908101601f1916820160405261199d9190810190613995565b60405191955093506001600160a01b038216907fdc1c43665774cee1c835ebdb3104f0ac89d600cf037f3605901e07339f14b8469061154a9087908790613758565b6001600160a01b03918216600090815260036020908152604080832093909416825291909152205460ff1690565b60008160600135611a1d81611d98565b8260a00135611a2b81611dbf565b6000611a40610d5b604087016020880161321a565b604051633d3289b960e11b8152606087013560048201529091506000906001600160a01b03831690637a65137290602401600060405180830381865afa158015611a8e573d6000803e3d6000fd5b505050506040513d6000823e601f3d908101601f19168201604052611ab69190810190613a66565b9050611ad082606088013583610b0f6101408b018b613853565b50611af9826060880135600019611aeb6101008b018b613853565b610b7d6101608d018d613853565b50604051631b2d298360e11b8152606088013560048201529095506000906001600160a01b0384169063365a530690602401600060405180830381865afa158015611b48573d6000803e3d6000fd5b505050506040513d6000823e601f3d908101601f19168201604052611b709190810190613d0b565b905060008160e00151516001600160401b03811115611b9157611b91613237565b604051908082528060200260200182016040528015611bba578160200160208202803683370190505b5090506000805b8360e0015151811015611cb8578360e001518181518110611be457611be461389c565b60200260200101516001600160801b0316838281518110611c0757611c0761389c565b60209081029190910101526000611c2160e08c018c613853565b9050118015611c6b5750611c3860e08b018b613853565b82818110611c4857611c4861389c565b90506020020135838281518110611c6157611c6161389c565b6020026020010151105b15611c8957604051631cfa520960e31b815260040160405180910390fd5b8180611cae57506000838281518110611ca457611ca461389c565b6020026020010151115b9150600101611bc1565b508015611ce057611cde85611cd360608c0160408d0161321a565b8b606001358561214f565b505b611ce985612206565b50505050505050919050565b6000818152602081905260409020546001600160a01b03166113de57604051633f0f7f7360e01b815260040160405180910390fd5b600081815260026020526040902080546001600160a01b0319166001600160a01b0384169081179091558190611d5f82610f1f565b6001600160a01b03167f8c5be1e5ebec7d5bd14f71427d1e84f3dd0314c0f7b2291e5b200ac8c7c3b92560405160405180910390a45050565b611da233826129ce565b6113de57604051631dd2188d60e31b815260040160405180910390fd5b428110156113de57604051630407b05b60e31b815260040160405180910390fd5b604080516001600160a01b03841660208083019190915261ffff84168284015282518083038401815260609092019092528051910120600090611e46907f0000000000000000000000000000000000000000000000000000000000000000908490612a2d565b9392505050565b6060611ec1856001600160a01b0316639d63848a6040518163ffffffff1660e01b8152600401600060405180830381865afa158015611e90573d6000803e3d6000fd5b505050506040513d6000823e601f3d908101601f19168201604052611eb89190810190613e7f565b3387868661254b565b604051632e2a0e0d60e21b8152600481018590526001600160a01b0386169063b8a83834906024016000604051808303816000875af1158015611f08573d6000803e3d6000fd5b505050506040513d6000823e601f3d908101601f19168201604052611f309190810190613eb3565b9050846001600160a01b03167f4ed1a6745f4b06feb28e4d565ac04f2fa66a2dfac01557520a71eb02aec8bfa58583604051611f6d929190613ee7565b60405180910390a2949350505050565b60405163154de1fb60e11b81526060906001600160a01b03861690632a9bc3f690611fae9087908790600401613f00565b6000604051808303816000875af1158015611fcd573d6000803e3d6000fd5b505050506040513d6000823e601f3d908101601f19168201604052611ff59190810190613eb3565b905061200181836124d1565b846001600160a01b03167f1db73d1c5bcc47ffff0e4943ac19c9b9b7a78f50403a52bf1050f04474731fea8583604051611f6d929190613ee7565b60006060886001600160a01b031663a964e52c898987876040518563ffffffff1660e01b81526004016120729493929190613f4e565b6000604051808303816000875af1158015612091573d6000803e3d6000fd5b505050506040513d6000823e601f3d908101601f191682016040526120b99190810190613f6e565b80925081935050506120fe8187878080602002602001604051908101604052809392919081815260200183836020028082843760009201919091525061288192505050565b886001600160a01b03167f289939c8f6b4d60faa832d7f431192d2b9b10dd03854b07736a71c3fc3acb8e989848460405161213b93929190613faa565b60405180910390a297509795505050505050565b60405163ea940b1d60e01b81526060906001600160a01b0386169063ea940b1d9061218290869086908990600401613fd2565b6000604051808303816000875af11580156121a1573d6000803e3d6000fd5b505050506040513d6000823e601f3d908101601f191682016040526121c99190810190613eb3565b9050846001600160a01b03167f41210c19b4ed75ec04b1b375b2d2298749e9bc812962c2d1f3e4efeee51e1eaf8483604051611f6d929190613ee7565b6005546001600160a01b0316156113de57600554604051631dd0aaf760e31b81526001600160a01b0383811660048301529091169063ee8557b890602401600060405180830381600087803b15801561225e57600080fd5b505af1158015612272573d6000803e3d6000fd5b5050505050565b7f00000000000000000000000000000000000000000000000000000000000000006001600160a01b0316846001600160a01b03161480156122ba5750804710155b15612363577f00000000000000000000000000000000000000000000000000000000000000006001600160a01b031663d0e30db0826040518263ffffffff1660e01b81526004016000604051808303818588803b15801561231a57600080fd5b505af115801561232e573d6000803e3d6000fd5b505050505061235e7f000000000000000000000000000000000000000000000000000000000000000083836128e9565b6113f6565b306001600160a01b0384160361237e5761235e8483836128e9565b6113f684848484612afd565b604080516000808252602082019092526001600160a01b0384169083906040516123b49190614003565b60006040518083038185875af1925050503d80600081146123f1576040519150601f19603f3d011682016040523d82523d6000602084013e6123f6565b606091505b50509050806109bc576040516325e5592160e21b815260040160405180910390fd5b61242233826129ce565b6113de57604051639f7791bd60e01b815260040160405180910390fd5b61244a838383612bf2565b6004546001600160a01b0316156109bc57600480546040516302ca8acf60e01b81526001600160a01b03868116938201939093528483166024820152604481018490529116906302ca8acf906064015b600060405180830381600087803b1580156124b457600080fd5b505af11580156124c8573d6000803e3d6000fd5b50505050505050565b815160005b818110156113f6578281815181106124f0576124f061389c565b60200260200101516001600160801b03168482815181106125135761251361389c565b60200260200101516001600160801b0316101561254357604051631cfa520960e31b815260040160405180910390fd5b6001016124d6565b845160005b818110156124c857600084848381811061256c5761256c61389c565b9050602002013511156125b6576125b687828151811061258e5761258e61389c565b602002602001015187878787868181106125aa576125aa61389c565b90506020020135612279565b600101612550565b6000826001600160a01b03166365ec1a456040518163ffffffff1660e01b81526004016020604051808303816000875af1158015612600573d6000803e3d6000fd5b505050506040513d601f19601f8201168201806040525081019061262491906138b2565b9050612631838284612d1a565b816001600160a01b0316836001600160a01b03167fe8d049444e65d46f91184699c75d8f51789512409398c16ab780a1c3ede287a48360405161267691815260200190565b60405180910390a392915050565b6040516328cad17f60e01b815260048101859052602481018490526000906060906001600160a01b038816906328cad17f906044016000604051808303816000875af11580156126d8573d6000803e3d6000fd5b505050506040513d6000823e601f3d908101601f191682016040526127009190810190613f6e565b80925081935050506127458185858080602002602001604051908101604052809392919081815260200183836020028082843760009201919091525061288192505050565b866001600160a01b03167f24558e536fb35a72582e096bdf105c2d1815119dde95f2141b3202255d524c8a87848460405161278293929190613faa565b60405180910390a29550959350505050565b610f5f828260405180602001604052806000815250612d78565b816001600160a01b0316836001600160a01b0316036127e057604051630b7b99b960e21b815260040160405180910390fd5b6001600160a01b03838116600081815260036020908152604080832094871680845294825291829020805460ff191686151590811790915591519182527f17307eab39ab6107e8899845ad3d59bd9653f200f220920489ca2b5937696c31910160405180910390a3505050565b61285884848461243f565b61286484848484612dac565b6113f657604051633a3614b760e01b815260040160405180910390fd5b815160005b818110156113f6578281815181106128a0576128a061389c565b60200260200101518482815181106128ba576128ba61389c565b602002602001015110156128e157604051631cfa520960e31b815260040160405180910390fd5b600101612886565b604080516001600160a01b038481166024830152604480830185905283518084039091018152606490920183526020820180516001600160e01b031663a9059cbb60e01b17905291516000928392908716916129459190614003565b6000604051808303816000865af19150503d8060008114612982576040519150601f19603f3d011682016040523d82523d6000602084013e612987565b606091505b50915091508180156129b15750805115806129b15750808060200190518101906129b1919061401f565b6122725760405163847ea61d60e01b815260040160405180910390fd5b6000806129da83610f1f565b9050806001600160a01b0316846001600160a01b03161480612a015750612a0181856119df565b80612a255750836001600160a01b0316612a1a8461090e565b6001600160a01b0316145b949350505050565b6040516334b1f0a960e21b815261ffff83166004820152600090612a25906001600160a01b0386169063d2c7c2a490602401602060405180830381865afa158015612a7c573d6000803e3d6000fd5b505050506040513d601f19601f82011682018060405250810190612aa0919061403c565b604051603881018790526f5af43d82803e903d91602b57fd5bf3ff60248201526014810191909152733d602d80600a3d3981f3363d3d373d3d3d363d738152605881018490526037600c8201206078820152605560439091012090565b604080516001600160a01b0385811660248301528481166044830152606480830185905283518084039091018152608490920183526020820180516001600160e01b03166323b872dd60e01b1790529151600092839290881691612b619190614003565b6000604051808303816000865af19150503d8060008114612b9e576040519150601f19603f3d011682016040523d82523d6000602084013e612ba3565b606091505b5091509150818015612bcd575080511580612bcd575080806020019051810190612bcd919061401f565b612bea5760405163e5c4a34160e01b815260040160405180910390fd5b505050505050565b826001600160a01b0316612c0582610f1f565b6001600160a01b031614612c2c576040516306d8c27960e31b815260040160405180910390fd5b6001600160a01b038216612c5357604051635a63192d60e01b815260040160405180910390fd5b612c5e600082611d2a565b6001600160a01b03831660009081526001602081905260408220805491929091612c8990849061406f565b90915550506001600160a01b03821660009081526001602081905260408220805491929091612cb9908490614082565b909155505060008181526020819052604080822080546001600160a01b0319166001600160a01b0386811691821790925591518493918716917fddf252ad1be2c89b69c2b068fc378daa952ba7f163c4a11628f55a4df523b3ef91a4505050565b612d248183612794565b6004546001600160a01b0316156109bc576004805460405163c67e240360e01b81526001600160a01b038681169382019390935260248101859052838316604482015291169063c67e24039060640161249a565b612d828383612eae565b612d8f6000848484612dac565b6109bc57604051633a3614b760e01b815260040160405180910390fd5b60006001600160a01b0384163b15612ea357604051630a85bd0160e11b81526001600160a01b0385169063150b7a0290612df0903390899088908890600401614095565b6020604051808303816000875af1925050508015612e2b575060408051601f3d908101601f19168201909252612e28918101906140c8565b60015b612e89573d808015612e59576040519150601f19603f3d011682016040523d82523d6000602084013e612e5e565b606091505b508051600003612e8157604051633a3614b760e01b815260040160405180910390fd5b805181602001fd5b6001600160e01b031916630a85bd0160e11b149050612a25565b506001949350505050565b6001600160a01b038216612ed55760405163271a2a5560e01b815260040160405180910390fd5b6000818152602081905260409020546001600160a01b031615612f0b57604051634ef46b0360e11b815260040160405180910390fd5b6001600160a01b03821660009081526001602081905260408220805491929091612f36908490614082565b909155505060008181526020819052604080822080546001600160a01b0319166001600160a01b03861690811790915590518392907fddf252ad1be2c89b69c2b068fc378daa952ba7f163c4a11628f55a4df523b3ef908290a45050565b6001600160e01b0319811681146113de57600080fd5b600060208284031215612fbc57600080fd5b8135611e4681612f94565b60005b83811015612fe2578181015183820152602001612fca565b50506000910152565b60008151808452613003816020860160208601612fc7565b601f01601f19169290920160200192915050565b602081526000611e466020830184612feb565b60006020828403121561303c57600080fd5b5035919050565b6001600160a01b03811681146113de57600080fd5b6000806040838503121561306b57600080fd5b823561307681613043565b946020939093013593505050565b60006020828403121561309657600080fd5b81356001600160401b038111156130ac57600080fd5b82016101808185031215611e4657600080fd5b600081518084526020808501945080840160005b838110156130f85781516001600160801b0316875295820195908201906001016130d3565b509495945050505050565b600081518084526020808501945080840160005b838110156130f857815187529582019590820190600101613117565b60608152600061314660608301866130bf565b846020840152828103604084015261315e8185613103565b9695505050505050565b600060a0828403121561317a57600080fd5b50919050565b600060c0828403121561317a57600080fd5b6000602082840312156131a457600080fd5b81356001600160401b038111156131ba57600080fd5b612a2584828501613180565b602081526000611e4660208301846130bf565b6000806000606084860312156131ee57600080fd5b83356131f981613043565b9250602084013561320981613043565b929592945050506040919091013590565b60006020828403121561322c57600080fd5b8135611e4681613043565b634e487b7160e01b600052604160045260246000fd5b6040516101a081016001600160401b038111828210171561327057613270613237565b60405290565b604051601f8201601f191681016001600160401b038111828210171561329e5761329e613237565b604052919050565b60006001600160401b038211156132bf576132bf613237565b5060051b60200190565b6001600160801b03811681146113de57600080fd5b600082601f8301126132ef57600080fd5b813560206133046132ff836132a6565b613276565b82815260059290921b8401810191818101908684111561332357600080fd5b8286015b8481101561334757803561333a816132c9565b8352918301918301613327565b509695505050505050565b6000806040838503121561336557600080fd5b82356001600160401b038082111561337c57600080fd5b613388868387016132de565b9350602085013591508082111561339e57600080fd5b506133ab858286016132de565b9150509250929050565b60008083601f8401126133c757600080fd5b5081356001600160401b038111156133de57600080fd5b6020830191508360208260051b85010111156133f957600080fd5b9250929050565b60008060008060008060006080888a03121561341b57600080fd5b87356001600160401b038082111561343257600080fd5b61343e8b838c016133b5565b909950975060208a013591508082111561345757600080fd5b6134638b838c016133b5565b909750955060408a0135915061347882613043565b9093506060890135908082111561348e57600080fd5b818a0191508a601f8301126134a257600080fd5b8135818111156134b157600080fd5b8b60208285010111156134c357600080fd5b60208301945080935050505092959891949750929550565b6000602082840312156134ed57600080fd5b81356001600160401b0381111561350357600080fd5b82016101208185031215611e4657600080fd5b84815260806020820152600061352f60808301866130bf565b84604084015282810360608401526135478185613103565b979650505050505050565b803561ffff8116811461118f57600080fd5b6000806000806080858703121561357a57600080fd5b61358385613552565b9350602085013561359381613043565b925060408501356135a381613043565b9396929550929360600135925050565b6000602082840312156135c557600080fd5b81356001600160401b038111156135db57600080fd5b82016101608185031215611e4657600080fd5b828152604060208201526000612a256040830184613103565b60006020828403121561361957600080fd5b81356001600160401b0381111561362f57600080fd5b820160e08185031215611e4657600080fd5b80151581146113de57600080fd5b6000806040838503121561366257600080fd5b823561366d81613043565b9150602083013561367d81613641565b809150509250929050565b60006001600160401b038211156136a1576136a1613237565b50601f01601f191660200190565b600080600080608085870312156136c557600080fd5b84356136d081613043565b935060208501356136e081613043565b92506040850135915060608501356001600160401b0381111561370257600080fd5b8501601f8101871361371357600080fd5b80356137216132ff82613688565b81815288602083850101111561373657600080fd5b8160208401602083013760006020838301015280935050505092959194509250565b60408152600061376b6040830185613103565b90508260208301529392505050565b6000806000806040858703121561379057600080fd5b84356001600160401b03808211156137a757600080fd5b6137b3888389016133b5565b909650945060208701359150808211156137cc57600080fd5b506137d9878288016133b5565b95989497509550505050565b600080604083850312156137f857600080fd5b82359150602083013561367d81613043565b6000806040838503121561381d57600080fd5b823561382881613043565b9150602083013561367d81613043565b60006020828403121561384a57600080fd5b611e4682613552565b6000808335601e1984360301811261386a57600080fd5b8301803591506001600160401b0382111561388457600080fd5b6020019150600581901b36038213156133f957600080fd5b634e487b7160e01b600052603260045260246000fd5b6000602082840312156138c457600080fd5b5051919050565b6000606082840312156138dd57600080fd5b604051606081018181106001600160401b03821117156138ff576138ff613237565b604052823561390d81613043565b8152602083013561391d81613043565b602082015261392e60408401613552565b60408201529392505050565b600082601f83011261394b57600080fd5b8151602061395b6132ff836132a6565b82815260059290921b8401810191818101908684111561397a57600080fd5b8286015b84811015613347578051835291830191830161397e565b600080604083850312156139a857600080fd5b82516001600160401b038111156139be57600080fd5b6139ca8582860161393a565b925050602083015190509250929050565b81835260006001600160fb1b038311156139f457600080fd5b8260051b80836020870137939093016020019392505050565b6001600160a01b0387168152608060208201819052600090613a3290830187896139db565b8281036040840152613a458186886139db565b90508281036060840152613a598185612feb565b9998505050505050505050565b60006020808385031215613a7957600080fd5b82516001600160401b03811115613a8f57600080fd5b8301601f81018513613aa057600080fd5b8051613aae6132ff826132a6565b81815260059190911b82018301908381019087831115613acd57600080fd5b928401925b8284101561354757835182529284019290840190613ad2565b805161118f81613043565b80516bffffffffffffffffffffffff8116811461118f57600080fd5b805161118f816132c9565b600082601f830112613b2e57600080fd5b81516020613b3e6132ff836132a6565b82815260059290921b84018101918181019086841115613b5d57600080fd5b8286015b84811015613347578051613b74816132c9565b8352918301918301613b61565b600082601f830112613b9257600080fd5b81516020613ba26132ff836132a6565b82815260059290921b84018101918181019086841115613bc157600080fd5b8286015b84811015613347578051613bd881613043565b8352918301918301613bc5565b600082601f830112613bf657600080fd5b81516020613c066132ff836132a6565b82815260059290921b84018101918181019086841115613c2557600080fd5b8286015b8481101561334757805160ff81168114613c435760008081fd5b8352918301918301613c29565b600082601f830112613c6157600080fd5b81516020613c716132ff836132a6565b82815260059290921b84018101918181019086841115613c9057600080fd5b8286015b848110156133475780516001600160401b03811115613cb35760008081fd5b8701603f81018913613cc55760008081fd5b848101516040613cd76132ff83613688565b8281528b82848601011115613cec5760008081fd5b613cfb83898301848701612fc7565b8652505050918301918301613c94565b600060208284031215613d1d57600080fd5b81516001600160401b0380821115613d3457600080fd5b908301906101a08286031215613d4957600080fd5b613d5161324d565b8251815260208301516020820152613d6b60408401613aeb565b6040820152613d7c60608401613af6565b6060820152613d8d60808401613b12565b6080820152613d9e60a08401613b12565b60a082015260c083015160c082015260e083015182811115613dbf57600080fd5b613dcb87828601613b1d565b60e08301525061010083810151908201526101208084015183811115613df057600080fd5b613dfc88828701613b81565b8284015250506101408084015183811115613e1657600080fd5b613e2288828701613be5565b8284015250506101608084015183811115613e3c57600080fd5b613e4888828701613c50565b8284015250506101808084015183811115613e6257600080fd5b613e6e88828701613c50565b918301919091525095945050505050565b600060208284031215613e9157600080fd5b81516001600160401b03811115613ea757600080fd5b612a2584828501613b81565b600060208284031215613ec557600080fd5b81516001600160401b03811115613edb57600080fd5b612a2584828501613b1d565b828152604060208201526000612a2560408301846130bf565b6000604082018483526020604081850152818551808452606086019150828701935060005b81811015613f4157845183529383019391830191600101613f25565b5090979650505050505050565b84815283602082015260606040820152600061315e6060830184866139db565b60008060408385031215613f8157600080fd5b8251915060208301516001600160401b03811115613f9e57600080fd5b6133ab8582860161393a565b838152826020820152606060408201526000613fc96060830184613103565b95945050505050565b838152606060208201526000613feb6060830185613103565b905060018060a01b0383166040830152949350505050565b60008251614015818460208701612fc7565b9190910192915050565b60006020828403121561403157600080fd5b8151611e4681613641565b60006020828403121561404e57600080fd5b8151611e4681613043565b634e487b7160e01b600052601160045260246000fd5b8181038181111561090857610908614059565b8082018082111561090857610908614059565b6001600160a01b038581168252841660208201526040810183905260806060820181905260009061315e90830184612feb565b6000602082840312156140da57600080fd5b8151611e4681612f9456fea26469706673582212201d786bb06b1904720f4224ce50139cef9f1b7745669a5e2616f3b8113007d5a564736f6c63430008110033",
    "linkReferences": {}
  },
  "methodIdentifiers": {
    "WETH()": "ad5c4648",
    "approve(address,uint256)": "095ea7b3",
    "balanceOf(address)": "70a08231",
    "borrowAndRebalance((uint16,address,address,uint256,uint256,uint256,uint256[],uint256[],uint256[],int256[],uint128[]))": "787dcf08",
    "borrowLiquidity((uint16,address,uint256,uint256,uint256,uint256[]))": "78fc3053",
    "clearToken(address,address,uint256)": "ccbe764a",
    "closeLoan((uint16,address,address,uint256,uint256,uint256,uint256[],uint256[],uint256[],int256[],uint128[],uint256[]))": "edb7c2fe",
    "createLoan(uint16,address,address,uint256)": "76c84a33",
    "createLoanBorrowAndRebalance((uint16,address,address,uint256,uint256,uint256[],uint256[],int256[],uint128[]))": "73873e33",
    "createTestLoan(address)": "770b99dc",
    "dataStore()": "660d0d67",
    "decreaseCollateral((uint16,address,address,uint256,uint256,uint256[]))": "da07e86d",
    "depositNoPull((uint16,address,address,uint256,uint256))": "33cc39a3",
    "depositReserves((uint16,address,address,uint256,uint256[],uint256[]))": "e7c0d71f",
    "factory()": "c45a0155",
    "getApproved(uint256)": "081812fc",
    "increaseCollateral((uint16,address,address,uint256,uint256,uint256[]))": "d1b0eff5",
    "isApprovedForAll(address,address)": "e985e9c5",
    "logPrice(address)": "b768fc85",
    "name()": "06fdde03",
    "ownerOf(uint256)": "6352211e",
    "priceStore()": "ffdaabef",
    "rebalanceCollateral((uint16,address,uint256,uint256,int256[],uint128[]))": "0fbf5097",
    "rebalanceRepayAndWithdraw((uint16,address,address,uint256,uint256,uint256,uint256[],uint256[],uint256[],int256[],uint128[],uint256[]))": "09b4dcf4",
    "refundETH()": "12210e8a",
    "repayLiquidity((uint16,address,uint256,uint256,uint256,uint256[],uint256[]))": "81020dd6",
    "safeTransferFrom(address,address,uint256)": "42842e0e",
    "safeTransferFrom(address,address,uint256,bytes)": "b88d4fde",
    "sendTokensCallback(address[],uint256[],address,bytes)": "6464a1eb",
    "setApprovalForAll(address,bool)": "a22cb465",
    "setDataStore(address)": "500065d2",
    "setPriceStore(address)": "a483ad3c",
    "supportsInterface(bytes4)": "01ffc9a7",
    "symbol()": "95d89b41",
    "testCheckMinCollateral(uint128[],uint128[])": "6410522c",
    "testCheckMinReserves(uint256[],uint256[])": "d22c164a",
    "tokenURI(uint256)": "c87b56dd",
    "transferFrom(address,address,uint256)": "23b872dd",
    "unwrapWETH(uint256,address)": "e16d9ce5",
    "withdrawNoPull((uint16,address,address,uint256,uint256))": "0bab929d",
    "withdrawReserves((uint16,address,address,uint256,uint256,uint256[]))": "bc8df09e"
  },
  "id": 18
}