{
  "abi": [
    {
      "inputs": [
        {
          "internalType": "address",
          "name": "_owner",
          "type": "address"
        },
        {
          "internalType": "uint256",
          "name": "_maxLen",
          "type": "uint256"
        },
        {
          "internalType": "uint256",
          "name": "_frequency",
          "type": "uint256"
        }
      ],
      "stateMutability": "nonpayable",
      "type": "constructor"
    },
    {
      "anonymous": false,
      "inputs": [
        {
          "indexed": true,
          "internalType": "address",
          "name": "currentOwner",
          "type": "address"
        },
        {
          "indexed": true,
          "internalType": "address",
          "name": "newOwner",
          "type": "address"
        }
      ],
      "name": "OwnershipTransferStarted",
      "type": "event"
    },
    {
      "anonymous": false,
      "inputs": [
        {
          "indexed": true,
          "internalType": "address",
          "name": "previousOwner",
          "type": "address"
        },
        {
          "indexed": true,
          "internalType": "address",
          "name": "newOwner",
          "type": "address"
        }
      ],
      "name": "OwnershipTransferred",
      "type": "event"
    },
    {
      "inputs": [],
      "name": "acceptOwnership",
      "outputs": [],
      "stateMutability": "nonpayable",
      "type": "function"
    },
    {
      "inputs": [
        {
          "internalType": "address",
          "name": "pool",
          "type": "address"
        }
      ],
      "name": "addPriceInfo",
      "outputs": [],
      "stateMutability": "nonpayable",
      "type": "function"
    },
    {
      "inputs": [],
      "name": "frequency",
      "outputs": [
        {
          "internalType": "uint256",
          "name": "",
          "type": "uint256"
        }
      ],
      "stateMutability": "view",
      "type": "function"
    },
    {
      "inputs": [
        {
          "internalType": "address",
          "name": "pool",
          "type": "address"
        },
        {
          "internalType": "uint256",
          "name": "index",
          "type": "uint256"
        }
      ],
      "name": "getTimeSeriesAt",
      "outputs": [
        {
          "components": [
            {
              "internalType": "uint32",
              "name": "timestamp",
              "type": "uint32"
            },
            {
              "internalType": "uint32",
              "name": "blockNumber",
              "type": "uint32"
            },
            {
              "internalType": "uint16",
              "name": "utilRate",
              "type": "uint16"
            },
            {
              "internalType": "uint16",
              "name": "borrowRate",
              "type": "uint16"
            },
            {
              "internalType": "uint64",
              "name": "accFeeIndex",
              "type": "uint64"
            },
            {
              "internalType": "uint96",
              "name": "lastPrice",
              "type": "uint96"
            }
          ],
          "internalType": "struct IPriceStore.PriceInfo",
          "name": "data",
          "type": "tuple"
        }
      ],
      "stateMutability": "view",
      "type": "function"
    },
    {
      "inputs": [],
      "name": "maxLen",
      "outputs": [
        {
          "internalType": "uint256",
          "name": "",
          "type": "uint256"
        }
      ],
      "stateMutability": "view",
      "type": "function"
    },
    {
      "inputs": [],
      "name": "nextTimestamp",
      "outputs": [
        {
          "internalType": "uint256",
          "name": "",
          "type": "uint256"
        }
      ],
      "stateMutability": "view",
      "type": "function"
    },
    {
      "inputs": [],
      "name": "owner",
      "outputs": [
        {
          "internalType": "address",
          "name": "",
          "type": "address"
        }
      ],
      "stateMutability": "view",
      "type": "function"
    },
    {
      "inputs": [],
      "name": "pendingOwner",
      "outputs": [
        {
          "internalType": "address",
          "name": "",
          "type": "address"
        }
      ],
      "stateMutability": "view",
      "type": "function"
    },
    {
      "inputs": [
        {
          "internalType": "uint256",
          "name": "_frequency",
          "type": "uint256"
        }
      ],
      "name": "setFrequency",
      "outputs": [],
      "stateMutability": "nonpayable",
      "type": "function"
    },
    {
      "inputs": [
        {
          "internalType": "uint256",
          "name": "_maxLen",
          "type": "uint256"
        }
      ],
      "name": "setMaxLen",
      "outputs": [],
      "stateMutability": "nonpayable",
      "type": "function"
    },
    {
      "inputs": [
        {
          "internalType": "address",
          "name": "_source",
          "type": "address"
        }
      ],
      "name": "setSource",
      "outputs": [],
      "stateMutability": "nonpayable",
      "type": "function"
    },
    {
      "inputs": [
        {
          "internalType": "address",
          "name": "pool",
          "type": "address"
        }
      ],
      "name": "size",
      "outputs": [
        {
          "internalType": "uint256",
          "name": "",
          "type": "uint256"
        }
      ],
      "stateMutability": "view",
      "type": "function"
    },
    {
      "inputs": [],
      "name": "source",
      "outputs": [
        {
          "internalType": "address",
          "name": "",
          "type": "address"
        }
      ],
      "stateMutability": "view",
      "type": "function"
    },
    {
      "inputs": [
        {
          "internalType": "address",
          "name": "",
          "type": "address"
        },
        {
          "internalType": "uint256",
          "name": "",
          "type": "uint256"
        }
      ],
      "name": "timeSeries",
      "outputs": [
        {
          "internalType": "uint32",
          "name": "timestamp",
          "type": "uint32"
        },
        {
          "internalType": "uint32",
          "name": "blockNumber",
          "type": "uint32"
        },
        {
          "internalType": "uint16",
          "name": "utilRate",
          "type": "uint16"
        },
        {
          "internalType": "uint16",
          "name": "borrowRate",
          "type": "uint16"
        },
        {
          "internalType": "uint64",
          "name": "accFeeIndex",
          "type": "uint64"
        },
        {
          "internalType": "uint96",
          "name": "lastPrice",
          "type": "uint96"
        }
      ],
      "stateMutability": "view",
      "type": "function"
    },
    {
      "inputs": [
        {
          "internalType": "address",
          "name": "newOwner",
          "type": "address"
        }
      ],
      "name": "transferOwnership",
      "outputs": [],
      "stateMutability": "nonpayable",
      "type": "function"
    }
  ],
  "bytecode": {
    "object": "0x608060405234801561001057600080fd5b50604051610bc7380380610bc783398101604081905261002f91610081565b600080546001600160a01b0319166001600160a01b038516179055600482905582828261005b8161006a565b600655506100c4945050505050565b60008160000361007d5750610e10919050565b5090565b60008060006060848603121561009657600080fd5b83516001600160a01b03811681146100ad57600080fd5b602085015160409095015190969495509392505050565b610af4806100d36000396000f3fe608060405234801561001057600080fd5b50600436106100f55760003560e01c8063a802691211610097578063ee8557b811610066578063ee8557b814610235578063f2fde38b14610248578063f426f03a1461025b578063f6bcf1a71461026e57600080fd5b8063a8026912146101f3578063cba1c66514610206578063e30c397814610219578063ead50da31461022c57600080fd5b806379ba5097116100d357806379ba50971461014a57806388987068146101545780638da5cb5b1461017d57806399caa23e1461019057600080fd5b8063357e951f146100fa578063583e10551461011657806367e828bf1461011f575b600080fd5b61010360055481565b6040519081526020015b60405180910390f35b61010360045481565b600354610132906001600160a01b031681565b6040516001600160a01b03909116815260200161010d565b6101526102f4565b005b610103610162366004610930565b6001600160a01b031660009081526002602052604090205490565b600054610132906001600160a01b031681565b6101a361019e366004610952565b61039d565b6040805163ffffffff978816815296909516602087015261ffff938416948601949094529116606084015267ffffffffffffffff1660808301526001600160601b031660a082015260c00161010d565b610152610201366004610930565b610418565b61015261021436600461097c565b610442565b600154610132906001600160a01b031681565b61010360065481565b610152610243366004610930565b61044f565b610152610256366004610930565b61071f565b61015261026936600461097c565b6107bc565b61028161027c366004610952565b6107d3565b60405161010d9190600060c08201905063ffffffff80845116835280602085015116602084015250604083015161ffff8082166040850152806060860151166060850152505067ffffffffffffffff60808401511660808301526001600160601b0360a08401511660a083015292915050565b60015433906001600160a01b031681146103435760405162461bcd60e51b815260206004820152600b60248201526a2737ba2732bba7bbb732b960a91b60448201526064015b60405180910390fd5b600080546001600160a01b038381166001600160a01b031980841682178555600180549091169055604051919092169283917f8be0079c531659141344cd1fd0a4f28419497f9722a3daafe3b4186f6b6457e09190a35050565b600260205281600052604060002081815481106103b957600080fd5b60009182526020909120015463ffffffff8082169350640100000000820416915061ffff600160401b8204811691600160501b81049091169067ffffffffffffffff600160601b820416906001600160601b03600160a01b9091041686565b6104206108b5565b600380546001600160a01b0319166001600160a01b0392909216919091179055565b61044a6108b5565b600455565b6003546001600160a01b031633146104925760405162461bcd60e51b8152602060048201526006602482015265534f5552434560d01b604482015260640161033a565b6005544290808210156104a457505050565b6006546000816104b481866109ab565b6104be91906109cd565b90506104ca82826109e4565b6005819055506000856001600160a01b031663871a78d26040518163ffffffff1660e01b815260040161010060405180830381865afa158015610511573d6000803e3d6000fd5b505050506040513d601f19601f8201168201806040525081019061053591906109f7565b905060006040518060c001604052808463ffffffff1681526020018360c0015163ffffffff168152602001655af3107a4000846080015161057691906109ab565b61ffff168152602001662386f26fc10000846060015161059691906109ab565b61ffff168152602001620f424084600001516105b291906109ab565b67ffffffffffffffff16815260e08401516001600160601b03166020918201526001600160a01b038916600090815260029091526040902054600454919250908110610639576001600160a01b038816600090815260026020526040902060045461061d9083610a95565b8154811061062d5761062d610aa8565b60009182526020822001555b506001600160a01b03968716600090815260026020908152604080832080546001810182559084529282902084519301805492850151918501516060860151608087015160a0909701516001600160601b03908116600160a01b0267ffffffffffffffff909816600160601b02909d1661ffff918216600160501b0261ffff60501b1992909316600160401b02919091166bffffffff00000000000000001963ffffffff9586166401000000000267ffffffffffffffff199097169590971694909417949094179490941691909117929092179890981697909717179095555050505050565b6107276108b5565b6001600160a01b03811661076b5760405162461bcd60e51b815260206004820152600b60248201526a5a65726f4164647265737360a81b604482015260640161033a565b600180546001600160a01b0319166001600160a01b0383811691821790925560008054604051929316917f38d16b8cac22d99fc7c124b9cd0de2d3fa1faef420bfe791d8c362d765e227009190a350565b6107c46108b5565b6107cd816108fd565b60065550565b6040805160c08101825260008082526020808301829052828401829052606083018290526080830182905260a083018290526001600160a01b0386168252600290529190912080548390811061082b5761082b610aa8565b60009182526020918290206040805160c081018252929091015463ffffffff808216845264010000000082041693830193909352600160401b830461ffff90811691830191909152600160501b8304166060820152600160601b820467ffffffffffffffff166080820152600160a01b9091046001600160601b031660a082015290505b92915050565b6000546001600160a01b031633146108fb5760405162461bcd60e51b81526020600482015260096024820152682337b93134b23232b760b91b604482015260640161033a565b565b6000816000036109105750610e10919050565b5090565b80356001600160a01b038116811461092b57600080fd5b919050565b60006020828403121561094257600080fd5b61094b82610914565b9392505050565b6000806040838503121561096557600080fd5b61096e83610914565b946020939093013593505050565b60006020828403121561098e57600080fd5b5035919050565b634e487b7160e01b600052601160045260246000fd5b6000826109c857634e487b7160e01b600052601260045260246000fd5b500490565b80820281158282048414176108af576108af610995565b808201808211156108af576108af610995565b6000610100808385031215610a0b57600080fd5b6040519081019067ffffffffffffffff82118183101715610a3c57634e487b7160e01b600052604160045260246000fd5b81604052835181526020840151602082015260408401516040820152606084015160608201526080840151608082015260a084015160a082015260c084015160c082015260e084015160e0820152809250505092915050565b818103818111156108af576108af610995565b634e487b7160e01b600052603260045260246000fdfea2646970667358221220585cff5341c812ed56ed02c70fc7f65e143c6cae1677eb839a393ea95f8e058e64736f6c63430008110033",
    "linkReferences": {}
  },
  "methodIdentifiers": {
    "acceptOwnership()": "79ba5097",
    "addPriceInfo(address)": "ee8557b8",
    "frequency()": "ead50da3",
    "getTimeSeriesAt(address,uint256)": "f6bcf1a7",
    "maxLen()": "583e1055",
    "nextTimestamp()": "357e951f",
    "owner()": "8da5cb5b",
    "pendingOwner()": "e30c3978",
    "setFrequency(uint256)": "f426f03a",
    "setMaxLen(uint256)": "cba1c665",
    "setSource(address)": "a8026912",
    "size(address)": "88987068",
    "source()": "67e828bf",
    "timeSeries(address,uint256)": "99caa23e",
    "transferOwnership(address)": "f2fde38b"
  },
  "id": 10
}