{
  "abi": [
    {
      "inputs": [
        {
          "internalType": "address",
          "name": "_factory",
          "type": "address"
        },
        {
          "internalType": "address",
          "name": "_owner",
          "type": "address"
        }
      ],
      "stateMutability": "nonpayable",
      "type": "constructor"
    },
    {
      "inputs": [
        {
          "internalType": "address",
          "name": "pool",
          "type": "address"
        },
        {
          "internalType": "uint256",
          "name": "tokenId",
          "type": "uint256"
        },
        {
          "internalType": "address",
          "name": "user",
          "type": "address"
        }
      ],
      "name": "addLoanToOwner",
      "outputs": [],
      "stateMutability": "nonpayable",
      "type": "function"
    },
    {
      "inputs": [
        {
          "internalType": "address",
          "name": "owner",
          "type": "address"
        },
        {
          "internalType": "uint256",
          "name": "start",
          "type": "uint256"
        },
        {
          "internalType": "uint256",
          "name": "end",
          "type": "uint256"
        }
      ],
      "name": "getLoansByOwner",
      "outputs": [
        {
          "components": [
            {
              "internalType": "uint256",
              "name": "id",
              "type": "uint256"
            },
            {
              "internalType": "uint256",
              "name": "tokenId",
              "type": "uint256"
            },
            {
              "internalType": "address",
              "name": "poolId",
              "type": "address"
            },
            {
              "internalType": "uint96",
              "name": "rateIndex",
              "type": "uint96"
            },
            {
              "internalType": "uint128",
              "name": "initLiquidity",
              "type": "uint128"
            },
            {
              "internalType": "uint128",
              "name": "liquidity",
              "type": "uint128"
            },
            {
              "internalType": "uint256",
              "name": "lpTokens",
              "type": "uint256"
            },
            {
              "internalType": "uint128[]",
              "name": "tokensHeld",
              "type": "uint128[]"
            },
            {
              "internalType": "uint256",
              "name": "px",
              "type": "uint256"
            },
            {
              "internalType": "address[]",
              "name": "tokens",
              "type": "address[]"
            },
            {
              "internalType": "uint8[]",
              "name": "decimals",
              "type": "uint8[]"
            },
            {
              "internalType": "string[]",
              "name": "symbols",
              "type": "string[]"
            },
            {
              "internalType": "string[]",
              "name": "names",
              "type": "string[]"
            }
          ],
          "internalType": "struct IGammaPool.LoanData[]",
          "name": "_loans",
          "type": "tuple[]"
        }
      ],
      "stateMutability": "view",
      "type": "function"
    },
    {
      "inputs": [
        {
          "internalType": "address",
          "name": "owner",
          "type": "address"
        },
        {
          "internalType": "address",
          "name": "gammaPool",
          "type": "address"
        },
        {
          "internalType": "uint256",
          "name": "start",
          "type": "uint256"
        },
        {
          "internalType": "uint256",
          "name": "end",
          "type": "uint256"
        }
      ],
      "name": "getLoansByOwnerAndPool",
      "outputs": [
        {
          "components": [
            {
              "internalType": "uint256",
              "name": "id",
              "type": "uint256"
            },
            {
              "internalType": "uint256",
              "name": "tokenId",
              "type": "uint256"
            },
            {
              "internalType": "address",
              "name": "poolId",
              "type": "address"
            },
            {
              "internalType": "uint96",
              "name": "rateIndex",
              "type": "uint96"
            },
            {
              "internalType": "uint128",
              "name": "initLiquidity",
              "type": "uint128"
            },
            {
              "internalType": "uint128",
              "name": "liquidity",
              "type": "uint128"
            },
            {
              "internalType": "uint256",
              "name": "lpTokens",
              "type": "uint256"
            },
            {
              "internalType": "uint128[]",
              "name": "tokensHeld",
              "type": "uint128[]"
            },
            {
              "internalType": "uint256",
              "name": "px",
              "type": "uint256"
            },
            {
              "internalType": "address[]",
              "name": "tokens",
              "type": "address[]"
            },
            {
              "internalType": "uint8[]",
              "name": "decimals",
              "type": "uint8[]"
            },
            {
              "internalType": "string[]",
              "name": "symbols",
              "type": "string[]"
            },
            {
              "internalType": "string[]",
              "name": "names",
              "type": "string[]"
            }
          ],
          "internalType": "struct IGammaPool.LoanData[]",
          "name": "_loans",
          "type": "tuple[]"
        }
      ],
      "stateMutability": "view",
      "type": "function"
    },
    {
      "inputs": [
        {
          "internalType": "uint256",
          "name": "start",
          "type": "uint256"
        },
        {
          "internalType": "uint256",
          "name": "end",
          "type": "uint256"
        }
      ],
      "name": "getPools",
      "outputs": [
        {
          "components": [
            {
              "internalType": "address",
              "name": "poolId",
              "type": "address"
            },
            {
              "internalType": "uint16",
              "name": "protocolId",
              "type": "uint16"
            },
            {
              "internalType": "address",
              "name": "longStrategy",
              "type": "address"
            },
            {
              "internalType": "address",
              "name": "shortStrategy",
              "type": "address"
            },
            {
              "internalType": "address",
              "name": "liquidationStrategy",
              "type": "address"
            },
            {
              "internalType": "address",
              "name": "factory",
              "type": "address"
            },
            {
              "internalType": "uint256",
              "name": "LP_TOKEN_BALANCE",
              "type": "uint256"
            },
            {
              "internalType": "uint256",
              "name": "LP_TOKEN_BORROWED",
              "type": "uint256"
            },
            {
              "internalType": "uint256",
              "name": "LP_TOKEN_BORROWED_PLUS_INTEREST",
              "type": "uint256"
            },
            {
              "internalType": "uint128",
              "name": "BORROWED_INVARIANT",
              "type": "uint128"
            },
            {
              "internalType": "uint128",
              "name": "LP_INVARIANT",
              "type": "uint128"
            },
            {
              "internalType": "address",
              "name": "cfmm",
              "type": "address"
            },
            {
              "internalType": "uint96",
              "name": "accFeeIndex",
              "type": "uint96"
            },
            {
              "internalType": "uint48",
              "name": "LAST_BLOCK_NUMBER",
              "type": "uint48"
            },
            {
              "internalType": "uint80",
              "name": "lastCFMMFeeIndex",
              "type": "uint80"
            },
            {
              "internalType": "uint128",
              "name": "lastCFMMInvariant",
              "type": "uint128"
            },
            {
              "internalType": "uint256",
              "name": "lastCFMMTotalSupply",
              "type": "uint256"
            },
            {
              "internalType": "uint256",
              "name": "totalSupply",
              "type": "uint256"
            },
            {
              "internalType": "address[]",
              "name": "tokens",
              "type": "address[]"
            },
            {
              "internalType": "string[]",
              "name": "symbols",
              "type": "string[]"
            },
            {
              "internalType": "string[]",
              "name": "names",
              "type": "string[]"
            },
            {
              "internalType": "uint8[]",
              "name": "decimals",
              "type": "uint8[]"
            },
            {
              "internalType": "uint128[]",
              "name": "TOKEN_BALANCE",
              "type": "uint128[]"
            },
            {
              "internalType": "uint128[]",
              "name": "CFMM_RESERVES",
              "type": "uint128[]"
            },
            {
              "internalType": "uint256",
              "name": "lastPrice",
              "type": "uint256"
            },
            {
              "internalType": "uint256",
              "name": "lastFeeIndex",
              "type": "uint256"
            },
            {
              "internalType": "uint256",
              "name": "borrowRate",
              "type": "uint256"
            },
            {
              "internalType": "uint256",
              "name": "utilizationRate",
              "type": "uint256"
            },
            {
              "internalType": "uint48",
              "name": "currBlockNumber",
              "type": "uint48"
            }
          ],
          "internalType": "struct IGammaPool.PoolData[]",
          "name": "_pools",
          "type": "tuple[]"
        }
      ],
      "stateMutability": "view",
      "type": "function"
    },
    {
      "inputs": [
        {
          "internalType": "address[]",
          "name": "poolAddresses",
          "type": "address[]"
        }
      ],
      "name": "getPoolsByAddresses",
      "outputs": [
        {
          "components": [
            {
              "internalType": "address",
              "name": "poolId",
              "type": "address"
            },
            {
              "internalType": "uint16",
              "name": "protocolId",
              "type": "uint16"
            },
            {
              "internalType": "address",
              "name": "longStrategy",
              "type": "address"
            },
            {
              "internalType": "address",
              "name": "shortStrategy",
              "type": "address"
            },
            {
              "internalType": "address",
              "name": "liquidationStrategy",
              "type": "address"
            },
            {
              "internalType": "address",
              "name": "factory",
              "type": "address"
            },
            {
              "internalType": "uint256",
              "name": "LP_TOKEN_BALANCE",
              "type": "uint256"
            },
            {
              "internalType": "uint256",
              "name": "LP_TOKEN_BORROWED",
              "type": "uint256"
            },
            {
              "internalType": "uint256",
              "name": "LP_TOKEN_BORROWED_PLUS_INTEREST",
              "type": "uint256"
            },
            {
              "internalType": "uint128",
              "name": "BORROWED_INVARIANT",
              "type": "uint128"
            },
            {
              "internalType": "uint128",
              "name": "LP_INVARIANT",
              "type": "uint128"
            },
            {
              "internalType": "address",
              "name": "cfmm",
              "type": "address"
            },
            {
              "internalType": "uint96",
              "name": "accFeeIndex",
              "type": "uint96"
            },
            {
              "internalType": "uint48",
              "name": "LAST_BLOCK_NUMBER",
              "type": "uint48"
            },
            {
              "internalType": "uint80",
              "name": "lastCFMMFeeIndex",
              "type": "uint80"
            },
            {
              "internalType": "uint128",
              "name": "lastCFMMInvariant",
              "type": "uint128"
            },
            {
              "internalType": "uint256",
              "name": "lastCFMMTotalSupply",
              "type": "uint256"
            },
            {
              "internalType": "uint256",
              "name": "totalSupply",
              "type": "uint256"
            },
            {
              "internalType": "address[]",
              "name": "tokens",
              "type": "address[]"
            },
            {
              "internalType": "string[]",
              "name": "symbols",
              "type": "string[]"
            },
            {
              "internalType": "string[]",
              "name": "names",
              "type": "string[]"
            },
            {
              "internalType": "uint8[]",
              "name": "decimals",
              "type": "uint8[]"
            },
            {
              "internalType": "uint128[]",
              "name": "TOKEN_BALANCE",
              "type": "uint128[]"
            },
            {
              "internalType": "uint128[]",
              "name": "CFMM_RESERVES",
              "type": "uint128[]"
            },
            {
              "internalType": "uint256",
              "name": "lastPrice",
              "type": "uint256"
            },
            {
              "internalType": "uint256",
              "name": "lastFeeIndex",
              "type": "uint256"
            },
            {
              "internalType": "uint256",
              "name": "borrowRate",
              "type": "uint256"
            },
            {
              "internalType": "uint256",
              "name": "utilizationRate",
              "type": "uint256"
            },
            {
              "internalType": "uint48",
              "name": "currBlockNumber",
              "type": "uint48"
            }
          ],
          "internalType": "struct IGammaPool.PoolData[]",
          "name": "_pools",
          "type": "tuple[]"
        }
      ],
      "stateMutability": "view",
      "type": "function"
    },
    {
      "inputs": [
        {
          "internalType": "address[]",
          "name": "poolAddresses",
          "type": "address[]"
        },
        {
          "internalType": "address",
          "name": "owner",
          "type": "address"
        }
      ],
      "name": "getPoolsWithOwnerLPBalance",
      "outputs": [
        {
          "components": [
            {
              "internalType": "address",
              "name": "poolId",
              "type": "address"
            },
            {
              "internalType": "uint16",
              "name": "protocolId",
              "type": "uint16"
            },
            {
              "internalType": "address",
              "name": "longStrategy",
              "type": "address"
            },
            {
              "internalType": "address",
              "name": "shortStrategy",
              "type": "address"
            },
            {
              "internalType": "address",
              "name": "liquidationStrategy",
              "type": "address"
            },
            {
              "internalType": "address",
              "name": "factory",
              "type": "address"
            },
            {
              "internalType": "uint256",
              "name": "LP_TOKEN_BALANCE",
              "type": "uint256"
            },
            {
              "internalType": "uint256",
              "name": "LP_TOKEN_BORROWED",
              "type": "uint256"
            },
            {
              "internalType": "uint256",
              "name": "LP_TOKEN_BORROWED_PLUS_INTEREST",
              "type": "uint256"
            },
            {
              "internalType": "uint128",
              "name": "BORROWED_INVARIANT",
              "type": "uint128"
            },
            {
              "internalType": "uint128",
              "name": "LP_INVARIANT",
              "type": "uint128"
            },
            {
              "internalType": "address",
              "name": "cfmm",
              "type": "address"
            },
            {
              "internalType": "uint96",
              "name": "accFeeIndex",
              "type": "uint96"
            },
            {
              "internalType": "uint48",
              "name": "LAST_BLOCK_NUMBER",
              "type": "uint48"
            },
            {
              "internalType": "uint80",
              "name": "lastCFMMFeeIndex",
              "type": "uint80"
            },
            {
              "internalType": "uint128",
              "name": "lastCFMMInvariant",
              "type": "uint128"
            },
            {
              "internalType": "uint256",
              "name": "lastCFMMTotalSupply",
              "type": "uint256"
            },
            {
              "internalType": "uint256",
              "name": "totalSupply",
              "type": "uint256"
            },
            {
              "internalType": "address[]",
              "name": "tokens",
              "type": "address[]"
            },
            {
              "internalType": "string[]",
              "name": "symbols",
              "type": "string[]"
            },
            {
              "internalType": "string[]",
              "name": "names",
              "type": "string[]"
            },
            {
              "internalType": "uint8[]",
              "name": "decimals",
              "type": "uint8[]"
            },
            {
              "internalType": "uint128[]",
              "name": "TOKEN_BALANCE",
              "type": "uint128[]"
            },
            {
              "internalType": "uint128[]",
              "name": "CFMM_RESERVES",
              "type": "uint128[]"
            },
            {
              "internalType": "uint256",
              "name": "lastPrice",
              "type": "uint256"
            },
            {
              "internalType": "uint256",
              "name": "lastFeeIndex",
              "type": "uint256"
            },
            {
              "internalType": "uint256",
              "name": "borrowRate",
              "type": "uint256"
            },
            {
              "internalType": "uint256",
              "name": "utilizationRate",
              "type": "uint256"
            },
            {
              "internalType": "uint48",
              "name": "currBlockNumber",
              "type": "uint48"
            }
          ],
          "internalType": "struct IGammaPool.PoolData[]",
          "name": "_pools",
          "type": "tuple[]"
        },
        {
          "internalType": "uint256[]",
          "name": "_balances",
          "type": "uint256[]"
        }
      ],
      "stateMutability": "view",
      "type": "function"
    },
    {
      "inputs": [],
      "name": "owner",
      "outputs": [
        {
          "internalType": "address",
          "name": "",
          "type": "address"
        }
      ],
      "stateMutability": "view",
      "type": "function"
    },
    {
      "inputs": [
        {
          "internalType": "address",
          "name": "_source",
          "type": "address"
        }
      ],
      "name": "setSource",
      "outputs": [],
      "stateMutability": "nonpayable",
      "type": "function"
    },
    {
      "inputs": [],
      "name": "source",
      "outputs": [
        {
          "internalType": "address",
          "name": "",
          "type": "address"
        }
      ],
      "stateMutability": "view",
      "type": "function"
    },
    {
      "inputs": [
        {
          "internalType": "address",
          "name": "from",
          "type": "address"
        },
        {
          "internalType": "address",
          "name": "to",
          "type": "address"
        },
        {
          "internalType": "uint256",
          "name": "tokenId",
          "type": "uint256"
        }
      ],
      "name": "transferLoan",
      "outputs": [],
      "stateMutability": "nonpayable",
      "type": "function"
    }
  ],
  "bytecode": {
    "object": "0x60a06040523480156200001157600080fd5b50604051620020eb380380620020eb833981016040819052620000349162000077565b600380546001600160a01b0319166001600160a01b0392831617905516608052620000af565b80516001600160a01b03811681146200007257600080fd5b919050565b600080604083850312156200008b57600080fd5b62000096836200005a565b9150620000a6602084016200005a565b90509250929050565b608051612020620000cb600039600061080901526120206000f3fe608060405234801561001057600080fd5b506004361061009e5760003560e01c8063a802691211610066578063a80269121461013b578063b46814e51461014e578063bbe958371461016f578063c67e240314610182578063c70bdbca1461019557600080fd5b806302ca8acf146100a357806367e828bf146100b85780636af35494146100e85780638d1006e1146101085780638da5cb5b14610128575b600080fd5b6100b66100b1366004610fd8565b6101a8565b005b6004546100cb906001600160a01b031681565b6040516001600160a01b0390911681526020015b60405180910390f35b6100fb6100f6366004611019565b610281565b6040516100df919061118f565b61011b610116366004611331565b61047b565b6040516100df91906115ad565b6003546100cb906001600160a01b031681565b6100b66101493660046115c7565b610594565b61016161015c3660046115e4565b6105cd565b6040516100df92919061163a565b61011b61017d366004611691565b6107de565b6100b66101903660046116b3565b610987565b6100fb6101a33660046116ea565b610a3e565b6004546001600160a01b031633146101bf57600080fd5b600081815260208181526040808320815160608101835281546001600160a01b03908116825260018301548286019081526002938401548386015289821687529285528386208251909116865290935290832090518154929392811061022757610227611730565b60009182526020808320909101929092556001600160a01b038616815260019091526040808220908301518154811061026257610262611730565b600091825260209091200155805161027b908385610987565b50505050565b6001600160a01b03831660009081526001602090815260408083208054825181850281018501909352808352606094938301828280156102e057602002820191906000526020600020905b8154815260200190600101908083116102cc575b5050505050905060008060006102f887878651610d88565b91945092509050801561043b57806001600160401b0381111561031d5761031d611746565b60405190808252806020026020018201604052801561035657816020015b610343610de2565b81526020019060019003908161033b5790505b5094506000835b83811161043457600086828151811061037857610378611730565b6020026020010151905060008111156104275760008181526020819052604090819020549051631b2d298360e11b8152600481018390526001600160a01b039091169063365a530690602401600060405180830381865afa1580156103e1573d6000803e3d6000fd5b505050506040513d6000823e601f3d908101601f191682016040526104099190810190611a5d565b88848151811061041b5761041b611730565b60200260200101819052505b506001918201910161035d565b5050610470565b604080516000808252602082019092529061046c565b610459610de2565b8152602001906001900390816104515790505b5094505b505050509392505050565b6060816001600160401b0381111561049557610495611746565b6040519080825280602002602001820160405280156104ce57816020015b6104bb610e6e565b8152602001906001900390816104b35790505b50905060005b8281101561058d578383828181106104ee576104ee611730565b905060200201602081019061050391906115c7565b6001600160a01b031663c70c07f76040518163ffffffff1660e01b8152600401600060405180830381865afa158015610540573d6000803e3d6000fd5b505050506040513d6000823e601f3d908101601f191682016040526105689190810190611c13565b82828151811061057a5761057a611730565b60209081029190910101526001016104d4565b5092915050565b6003546001600160a01b031633146105ab57600080fd5b600480546001600160a01b0319166001600160a01b0392909216919091179055565b606080836001600160401b038111156105e8576105e8611746565b60405190808252806020026020018201604052801561062157816020015b61060e610e6e565b8152602001906001900390816106065790505b509150836001600160401b0381111561063c5761063c611746565b604051908082528060200260200182016040528015610665578160200160208202803683370190505b50905060005b848110156107d55785858281811061068557610685611730565b905060200201602081019061069a91906115c7565b6040516370a0823160e01b81526001600160a01b03868116600483015291909116906370a0823190602401602060405180830381865afa1580156106e2573d6000803e3d6000fd5b505050506040513d601f19601f820116820180604052508101906107069190611e9e565b82828151811061071857610718611730565b60200260200101818152505085858281811061073657610736611730565b905060200201602081019061074b91906115c7565b6001600160a01b031663c70c07f76040518163ffffffff1660e01b8152600401600060405180830381865afa158015610788573d6000803e3d6000fd5b505050506040513d6000823e601f3d908101601f191682016040526107b09190810190611c13565b8382815181106107c2576107c2611730565b602090810291909101015260010161066b565b50935093915050565b60405163bbe9583760e01b815260048101839052602481018290526060906000906001600160a01b037f0000000000000000000000000000000000000000000000000000000000000000169063bbe9583790604401600060405180830381865afa158015610850573d6000803e3d6000fd5b505050506040513d6000823e601f3d908101601f191682016040526108789190810190611eb7565b905080516001600160401b0381111561089357610893611746565b6040519080825280602002602001820160405280156108cc57816020015b6108b9610e6e565b8152602001906001900390816108b15790505b50915060005b815181101561097f578181815181106108ed576108ed611730565b60200260200101516001600160a01b031663c70c07f76040518163ffffffff1660e01b8152600401600060405180830381865afa158015610932573d6000803e3d6000fd5b505050506040513d6000823e601f3d908101601f1916820160405261095a9190810190611c13565b83828151811061096c5761096c611730565b60209081029190910101526001016108d2565b505092915050565b6004546001600160a01b0316331461099e57600080fd5b6001600160a01b03908116600090815260016020818152604080842080546002808552838720998816808852998552838720805485516060810187529b8c528b87019081528b86019384528a89528887529488209a518b546001600160a01b0319169916989098178a5592518986015551979091019690965583548083018555938352808320909301849055808352845490810185559381522090910155565b6001600160a01b0380851660009081526002602090815260408083209387168352928152828220805484518184028101840190955280855260609492830182828015610aa957602002820191906000526020600020905b815481526020019060010190808311610a95575b505050505090506000806000610ac187878651610d88565b919450925090508015610d47576000886001600160a01b031663871a78d26040518163ffffffff1660e01b815260040161010060405180830381865afa158015610b0f573d6000803e3d6000fd5b505050506040513d601f19601f82011682018060405250810190610b339190611ef3565b9050816001600160401b03811115610b4d57610b4d611746565b604051908082528060200260200182016040528015610b8657816020015b610b73610de2565b815260200190600190039081610b6b5790505b5095506000845b848111610d3f576000878281518110610ba857610ba8611730565b60200260200101511115610d33578a6001600160a01b031663365a5306888381518110610bd757610bd7611730565b60200260200101516040518263ffffffff1660e01b8152600401610bfd91815260200190565b600060405180830381865afa158015610c1a573d6000803e3d6000fd5b505050506040513d6000823e601f3d908101601f19168201604052610c429190810190611a5d565b888381518110610c5457610c54611730565b6020026020010181905250878281518110610c7157610c71611730565b6020026020010151606001516001600160601b0316600014610cf957878281518110610c9f57610c9f611730565b6020026020010151606001516001600160601b03168360000151898481518110610ccb57610ccb611730565b602002602001015160a001516001600160801b0316610cea9190611f98565b610cf49190611fb5565b610cfc565b60005b888381518110610d0e57610d0e611730565b602002602001015160a001906001600160801b031690816001600160801b0316815250505b60019182019101610b8d565b505050610d7c565b6040805160008082526020820190925290610d78565b610d65610de2565b815260200190600190039081610d5d5790505b5094505b50505050949350505050565b600080808315801590610d9b5750848611155b8015610db15750610dad600185611fd7565b8611155b15610dd9578592506000198401858110610dcb5785610dcd565b805b92508383036001019150505b93509350939050565b604051806101a00160405280600081526020016000815260200160006001600160a01b0316815260200160006001600160601b0316815260200160006001600160801b0316815260200160006001600160801b03168152602001600081526020016060815260200160008152602001606081526020016060815260200160608152602001606081525090565b604051806103a0016040528060006001600160a01b03168152602001600061ffff16815260200160006001600160a01b0316815260200160006001600160a01b0316815260200160006001600160a01b0316815260200160006001600160a01b0316815260200160008152602001600081526020016000815260200160006001600160801b0316815260200160006001600160801b0316815260200160006001600160a01b0316815260200160006001600160601b03168152602001600065ffffffffffff168152602001600069ffffffffffffffffffff16815260200160006001600160801b03168152602001600081526020016000815260200160608152602001606081526020016060815260200160608152602001606081526020016060815260200160008152602001600081526020016000815260200160008152602001600065ffffffffffff1681525090565b6001600160a01b0381168114610fd557600080fd5b50565b600080600060608486031215610fed57600080fd5b8335610ff881610fc0565b9250602084013561100881610fc0565b929592945050506040919091013590565b60008060006060848603121561102e57600080fd5b833561103981610fc0565b95602085013595506040909401359392505050565b600081518084526020808501945080840160005b838110156110875781516001600160801b031687529582019590820190600101611062565b509495945050505050565b600081518084526020808501945080840160005b838110156110875781516001600160a01b0316875295820195908201906001016110a6565b600081518084526020808501945080840160005b8381101561108757815160ff16875295820195908201906001016110df565b60005b83811015611119578181015183820152602001611101565b50506000910152565b600081518084526020808501808196508360051b8101915082860160005b8581101561118257828403895281518051808652611163818888018985016110fe565b99860199601f01601f1916949094018501935090840190600101611140565b5091979650505050505050565b60006020808301818452808551808352604092508286019150828160051b87010184880160005b838110156112d857603f198984030185528151805184528781015188850152868101516001600160a01b0316878501526060808201516001600160601b0316908501526080808201516001600160801b039081169186019190915260a0808301519091169085015260c0808201519085015260e0808201516101a082870181905291906112458388018261104e565b92505050610100808301518187015250610120808301518683038288015261126d8382611092565b92505050610140808301518683038288015261128983826110cb565b9250505061016080830151868303828801526112a58382611122565b9250505061018080830151925085820381870152506112c48183611122565b9689019694505050908601906001016111b6565b509098975050505050505050565b60008083601f8401126112f857600080fd5b5081356001600160401b0381111561130f57600080fd5b6020830191508360208260051b850101111561132a57600080fd5b9250929050565b6000806020838503121561134457600080fd5b82356001600160401b0381111561135a57600080fd5b611366858286016112e6565b90969095509350505050565b600081518084526020808501808196508360051b8101915082860160005b85811015611182578284038952815180516001600160a01b0390811686528682015161ffff168787015260408083015182169087015260608083015182169087015260808083015182169087015260a08083015182169087015260c0808301519087015260e080830151908701526101008083015190870152610120808301516001600160801b0390811691880191909152610140808401518216908801526101608084015190921691870191909152610180808301516001600160601b0316908701526101a08083015165ffffffffffff16908701526101c08083015169ffffffffffffffffffff16908701526101e0808301519091169086015261020080820151908601526102208082015190860152610240808201516103a082880181905291906114c083890182611092565b9250505061026080830151878303828901526114dc8382611122565b9250505061028080830151878303828901526114f88382611122565b925050506102a0808301518783038289015261151483826110cb565b925050506102c08083015187830382890152611530838261104e565b925050506102e0808301518783038289015261154c838261104e565b61030085810151908a015261032080860151908a015261034080860151908a015261036080860151908a01526103809485015165ffffffffffff8116868b01529490935091506115999050565b509986019994505090840190600101611390565b6020815260006115c06020830184611372565b9392505050565b6000602082840312156115d957600080fd5b81356115c081610fc0565b6000806000604084860312156115f957600080fd5b83356001600160401b0381111561160f57600080fd5b61161b868287016112e6565b909450925050602084013561162f81610fc0565b809150509250925092565b60408152600061164d6040830185611372565b82810360208481019190915284518083528582019282019060005b8181101561168457845183529383019391830191600101611668565b5090979650505050505050565b600080604083850312156116a457600080fd5b50508035926020909101359150565b6000806000606084860312156116c857600080fd5b83356116d381610fc0565b925060208401359150604084013561162f81610fc0565b6000806000806080858703121561170057600080fd5b843561170b81610fc0565b9350602085013561171b81610fc0565b93969395505050506040820135916060013590565b634e487b7160e01b600052603260045260246000fd5b634e487b7160e01b600052604160045260246000fd5b6040516101a081016001600160401b038111828210171561177f5761177f611746565b60405290565b6040516103a081016001600160401b038111828210171561177f5761177f611746565b604051601f8201601f191681016001600160401b03811182821017156117d0576117d0611746565b604052919050565b80516117e381610fc0565b919050565b80516001600160601b03811681146117e357600080fd5b80516001600160801b03811681146117e357600080fd5b60006001600160401b0382111561182f5761182f611746565b5060051b60200190565b600082601f83011261184a57600080fd5b8151602061185f61185a83611816565b6117a8565b82815260059290921b8401810191818101908684111561187e57600080fd5b8286015b848110156118a057611893816117ff565b8352918301918301611882565b509695505050505050565b600082601f8301126118bc57600080fd5b815160206118cc61185a83611816565b82815260059290921b840181019181810190868411156118eb57600080fd5b8286015b848110156118a057805161190281610fc0565b83529183019183016118ef565b600082601f83011261192057600080fd5b8151602061193061185a83611816565b82815260059290921b8401810191818101908684111561194f57600080fd5b8286015b848110156118a057805160ff8116811461196d5760008081fd5b8352918301918301611953565b6000601f838184011261198c57600080fd5b8251602061199c61185a83611816565b82815260059290921b850181019181810190878411156119bb57600080fd5b8287015b84811015611a515780516001600160401b03808211156119df5760008081fd5b818a0191508a603f8301126119f45760008081fd5b85820151604082821115611a0a57611a0a611746565b611a1b828b01601f191689016117a8565b92508183528c81838601011115611a325760008081fd5b611a41828985018387016110fe565b50508452509183019183016119bf565b50979650505050505050565b600060208284031215611a6f57600080fd5b81516001600160401b0380821115611a8657600080fd5b908301906101a08286031215611a9b57600080fd5b611aa361175c565b8251815260208301516020820152611abd604084016117d8565b6040820152611ace606084016117e8565b6060820152611adf608084016117ff565b6080820152611af060a084016117ff565b60a082015260c083015160c082015260e083015182811115611b1157600080fd5b611b1d87828601611839565b60e08301525061010083810151908201526101208084015183811115611b4257600080fd5b611b4e888287016118ab565b8284015250506101408084015183811115611b6857600080fd5b611b748882870161190f565b8284015250506101608084015183811115611b8e57600080fd5b611b9a8882870161197a565b8284015250506101808084015183811115611bb457600080fd5b611bc08882870161197a565b918301919091525095945050505050565b805161ffff811681146117e357600080fd5b805165ffffffffffff811681146117e357600080fd5b805169ffffffffffffffffffff811681146117e357600080fd5b600060208284031215611c2557600080fd5b81516001600160401b0380821115611c3c57600080fd5b908301906103a08286031215611c5157600080fd5b611c59611785565b611c62836117d8565b8152611c7060208401611bd1565b6020820152611c81604084016117d8565b6040820152611c92606084016117d8565b6060820152611ca3608084016117d8565b6080820152611cb460a084016117d8565b60a082015260c083015160c082015260e083015160e0820152610100808401518183015250610120611ce78185016117ff565b90820152610140611cf98482016117ff565b90820152610160611d0b8482016117d8565b90820152610180611d1d8482016117e8565b908201526101a0611d2f848201611be3565b908201526101c0611d41848201611bf9565b908201526101e0611d538482016117ff565b90820152610200838101519082015261022080840151908201526102408084015183811115611d8157600080fd5b611d8d888287016118ab565b8284015250506102608084015183811115611da757600080fd5b611db38882870161197a565b8284015250506102808084015183811115611dcd57600080fd5b611dd98882870161197a565b8284015250506102a08084015183811115611df357600080fd5b611dff8882870161190f565b8284015250506102c08084015183811115611e1957600080fd5b611e2588828701611839565b8284015250506102e08084015183811115611e3f57600080fd5b611e4b88828701611839565b918301919091525061030083810151908201526103208084015190820152610340808401519082015261036080840151908201526103809150611e8f828401611be3565b91810191909152949350505050565b600060208284031215611eb057600080fd5b5051919050565b600060208284031215611ec957600080fd5b81516001600160401b03811115611edf57600080fd5b611eeb848285016118ab565b949350505050565b6000610100808385031215611f0757600080fd5b604051908101906001600160401b0382118183101715611f2957611f29611746565b81604052835181526020840151602082015260408401516040820152606084015160608201526080840151608082015260a084015160a082015260c084015160c082015260e084015160e0820152809250505092915050565b634e487b7160e01b600052601160045260246000fd5b8082028115828204841417611faf57611faf611f82565b92915050565b600082611fd257634e487b7160e01b600052601260045260246000fd5b500490565b81810381811115611faf57611faf611f8256fea26469706673582212200da0793edbbeaf1dfb9c04d367306b71c74d76f88a66d509603d59620f91c9da64736f6c63430008110033",
    "linkReferences": {}
  },
  "methodIdentifiers": {
    "addLoanToOwner(address,uint256,address)": "c67e2403",
    "getLoansByOwner(address,uint256,uint256)": "6af35494",
    "getLoansByOwnerAndPool(address,address,uint256,uint256)": "c70bdbca",
    "getPools(uint256,uint256)": "bbe95837",
    "getPoolsByAddresses(address[])": "8d1006e1",
    "getPoolsWithOwnerLPBalance(address[],address)": "b46814e5",
    "owner()": "8da5cb5b",
    "setSource(address)": "a8026912",
    "source()": "67e828bf",
    "transferLoan(address,address,uint256)": "02ca8acf"
  },
  "id": 14
}