{
  "abi": [
    {
      "inputs": [
        {
          "internalType": "address",
          "name": "_WETH",
          "type": "address"
        }
      ],
      "stateMutability": "nonpayable",
      "type": "constructor"
    },
    {
      "inputs": [],
      "name": "NotEnoughTokens",
      "type": "error"
    },
    {
      "inputs": [],
      "name": "NotEnoughWETH",
      "type": "error"
    },
    {
      "inputs": [],
      "name": "NotGammaPool",
      "type": "error"
    },
    {
      "inputs": [],
      "name": "NotWETH",
      "type": "error"
    },
    {
      "inputs": [],
      "name": "STE_Fail",
      "type": "error"
    },
    {
      "inputs": [],
      "name": "STF_Fail",
      "type": "error"
    },
    {
      "inputs": [],
      "name": "ST_Fail",
      "type": "error"
    },
    {
      "inputs": [],
      "name": "WETH",
      "outputs": [
        {
          "internalType": "address",
          "name": "",
          "type": "address"
        }
      ],
      "stateMutability": "view",
      "type": "function"
    },
    {
      "inputs": [
        {
          "internalType": "address",
          "name": "token",
          "type": "address"
        },
        {
          "internalType": "address",
          "name": "to",
          "type": "address"
        },
        {
          "internalType": "uint256",
          "name": "minAmt",
          "type": "uint256"
        }
      ],
      "name": "clearToken",
      "outputs": [],
      "stateMutability": "nonpayable",
      "type": "function"
    },
    {
      "inputs": [],
      "name": "refundETH",
      "outputs": [],
      "stateMutability": "payable",
      "type": "function"
    },
    {
      "inputs": [
        {
          "internalType": "address[]",
          "name": "tokens",
          "type": "address[]"
        },
        {
          "internalType": "uint256[]",
          "name": "amounts",
          "type": "uint256[]"
        },
        {
          "internalType": "address",
          "name": "payee",
          "type": "address"
        },
        {
          "internalType": "bytes",
          "name": "data",
          "type": "bytes"
        }
      ],
      "name": "sendTokensCallback",
      "outputs": [],
      "stateMutability": "nonpayable",
      "type": "function"
    },
    {
      "inputs": [
        {
          "internalType": "address",
          "name": "token",
          "type": "address"
        },
        {
          "internalType": "address",
          "name": "sender",
          "type": "address"
        },
        {
          "internalType": "address",
          "name": "to",
          "type": "address"
        },
        {
          "internalType": "uint256",
          "name": "amount",
          "type": "uint256"
        }
      ],
      "name": "testSend",
      "outputs": [],
      "stateMutability": "nonpayable",
      "type": "function"
    },
    {
      "inputs": [],
      "name": "testUnwrapWETH",
      "outputs": [],
      "stateMutability": "payable",
      "type": "function"
    },
    {
      "inputs": [
        {
          "internalType": "uint256",
          "name": "minAmt",
          "type": "uint256"
        },
        {
          "internalType": "address",
          "name": "to",
          "type": "address"
        }
      ],
      "name": "unwrapWETH",
      "outputs": [],
      "stateMutability": "payable",
      "type": "function"
    },
    {
      "stateMutability": "payable",
      "type": "receive"
    }
  ],
  "bytecode": {
    "object": "0x60a060405234801561001057600080fd5b50604051610d2b380380610d2b83398101604081905261002f91610040565b6001600160a01b0316608052610070565b60006020828403121561005257600080fd5b81516001600160a01b038116811461006957600080fd5b9392505050565b608051610c696100c26000396000818160840152818161010301528181610259015281816102ea0152818161040f015281816104c1015281816107310152818161077701526107ee0152610c696000f3fe6080604052600436106100745760003560e01c8063adf852951161004e578063adf8529514610141578063ccbe764a14610149578063e16d9ce514610169578063fe68e6671461017c57600080fd5b806312210e8a146100c95780636464a1eb146100d1578063ad5c4648146100f157600080fd5b366100c457336001600160a01b037f000000000000000000000000000000000000000000000000000000000000000016146100c257604051635724f38560e01b815260040160405180910390fd5b005b600080fd5b6100c261019c565b3480156100dd57600080fd5b506100c26100ec36600461099b565b6101ae565b3480156100fd57600080fd5b506101257f000000000000000000000000000000000000000000000000000000000000000081565b6040516001600160a01b03909116815260200160405180910390f35b6100c2610241565b34801561015557600080fd5b506100c2610164366004610a76565b610352565b6100c2610177366004610ab2565b6103f7565b34801561018857600080fd5b506100c2610197366004610ade565b610534565b47156101ac576101ac3347610540565b565b60006101bc82840184610b29565b60208101519091506001600160a01b0316336001600160a01b0316146101f5576040516368e0934d60e01b815260040160405180910390fd5b610237888880806020026020016040519081016040528093929190818152602001838360200280828437600092019190915250508451915087905089896105ce565b5050505050505050565b6040516370a0823160e01b81523060048201526000907f00000000000000000000000000000000000000000000000000000000000000006001600160a01b0316906370a0823190602401602060405180830381865afa1580156102a8573d6000803e3d6000fd5b505050506040513d601f19601f820116820180604052508101906102cc9190610bac565b9050801561034f57604051632e1a7d4d60e01b8152600481018290527f00000000000000000000000000000000000000000000000000000000000000006001600160a01b031690632e1a7d4d90602401600060405180830381600087803b15801561033657600080fd5b505af115801561034a573d6000803e3d6000fd5b505050505b50565b6040516370a0823160e01b81523060048201526000906001600160a01b038516906370a0823190602401602060405180830381865afa158015610399573d6000803e3d6000fd5b505050506040513d601f19601f820116820180604052508101906103bd9190610bac565b9050818110156103e0576040516308aeed0f60e21b815260040160405180910390fd5b80156103f1576103f184848361064a565b50505050565b6040516370a0823160e01b81523060048201526000907f00000000000000000000000000000000000000000000000000000000000000006001600160a01b0316906370a0823190602401602060405180830381865afa15801561045e573d6000803e3d6000fd5b505050506040513d601f19601f820116820180604052508101906104829190610bac565b9050828110156104a55760405163d666767760e01b815260040160405180910390fd5b801561052f57604051632e1a7d4d60e01b8152600481018290527f00000000000000000000000000000000000000000000000000000000000000006001600160a01b031690632e1a7d4d90602401600060405180830381600087803b15801561050d57600080fd5b505af1158015610521573d6000803e3d6000fd5b5050505061052f8282610540565b505050565b6103f18484848461072f565b604080516000808252602082019092526001600160a01b03841690839060405161056a9190610bc5565b60006040518083038185875af1925050503d80600081146105a7576040519150601f19603f3d011682016040523d82523d6000602084013e6105ac565b606091505b505090508061052f576040516325e5592160e21b815260040160405180910390fd5b845160005b818110156106415760008484838181106105ef576105ef610bf4565b9050602002013511156106395761063987828151811061061157610611610bf4565b6020026020010151878787878681811061062d5761062d610bf4565b9050602002013561072f565b6001016105d3565b50505050505050565b604080516001600160a01b038481166024830152604480830185905283518084039091018152606490920183526020820180516001600160e01b031663a9059cbb60e01b17905291516000928392908716916106a69190610bc5565b6000604051808303816000865af19150503d80600081146106e3576040519150601f19603f3d011682016040523d82523d6000602084013e6106e8565b606091505b50915091508180156107125750805115806107125750808060200190518101906107129190610c0a565b61034a5760405163847ea61d60e01b815260040160405180910390fd5b7f00000000000000000000000000000000000000000000000000000000000000006001600160a01b0316846001600160a01b03161480156107705750804710155b15610819577f00000000000000000000000000000000000000000000000000000000000000006001600160a01b031663d0e30db0826040518263ffffffff1660e01b81526004016000604051808303818588803b1580156107d057600080fd5b505af11580156107e4573d6000803e3d6000fd5b50505050506108147f0000000000000000000000000000000000000000000000000000000000000000838361064a565b6103f1565b306001600160a01b038416036108345761081484838361064a565b604080516001600160a01b0380861660248301528085166044830152606480830185905283518084039091018152608490920183526020820180516001600160e01b03166323b872dd60e01b17905291516103f192879287928792879260009283928816916108a291610bc5565b6000604051808303816000865af19150503d80600081146108df576040519150601f19603f3d011682016040523d82523d6000602084013e6108e4565b606091505b509150915081801561090e57508051158061090e57508080602001905181019061090e9190610c0a565b61092b5760405163e5c4a34160e01b815260040160405180910390fd5b505050505050565b60008083601f84011261094557600080fd5b50813567ffffffffffffffff81111561095d57600080fd5b6020830191508360208260051b850101111561097857600080fd5b9250929050565b80356001600160a01b038116811461099657600080fd5b919050565b60008060008060008060006080888a0312156109b657600080fd5b873567ffffffffffffffff808211156109ce57600080fd5b6109da8b838c01610933565b909950975060208a01359150808211156109f357600080fd5b6109ff8b838c01610933565b9097509550859150610a1360408b0161097f565b945060608a0135915080821115610a2957600080fd5b818a0191508a601f830112610a3d57600080fd5b813581811115610a4c57600080fd5b8b6020828501011115610a5e57600080fd5b60208301945080935050505092959891949750929550565b600080600060608486031215610a8b57600080fd5b610a948461097f565b9250610aa26020850161097f565b9150604084013590509250925092565b60008060408385031215610ac557600080fd5b82359150610ad56020840161097f565b90509250929050565b60008060008060808587031215610af457600080fd5b610afd8561097f565b9350610b0b6020860161097f565b9250610b196040860161097f565b9396929550929360600135925050565b600060608284031215610b3b57600080fd5b6040516060810181811067ffffffffffffffff82111715610b6c57634e487b7160e01b600052604160045260246000fd5b604052610b788361097f565b8152610b866020840161097f565b6020820152604083013561ffff81168114610ba057600080fd5b60408201529392505050565b600060208284031215610bbe57600080fd5b5051919050565b6000825160005b81811015610be65760208186018101518583015201610bcc565b506000920191825250919050565b634e487b7160e01b600052603260045260246000fd5b600060208284031215610c1c57600080fd5b81518015158114610c2c57600080fd5b939250505056fea26469706673582212205d591815aa59cd3f11fbacc0d26a461be4044965839a92fa24ba9a28c5a227c064736f6c63430008110033",
    "linkReferences": {}
  },
  "methodIdentifiers": {
    "WETH()": "ad5c4648",
    "clearToken(address,address,uint256)": "ccbe764a",
    "refundETH()": "12210e8a",
    "sendTokensCallback(address[],uint256[],address,bytes)": "6464a1eb",
    "testSend(address,address,address,uint256)": "fe68e667",
    "testUnwrapWETH()": "adf85295",
    "unwrapWETH(uint256,address)": "e16d9ce5"
  },
  "id": 28
}