{
  "abi": [
    {
      "inputs": [
        {
          "internalType": "address",
          "name": "_factory",
          "type": "address"
        },
        {
          "internalType": "address",
          "name": "_WETH",
          "type": "address"
        },
        {
          "internalType": "address",
          "name": "_dataStore",
          "type": "address"
        }
      ],
      "stateMutability": "nonpayable",
      "type": "constructor"
    },
    {
      "inputs": [],
      "name": "AmountsMin",
      "type": "error"
    },
    {
      "inputs": [],
      "name": "ERC721ApproveOwner",
      "type": "error"
    },
    {
      "inputs": [],
      "name": "ERC721ApproveToCaller",
      "type": "error"
    },
    {
      "inputs": [],
      "name": "ERC721Forbidden",
      "type": "error"
    },
    {
      "inputs": [],
      "name": "ERC721InvalidTokenID",
      "type": "error"
    },
    {
      "inputs": [],
      "name": "ERC721MintToZeroAddress",
      "type": "error"
    },
    {
      "inputs": [],
      "name": "ERC721TokenExists",
      "type": "error"
    },
    {
      "inputs": [],
      "name": "ERC721TransferFromWrongOwner",
      "type": "error"
    },
    {
      "inputs": [],
      "name": "ERC721TransferToNonReceiver",
      "type": "error"
    },
    {
      "inputs": [],
      "name": "ERC721TransferToZeroAddress",
      "type": "error"
    },
    {
      "inputs": [],
      "name": "ERC721ZeroAddress",
      "type": "error"
    },
    {
      "inputs": [],
      "name": "Expired",
      "type": "error"
    },
    {
      "inputs": [],
      "name": "Forbidden",
      "type": "error"
    },
    {
      "inputs": [],
      "name": "NotEnoughTokens",
      "type": "error"
    },
    {
      "inputs": [],
      "name": "NotEnoughWETH",
      "type": "error"
    },
    {
      "inputs": [],
      "name": "NotGammaPool",
      "type": "error"
    },
    {
      "inputs": [],
      "name": "NotWETH",
      "type": "error"
    },
    {
      "inputs": [],
      "name": "STE_Fail",
      "type": "error"
    },
    {
      "inputs": [],
      "name": "STF_Fail",
      "type": "error"
    },
    {
      "inputs": [],
      "name": "ST_Fail",
      "type": "error"
    },
    {
      "anonymous": false,
      "inputs": [
        {
          "indexed": true,
          "internalType": "address",
          "name": "owner",
          "type": "address"
        },
        {
          "indexed": true,
          "internalType": "address",
          "name": "approved",
          "type": "address"
        },
        {
          "indexed": true,
          "internalType": "uint256",
          "name": "tokenId",
          "type": "uint256"
        }
      ],
      "name": "Approval",
      "type": "event"
    },
    {
      "anonymous": false,
      "inputs": [
        {
          "indexed": true,
          "internalType": "address",
          "name": "owner",
          "type": "address"
        },
        {
          "indexed": true,
          "internalType": "address",
          "name": "operator",
          "type": "address"
        },
        {
          "indexed": false,
          "internalType": "bool",
          "name": "approved",
          "type": "bool"
        }
      ],
      "name": "ApprovalForAll",
      "type": "event"
    },
    {
      "anonymous": false,
      "inputs": [
        {
          "indexed": true,
          "internalType": "address",
          "name": "pool",
          "type": "address"
        },
        {
          "indexed": false,
          "internalType": "uint256",
          "name": "tokenId",
          "type": "uint256"
        },
        {
          "indexed": false,
          "internalType": "uint256",
          "name": "liquidityBorrowed",
          "type": "uint256"
        },
        {
          "indexed": false,
          "internalType": "uint256[]",
          "name": "amounts",
          "type": "uint256[]"
        }
      ],
      "name": "BorrowLiquidity",
      "type": "event"
    },
    {
      "anonymous": false,
      "inputs": [
        {
          "indexed": true,
          "internalType": "address",
          "name": "pool",
          "type": "address"
        },
        {
          "indexed": true,
          "internalType": "address",
          "name": "owner",
          "type": "address"
        },
        {
          "indexed": false,
          "internalType": "uint256",
          "name": "tokenId",
          "type": "uint256"
        }
      ],
      "name": "CreateLoan",
      "type": "event"
    },
    {
      "anonymous": false,
      "inputs": [
        {
          "indexed": true,
          "internalType": "address",
          "name": "pool",
          "type": "address"
        },
        {
          "indexed": false,
          "internalType": "uint256",
          "name": "tokenId",
          "type": "uint256"
        },
        {
          "indexed": false,
          "internalType": "uint128[]",
          "name": "tokensHeld",
          "type": "uint128[]"
        }
      ],
      "name": "DecreaseCollateral",
      "type": "event"
    },
    {
      "anonymous": false,
      "inputs": [
        {
          "indexed": true,
          "internalType": "address",
          "name": "caller",
          "type": "address"
        },
        {
          "indexed": true,
          "internalType": "address",
          "name": "to",
          "type": "address"
        },
        {
          "indexed": false,
          "internalType": "uint256",
          "name": "assets",
          "type": "uint256"
        },
        {
          "indexed": false,
          "internalType": "uint256",
          "name": "shares",
          "type": "uint256"
        }
      ],
      "name": "Deposit",
      "type": "event"
    },
    {
      "anonymous": false,
      "inputs": [
        {
          "indexed": true,
          "internalType": "address",
          "name": "pool",
          "type": "address"
        },
        {
          "indexed": false,
          "internalType": "uint256",
          "name": "shares",
          "type": "uint256"
        }
      ],
      "name": "DepositNoPull",
      "type": "event"
    },
    {
      "anonymous": false,
      "inputs": [
        {
          "indexed": true,
          "internalType": "address",
          "name": "pool",
          "type": "address"
        },
        {
          "indexed": false,
          "internalType": "uint256[]",
          "name": "reserves",
          "type": "uint256[]"
        },
        {
          "indexed": false,
          "internalType": "uint256",
          "name": "shares",
          "type": "uint256"
        }
      ],
      "name": "DepositReserve",
      "type": "event"
    },
    {
      "anonymous": false,
      "inputs": [
        {
          "indexed": true,
          "internalType": "uint256",
          "name": "tokenId",
          "type": "uint256"
        },
        {
          "indexed": false,
          "internalType": "uint128[]",
          "name": "amounts",
          "type": "uint128[]"
        },
        {
          "indexed": false,
          "internalType": "uint256",
          "name": "lpTokens",
          "type": "uint256"
        },
        {
          "indexed": false,
          "internalType": "uint128",
          "name": "liquidity",
          "type": "uint128"
        },
        {
          "indexed": true,
          "internalType": "enum IStrategyEvents.TX_TYPE",
          "name": "txType",
          "type": "uint8"
        }
      ],
      "name": "ExternalSwap",
      "type": "event"
    },
    {
      "anonymous": false,
      "inputs": [
        {
          "indexed": true,
          "internalType": "address",
          "name": "pool",
          "type": "address"
        },
        {
          "indexed": false,
          "internalType": "uint256",
          "name": "tokenId",
          "type": "uint256"
        },
        {
          "indexed": false,
          "internalType": "uint128[]",
          "name": "tokensHeld",
          "type": "uint128[]"
        }
      ],
      "name": "IncreaseCollateral",
      "type": "event"
    },
    {
      "anonymous": false,
      "inputs": [
        {
          "indexed": true,
          "internalType": "uint256",
          "name": "tokenId",
          "type": "uint256"
        },
        {
          "indexed": false,
          "internalType": "uint128",
          "name": "collateral",
          "type": "uint128"
        },
        {
          "indexed": false,
          "internalType": "uint128",
          "name": "liquidity",
          "type": "uint128"
        },
        {
          "indexed": false,
          "internalType": "uint128",
          "name": "writeDownAmt",
          "type": "uint128"
        },
        {
          "indexed": false,
          "internalType": "enum IStrategyEvents.TX_TYPE",
          "name": "txType",
          "type": "uint8"
        },
        {
          "indexed": false,
          "internalType": "uint256[]",
          "name": "tokenIds",
          "type": "uint256[]"
        }
      ],
      "name": "Liquidation",
      "type": "event"
    },
    {
      "anonymous": false,
      "inputs": [
        {
          "indexed": true,
          "internalType": "address",
          "name": "caller",
          "type": "address"
        },
        {
          "indexed": false,
          "internalType": "uint256",
          "name": "tokenId",
          "type": "uint256"
        }
      ],
      "name": "LoanCreated",
      "type": "event"
    },
    {
      "anonymous": false,
      "inputs": [
        {
          "indexed": true,
          "internalType": "uint256",
          "name": "tokenId",
          "type": "uint256"
        },
        {
          "indexed": true,
          "internalType": "address",
          "name": "poolId",
          "type": "address"
        },
        {
          "indexed": true,
          "internalType": "address",
          "name": "owner",
          "type": "address"
        },
        {
          "indexed": false,
          "internalType": "uint128[]",
          "name": "tokensHeld",
          "type": "uint128[]"
        },
        {
          "indexed": false,
          "internalType": "uint256",
          "name": "liquidity",
          "type": "uint256"
        },
        {
          "indexed": false,
          "internalType": "uint256",
          "name": "lpTokens",
          "type": "uint256"
        },
        {
          "indexed": false,
          "internalType": "uint256",
          "name": "initLiquidity",
          "type": "uint256"
        },
        {
          "indexed": false,
          "internalType": "uint128[]",
          "name": "cfmmReserves",
          "type": "uint128[]"
        }
      ],
      "name": "LoanUpdate",
      "type": "event"
    },
    {
      "anonymous": false,
      "inputs": [
        {
          "indexed": true,
          "internalType": "uint256",
          "name": "tokenId",
          "type": "uint256"
        },
        {
          "indexed": false,
          "internalType": "uint128[]",
          "name": "tokensHeld",
          "type": "uint128[]"
        },
        {
          "indexed": false,
          "internalType": "uint128",
          "name": "liquidity",
          "type": "uint128"
        },
        {
          "indexed": false,
          "internalType": "uint128",
          "name": "initLiquidity",
          "type": "uint128"
        },
        {
          "indexed": false,
          "internalType": "uint256",
          "name": "lpTokens",
          "type": "uint256"
        },
        {
          "indexed": false,
          "internalType": "uint96",
          "name": "rateIndex",
          "type": "uint96"
        },
        {
          "indexed": true,
          "internalType": "enum IStrategyEvents.TX_TYPE",
          "name": "txType",
          "type": "uint8"
        }
      ],
      "name": "LoanUpdated",
      "type": "event"
    },
    {
      "anonymous": false,
      "inputs": [
        {
          "indexed": false,
          "internalType": "uint256",
          "name": "lpTokenBalance",
          "type": "uint256"
        },
        {
          "indexed": false,
          "internalType": "uint256",
          "name": "lpTokenBorrowed",
          "type": "uint256"
        },
        {
          "indexed": false,
          "internalType": "uint48",
          "name": "lastBlockNumber",
          "type": "uint48"
        },
        {
          "indexed": false,
          "internalType": "uint96",
          "name": "accFeeIndex",
          "type": "uint96"
        },
        {
          "indexed": false,
          "internalType": "uint256",
          "name": "lpTokenBorrowedPlusInterest",
          "type": "uint256"
        },
        {
          "indexed": false,
          "internalType": "uint128",
          "name": "lpInvariant",
          "type": "uint128"
        },
        {
          "indexed": false,
          "internalType": "uint128",
          "name": "borrowedInvariant",
          "type": "uint128"
        },
        {
          "indexed": false,
          "internalType": "uint128[]",
          "name": "cfmmReserves",
          "type": "uint128[]"
        },
        {
          "indexed": true,
          "internalType": "enum IStrategyEvents.TX_TYPE",
          "name": "txType",
          "type": "uint8"
        }
      ],
      "name": "PoolUpdated",
      "type": "event"
    },
    {
      "anonymous": false,
      "inputs": [
        {
          "indexed": true,
          "internalType": "address",
          "name": "pool",
          "type": "address"
        },
        {
          "indexed": false,
          "internalType": "uint256",
          "name": "tokenId",
          "type": "uint256"
        },
        {
          "indexed": false,
          "internalType": "uint128[]",
          "name": "tokensHeld",
          "type": "uint128[]"
        }
      ],
      "name": "RebalanceCollateral",
      "type": "event"
    },
    {
      "anonymous": false,
      "inputs": [
        {
          "indexed": true,
          "internalType": "address",
          "name": "pool",
          "type": "address"
        },
        {
          "indexed": false,
          "internalType": "uint256",
          "name": "tokenId",
          "type": "uint256"
        },
        {
          "indexed": false,
          "internalType": "uint256",
          "name": "liquidityPaid",
          "type": "uint256"
        },
        {
          "indexed": false,
          "internalType": "uint256[]",
          "name": "amounts",
          "type": "uint256[]"
        }
      ],
      "name": "RepayLiquidity",
      "type": "event"
    },
    {
      "anonymous": false,
      "inputs": [
        {
          "indexed": true,
          "internalType": "address",
          "name": "from",
          "type": "address"
        },
        {
          "indexed": true,
          "internalType": "address",
          "name": "to",
          "type": "address"
        },
        {
          "indexed": true,
          "internalType": "uint256",
          "name": "tokenId",
          "type": "uint256"
        }
      ],
      "name": "Transfer",
      "type": "event"
    },
    {
      "anonymous": false,
      "inputs": [
        {
          "indexed": true,
          "internalType": "address",
          "name": "caller",
          "type": "address"
        },
        {
          "indexed": true,
          "internalType": "address",
          "name": "to",
          "type": "address"
        },
        {
          "indexed": true,
          "internalType": "address",
          "name": "from",
          "type": "address"
        },
        {
          "indexed": false,
          "internalType": "uint256",
          "name": "assets",
          "type": "uint256"
        },
        {
          "indexed": false,
          "internalType": "uint256",
          "name": "shares",
          "type": "uint256"
        }
      ],
      "name": "Withdraw",
      "type": "event"
    },
    {
      "anonymous": false,
      "inputs": [
        {
          "indexed": true,
          "internalType": "address",
          "name": "pool",
          "type": "address"
        },
        {
          "indexed": false,
          "internalType": "uint256",
          "name": "assets",
          "type": "uint256"
        }
      ],
      "name": "WithdrawNoPull",
      "type": "event"
    },
    {
      "anonymous": false,
      "inputs": [
        {
          "indexed": true,
          "internalType": "address",
          "name": "pool",
          "type": "address"
        },
        {
          "indexed": false,
          "internalType": "uint256[]",
          "name": "reserves",
          "type": "uint256[]"
        },
        {
          "indexed": false,
          "internalType": "uint256",
          "name": "assets",
          "type": "uint256"
        }
      ],
      "name": "WithdrawReserve",
      "type": "event"
    },
    {
      "inputs": [],
      "name": "WETH",
      "outputs": [
        {
          "internalType": "address",
          "name": "",
          "type": "address"
        }
      ],
      "stateMutability": "view",
      "type": "function"
    },
    {
      "inputs": [
        {
          "internalType": "address",
          "name": "to",
          "type": "address"
        },
        {
          "internalType": "uint256",
          "name": "tokenId",
          "type": "uint256"
        }
      ],
      "name": "approve",
      "outputs": [],
      "stateMutability": "nonpayable",
      "type": "function"
    },
    {
      "inputs": [
        {
          "internalType": "address",
          "name": "owner",
          "type": "address"
        }
      ],
      "name": "balanceOf",
      "outputs": [
        {
          "internalType": "uint256",
          "name": "",
          "type": "uint256"
        }
      ],
      "stateMutability": "view",
      "type": "function"
    },
    {
      "inputs": [
        {
          "components": [
            {
              "internalType": "uint16",
              "name": "protocolId",
              "type": "uint16"
            },
            {
              "internalType": "address",
              "name": "cfmm",
              "type": "address"
            },
            {
              "internalType": "address",
              "name": "to",
              "type": "address"
            },
            {
              "internalType": "uint256",
              "name": "tokenId",
              "type": "uint256"
            },
            {
              "internalType": "uint256",
              "name": "lpTokens",
              "type": "uint256"
            },
            {
              "internalType": "uint256",
              "name": "deadline",
              "type": "uint256"
            },
            {
              "internalType": "uint256[]",
              "name": "amounts",
              "type": "uint256[]"
            },
            {
              "internalType": "uint256[]",
              "name": "withdraw",
              "type": "uint256[]"
            },
            {
              "internalType": "uint256[]",
              "name": "minBorrowed",
              "type": "uint256[]"
            },
            {
              "internalType": "int256[]",
              "name": "deltas",
              "type": "int256[]"
            },
            {
              "internalType": "uint128[]",
              "name": "minCollateral",
              "type": "uint128[]"
            }
          ],
          "internalType": "struct IPositionManager.BorrowAndRebalanceParams",
          "name": "params",
          "type": "tuple"
        }
      ],
      "name": "borrowAndRebalance",
      "outputs": [
        {
          "internalType": "uint128[]",
          "name": "tokensHeld",
          "type": "uint128[]"
        },
        {
          "internalType": "uint256",
          "name": "liquidityBorrowed",
          "type": "uint256"
        },
        {
          "internalType": "uint256[]",
          "name": "amounts",
          "type": "uint256[]"
        }
      ],
      "stateMutability": "nonpayable",
      "type": "function"
    },
    {
      "inputs": [
        {
          "components": [
            {
              "internalType": "uint16",
              "name": "protocolId",
              "type": "uint16"
            },
            {
              "internalType": "address",
              "name": "cfmm",
              "type": "address"
            },
            {
              "internalType": "uint256",
              "name": "tokenId",
              "type": "uint256"
            },
            {
              "internalType": "uint256",
              "name": "lpTokens",
              "type": "uint256"
            },
            {
              "internalType": "uint256",
              "name": "deadline",
              "type": "uint256"
            },
            {
              "internalType": "uint256[]",
              "name": "minBorrowed",
              "type": "uint256[]"
            }
          ],
          "internalType": "struct IPositionManager.BorrowLiquidityParams",
          "name": "params",
          "type": "tuple"
        }
      ],
      "name": "borrowLiquidity",
      "outputs": [
        {
          "internalType": "uint256",
          "name": "liquidityBorrowed",
          "type": "uint256"
        },
        {
          "internalType": "uint256[]",
          "name": "amounts",
          "type": "uint256[]"
        }
      ],
      "stateMutability": "nonpayable",
      "type": "function"
    },
    {
      "inputs": [
        {
          "internalType": "address",
          "name": "token",
          "type": "address"
        },
        {
          "internalType": "address",
          "name": "to",
          "type": "address"
        },
        {
          "internalType": "uint256",
          "name": "minAmt",
          "type": "uint256"
        }
      ],
      "name": "clearToken",
      "outputs": [],
      "stateMutability": "nonpayable",
      "type": "function"
    },
    {
      "inputs": [
        {
          "components": [
            {
              "internalType": "uint16",
              "name": "protocolId",
              "type": "uint16"
            },
            {
              "internalType": "address",
              "name": "cfmm",
              "type": "address"
            },
            {
              "internalType": "address",
              "name": "to",
              "type": "address"
            },
            {
              "internalType": "uint256",
              "name": "tokenId",
              "type": "uint256"
            },
            {
              "internalType": "uint256",
              "name": "liquidity",
              "type": "uint256"
            },
            {
              "internalType": "uint256",
              "name": "deadline",
              "type": "uint256"
            },
            {
              "internalType": "uint256[]",
              "name": "amounts",
              "type": "uint256[]"
            },
            {
              "internalType": "uint256[]",
              "name": "withdraw",
              "type": "uint256[]"
            },
            {
              "internalType": "uint256[]",
              "name": "minRepaid",
              "type": "uint256[]"
            },
            {
              "internalType": "int256[]",
              "name": "deltas",
              "type": "int256[]"
            },
            {
              "internalType": "uint128[]",
              "name": "minCollateral",
              "type": "uint128[]"
            },
            {
              "internalType": "uint256[]",
              "name": "fees",
              "type": "uint256[]"
            }
          ],
          "internalType": "struct IPositionManager.RebalanceRepayAndWithdrawParams",
          "name": "params",
          "type": "tuple"
        }
      ],
      "name": "closeLoan",
      "outputs": [
        {
          "internalType": "uint256",
          "name": "liquidityPaid",
          "type": "uint256"
        }
      ],
      "stateMutability": "nonpayable",
      "type": "function"
    },
    {
      "inputs": [
        {
          "internalType": "uint16",
          "name": "protocolId",
          "type": "uint16"
        },
        {
          "internalType": "address",
          "name": "cfmm",
          "type": "address"
        },
        {
          "internalType": "address",
          "name": "to",
          "type": "address"
        },
        {
          "internalType": "uint256",
          "name": "deadline",
          "type": "uint256"
        }
      ],
      "name": "createLoan",
      "outputs": [
        {
          "internalType": "uint256",
          "name": "tokenId",
          "type": "uint256"
        }
      ],
      "stateMutability": "nonpayable",
      "type": "function"
    },
    {
      "inputs": [
        {
          "components": [
            {
              "internalType": "uint16",
              "name": "protocolId",
              "type": "uint16"
            },
            {
              "internalType": "address",
              "name": "cfmm",
              "type": "address"
            },
            {
              "internalType": "address",
              "name": "to",
              "type": "address"
            },
            {
              "internalType": "uint256",
              "name": "lpTokens",
              "type": "uint256"
            },
            {
              "internalType": "uint256",
              "name": "deadline",
              "type": "uint256"
            },
            {
              "internalType": "uint256[]",
              "name": "amounts",
              "type": "uint256[]"
            },
            {
              "internalType": "uint256[]",
              "name": "minBorrowed",
              "type": "uint256[]"
            },
            {
              "internalType": "int256[]",
              "name": "deltas",
              "type": "int256[]"
            },
            {
              "internalType": "uint128[]",
              "name": "minCollateral",
              "type": "uint128[]"
            }
          ],
          "internalType": "struct IPositionManager.CreateLoanBorrowAndRebalanceParams",
          "name": "params",
          "type": "tuple"
        }
      ],
      "name": "createLoanBorrowAndRebalance",
      "outputs": [
        {
          "internalType": "uint256",
          "name": "tokenId",
          "type": "uint256"
        },
        {
          "internalType": "uint128[]",
          "name": "tokensHeld",
          "type": "uint128[]"
        },
        {
          "internalType": "uint256",
          "name": "liquidityBorrowed",
          "type": "uint256"
        },
        {
          "internalType": "uint256[]",
          "name": "amounts",
          "type": "uint256[]"
        }
      ],
      "stateMutability": "nonpayable",
      "type": "function"
    },
    {
      "inputs": [],
      "name": "dataStore",
      "outputs": [
        {
          "internalType": "address",
          "name": "",
          "type": "address"
        }
      ],
      "stateMutability": "view",
      "type": "function"
    },
    {
      "inputs": [
        {
          "components": [
            {
              "internalType": "uint16",
              "name": "protocolId",
              "type": "uint16"
            },
            {
              "internalType": "address",
              "name": "cfmm",
              "type": "address"
            },
            {
              "internalType": "address",
              "name": "to",
              "type": "address"
            },
            {
              "internalType": "uint256",
              "name": "tokenId",
              "type": "uint256"
            },
            {
              "internalType": "uint256",
              "name": "deadline",
              "type": "uint256"
            },
            {
              "internalType": "uint256[]",
              "name": "amounts",
              "type": "uint256[]"
            }
          ],
          "internalType": "struct IPositionManager.AddRemoveCollateralParams",
          "name": "params",
          "type": "tuple"
        }
      ],
      "name": "decreaseCollateral",
      "outputs": [
        {
          "internalType": "uint128[]",
          "name": "tokensHeld",
          "type": "uint128[]"
        }
      ],
      "stateMutability": "nonpayable",
      "type": "function"
    },
    {
      "inputs": [
        {
          "components": [
            {
              "internalType": "uint16",
              "name": "protocolId",
              "type": "uint16"
            },
            {
              "internalType": "address",
              "name": "cfmm",
              "type": "address"
            },
            {
              "internalType": "address",
              "name": "to",
              "type": "address"
            },
            {
              "internalType": "uint256",
              "name": "lpTokens",
              "type": "uint256"
            },
            {
              "internalType": "uint256",
              "name": "deadline",
              "type": "uint256"
            }
          ],
          "internalType": "struct IPositionManager.DepositWithdrawParams",
          "name": "params",
          "type": "tuple"
        }
      ],
      "name": "depositNoPull",
      "outputs": [
        {
          "internalType": "uint256",
          "name": "shares",
          "type": "uint256"
        }
      ],
      "stateMutability": "nonpayable",
      "type": "function"
    },
    {
      "inputs": [
        {
          "components": [
            {
              "internalType": "uint16",
              "name": "protocolId",
              "type": "uint16"
            },
            {
              "internalType": "address",
              "name": "cfmm",
              "type": "address"
            },
            {
              "internalType": "address",
              "name": "to",
              "type": "address"
            },
            {
              "internalType": "uint256",
              "name": "deadline",
              "type": "uint256"
            },
            {
              "internalType": "uint256[]",
              "name": "amountsDesired",
              "type": "uint256[]"
            },
            {
              "internalType": "uint256[]",
              "name": "amountsMin",
              "type": "uint256[]"
            }
          ],
          "internalType": "struct IPositionManager.DepositReservesParams",
          "name": "params",
          "type": "tuple"
        }
      ],
      "name": "depositReserves",
      "outputs": [
        {
          "internalType": "uint256[]",
          "name": "reserves",
          "type": "uint256[]"
        },
        {
          "internalType": "uint256",
          "name": "shares",
          "type": "uint256"
        }
      ],
      "stateMutability": "nonpayable",
      "type": "function"
    },
    {
      "inputs": [],
      "name": "factory",
      "outputs": [
        {
          "internalType": "address",
          "name": "",
          "type": "address"
        }
      ],
      "stateMutability": "view",
      "type": "function"
    },
    {
      "inputs": [
        {
          "internalType": "uint256",
          "name": "tokenId",
          "type": "uint256"
        }
      ],
      "name": "getApproved",
      "outputs": [
        {
          "internalType": "address",
          "name": "",
          "type": "address"
        }
      ],
      "stateMutability": "view",
      "type": "function"
    },
    {
      "inputs": [
        {
          "components": [
            {
              "internalType": "uint16",
              "name": "protocolId",
              "type": "uint16"
            },
            {
              "internalType": "address",
              "name": "cfmm",
              "type": "address"
            },
            {
              "internalType": "address",
              "name": "to",
              "type": "address"
            },
            {
              "internalType": "uint256",
              "name": "tokenId",
              "type": "uint256"
            },
            {
              "internalType": "uint256",
              "name": "deadline",
              "type": "uint256"
            },
            {
              "internalType": "uint256[]",
              "name": "amounts",
              "type": "uint256[]"
            }
          ],
          "internalType": "struct IPositionManager.AddRemoveCollateralParams",
          "name": "params",
          "type": "tuple"
        }
      ],
      "name": "increaseCollateral",
      "outputs": [
        {
          "internalType": "uint128[]",
          "name": "tokensHeld",
          "type": "uint128[]"
        }
      ],
      "stateMutability": "nonpayable",
      "type": "function"
    },
    {
      "inputs": [
        {
          "internalType": "address",
          "name": "owner",
          "type": "address"
        },
        {
          "internalType": "address",
          "name": "operator",
          "type": "address"
        }
      ],
      "name": "isApprovedForAll",
      "outputs": [
        {
          "internalType": "bool",
          "name": "",
          "type": "bool"
        }
      ],
      "stateMutability": "view",
      "type": "function"
    },
    {
      "inputs": [
        {
          "internalType": "address",
          "name": "gammaPool",
          "type": "address"
        }
      ],
      "name": "logPrice",
      "outputs": [],
      "stateMutability": "nonpayable",
      "type": "function"
    },
    {
      "inputs": [],
      "name": "name",
      "outputs": [
        {
          "internalType": "string",
          "name": "",
          "type": "string"
        }
      ],
      "stateMutability": "view",
      "type": "function"
    },
    {
      "inputs": [
        {
          "internalType": "uint256",
          "name": "tokenId",
          "type": "uint256"
        }
      ],
      "name": "ownerOf",
      "outputs": [
        {
          "internalType": "address",
          "name": "",
          "type": "address"
        }
      ],
      "stateMutability": "view",
      "type": "function"
    },
    {
      "inputs": [],
      "name": "priceStore",
      "outputs": [
        {
          "internalType": "address",
          "name": "",
          "type": "address"
        }
      ],
      "stateMutability": "view",
      "type": "function"
    },
    {
      "inputs": [
        {
          "components": [
            {
              "internalType": "uint16",
              "name": "protocolId",
              "type": "uint16"
            },
            {
              "internalType": "address",
              "name": "cfmm",
              "type": "address"
            },
            {
              "internalType": "uint256",
              "name": "tokenId",
              "type": "uint256"
            },
            {
              "internalType": "uint256",
              "name": "deadline",
              "type": "uint256"
            },
            {
              "internalType": "int256[]",
              "name": "deltas",
              "type": "int256[]"
            },
            {
              "internalType": "uint128[]",
              "name": "minCollateral",
              "type": "uint128[]"
            }
          ],
          "internalType": "struct IPositionManager.RebalanceCollateralParams",
          "name": "params",
          "type": "tuple"
        }
      ],
      "name": "rebalanceCollateral",
      "outputs": [
        {
          "internalType": "uint128[]",
          "name": "tokensHeld",
          "type": "uint128[]"
        }
      ],
      "stateMutability": "nonpayable",
      "type": "function"
    },
    {
      "inputs": [
        {
          "components": [
            {
              "internalType": "uint16",
              "name": "protocolId",
              "type": "uint16"
            },
            {
              "internalType": "address",
              "name": "cfmm",
              "type": "address"
            },
            {
              "internalType": "address",
              "name": "to",
              "type": "address"
            },
            {
              "internalType": "uint256",
              "name": "tokenId",
              "type": "uint256"
            },
            {
              "internalType": "uint256",
              "name": "liquidity",
              "type": "uint256"
            },
            {
              "internalType": "uint256",
              "name": "deadline",
              "type": "uint256"
            },
            {
              "internalType": "uint256[]",
              "name": "amounts",
              "type": "uint256[]"
            },
            {
              "internalType": "uint256[]",
              "name": "withdraw",
              "type": "uint256[]"
            },
            {
              "internalType": "uint256[]",
              "name": "minRepaid",
              "type": "uint256[]"
            },
            {
              "internalType": "int256[]",
              "name": "deltas",
              "type": "int256[]"
            },
            {
              "internalType": "uint128[]",
              "name": "minCollateral",
              "type": "uint128[]"
            },
            {
              "internalType": "uint256[]",
              "name": "fees",
              "type": "uint256[]"
            }
          ],
          "internalType": "struct IPositionManager.RebalanceRepayAndWithdrawParams",
          "name": "params",
          "type": "tuple"
        }
      ],
      "name": "rebalanceRepayAndWithdraw",
      "outputs": [
        {
          "internalType": "uint128[]",
          "name": "tokensHeld",
          "type": "uint128[]"
        },
        {
          "internalType": "uint256",
          "name": "liquidityPaid",
          "type": "uint256"
        },
        {
          "internalType": "uint256[]",
          "name": "amounts",
          "type": "uint256[]"
        }
      ],
      "stateMutability": "nonpayable",
      "type": "function"
    },
    {
      "inputs": [],
      "name": "refundETH",
      "outputs": [],
      "stateMutability": "payable",
      "type": "function"
    },
    {
      "inputs": [
        {
          "components": [
            {
              "internalType": "uint16",
              "name": "protocolId",
              "type": "uint16"
            },
            {
              "internalType": "address",
              "name": "cfmm",
              "type": "address"
            },
            {
              "internalType": "uint256",
              "name": "tokenId",
              "type": "uint256"
            },
            {
              "internalType": "uint256",
              "name": "liquidity",
              "type": "uint256"
            },
            {
              "internalType": "uint256",
              "name": "deadline",
              "type": "uint256"
            },
            {
              "internalType": "uint256[]",
              "name": "minRepaid",
              "type": "uint256[]"
            },
            {
              "internalType": "uint256[]",
              "name": "fees",
              "type": "uint256[]"
            }
          ],
          "internalType": "struct IPositionManager.RepayLiquidityParams",
          "name": "params",
          "type": "tuple"
        }
      ],
      "name": "repayLiquidity",
      "outputs": [
        {
          "internalType": "uint256",
          "name": "liquidityPaid",
          "type": "uint256"
        },
        {
          "internalType": "uint256[]",
          "name": "amounts",
          "type": "uint256[]"
        }
      ],
      "stateMutability": "nonpayable",
      "type": "function"
    },
    {
      "inputs": [
        {
          "internalType": "address",
          "name": "from",
          "type": "address"
        },
        {
          "internalType": "address",
          "name": "to",
          "type": "address"
        },
        {
          "internalType": "uint256",
          "name": "tokenId",
          "type": "uint256"
        }
      ],
      "name": "safeTransferFrom",
      "outputs": [],
      "stateMutability": "nonpayable",
      "type": "function"
    },
    {
      "inputs": [
        {
          "internalType": "address",
          "name": "from",
          "type": "address"
        },
        {
          "internalType": "address",
          "name": "to",
          "type": "address"
        },
        {
          "internalType": "uint256",
          "name": "tokenId",
          "type": "uint256"
        },
        {
          "internalType": "bytes",
          "name": "data",
          "type": "bytes"
        }
      ],
      "name": "safeTransferFrom",
      "outputs": [],
      "stateMutability": "nonpayable",
      "type": "function"
    },
    {
      "inputs": [
        {
          "internalType": "address[]",
          "name": "tokens",
          "type": "address[]"
        },
        {
          "internalType": "uint256[]",
          "name": "amounts",
          "type": "uint256[]"
        },
        {
          "internalType": "address",
          "name": "payee",
          "type": "address"
        },
        {
          "internalType": "bytes",
          "name": "data",
          "type": "bytes"
        }
      ],
      "name": "sendTokensCallback",
      "outputs": [],
      "stateMutability": "nonpayable",
      "type": "function"
    },
    {
      "inputs": [
        {
          "internalType": "address",
          "name": "operator",
          "type": "address"
        },
        {
          "internalType": "bool",
          "name": "approved",
          "type": "bool"
        }
      ],
      "name": "setApprovalForAll",
      "outputs": [],
      "stateMutability": "nonpayable",
      "type": "function"
    },
    {
      "inputs": [
        {
          "internalType": "address",
          "name": "_dataStore",
          "type": "address"
        }
      ],
      "name": "setDataStore",
      "outputs": [],
      "stateMutability": "nonpayable",
      "type": "function"
    },
    {
      "inputs": [
        {
          "internalType": "address",
          "name": "_priceStore",
          "type": "address"
        }
      ],
      "name": "setPriceStore",
      "outputs": [],
      "stateMutability": "nonpayable",
      "type": "function"
    },
    {
      "inputs": [
        {
          "internalType": "bytes4",
          "name": "interfaceId",
          "type": "bytes4"
        }
      ],
      "name": "supportsInterface",
      "outputs": [
        {
          "internalType": "bool",
          "name": "",
          "type": "bool"
        }
      ],
      "stateMutability": "view",
      "type": "function"
    },
    {
      "inputs": [],
      "name": "symbol",
      "outputs": [
        {
          "internalType": "string",
          "name": "",
          "type": "string"
        }
      ],
      "stateMutability": "view",
      "type": "function"
    },
    {
      "inputs": [
        {
          "internalType": "uint256",
          "name": "tokenId",
          "type": "uint256"
        }
      ],
      "name": "tokenURI",
      "outputs": [
        {
          "internalType": "string",
          "name": "",
          "type": "string"
        }
      ],
      "stateMutability": "view",
      "type": "function"
    },
    {
      "inputs": [
        {
          "internalType": "address",
          "name": "from",
          "type": "address"
        },
        {
          "internalType": "address",
          "name": "to",
          "type": "address"
        },
        {
          "internalType": "uint256",
          "name": "tokenId",
          "type": "uint256"
        }
      ],
      "name": "transferFrom",
      "outputs": [],
      "stateMutability": "nonpayable",
      "type": "function"
    },
    {
      "inputs": [
        {
          "internalType": "uint256",
          "name": "minAmt",
          "type": "uint256"
        },
        {
          "internalType": "address",
          "name": "to",
          "type": "address"
        }
      ],
      "name": "unwrapWETH",
      "outputs": [],
      "stateMutability": "payable",
      "type": "function"
    },
    {
      "inputs": [
        {
          "components": [
            {
              "internalType": "uint16",
              "name": "protocolId",
              "type": "uint16"
            },
            {
              "internalType": "address",
              "name": "cfmm",
              "type": "address"
            },
            {
              "internalType": "address",
              "name": "to",
              "type": "address"
            },
            {
              "internalType": "uint256",
              "name": "lpTokens",
              "type": "uint256"
            },
            {
              "internalType": "uint256",
              "name": "deadline",
              "type": "uint256"
            }
          ],
          "internalType": "struct IPositionManager.DepositWithdrawParams",
          "name": "params",
          "type": "tuple"
        }
      ],
      "name": "withdrawNoPull",
      "outputs": [
        {
          "internalType": "uint256",
          "name": "assets",
          "type": "uint256"
        }
      ],
      "stateMutability": "nonpayable",
      "type": "function"
    },
    {
      "inputs": [
        {
          "components": [
            {
              "internalType": "uint16",
              "name": "protocolId",
              "type": "uint16"
            },
            {
              "internalType": "address",
              "name": "cfmm",
              "type": "address"
            },
            {
              "internalType": "address",
              "name": "to",
              "type": "address"
            },
            {
              "internalType": "uint256",
              "name": "amount",
              "type": "uint256"
            },
            {
              "internalType": "uint256",
              "name": "deadline",
              "type": "uint256"
            },
            {
              "internalType": "uint256[]",
              "name": "amountsMin",
              "type": "uint256[]"
            }
          ],
          "internalType": "struct IPositionManager.WithdrawReservesParams",
          "name": "params",
          "type": "tuple"
        }
      ],
      "name": "withdrawReserves",
      "outputs": [
        {
          "internalType": "uint256[]",
          "name": "reserves",
          "type": "uint256[]"
        },
        {
          "internalType": "uint256",
          "name": "assets",
          "type": "uint256"
        }
      ],
      "stateMutability": "nonpayable",
      "type": "function"
    },
    {
      "stateMutability": "payable",
      "type": "receive"
    }
  ],
  "bytecode": {
    "object": "0x60c06040523480156200001157600080fd5b50604051620041f3380380620041f3833981016040819052620000349162000080565b6001600160a01b03918216608052600480546001600160a01b0319169183169190911790551660a052620000ca565b80516001600160a01b03811681146200007b57600080fd5b919050565b6000806000606084860312156200009657600080fd5b620000a18462000063565b9250620000b16020850162000063565b9150620000c16040850162000063565b90509250925092565b60805160a0516140cb62000128600039600081816106f8015281816112b80152611d7c015260008181610239015281816106560152818161168001528181611732015281816121d101528181612217015261228e01526140cb6000f3fe6080604052600436106102295760003560e01c806378fc305311610123578063c45a0155116100ab578063e16d9ce51161006f578063e16d9ce51461079a578063e7c0d71f146107ad578063e985e9c5146107cd578063edb7c2fe146107ed578063ffdaabef1461080d57600080fd5b8063c45a0155146106e6578063c87b56dd1461071a578063ccbe764a1461073a578063d1b0eff51461075a578063da07e86d1461077a57600080fd5b8063a483ad3c116100f2578063a483ad3c14610607578063ad5c464814610644578063b768fc8514610678578063b88d4fde14610698578063bc8df09e146106b857600080fd5b806378fc30531461056b57806381020dd61461059957806395d89b41146105b9578063a22cb465146105e757600080fd5b806333cc39a3116101b1578063660d0d6711610175578063660d0d67146104bb57806370a08231146104db57806373873e33146104fb57806376c84a331461052b578063787dcf081461054b57600080fd5b806333cc39a3146103fe57806342842e0e1461041e578063500065d21461043e5780636352211e1461047b5780636464a1eb1461049b57600080fd5b806309b4dcf4116101f857806309b4dcf41461034c5780630bab929d1461037b5780630fbf5097146103a957806312210e8a146103d657806323b872dd146103de57600080fd5b806301ffc9a71461027e57806306fdde03146102b3578063081812fc146102f4578063095ea7b31461032c57600080fd5b3661027957336001600160a01b037f0000000000000000000000000000000000000000000000000000000000000000161461027757604051635724f38560e01b815260040160405180910390fd5b005b600080fd5b34801561028a57600080fd5b5061029e610299366004613002565b61082d565b60405190151581526020015b60405180910390f35b3480156102bf57600080fd5b5060408051808201909152600f81526e2837b9b4ba34b7b726b0b730b3b2b960891b60208201525b6040516102aa919061306f565b34801561030057600080fd5b5061031461030f366004613082565b61087f565b6040516001600160a01b0390911681526020016102aa565b34801561033857600080fd5b506102776103473660046130b0565b6108a6565b34801561035857600080fd5b5061036c6103673660046130dc565b610932565b6040516102aa9392919061318b565b34801561038757600080fd5b5061039b6103963660046131c0565b610b80565b6040519081526020016102aa565b3480156103b557600080fd5b506103c96103c43660046131ea565b610c99565b6040516102aa919061321e565b610277610d43565b3480156103ea57600080fd5b506102776103f9366004613231565b610d55565b34801561040a57600080fd5b5061039b6104193660046131c0565b610d69565b34801561042a57600080fd5b50610277610439366004613231565b610e75565b34801561044a57600080fd5b50610277610459366004613272565b600480546001600160a01b0319166001600160a01b0392909216919091179055565b34801561048757600080fd5b50610314610496366004613082565b610e90565b3480156104a757600080fd5b506102776104b63660046132da565b610ec6565b3480156104c757600080fd5b50600454610314906001600160a01b031681565b3480156104e757600080fd5b5061039b6104f6366004613272565b610f65565b34801561050757600080fd5b5061051b6105163660046133b5565b610faa565b6040516102aa94939291906133f0565b34801561053757600080fd5b5061039b610546366004613443565b6110ad565b34801561055757600080fd5b5061036c610566366004613492565b6110e6565b34801561057757600080fd5b5061058b6105863660046131ea565b6111b3565b6040516102aa9291906134cd565b3480156105a557600080fd5b5061058b6105b43660046134e6565b611228565b3480156105c557600080fd5b50604080518082019091526005815264504d2d563160d81b60208201526102e7565b3480156105f357600080fd5b5061027761060236600461352e565b611287565b34801561061357600080fd5b50610277610622366004613272565b600580546001600160a01b0319166001600160a01b0392909216919091179055565b34801561065057600080fd5b506103147f000000000000000000000000000000000000000000000000000000000000000081565b34801561068457600080fd5b50610277610693366004613272565b611296565b3480156106a457600080fd5b506102776106b33660046135fd565b611337565b3480156106c457600080fd5b506106d86106d33660046131ea565b611352565b6040516102aa9291906136ab565b3480156106f257600080fd5b506103147f000000000000000000000000000000000000000000000000000000000000000081565b34801561072657600080fd5b506102e7610735366004613082565b6114af565b34801561074657600080fd5b50610277610755366004613231565b611523565b34801561076657600080fd5b506103c96107753660046131ea565b6115c2565b34801561078657600080fd5b506103c96107953660046131ea565b61160d565b6102776107a83660046136cd565b611668565b3480156107b957600080fd5b506106d86107c83660046131ea565b6117a0565b3480156107d957600080fd5b5061029e6107e83660046136f2565b61193c565b3480156107f957600080fd5b5061039b6108083660046130dc565b61196a565b34801561081957600080fd5b50600554610314906001600160a01b031681565b60006001600160e01b031982166380ac58cd60e01b148061085e57506001600160e01b03198216635b5e139f60e01b145b8061087957506301ffc9a760e01b6001600160e01b03198316145b92915050565b600061088a82611c52565b506000908152600260205260409020546001600160a01b031690565b60006108b182610e90565b9050806001600160a01b0316836001600160a01b0316036108e5576040516390c88f1160e01b815260040160405180910390fd5b336001600160a01b038216148015906109055750610903813361193c565b155b1561092357604051639f7791bd60e01b815260040160405180910390fd5b61092d8383611c87565b505050565b606060006060836060013561094681611cf5565b8460a0013561095481611d1c565b600061097b6109696040890160208a01613272565b61097660208a018a613720565b611d3d565b905061098a60c088018861373b565b15801591506109be57506109a160c088018861373b565b60008181106109b2576109b2613784565b90506020020135600014155b156109e1576109de8160608901356109d960c08b018b61373b565b611da3565b95505b6109ef61012088018861373b565b1580159150610a245750610a0761012088018861373b565b6000818110610a1857610a18613784565b90506020020135600014155b15610aba57610ab7816060890135610a406101208b018b61373b565b80806020026020016040519081016040528093929190818152602001838360200280828437600092019190915250610a80925050506101408c018c61373b565b80806020026020016040519081016040528093929190818152602001838360200280828437600092019190915250611ed392505050565b95505b608087013515610af957610af381606089013560808a0135610ae06101008c018c61373b565b610aee6101608e018e61373b565b611f92565b90955093505b610b0660e088018861373b565b159050610b6d57610b6a81610b2160608a0160408b01613272565b60608a0135610b3360e08c018c61373b565b808060200260200160405190810160405280939291908181526020018383602002808284376000920191909152506120a592505050565b95505b610b768161215c565b5050509193909250565b60008160800135610b9081611d1c565b6000610bb2610ba56040860160208701613272565b6109766020870187613720565b9050610bc481338387606001356121cf565b6001600160a01b03811663192fdf10610be36060870160408801613272565b6040516001600160e01b031960e084901b1681526001600160a01b0390911660048201526024016020604051808303816000875af1158015610c29573d6000803e3d6000fd5b505050506040513d601f19601f82011682018060405250810190610c4d919061379a565b9250806001600160a01b03167f62f6d78e7bcbb50bd3c10735875875bc356251f9cd9a543e413a0b583f25e66784604051610c8a91815260200190565b60405180910390a25050919050565b60608160400135610ca981611cf5565b8260600135610cb781611d1c565b6000610cd9610ccc6040870160208801613272565b6109766020880188613720565b9050610d30816040870135610cf1608089018961373b565b80806020026020016040519081016040528093929190818152602001838360200280828437600092019190915250610a809250505060a08a018a61373b565b9350610d3b8161215c565b505050919050565b4715610d5357610d5333476122e0565b565b610d5e8161236e565b61092d838383612395565b60008160800135610d7981611d1c565b6000610d8e610ba56040860160208701613272565b9050610daf610da36040860160208701613272565b338387606001356121cf565b6001600160a01b0381166365418ef5610dce6060870160408801613272565b6040516001600160e01b031960e084901b1681526001600160a01b0390911660048201526024016020604051808303816000875af1158015610e14573d6000803e3d6000fd5b505050506040513d601f19601f82011682018060405250810190610e38919061379a565b9250806001600160a01b03167fc1e9289541827020cbcec2b1510bd9aed3740c65f7082bb7b3ee6a443bcc955f84604051610c8a91815260200190565b61092d83838360405180602001604052806000815250611337565b6000818152602081905260408120546001600160a01b03168061087957604051633f0f7f7360e01b815260040160405180910390fd5b6000610ed4828401846137b3565b9050610ee881602001518260400151611d3d565b6001600160a01b0316336001600160a01b031614610f19576040516368e0934d60e01b815260040160405180910390fd5b610f5b88888080602002602001604051908101604052809392919081815260200183836020028082843760009201919091525050845191508790508989612427565b5050505050505050565b60006001600160a01b038216610f8e57604051630bb6521b60e41b815260040160405180910390fd5b506001600160a01b031660009081526001602052604090205490565b60006060600060608460800135610fc081611d1c565b6000610fd56109696040890160208a01613272565b9050610ff081610feb60608a0160408b01613272565b61249a565b955061100481876109d960a08b018b61373b565b94506060870135156110325761102c818760608a013561102760c08c018c61373b565b612560565b90945092505b61103f60e088018861373b565b15905061109b57611098818761105860e08b018b61373b565b80806020026020016040519081016040528093929190818152602001838360200280828437600092019190915250610a80925050506101008c018c61373b565b94505b6110a48161215c565b50509193509193565b6000816110b981611d1c565b60006110c58688611d3d565b90506110d1818661249a565b92506110dc8161215c565b5050949350505050565b60606000606083606001356110fa81611cf5565b8460a0013561110881611d1c565b600061111d6109696040890160208a01613272565b905061112c60c088018861373b565b15905061114c576111498160608901356109d960c08b018b61373b565b95505b6080870135156111785761117281606089013560808a01356110276101008c018c61373b565b90955093505b61118661012088018861373b565b159050610af9576111a4816060890135610a406101208b018b61373b565b9550610b0660e088018861373b565b6000606082604001356111c581611cf5565b83608001356111d381611d1c565b60006111f56111e86040880160208901613272565b6109766020890189613720565b9050611212816040880135606089013561102760a08b018b61373b565b90955093506112208161215c565b505050915091565b60006060826040013561123a81611cf5565b836080013561124881611d1c565b600061125d6111e86040880160208901613272565b9050611212816040880135606089013561127a60a08b018b61373b565b610aee60c08d018d61373b565b611292338383612670565b5050565b6040516324de43d160e21b81526001600160a01b0382811660048301526000917f0000000000000000000000000000000000000000000000000000000000000000909116906393790f4490602401602060405180830381865afa158015611301573d6000803e3d6000fd5b505050506040513d601f19601f82011682018060405250810190611325919061379a565b1115611334576113348161215c565b50565b6113408261236e565b61134c8484848461270f565b50505050565b60606000826080013561136481611d1c565b6000611379610ccc6040870160208801613272565b905061138b81338388606001356121cf565b6001600160a01b038116630cfba8eb6113aa6060880160408901613272565b6040516001600160e01b031960e084901b1681526001600160a01b0390911660048201526024016000604051808303816000875af11580156113f0573d6000803e3d6000fd5b505050506040513d6000823e601f3d908101601f1916820160405261141891908101906138ab565b90945092506114658461142e60a088018861373b565b8080602002602001604051908101604052809392919081815260200183836020028082843760009201919091525061274392505050565b806001600160a01b03167ff7c61b41bfaa7908992135fe8a2c5a64a301e2ae748402a839ea672549bea7f585856040516114a09291906136ab565b60405180910390a25050915091565b60606114ba82611c52565b60006114d160408051602081019091526000815290565b905060008151116114f1576040518060200160405280600081525061151c565b806114fb846127ab565b60405160200161150c9291906138f1565b6040516020818303038152906040525b9392505050565b6040516370a0823160e01b81523060048201526000906001600160a01b038516906370a0823190602401602060405180830381865afa15801561156a573d6000803e3d6000fd5b505050506040513d601f19601f8201168201806040525081019061158e919061379a565b9050818110156115b1576040516308aeed0f60e21b815260040160405180910390fd5b801561134c5761134c8484836128b3565b606081606001356115d281611cf5565b82608001356115e081611d1c565b60006115f5610ccc6040870160208801613272565b9050610d308160608701356109d960a089018961373b565b6060816060013561161d81611cf5565b826080013561162b81611d1c565b6000611640610ccc6040870160208801613272565b9050610d30816116566060880160408901613272565b6060880135610b3360a08a018a61373b565b6040516370a0823160e01b81523060048201526000907f00000000000000000000000000000000000000000000000000000000000000006001600160a01b0316906370a0823190602401602060405180830381865afa1580156116cf573d6000803e3d6000fd5b505050506040513d601f19601f820116820180604052508101906116f3919061379a565b9050828110156117165760405163d666767760e01b815260040160405180910390fd5b801561092d57604051632e1a7d4d60e01b8152600481018290527f00000000000000000000000000000000000000000000000000000000000000006001600160a01b031690632e1a7d4d90602401600060405180830381600087803b15801561177e57600080fd5b505af1158015611792573d6000803e3d6000fd5b5050505061092d82826122e0565b6060600082606001356117b281611d1c565b60006117c7610ccc6040870160208801613272565b90506001600160a01b0381166354fe2a966117e86060880160408901613272565b6117f5608089018961373b565b61180260a08b018b61373b565b6040518060600160405280336001600160a01b031681526020018d602001602081019061182f9190613272565b6001600160a01b0316815260209081019061184c908f018f613720565b61ffff9081169091526040805183516001600160a01b0390811660208084019190915285015116818301529201511660608201526080016040516020818303038152906040526040518763ffffffff1660e01b81526004016118b396959493929190613952565b6000604051808303816000875af11580156118d2573d6000803e3d6000fd5b505050506040513d6000823e601f3d908101601f191682016040526118fa91908101906138ab565b60405191955093506001600160a01b038216907fdc1c43665774cee1c835ebdb3104f0ac89d600cf037f3605901e07339f14b846906114a090879087906136ab565b6001600160a01b03918216600090815260036020908152604080832093909416825291909152205460ff1690565b6000816060013561197a81611cf5565b8260a0013561198881611d1c565b600061199d610ccc6040870160208801613272565b604051633d3289b960e11b8152606087013560048201529091506000906001600160a01b03831690637a65137290602401600060405180830381865afa1580156119eb573d6000803e3d6000fd5b505050506040513d6000823e601f3d908101601f19168201604052611a1391908101906139ab565b9050611a2d82606088013583610a806101408b018b61373b565b50611a56826060880135600019611a486101008b018b61373b565b610aee6101608d018d61373b565b50604051631b2d298360e11b8152606088013560048201529095506000906001600160a01b0384169063365a530690602401600060405180830381865afa158015611aa5573d6000803e3d6000fd5b505050506040513d6000823e601f3d908101601f19168201604052611acd9190810190613c5a565b905060008160e00151516001600160401b03811115611aee57611aee613567565b604051908082528060200260200182016040528015611b17578160200160208202803683370190505b5090506000805b8360e0015151811015611c15578360e001518181518110611b4157611b41613784565b60200260200101516001600160801b0316838281518110611b6457611b64613784565b60209081029190910101526000611b7e60e08c018c61373b565b9050118015611bc85750611b9560e08b018b61373b565b82818110611ba557611ba5613784565b90506020020135838281518110611bbe57611bbe613784565b6020026020010151105b15611be657604051631cfa520960e31b815260040160405180910390fd5b8180611c0b57506000838281518110611c0157611c01613784565b6020026020010151115b9150600101611b1e565b508015611c3d57611c3b85611c3060608c0160408d01613272565b8b60600135856120a5565b505b611c468561215c565b50505050505050919050565b6000818152602081905260409020546001600160a01b031661133457604051633f0f7f7360e01b815260040160405180910390fd5b600081815260026020526040902080546001600160a01b0319166001600160a01b0384169081179091558190611cbc82610e90565b6001600160a01b03167f8c5be1e5ebec7d5bd14f71427d1e84f3dd0314c0f7b2291e5b200ac8c7c3b92560405160405180910390a45050565b611cff3382612998565b61133457604051631dd2188d60e31b815260040160405180910390fd5b4281101561133457604051630407b05b60e31b815260040160405180910390fd5b604080516001600160a01b03841660208083019190915261ffff8416828401528251808303840181526060909201909252805191012060009061151c907f00000000000000000000000000000000000000000000000000000000000000009084906129f6565b6060611e17856001600160a01b0316639d63848a6040518163ffffffff1660e01b8152600401600060405180830381865afa158015611de6573d6000803e3d6000fd5b505050506040513d6000823e601f3d908101601f19168201604052611e0e9190810190613dce565b33878686612427565b604051632e2a0e0d60e21b8152600481018590526001600160a01b0386169063b8a83834906024016000604051808303816000875af1158015611e5e573d6000803e3d6000fd5b505050506040513d6000823e601f3d908101601f19168201604052611e869190810190613e02565b9050846001600160a01b03167f4ed1a6745f4b06feb28e4d565ac04f2fa66a2dfac01557520a71eb02aec8bfa58583604051611ec3929190613e36565b60405180910390a2949350505050565b60405163154de1fb60e11b81526060906001600160a01b03861690632a9bc3f690611f049087908790600401613e4f565b6000604051808303816000875af1158015611f23573d6000803e3d6000fd5b505050506040513d6000823e601f3d908101601f19168201604052611f4b9190810190613e02565b9050611f578183612ac6565b846001600160a01b03167f1db73d1c5bcc47ffff0e4943ac19c9b9b7a78f50403a52bf1050f04474731fea8583604051611ec3929190613e36565b60006060886001600160a01b031663a964e52c898987876040518563ffffffff1660e01b8152600401611fc89493929190613e9d565b6000604051808303816000875af1158015611fe7573d6000803e3d6000fd5b505050506040513d6000823e601f3d908101601f1916820160405261200f9190810190613ebd565b80925081935050506120548187878080602002602001604051908101604052809392919081815260200183836020028082843760009201919091525061274392505050565b886001600160a01b03167f289939c8f6b4d60faa832d7f431192d2b9b10dd03854b07736a71c3fc3acb8e989848460405161209193929190613f03565b60405180910390a297509795505050505050565b60405163ea940b1d60e01b81526060906001600160a01b0386169063ea940b1d906120d890869086908990600401613f2b565b6000604051808303816000875af11580156120f7573d6000803e3d6000fd5b505050506040513d6000823e601f3d908101601f1916820160405261211f9190810190613e02565b9050846001600160a01b03167f41210c19b4ed75ec04b1b375b2d2298749e9bc812962c2d1f3e4efeee51e1eaf8483604051611ec3929190613e36565b6005546001600160a01b03161561133457600554604051631dd0aaf760e31b81526001600160a01b0383811660048301529091169063ee8557b890602401600060405180830381600087803b1580156121b457600080fd5b505af11580156121c8573d6000803e3d6000fd5b5050505050565b7f00000000000000000000000000000000000000000000000000000000000000006001600160a01b0316846001600160a01b03161480156122105750804710155b156122b9577f00000000000000000000000000000000000000000000000000000000000000006001600160a01b031663d0e30db0826040518263ffffffff1660e01b81526004016000604051808303818588803b15801561227057600080fd5b505af1158015612284573d6000803e3d6000fd5b50505050506122b47f000000000000000000000000000000000000000000000000000000000000000083836128b3565b61134c565b306001600160a01b038416036122d4576122b48483836128b3565b61134c84848484612b40565b604080516000808252602082019092526001600160a01b03841690839060405161230a9190613f5c565b60006040518083038185875af1925050503d8060008114612347576040519150601f19603f3d011682016040523d82523d6000602084013e61234c565b606091505b505090508061092d576040516325e5592160e21b815260040160405180910390fd5b6123783382612998565b61133457604051639f7791bd60e01b815260040160405180910390fd5b6123a0838383612c35565b6004546001600160a01b03161561092d57600480546040516302ca8acf60e01b81526001600160a01b03868116938201939093528483166024820152604481018490529116906302ca8acf906064015b600060405180830381600087803b15801561240a57600080fd5b505af115801561241e573d6000803e3d6000fd5b50505050505050565b845160005b8181101561241e57600084848381811061244857612448613784565b9050602002013511156124925761249287828151811061246a5761246a613784565b6020026020010151878787878681811061248657612486613784565b905060200201356121cf565b60010161242c565b6000826001600160a01b03166365ec1a456040518163ffffffff1660e01b81526004016020604051808303816000875af11580156124dc573d6000803e3d6000fd5b505050506040513d601f19601f82011682018060405250810190612500919061379a565b905061250d838284612d5d565b816001600160a01b0316836001600160a01b03167fe8d049444e65d46f91184699c75d8f51789512409398c16ab780a1c3ede287a48360405161255291815260200190565b60405180910390a392915050565b6040516328cad17f60e01b815260048101859052602481018490526000906060906001600160a01b038816906328cad17f906044016000604051808303816000875af11580156125b4573d6000803e3d6000fd5b505050506040513d6000823e601f3d908101601f191682016040526125dc9190810190613ebd565b80925081935050506126218185858080602002602001604051908101604052809392919081815260200183836020028082843760009201919091525061274392505050565b866001600160a01b03167f24558e536fb35a72582e096bdf105c2d1815119dde95f2141b3202255d524c8a87848460405161265e93929190613f03565b60405180910390a29550959350505050565b816001600160a01b0316836001600160a01b0316036126a257604051630b7b99b960e21b815260040160405180910390fd5b6001600160a01b03838116600081815260036020908152604080832094871680845294825291829020805460ff191686151590811790915591519182527f17307eab39ab6107e8899845ad3d59bd9653f200f220920489ca2b5937696c31910160405180910390a3505050565b61271a848484612395565b61272684848484612dbb565b61134c57604051633a3614b760e01b815260040160405180910390fd5b815160005b8181101561134c5782818151811061276257612762613784565b602002602001015184828151811061277c5761277c613784565b602002602001015110156127a357604051631cfa520960e31b815260040160405180910390fd5b600101612748565b6060816000036127d25750506040805180820190915260018152600360fc1b602082015290565b8160005b81156127fc57806127e681613f8e565b91506127f59050600a83613fbd565b91506127d6565b6000816001600160401b0381111561281657612816613567565b6040519080825280601f01601f191660200182016040528015612840576020820181803683370190505b5090505b84156128ab57612855600183613fd1565b9150612862600a86613fe4565b61286d906030613ff8565b60f81b81838151811061288257612882613784565b60200101906001600160f81b031916908160001a9053506128a4600a86613fbd565b9450612844565b949350505050565b604080516001600160a01b038481166024830152604480830185905283518084039091018152606490920183526020820180516001600160e01b031663a9059cbb60e01b179052915160009283929087169161290f9190613f5c565b6000604051808303816000865af19150503d806000811461294c576040519150601f19603f3d011682016040523d82523d6000602084013e612951565b606091505b509150915081801561297b57508051158061297b57508080602001905181019061297b919061400b565b6121c85760405163847ea61d60e01b815260040160405180910390fd5b6000806129a483610e90565b9050806001600160a01b0316846001600160a01b031614806129cb57506129cb818561193c565b806128ab5750836001600160a01b03166129e48461087f565b6001600160a01b031614949350505050565b6040516334b1f0a960e21b815261ffff831660048201526000906128ab906001600160a01b0386169063d2c7c2a490602401602060405180830381865afa158015612a45573d6000803e3d6000fd5b505050506040513d601f19601f82011682018060405250810190612a699190614028565b604051603881018790526f5af43d82803e903d91602b57fd5bf3ff60248201526014810191909152733d602d80600a3d3981f3363d3d373d3d3d363d738152605881018490526037600c8201206078820152605560439091012090565b815160005b8181101561134c57828181518110612ae557612ae5613784565b60200260200101516001600160801b0316848281518110612b0857612b08613784565b60200260200101516001600160801b03161015612b3857604051631cfa520960e31b815260040160405180910390fd5b600101612acb565b604080516001600160a01b0385811660248301528481166044830152606480830185905283518084039091018152608490920183526020820180516001600160e01b03166323b872dd60e01b1790529151600092839290881691612ba49190613f5c565b6000604051808303816000865af19150503d8060008114612be1576040519150601f19603f3d011682016040523d82523d6000602084013e612be6565b606091505b5091509150818015612c10575080511580612c10575080806020019051810190612c10919061400b565b612c2d5760405163e5c4a34160e01b815260040160405180910390fd5b505050505050565b826001600160a01b0316612c4882610e90565b6001600160a01b031614612c6f576040516306d8c27960e31b815260040160405180910390fd5b6001600160a01b038216612c9657604051635a63192d60e01b815260040160405180910390fd5b612ca1600082611c87565b6001600160a01b03831660009081526001602081905260408220805491929091612ccc908490613fd1565b90915550506001600160a01b03821660009081526001602081905260408220805491929091612cfc908490613ff8565b909155505060008181526020819052604080822080546001600160a01b0319166001600160a01b0386811691821790925591518493918716917fddf252ad1be2c89b69c2b068fc378daa952ba7f163c4a11628f55a4df523b3ef91a4505050565b612d678183612ebd565b6004546001600160a01b03161561092d576004805460405163c67e240360e01b81526001600160a01b038681169382019390935260248101859052838316604482015291169063c67e2403906064016123f0565b60006001600160a01b0384163b15612eb257604051630a85bd0160e11b81526001600160a01b0385169063150b7a0290612dff903390899088908890600401614045565b6020604051808303816000875af1925050508015612e3a575060408051601f3d908101601f19168201909252612e3791810190614078565b60015b612e98573d808015612e68576040519150601f19603f3d011682016040523d82523d6000602084013e612e6d565b606091505b508051600003612e9057604051633a3614b760e01b815260040160405180910390fd5b805181602001fd5b6001600160e01b031916630a85bd0160e11b1490506128ab565b506001949350505050565b611292828260405180602001604052806000815250612edc8383612f06565b612ee96000848484612dbb565b61092d57604051633a3614b760e01b815260040160405180910390fd5b6001600160a01b038216612f2d5760405163271a2a5560e01b815260040160405180910390fd5b6000818152602081905260409020546001600160a01b031615612f6357604051634ef46b0360e11b815260040160405180910390fd5b6001600160a01b03821660009081526001602081905260408220805491929091612f8e908490613ff8565b909155505060008181526020819052604080822080546001600160a01b0319166001600160a01b03861690811790915590518392907fddf252ad1be2c89b69c2b068fc378daa952ba7f163c4a11628f55a4df523b3ef908290a45050565b6001600160e01b03198116811461133457600080fd5b60006020828403121561301457600080fd5b813561151c81612fec565b60005b8381101561303a578181015183820152602001613022565b50506000910152565b6000815180845261305b81602086016020860161301f565b601f01601f19169290920160200192915050565b60208152600061151c6020830184613043565b60006020828403121561309457600080fd5b5035919050565b6001600160a01b038116811461133457600080fd5b600080604083850312156130c357600080fd5b82356130ce8161309b565b946020939093013593505050565b6000602082840312156130ee57600080fd5b81356001600160401b0381111561310457600080fd5b8201610180818503121561151c57600080fd5b600081518084526020808501945080840160005b838110156131505781516001600160801b03168752958201959082019060010161312b565b509495945050505050565b600081518084526020808501945080840160005b838110156131505781518752958201959082019060010161316f565b60608152600061319e6060830186613117565b84602084015282810360408401526131b6818561315b565b9695505050505050565b600060a082840312156131d257600080fd5b50919050565b600060c082840312156131d257600080fd5b6000602082840312156131fc57600080fd5b81356001600160401b0381111561321257600080fd5b6128ab848285016131d8565b60208152600061151c6020830184613117565b60008060006060848603121561324657600080fd5b83356132518161309b565b925060208401356132618161309b565b929592945050506040919091013590565b60006020828403121561328457600080fd5b813561151c8161309b565b60008083601f8401126132a157600080fd5b5081356001600160401b038111156132b857600080fd5b6020830191508360208260051b85010111156132d357600080fd5b9250929050565b60008060008060008060006080888a0312156132f557600080fd5b87356001600160401b038082111561330c57600080fd5b6133188b838c0161328f565b909950975060208a013591508082111561333157600080fd5b61333d8b838c0161328f565b909750955060408a013591506133528261309b565b9093506060890135908082111561336857600080fd5b818a0191508a601f83011261337c57600080fd5b81358181111561338b57600080fd5b8b602082850101111561339d57600080fd5b60208301945080935050505092959891949750929550565b6000602082840312156133c757600080fd5b81356001600160401b038111156133dd57600080fd5b8201610120818503121561151c57600080fd5b8481526080602082015260006134096080830186613117565b8460408401528281036060840152613421818561315b565b979650505050505050565b803561ffff8116811461343e57600080fd5b919050565b6000806000806080858703121561345957600080fd5b6134628561342c565b935060208501356134728161309b565b925060408501356134828161309b565b9396929550929360600135925050565b6000602082840312156134a457600080fd5b81356001600160401b038111156134ba57600080fd5b8201610160818503121561151c57600080fd5b8281526040602082015260006128ab604083018461315b565b6000602082840312156134f857600080fd5b81356001600160401b0381111561350e57600080fd5b820160e0818503121561151c57600080fd5b801515811461133457600080fd5b6000806040838503121561354157600080fd5b823561354c8161309b565b9150602083013561355c81613520565b809150509250929050565b634e487b7160e01b600052604160045260246000fd5b6040516101a081016001600160401b03811182821017156135a0576135a0613567565b60405290565b604051601f8201601f191681016001600160401b03811182821017156135ce576135ce613567565b604052919050565b60006001600160401b038211156135ef576135ef613567565b50601f01601f191660200190565b6000806000806080858703121561361357600080fd5b843561361e8161309b565b9350602085013561362e8161309b565b92506040850135915060608501356001600160401b0381111561365057600080fd5b8501601f8101871361366157600080fd5b803561367461366f826135d6565b6135a6565b81815288602083850101111561368957600080fd5b8160208401602083013760006020838301015280935050505092959194509250565b6040815260006136be604083018561315b565b90508260208301529392505050565b600080604083850312156136e057600080fd5b82359150602083013561355c8161309b565b6000806040838503121561370557600080fd5b82356137108161309b565b9150602083013561355c8161309b565b60006020828403121561373257600080fd5b61151c8261342c565b6000808335601e1984360301811261375257600080fd5b8301803591506001600160401b0382111561376c57600080fd5b6020019150600581901b36038213156132d357600080fd5b634e487b7160e01b600052603260045260246000fd5b6000602082840312156137ac57600080fd5b5051919050565b6000606082840312156137c557600080fd5b604051606081018181106001600160401b03821117156137e7576137e7613567565b60405282356137f58161309b565b815260208301356138058161309b565b60208201526138166040840161342c565b60408201529392505050565b60006001600160401b0382111561383b5761383b613567565b5060051b60200190565b600082601f83011261385657600080fd5b8151602061386661366f83613822565b82815260059290921b8401810191818101908684111561388557600080fd5b8286015b848110156138a05780518352918301918301613889565b509695505050505050565b600080604083850312156138be57600080fd5b82516001600160401b038111156138d457600080fd5b6138e085828601613845565b925050602083015190509250929050565b6000835161390381846020880161301f565b83519083019061391781836020880161301f565b01949350505050565b81835260006001600160fb1b0383111561393957600080fd5b8260051b80836020870137939093016020019392505050565b6001600160a01b03871681526080602082018190526000906139779083018789613920565b828103604084015261398a818688613920565b9050828103606084015261399e8185613043565b9998505050505050505050565b600060208083850312156139be57600080fd5b82516001600160401b038111156139d457600080fd5b8301601f810185136139e557600080fd5b80516139f361366f82613822565b81815260059190911b82018301908381019087831115613a1257600080fd5b928401925b8284101561342157835182529284019290840190613a17565b805161343e8161309b565b80516bffffffffffffffffffffffff8116811461343e57600080fd5b80516001600160801b038116811461343e57600080fd5b600082601f830112613a7f57600080fd5b81516020613a8f61366f83613822565b82815260059290921b84018101918181019086841115613aae57600080fd5b8286015b848110156138a057613ac381613a57565b8352918301918301613ab2565b600082601f830112613ae157600080fd5b81516020613af161366f83613822565b82815260059290921b84018101918181019086841115613b1057600080fd5b8286015b848110156138a0578051613b278161309b565b8352918301918301613b14565b600082601f830112613b4557600080fd5b81516020613b5561366f83613822565b82815260059290921b84018101918181019086841115613b7457600080fd5b8286015b848110156138a057805160ff81168114613b925760008081fd5b8352918301918301613b78565b600082601f830112613bb057600080fd5b81516020613bc061366f83613822565b82815260059290921b84018101918181019086841115613bdf57600080fd5b8286015b848110156138a05780516001600160401b03811115613c025760008081fd5b8701603f81018913613c145760008081fd5b848101516040613c2661366f836135d6565b8281528b82848601011115613c3b5760008081fd5b613c4a8389830184870161301f565b8652505050918301918301613be3565b600060208284031215613c6c57600080fd5b81516001600160401b0380821115613c8357600080fd5b908301906101a08286031215613c9857600080fd5b613ca061357d565b8251815260208301516020820152613cba60408401613a30565b6040820152613ccb60608401613a3b565b6060820152613cdc60808401613a57565b6080820152613ced60a08401613a57565b60a082015260c083015160c082015260e083015182811115613d0e57600080fd5b613d1a87828601613a6e565b60e08301525061010083810151908201526101208084015183811115613d3f57600080fd5b613d4b88828701613ad0565b8284015250506101408084015183811115613d6557600080fd5b613d7188828701613b34565b8284015250506101608084015183811115613d8b57600080fd5b613d9788828701613b9f565b8284015250506101808084015183811115613db157600080fd5b613dbd88828701613b9f565b918301919091525095945050505050565b600060208284031215613de057600080fd5b81516001600160401b03811115613df657600080fd5b6128ab84828501613ad0565b600060208284031215613e1457600080fd5b81516001600160401b03811115613e2a57600080fd5b6128ab84828501613a6e565b8281526040602082015260006128ab6040830184613117565b6000604082018483526020604081850152818551808452606086019150828701935060005b81811015613e9057845183529383019391830191600101613e74565b5090979650505050505050565b8481528360208201526060604082015260006131b6606083018486613920565b60008060408385031215613ed057600080fd5b8251915060208301516001600160401b03811115613eed57600080fd5b613ef985828601613845565b9150509250929050565b838152826020820152606060408201526000613f22606083018461315b565b95945050505050565b838152606060208201526000613f44606083018561315b565b905060018060a01b0383166040830152949350505050565b60008251613f6e81846020870161301f565b9190910192915050565b634e487b7160e01b600052601160045260246000fd5b600060018201613fa057613fa0613f78565b5060010190565b634e487b7160e01b600052601260045260246000fd5b600082613fcc57613fcc613fa7565b500490565b8181038181111561087957610879613f78565b600082613ff357613ff3613fa7565b500690565b8082018082111561087957610879613f78565b60006020828403121561401d57600080fd5b815161151c81613520565b60006020828403121561403a57600080fd5b815161151c8161309b565b6001600160a01b03858116825284166020820152604081018390526080606082018190526000906131b690830184613043565b60006020828403121561408a57600080fd5b815161151c81612fec56fea26469706673582212209af1eb47e9d7fcba5e1bcd1bb4f175f2b05358c40d6e71a79eb89184f1ab1b4164736f6c63430008110033",
    "linkReferences": {}
  },
  "methodIdentifiers": {
    "WETH()": "ad5c4648",
    "approve(address,uint256)": "095ea7b3",
    "balanceOf(address)": "70a08231",
    "borrowAndRebalance((uint16,address,address,uint256,uint256,uint256,uint256[],uint256[],uint256[],int256[],uint128[]))": "787dcf08",
    "borrowLiquidity((uint16,address,uint256,uint256,uint256,uint256[]))": "78fc3053",
    "clearToken(address,address,uint256)": "ccbe764a",
    "closeLoan((uint16,address,address,uint256,uint256,uint256,uint256[],uint256[],uint256[],int256[],uint128[],uint256[]))": "edb7c2fe",
    "createLoan(uint16,address,address,uint256)": "76c84a33",
    "createLoanBorrowAndRebalance((uint16,address,address,uint256,uint256,uint256[],uint256[],int256[],uint128[]))": "73873e33",
    "dataStore()": "660d0d67",
    "decreaseCollateral((uint16,address,address,uint256,uint256,uint256[]))": "da07e86d",
    "depositNoPull((uint16,address,address,uint256,uint256))": "33cc39a3",
    "depositReserves((uint16,address,address,uint256,uint256[],uint256[]))": "e7c0d71f",
    "factory()": "c45a0155",
    "getApproved(uint256)": "081812fc",
    "increaseCollateral((uint16,address,address,uint256,uint256,uint256[]))": "d1b0eff5",
    "isApprovedForAll(address,address)": "e985e9c5",
    "logPrice(address)": "b768fc85",
    "name()": "06fdde03",
    "ownerOf(uint256)": "6352211e",
    "priceStore()": "ffdaabef",
    "rebalanceCollateral((uint16,address,uint256,uint256,int256[],uint128[]))": "0fbf5097",
    "rebalanceRepayAndWithdraw((uint16,address,address,uint256,uint256,uint256,uint256[],uint256[],uint256[],int256[],uint128[],uint256[]))": "09b4dcf4",
    "refundETH()": "12210e8a",
    "repayLiquidity((uint16,address,uint256,uint256,uint256,uint256[],uint256[]))": "81020dd6",
    "safeTransferFrom(address,address,uint256)": "42842e0e",
    "safeTransferFrom(address,address,uint256,bytes)": "b88d4fde",
    "sendTokensCallback(address[],uint256[],address,bytes)": "6464a1eb",
    "setApprovalForAll(address,bool)": "a22cb465",
    "setDataStore(address)": "500065d2",
    "setPriceStore(address)": "a483ad3c",
    "supportsInterface(bytes4)": "01ffc9a7",
    "symbol()": "95d89b41",
    "tokenURI(uint256)": "c87b56dd",
    "transferFrom(address,address,uint256)": "23b872dd",
    "unwrapWETH(uint256,address)": "e16d9ce5",
    "withdrawNoPull((uint16,address,address,uint256,uint256))": "0bab929d",
    "withdrawReserves((uint16,address,address,uint256,uint256,uint256[]))": "bc8df09e"
  },
  "id": 0
}