{
  "abi": [
    {
      "inputs": [
        {
          "internalType": "uint16",
          "name": "_protocolId",
          "type": "uint16"
        },
        {
          "internalType": "address",
          "name": "_factory",
          "type": "address"
        },
        {
          "internalType": "address",
          "name": "_longStrategy",
          "type": "address"
        },
        {
          "internalType": "address",
          "name": "_shortStrategy",
          "type": "address"
        },
        {
          "internalType": "address",
          "name": "_liquidationStrategy",
          "type": "address"
        }
      ],
      "stateMutability": "nonpayable",
      "type": "constructor"
    },
    {
      "anonymous": false,
      "inputs": [
        {
          "indexed": true,
          "internalType": "address",
          "name": "owner",
          "type": "address"
        },
        {
          "indexed": true,
          "internalType": "address",
          "name": "spender",
          "type": "address"
        },
        {
          "indexed": false,
          "internalType": "uint256",
          "name": "amount",
          "type": "uint256"
        }
      ],
      "name": "Approval",
      "type": "event"
    },
    {
      "anonymous": false,
      "inputs": [
        {
          "indexed": true,
          "internalType": "address",
          "name": "caller",
          "type": "address"
        },
        {
          "indexed": true,
          "internalType": "address",
          "name": "to",
          "type": "address"
        },
        {
          "indexed": false,
          "internalType": "uint256",
          "name": "assets",
          "type": "uint256"
        },
        {
          "indexed": false,
          "internalType": "uint256",
          "name": "shares",
          "type": "uint256"
        }
      ],
      "name": "Deposit",
      "type": "event"
    },
    {
      "anonymous": false,
      "inputs": [
        {
          "indexed": true,
          "internalType": "uint256",
          "name": "tokenId",
          "type": "uint256"
        },
        {
          "indexed": false,
          "internalType": "uint128[]",
          "name": "amounts",
          "type": "uint128[]"
        },
        {
          "indexed": false,
          "internalType": "uint256",
          "name": "lpTokens",
          "type": "uint256"
        },
        {
          "indexed": false,
          "internalType": "uint128",
          "name": "liquidity",
          "type": "uint128"
        },
        {
          "indexed": true,
          "internalType": "enum IStrategyEvents.TX_TYPE",
          "name": "txType",
          "type": "uint8"
        }
      ],
      "name": "ExternalSwap",
      "type": "event"
    },
    {
      "anonymous": false,
      "inputs": [
        {
          "indexed": true,
          "internalType": "uint256",
          "name": "tokenId",
          "type": "uint256"
        },
        {
          "indexed": false,
          "internalType": "uint128",
          "name": "collateral",
          "type": "uint128"
        },
        {
          "indexed": false,
          "internalType": "uint128",
          "name": "liquidity",
          "type": "uint128"
        },
        {
          "indexed": false,
          "internalType": "uint128",
          "name": "writeDownAmt",
          "type": "uint128"
        },
        {
          "indexed": false,
          "internalType": "enum IStrategyEvents.TX_TYPE",
          "name": "txType",
          "type": "uint8"
        },
        {
          "indexed": false,
          "internalType": "uint256[]",
          "name": "tokenIds",
          "type": "uint256[]"
        }
      ],
      "name": "Liquidation",
      "type": "event"
    },
    {
      "anonymous": false,
      "inputs": [
        {
          "indexed": true,
          "internalType": "address",
          "name": "caller",
          "type": "address"
        },
        {
          "indexed": false,
          "internalType": "uint256",
          "name": "tokenId",
          "type": "uint256"
        }
      ],
      "name": "LoanCreated",
      "type": "event"
    },
    {
      "anonymous": false,
      "inputs": [
        {
          "indexed": true,
          "internalType": "uint256",
          "name": "tokenId",
          "type": "uint256"
        },
        {
          "indexed": false,
          "internalType": "uint128[]",
          "name": "tokensHeld",
          "type": "uint128[]"
        },
        {
          "indexed": false,
          "internalType": "uint128",
          "name": "liquidity",
          "type": "uint128"
        },
        {
          "indexed": false,
          "internalType": "uint128",
          "name": "initLiquidity",
          "type": "uint128"
        },
        {
          "indexed": false,
          "internalType": "uint256",
          "name": "lpTokens",
          "type": "uint256"
        },
        {
          "indexed": false,
          "internalType": "uint96",
          "name": "rateIndex",
          "type": "uint96"
        },
        {
          "indexed": true,
          "internalType": "enum IStrategyEvents.TX_TYPE",
          "name": "txType",
          "type": "uint8"
        }
      ],
      "name": "LoanUpdated",
      "type": "event"
    },
    {
      "anonymous": false,
      "inputs": [
        {
          "indexed": false,
          "internalType": "uint256",
          "name": "lpTokenBalance",
          "type": "uint256"
        },
        {
          "indexed": false,
          "internalType": "uint256",
          "name": "lpTokenBorrowed",
          "type": "uint256"
        },
        {
          "indexed": false,
          "internalType": "uint48",
          "name": "lastBlockNumber",
          "type": "uint48"
        },
        {
          "indexed": false,
          "internalType": "uint96",
          "name": "accFeeIndex",
          "type": "uint96"
        },
        {
          "indexed": false,
          "internalType": "uint256",
          "name": "lpTokenBorrowedPlusInterest",
          "type": "uint256"
        },
        {
          "indexed": false,
          "internalType": "uint128",
          "name": "lpInvariant",
          "type": "uint128"
        },
        {
          "indexed": false,
          "internalType": "uint128",
          "name": "borrowedInvariant",
          "type": "uint128"
        },
        {
          "indexed": false,
          "internalType": "uint128[]",
          "name": "cfmmReserves",
          "type": "uint128[]"
        },
        {
          "indexed": true,
          "internalType": "enum IStrategyEvents.TX_TYPE",
          "name": "txType",
          "type": "uint8"
        }
      ],
      "name": "PoolUpdated",
      "type": "event"
    },
    {
      "anonymous": false,
      "inputs": [
        {
          "indexed": true,
          "internalType": "address",
          "name": "from",
          "type": "address"
        },
        {
          "indexed": true,
          "internalType": "address",
          "name": "to",
          "type": "address"
        },
        {
          "indexed": false,
          "internalType": "uint256",
          "name": "amount",
          "type": "uint256"
        }
      ],
      "name": "Transfer",
      "type": "event"
    },
    {
      "anonymous": false,
      "inputs": [
        {
          "indexed": true,
          "internalType": "address",
          "name": "caller",
          "type": "address"
        },
        {
          "indexed": true,
          "internalType": "address",
          "name": "to",
          "type": "address"
        },
        {
          "indexed": true,
          "internalType": "address",
          "name": "from",
          "type": "address"
        },
        {
          "indexed": false,
          "internalType": "uint256",
          "name": "assets",
          "type": "uint256"
        },
        {
          "indexed": false,
          "internalType": "uint256",
          "name": "shares",
          "type": "uint256"
        }
      ],
      "name": "Withdraw",
      "type": "event"
    },
    {
      "inputs": [
        {
          "internalType": "address",
          "name": "owner",
          "type": "address"
        },
        {
          "internalType": "address",
          "name": "spender",
          "type": "address"
        }
      ],
      "name": "allowance",
      "outputs": [
        {
          "internalType": "uint256",
          "name": "",
          "type": "uint256"
        }
      ],
      "stateMutability": "view",
      "type": "function"
    },
    {
      "inputs": [
        {
          "internalType": "address",
          "name": "spender",
          "type": "address"
        },
        {
          "internalType": "uint256",
          "name": "amount",
          "type": "uint256"
        }
      ],
      "name": "approve",
      "outputs": [
        {
          "internalType": "bool",
          "name": "",
          "type": "bool"
        }
      ],
      "stateMutability": "nonpayable",
      "type": "function"
    },
    {
      "inputs": [
        {
          "internalType": "address",
          "name": "account",
          "type": "address"
        }
      ],
      "name": "balanceOf",
      "outputs": [
        {
          "internalType": "uint256",
          "name": "",
          "type": "uint256"
        }
      ],
      "stateMutability": "view",
      "type": "function"
    },
    {
      "inputs": [
        {
          "internalType": "uint256[]",
          "name": "",
          "type": "uint256[]"
        }
      ],
      "name": "batchLiquidations",
      "outputs": [
        {
          "internalType": "uint256",
          "name": "totalLoanLiquidity",
          "type": "uint256"
        },
        {
          "internalType": "uint256",
          "name": "totalCollateral",
          "type": "uint256"
        },
        {
          "internalType": "uint256[]",
          "name": "refund",
          "type": "uint256[]"
        }
      ],
      "stateMutability": "nonpayable",
      "type": "function"
    },
    {
      "inputs": [
        {
          "internalType": "uint256",
          "name": "",
          "type": "uint256"
        },
        {
          "internalType": "uint256",
          "name": "",
          "type": "uint256"
        }
      ],
      "name": "borrowLiquidity",
      "outputs": [
        {
          "internalType": "uint256",
          "name": "liquidityBorrowed",
          "type": "uint256"
        },
        {
          "internalType": "uint256[]",
          "name": "amounts",
          "type": "uint256[]"
        }
      ],
      "stateMutability": "nonpayable",
      "type": "function"
    },
    {
      "inputs": [],
      "name": "cfmm",
      "outputs": [
        {
          "internalType": "address",
          "name": "",
          "type": "address"
        }
      ],
      "stateMutability": "view",
      "type": "function"
    },
    {
      "inputs": [],
      "name": "createLoan",
      "outputs": [
        {
          "internalType": "uint256",
          "name": "tokenId",
          "type": "uint256"
        }
      ],
      "stateMutability": "nonpayable",
      "type": "function"
    },
    {
      "inputs": [],
      "name": "decimals",
      "outputs": [
        {
          "internalType": "uint8",
          "name": "",
          "type": "uint8"
        }
      ],
      "stateMutability": "view",
      "type": "function"
    },
    {
      "inputs": [
        {
          "internalType": "uint256",
          "name": "",
          "type": "uint256"
        }
      ],
      "name": "decimals_",
      "outputs": [
        {
          "internalType": "uint8",
          "name": "",
          "type": "uint8"
        }
      ],
      "stateMutability": "view",
      "type": "function"
    },
    {
      "inputs": [
        {
          "internalType": "address",
          "name": "spender",
          "type": "address"
        },
        {
          "internalType": "uint256",
          "name": "subtractedValue",
          "type": "uint256"
        }
      ],
      "name": "decreaseAllowance",
      "outputs": [
        {
          "internalType": "bool",
          "name": "",
          "type": "bool"
        }
      ],
      "stateMutability": "nonpayable",
      "type": "function"
    },
    {
      "inputs": [
        {
          "internalType": "uint256",
          "name": "",
          "type": "uint256"
        },
        {
          "internalType": "uint256[]",
          "name": "",
          "type": "uint256[]"
        },
        {
          "internalType": "address",
          "name": "",
          "type": "address"
        }
      ],
      "name": "decreaseCollateral",
      "outputs": [
        {
          "internalType": "uint128[]",
          "name": "tokensHeld",
          "type": "uint128[]"
        }
      ],
      "stateMutability": "nonpayable",
      "type": "function"
    },
    {
      "inputs": [
        {
          "internalType": "address",
          "name": "",
          "type": "address"
        }
      ],
      "name": "depositNoPull",
      "outputs": [
        {
          "internalType": "uint256",
          "name": "shares",
          "type": "uint256"
        }
      ],
      "stateMutability": "nonpayable",
      "type": "function"
    },
    {
      "inputs": [
        {
          "internalType": "address",
          "name": "to",
          "type": "address"
        },
        {
          "internalType": "uint256[]",
          "name": "",
          "type": "uint256[]"
        },
        {
          "internalType": "uint256[]",
          "name": "",
          "type": "uint256[]"
        },
        {
          "internalType": "bytes",
          "name": "",
          "type": "bytes"
        }
      ],
      "name": "depositReserves",
      "outputs": [
        {
          "internalType": "uint256[]",
          "name": "reserves",
          "type": "uint256[]"
        },
        {
          "internalType": "uint256",
          "name": "shares",
          "type": "uint256"
        }
      ],
      "stateMutability": "nonpayable",
      "type": "function"
    },
    {
      "inputs": [],
      "name": "factory",
      "outputs": [
        {
          "internalType": "address",
          "name": "",
          "type": "address"
        }
      ],
      "stateMutability": "view",
      "type": "function"
    },
    {
      "inputs": [],
      "name": "getCFMMBalances",
      "outputs": [
        {
          "internalType": "uint128[]",
          "name": "cfmmReserves",
          "type": "uint128[]"
        },
        {
          "internalType": "uint256",
          "name": "cfmmInvariant",
          "type": "uint256"
        },
        {
          "internalType": "uint256",
          "name": "cfmmTotalSupply",
          "type": "uint256"
        }
      ],
      "stateMutability": "view",
      "type": "function"
    },
    {
      "inputs": [],
      "name": "getConstantPoolData",
      "outputs": [
        {
          "components": [
            {
              "internalType": "address",
              "name": "poolId",
              "type": "address"
            },
            {
              "internalType": "uint16",
              "name": "protocolId",
              "type": "uint16"
            },
            {
              "internalType": "address",
              "name": "longStrategy",
              "type": "address"
            },
            {
              "internalType": "address",
              "name": "shortStrategy",
              "type": "address"
            },
            {
              "internalType": "address",
              "name": "liquidationStrategy",
              "type": "address"
            },
            {
              "internalType": "address",
              "name": "factory",
              "type": "address"
            },
            {
              "internalType": "uint256",
              "name": "LP_TOKEN_BALANCE",
              "type": "uint256"
            },
            {
              "internalType": "uint256",
              "name": "LP_TOKEN_BORROWED",
              "type": "uint256"
            },
            {
              "internalType": "uint256",
              "name": "LP_TOKEN_BORROWED_PLUS_INTEREST",
              "type": "uint256"
            },
            {
              "internalType": "uint128",
              "name": "BORROWED_INVARIANT",
              "type": "uint128"
            },
            {
              "internalType": "uint128",
              "name": "LP_INVARIANT",
              "type": "uint128"
            },
            {
              "internalType": "address",
              "name": "cfmm",
              "type": "address"
            },
            {
              "internalType": "uint96",
              "name": "accFeeIndex",
              "type": "uint96"
            },
            {
              "internalType": "uint48",
              "name": "LAST_BLOCK_NUMBER",
              "type": "uint48"
            },
            {
              "internalType": "uint80",
              "name": "lastCFMMFeeIndex",
              "type": "uint80"
            },
            {
              "internalType": "uint128",
              "name": "lastCFMMInvariant",
              "type": "uint128"
            },
            {
              "internalType": "uint256",
              "name": "lastCFMMTotalSupply",
              "type": "uint256"
            },
            {
              "internalType": "uint256",
              "name": "totalSupply",
              "type": "uint256"
            },
            {
              "internalType": "address[]",
              "name": "tokens",
              "type": "address[]"
            },
            {
              "internalType": "string[]",
              "name": "symbols",
              "type": "string[]"
            },
            {
              "internalType": "string[]",
              "name": "names",
              "type": "string[]"
            },
            {
              "internalType": "uint8[]",
              "name": "decimals",
              "type": "uint8[]"
            },
            {
              "internalType": "uint128[]",
              "name": "TOKEN_BALANCE",
              "type": "uint128[]"
            },
            {
              "internalType": "uint128[]",
              "name": "CFMM_RESERVES",
              "type": "uint128[]"
            },
            {
              "internalType": "uint256",
              "name": "lastPrice",
              "type": "uint256"
            },
            {
              "internalType": "uint256",
              "name": "lastFeeIndex",
              "type": "uint256"
            },
            {
              "internalType": "uint256",
              "name": "borrowRate",
              "type": "uint256"
            },
            {
              "internalType": "uint256",
              "name": "utilizationRate",
              "type": "uint256"
            },
            {
              "internalType": "uint48",
              "name": "currBlockNumber",
              "type": "uint48"
            }
          ],
          "internalType": "struct IGammaPool.PoolData",
          "name": "data",
          "type": "tuple"
        }
      ],
      "stateMutability": "view",
      "type": "function"
    },
    {
      "inputs": [],
      "name": "getLastCFMMPrice",
      "outputs": [
        {
          "internalType": "uint256",
          "name": "",
          "type": "uint256"
        }
      ],
      "stateMutability": "view",
      "type": "function"
    },
    {
      "inputs": [],
      "name": "getLatestCFMMBalances",
      "outputs": [
        {
          "internalType": "uint128[]",
          "name": "cfmmReserves",
          "type": "uint128[]"
        },
        {
          "internalType": "uint256",
          "name": "cfmmInvariant",
          "type": "uint256"
        },
        {
          "internalType": "uint256",
          "name": "cfmmTotalSupply",
          "type": "uint256"
        }
      ],
      "stateMutability": "view",
      "type": "function"
    },
    {
      "inputs": [],
      "name": "getLatestCFMMReserves",
      "outputs": [
        {
          "internalType": "uint128[]",
          "name": "cfmmReserves",
          "type": "uint128[]"
        }
      ],
      "stateMutability": "view",
      "type": "function"
    },
    {
      "inputs": [],
      "name": "getLatestPoolData",
      "outputs": [
        {
          "components": [
            {
              "internalType": "address",
              "name": "poolId",
              "type": "address"
            },
            {
              "internalType": "uint16",
              "name": "protocolId",
              "type": "uint16"
            },
            {
              "internalType": "address",
              "name": "longStrategy",
              "type": "address"
            },
            {
              "internalType": "address",
              "name": "shortStrategy",
              "type": "address"
            },
            {
              "internalType": "address",
              "name": "liquidationStrategy",
              "type": "address"
            },
            {
              "internalType": "address",
              "name": "factory",
              "type": "address"
            },
            {
              "internalType": "uint256",
              "name": "LP_TOKEN_BALANCE",
              "type": "uint256"
            },
            {
              "internalType": "uint256",
              "name": "LP_TOKEN_BORROWED",
              "type": "uint256"
            },
            {
              "internalType": "uint256",
              "name": "LP_TOKEN_BORROWED_PLUS_INTEREST",
              "type": "uint256"
            },
            {
              "internalType": "uint128",
              "name": "BORROWED_INVARIANT",
              "type": "uint128"
            },
            {
              "internalType": "uint128",
              "name": "LP_INVARIANT",
              "type": "uint128"
            },
            {
              "internalType": "address",
              "name": "cfmm",
              "type": "address"
            },
            {
              "internalType": "uint96",
              "name": "accFeeIndex",
              "type": "uint96"
            },
            {
              "internalType": "uint48",
              "name": "LAST_BLOCK_NUMBER",
              "type": "uint48"
            },
            {
              "internalType": "uint80",
              "name": "lastCFMMFeeIndex",
              "type": "uint80"
            },
            {
              "internalType": "uint128",
              "name": "lastCFMMInvariant",
              "type": "uint128"
            },
            {
              "internalType": "uint256",
              "name": "lastCFMMTotalSupply",
              "type": "uint256"
            },
            {
              "internalType": "uint256",
              "name": "totalSupply",
              "type": "uint256"
            },
            {
              "internalType": "address[]",
              "name": "tokens",
              "type": "address[]"
            },
            {
              "internalType": "string[]",
              "name": "symbols",
              "type": "string[]"
            },
            {
              "internalType": "string[]",
              "name": "names",
              "type": "string[]"
            },
            {
              "internalType": "uint8[]",
              "name": "decimals",
              "type": "uint8[]"
            },
            {
              "internalType": "uint128[]",
              "name": "TOKEN_BALANCE",
              "type": "uint128[]"
            },
            {
              "internalType": "uint128[]",
              "name": "CFMM_RESERVES",
              "type": "uint128[]"
            },
            {
              "internalType": "uint256",
              "name": "lastPrice",
              "type": "uint256"
            },
            {
              "internalType": "uint256",
              "name": "lastFeeIndex",
              "type": "uint256"
            },
            {
              "internalType": "uint256",
              "name": "borrowRate",
              "type": "uint256"
            },
            {
              "internalType": "uint256",
              "name": "utilizationRate",
              "type": "uint256"
            },
            {
              "internalType": "uint48",
              "name": "currBlockNumber",
              "type": "uint48"
            }
          ],
          "internalType": "struct IGammaPool.PoolData",
          "name": "data",
          "type": "tuple"
        }
      ],
      "stateMutability": "view",
      "type": "function"
    },
    {
      "inputs": [],
      "name": "getLatestRates",
      "outputs": [
        {
          "components": [
            {
              "internalType": "uint256",
              "name": "accFeeIndex",
              "type": "uint256"
            },
            {
              "internalType": "uint256",
              "name": "lastCFMMFeeIndex",
              "type": "uint256"
            },
            {
              "internalType": "uint256",
              "name": "lastFeeIndex",
              "type": "uint256"
            },
            {
              "internalType": "uint256",
              "name": "borrowRate",
              "type": "uint256"
            },
            {
              "internalType": "uint256",
              "name": "utilizationRate",
              "type": "uint256"
            },
            {
              "internalType": "uint256",
              "name": "lastBlockNumber",
              "type": "uint256"
            },
            {
              "internalType": "uint256",
              "name": "currBlockNumber",
              "type": "uint256"
            },
            {
              "internalType": "uint256",
              "name": "lastPrice",
              "type": "uint256"
            }
          ],
          "internalType": "struct IGammaPool.RateData",
          "name": "data",
          "type": "tuple"
        }
      ],
      "stateMutability": "view",
      "type": "function"
    },
    {
      "inputs": [],
      "name": "getLoanCount",
      "outputs": [
        {
          "internalType": "uint256",
          "name": "",
          "type": "uint256"
        }
      ],
      "stateMutability": "view",
      "type": "function"
    },
    {
      "inputs": [
        {
          "internalType": "uint256",
          "name": "",
          "type": "uint256"
        },
        {
          "internalType": "uint256",
          "name": "",
          "type": "uint256"
        }
      ],
      "name": "getLoans",
      "outputs": [
        {
          "components": [
            {
              "internalType": "uint256",
              "name": "id",
              "type": "uint256"
            },
            {
              "internalType": "uint256",
              "name": "tokenId",
              "type": "uint256"
            },
            {
              "internalType": "address",
              "name": "poolId",
              "type": "address"
            },
            {
              "internalType": "uint96",
              "name": "rateIndex",
              "type": "uint96"
            },
            {
              "internalType": "uint128",
              "name": "initLiquidity",
              "type": "uint128"
            },
            {
              "internalType": "uint128",
              "name": "liquidity",
              "type": "uint128"
            },
            {
              "internalType": "uint256",
              "name": "lpTokens",
              "type": "uint256"
            },
            {
              "internalType": "uint128[]",
              "name": "tokensHeld",
              "type": "uint128[]"
            },
            {
              "internalType": "uint256",
              "name": "px",
              "type": "uint256"
            },
            {
              "internalType": "address[]",
              "name": "tokens",
              "type": "address[]"
            },
            {
              "internalType": "uint8[]",
              "name": "decimals",
              "type": "uint8[]"
            },
            {
              "internalType": "string[]",
              "name": "symbols",
              "type": "string[]"
            },
            {
              "internalType": "string[]",
              "name": "names",
              "type": "string[]"
            }
          ],
          "internalType": "struct IGammaPool.LoanData[]",
          "name": "_loans",
          "type": "tuple[]"
        }
      ],
      "stateMutability": "view",
      "type": "function"
    },
    {
      "inputs": [],
      "name": "getPoolBalances",
      "outputs": [
        {
          "internalType": "uint128[]",
          "name": "tokenBalances",
          "type": "uint128[]"
        },
        {
          "internalType": "uint256",
          "name": "lpTokenBalance",
          "type": "uint256"
        },
        {
          "internalType": "uint256",
          "name": "lpTokenBorrowed",
          "type": "uint256"
        },
        {
          "internalType": "uint256",
          "name": "lpTokenBorrowedPlusInterest",
          "type": "uint256"
        },
        {
          "internalType": "uint256",
          "name": "borrowedInvariant",
          "type": "uint256"
        },
        {
          "internalType": "uint256",
          "name": "lpInvariant",
          "type": "uint256"
        }
      ],
      "stateMutability": "view",
      "type": "function"
    },
    {
      "inputs": [],
      "name": "getPoolData",
      "outputs": [
        {
          "components": [
            {
              "internalType": "address",
              "name": "poolId",
              "type": "address"
            },
            {
              "internalType": "uint16",
              "name": "protocolId",
              "type": "uint16"
            },
            {
              "internalType": "address",
              "name": "longStrategy",
              "type": "address"
            },
            {
              "internalType": "address",
              "name": "shortStrategy",
              "type": "address"
            },
            {
              "internalType": "address",
              "name": "liquidationStrategy",
              "type": "address"
            },
            {
              "internalType": "address",
              "name": "factory",
              "type": "address"
            },
            {
              "internalType": "uint256",
              "name": "LP_TOKEN_BALANCE",
              "type": "uint256"
            },
            {
              "internalType": "uint256",
              "name": "LP_TOKEN_BORROWED",
              "type": "uint256"
            },
            {
              "internalType": "uint256",
              "name": "LP_TOKEN_BORROWED_PLUS_INTEREST",
              "type": "uint256"
            },
            {
              "internalType": "uint128",
              "name": "BORROWED_INVARIANT",
              "type": "uint128"
            },
            {
              "internalType": "uint128",
              "name": "LP_INVARIANT",
              "type": "uint128"
            },
            {
              "internalType": "address",
              "name": "cfmm",
              "type": "address"
            },
            {
              "internalType": "uint96",
              "name": "accFeeIndex",
              "type": "uint96"
            },
            {
              "internalType": "uint48",
              "name": "LAST_BLOCK_NUMBER",
              "type": "uint48"
            },
            {
              "internalType": "uint80",
              "name": "lastCFMMFeeIndex",
              "type": "uint80"
            },
            {
              "internalType": "uint128",
              "name": "lastCFMMInvariant",
              "type": "uint128"
            },
            {
              "internalType": "uint256",
              "name": "lastCFMMTotalSupply",
              "type": "uint256"
            },
            {
              "internalType": "uint256",
              "name": "totalSupply",
              "type": "uint256"
            },
            {
              "internalType": "address[]",
              "name": "tokens",
              "type": "address[]"
            },
            {
              "internalType": "string[]",
              "name": "symbols",
              "type": "string[]"
            },
            {
              "internalType": "string[]",
              "name": "names",
              "type": "string[]"
            },
            {
              "internalType": "uint8[]",
              "name": "decimals",
              "type": "uint8[]"
            },
            {
              "internalType": "uint128[]",
              "name": "TOKEN_BALANCE",
              "type": "uint128[]"
            },
            {
              "internalType": "uint128[]",
              "name": "CFMM_RESERVES",
              "type": "uint128[]"
            },
            {
              "internalType": "uint256",
              "name": "lastPrice",
              "type": "uint256"
            },
            {
              "internalType": "uint256",
              "name": "lastFeeIndex",
              "type": "uint256"
            },
            {
              "internalType": "uint256",
              "name": "borrowRate",
              "type": "uint256"
            },
            {
              "internalType": "uint256",
              "name": "utilizationRate",
              "type": "uint256"
            },
            {
              "internalType": "uint48",
              "name": "currBlockNumber",
              "type": "uint48"
            }
          ],
          "internalType": "struct IGammaPool.PoolData",
          "name": "data",
          "type": "tuple"
        }
      ],
      "stateMutability": "view",
      "type": "function"
    },
    {
      "inputs": [],
      "name": "getRates",
      "outputs": [
        {
          "internalType": "uint256",
          "name": "accFeeIndex",
          "type": "uint256"
        },
        {
          "internalType": "uint256",
          "name": "lastCFMMFeeIndex",
          "type": "uint256"
        },
        {
          "internalType": "uint256",
          "name": "lastBlockNumber",
          "type": "uint256"
        }
      ],
      "stateMutability": "view",
      "type": "function"
    },
    {
      "inputs": [
        {
          "internalType": "uint256",
          "name": "tokenId",
          "type": "uint256"
        }
      ],
      "name": "getRebalanceDeltas",
      "outputs": [
        {
          "internalType": "int256[]",
          "name": "deltas",
          "type": "int256[]"
        }
      ],
      "stateMutability": "view",
      "type": "function"
    },
    {
      "inputs": [],
      "name": "getTokensMetaData",
      "outputs": [
        {
          "internalType": "address[]",
          "name": "_tokens",
          "type": "address[]"
        },
        {
          "internalType": "string[]",
          "name": "_symbols",
          "type": "string[]"
        },
        {
          "internalType": "string[]",
          "name": "_names",
          "type": "string[]"
        },
        {
          "internalType": "uint8[]",
          "name": "_decimals",
          "type": "uint8[]"
        }
      ],
      "stateMutability": "view",
      "type": "function"
    },
    {
      "inputs": [
        {
          "internalType": "address",
          "name": "spender",
          "type": "address"
        },
        {
          "internalType": "uint256",
          "name": "addedValue",
          "type": "uint256"
        }
      ],
      "name": "increaseAllowance",
      "outputs": [
        {
          "internalType": "bool",
          "name": "",
          "type": "bool"
        }
      ],
      "stateMutability": "nonpayable",
      "type": "function"
    },
    {
      "inputs": [
        {
          "internalType": "uint256",
          "name": "",
          "type": "uint256"
        }
      ],
      "name": "increaseCollateral",
      "outputs": [
        {
          "internalType": "uint128[]",
          "name": "tokensHeld",
          "type": "uint128[]"
        }
      ],
      "stateMutability": "nonpayable",
      "type": "function"
    },
    {
      "inputs": [
        {
          "internalType": "address",
          "name": "_cfmm",
          "type": "address"
        },
        {
          "internalType": "address[]",
          "name": "_tokens",
          "type": "address[]"
        },
        {
          "internalType": "uint8[]",
          "name": "_decimals",
          "type": "uint8[]"
        },
        {
          "internalType": "bytes",
          "name": "",
          "type": "bytes"
        }
      ],
      "name": "initialize",
      "outputs": [],
      "stateMutability": "nonpayable",
      "type": "function"
    },
    {
      "inputs": [
        {
          "internalType": "uint256",
          "name": "",
          "type": "uint256"
        },
        {
          "internalType": "int256[]",
          "name": "",
          "type": "int256[]"
        },
        {
          "internalType": "uint256[]",
          "name": "",
          "type": "uint256[]"
        }
      ],
      "name": "liquidate",
      "outputs": [
        {
          "internalType": "uint256",
          "name": "loanLiquidity",
          "type": "uint256"
        },
        {
          "internalType": "uint256[]",
          "name": "refund",
          "type": "uint256[]"
        }
      ],
      "stateMutability": "nonpayable",
      "type": "function"
    },
    {
      "inputs": [
        {
          "internalType": "uint256",
          "name": "",
          "type": "uint256"
        }
      ],
      "name": "liquidateWithLP",
      "outputs": [
        {
          "internalType": "uint256",
          "name": "loanLiquidity",
          "type": "uint256"
        },
        {
          "internalType": "uint256[]",
          "name": "refund",
          "type": "uint256[]"
        }
      ],
      "stateMutability": "nonpayable",
      "type": "function"
    },
    {
      "inputs": [],
      "name": "liquidationStrategy",
      "outputs": [
        {
          "internalType": "address",
          "name": "",
          "type": "address"
        }
      ],
      "stateMutability": "view",
      "type": "function"
    },
    {
      "inputs": [
        {
          "internalType": "uint256",
          "name": "",
          "type": "uint256"
        }
      ],
      "name": "loan",
      "outputs": [
        {
          "components": [
            {
              "internalType": "uint256",
              "name": "id",
              "type": "uint256"
            },
            {
              "internalType": "uint256",
              "name": "tokenId",
              "type": "uint256"
            },
            {
              "internalType": "address",
              "name": "poolId",
              "type": "address"
            },
            {
              "internalType": "uint96",
              "name": "rateIndex",
              "type": "uint96"
            },
            {
              "internalType": "uint128",
              "name": "initLiquidity",
              "type": "uint128"
            },
            {
              "internalType": "uint128",
              "name": "liquidity",
              "type": "uint128"
            },
            {
              "internalType": "uint256",
              "name": "lpTokens",
              "type": "uint256"
            },
            {
              "internalType": "uint128[]",
              "name": "tokensHeld",
              "type": "uint128[]"
            },
            {
              "internalType": "uint256",
              "name": "px",
              "type": "uint256"
            },
            {
              "internalType": "address[]",
              "name": "tokens",
              "type": "address[]"
            },
            {
              "internalType": "uint8[]",
              "name": "decimals",
              "type": "uint8[]"
            },
            {
              "internalType": "string[]",
              "name": "symbols",
              "type": "string[]"
            },
            {
              "internalType": "string[]",
              "name": "names",
              "type": "string[]"
            }
          ],
          "internalType": "struct IGammaPool.LoanData",
          "name": "_loanData",
          "type": "tuple"
        }
      ],
      "stateMutability": "view",
      "type": "function"
    },
    {
      "inputs": [],
      "name": "longStrategy",
      "outputs": [
        {
          "internalType": "address",
          "name": "",
          "type": "address"
        }
      ],
      "stateMutability": "view",
      "type": "function"
    },
    {
      "inputs": [],
      "name": "name",
      "outputs": [
        {
          "internalType": "string",
          "name": "",
          "type": "string"
        }
      ],
      "stateMutability": "view",
      "type": "function"
    },
    {
      "inputs": [],
      "name": "owner",
      "outputs": [
        {
          "internalType": "address",
          "name": "",
          "type": "address"
        }
      ],
      "stateMutability": "view",
      "type": "function"
    },
    {
      "inputs": [],
      "name": "protocolId",
      "outputs": [
        {
          "internalType": "uint16",
          "name": "",
          "type": "uint16"
        }
      ],
      "stateMutability": "view",
      "type": "function"
    },
    {
      "inputs": [
        {
          "internalType": "uint256",
          "name": "",
          "type": "uint256"
        },
        {
          "internalType": "int256[]",
          "name": "",
          "type": "int256[]"
        }
      ],
      "name": "rebalanceCollateral",
      "outputs": [
        {
          "internalType": "uint128[]",
          "name": "tokensHeld",
          "type": "uint128[]"
        }
      ],
      "stateMutability": "nonpayable",
      "type": "function"
    },
    {
      "inputs": [
        {
          "internalType": "uint256",
          "name": "",
          "type": "uint256"
        },
        {
          "internalType": "uint256",
          "name": "",
          "type": "uint256"
        },
        {
          "internalType": "uint256[]",
          "name": "fees",
          "type": "uint256[]"
        }
      ],
      "name": "repayLiquidity",
      "outputs": [
        {
          "internalType": "uint256",
          "name": "liquidityPaid",
          "type": "uint256"
        },
        {
          "internalType": "uint256[]",
          "name": "amounts",
          "type": "uint256[]"
        }
      ],
      "stateMutability": "nonpayable",
      "type": "function"
    },
    {
      "inputs": [],
      "name": "shortStrategy",
      "outputs": [
        {
          "internalType": "address",
          "name": "",
          "type": "address"
        }
      ],
      "stateMutability": "view",
      "type": "function"
    },
    {
      "inputs": [
        {
          "internalType": "address",
          "name": "",
          "type": "address"
        }
      ],
      "name": "skim",
      "outputs": [],
      "stateMutability": "nonpayable",
      "type": "function"
    },
    {
      "inputs": [],
      "name": "symbol",
      "outputs": [
        {
          "internalType": "string",
          "name": "",
          "type": "string"
        }
      ],
      "stateMutability": "view",
      "type": "function"
    },
    {
      "inputs": [],
      "name": "sync",
      "outputs": [],
      "stateMutability": "nonpayable",
      "type": "function"
    },
    {
      "inputs": [
        {
          "internalType": "address",
          "name": "posAddr",
          "type": "address"
        },
        {
          "internalType": "address[]",
          "name": "_tokens",
          "type": "address[]"
        },
        {
          "internalType": "uint256[]",
          "name": "amounts",
          "type": "uint256[]"
        },
        {
          "internalType": "address",
          "name": "payee",
          "type": "address"
        },
        {
          "internalType": "bytes",
          "name": "data",
          "type": "bytes"
        }
      ],
      "name": "testSendTokensCallback",
      "outputs": [],
      "stateMutability": "nonpayable",
      "type": "function"
    },
    {
      "inputs": [],
      "name": "tester",
      "outputs": [
        {
          "internalType": "address",
          "name": "",
          "type": "address"
        }
      ],
      "stateMutability": "view",
      "type": "function"
    },
    {
      "inputs": [],
      "name": "tokens",
      "outputs": [
        {
          "internalType": "address[]",
          "name": "",
          "type": "address[]"
        }
      ],
      "stateMutability": "view",
      "type": "function"
    },
    {
      "inputs": [
        {
          "internalType": "uint256",
          "name": "",
          "type": "uint256"
        }
      ],
      "name": "tokens_",
      "outputs": [
        {
          "internalType": "address",
          "name": "",
          "type": "address"
        }
      ],
      "stateMutability": "view",
      "type": "function"
    },
    {
      "inputs": [],
      "name": "totalSupply",
      "outputs": [
        {
          "internalType": "uint256",
          "name": "",
          "type": "uint256"
        }
      ],
      "stateMutability": "view",
      "type": "function"
    },
    {
      "inputs": [
        {
          "internalType": "address",
          "name": "to",
          "type": "address"
        },
        {
          "internalType": "uint256",
          "name": "amount",
          "type": "uint256"
        }
      ],
      "name": "transfer",
      "outputs": [
        {
          "internalType": "bool",
          "name": "",
          "type": "bool"
        }
      ],
      "stateMutability": "nonpayable",
      "type": "function"
    },
    {
      "inputs": [
        {
          "internalType": "address",
          "name": "from",
          "type": "address"
        },
        {
          "internalType": "address",
          "name": "to",
          "type": "address"
        },
        {
          "internalType": "uint256",
          "name": "amount",
          "type": "uint256"
        }
      ],
      "name": "transferFrom",
      "outputs": [
        {
          "internalType": "bool",
          "name": "",
          "type": "bool"
        }
      ],
      "stateMutability": "nonpayable",
      "type": "function"
    },
    {
      "inputs": [
        {
          "internalType": "uint256",
          "name": "tokenId",
          "type": "uint256"
        }
      ],
      "name": "updatePool",
      "outputs": [
        {
          "internalType": "uint256",
          "name": "",
          "type": "uint256"
        },
        {
          "internalType": "uint256",
          "name": "",
          "type": "uint256"
        }
      ],
      "stateMutability": "nonpayable",
      "type": "function"
    },
    {
      "inputs": [
        {
          "internalType": "address[]",
          "name": "",
          "type": "address[]"
        },
        {
          "internalType": "address",
          "name": "",
          "type": "address"
        },
        {
          "internalType": "bytes",
          "name": "",
          "type": "bytes"
        }
      ],
      "name": "validateCFMM",
      "outputs": [
        {
          "internalType": "address[]",
          "name": "",
          "type": "address[]"
        }
      ],
      "stateMutability": "pure",
      "type": "function"
    },
    {
      "inputs": [
        {
          "internalType": "address",
          "name": "",
          "type": "address"
        }
      ],
      "name": "withdrawNoPull",
      "outputs": [
        {
          "internalType": "uint256",
          "name": "assets",
          "type": "uint256"
        }
      ],
      "stateMutability": "nonpayable",
      "type": "function"
    },
    {
      "inputs": [
        {
          "internalType": "address",
          "name": "",
          "type": "address"
        }
      ],
      "name": "withdrawReserves",
      "outputs": [
        {
          "internalType": "uint256[]",
          "name": "reserves",
          "type": "uint256[]"
        },
        {
          "internalType": "uint256",
          "name": "assets",
          "type": "uint256"
        }
      ],
      "stateMutability": "nonpayable",
      "type": "function"
    }
  ],
  "bytecode": {
    "object": "0x6101206040523480156200001257600080fd5b5060405162002d7d38038062002d7d8339810160408190526200003591620000e7565b6040518060400160405280600d81526020016c15195cdd11d85b5b58541bdbdb609a1b815250604051806040016040528060068152602001655447502d563160d01b81525081600390816200008b919062000204565b5060046200009a828262000204565b50505061ffff9094166080526001600160a01b0392831660a05290821660c052811660e0521661010052620002d0565b80516001600160a01b0381168114620000e257600080fd5b919050565b600080600080600060a086880312156200010057600080fd5b855161ffff811681146200011357600080fd5b94506200012360208701620000ca565b93506200013360408701620000ca565b92506200014360608701620000ca565b91506200015360808701620000ca565b90509295509295909350565b634e487b7160e01b600052604160045260246000fd5b600181811c908216806200018a57607f821691505b602082108103620001ab57634e487b7160e01b600052602260045260246000fd5b50919050565b601f821115620001ff57600081815260208120601f850160051c81016020861015620001da5750805b601f850160051c820191505b81811015620001fb57828155600101620001e6565b5050505b505050565b81516001600160401b038111156200022057620002206200015f565b620002388162000231845462000175565b84620001b1565b602080601f831160018114620002705760008415620002575750858301515b600019600386901b1c1916600185901b178555620001fb565b600085815260208120601f198616915b82811015620002a15788860151825594840194600190910190840162000280565b5085821015620002c05787850151600019600388901b60f8161c191681555b5050505050600190811b01905550565b60805160a05160c05160e05161010051612a45620003386000396000818161056d015261172c0152600081816106d901526117040152600081816104e601526116d30152600081816107d5015261176801526000818161081b01526116ac0152612a456000f3fe608060405234801561001057600080fd5b50600436106103785760003560e01c806386b20104116101d3578063c45a015511610104578063ea940b1d116100a2578063f9b5533e1161007c578063f9b5533e146108b4578063fb29238b14610716578063fcc8bd78146108c7578063fff6cae9146104df57600080fd5b8063ea940b1d14610876578063eff98e2414610889578063f344670d1461089c57600080fd5b8063cd189187116100de578063cd1891871461080e578063da1f12ab14610816578063dd62ed3e14610850578063df3489e01461086357600080fd5b8063c45a0155146107d0578063c70c07f714610716578063c80994bb146107f757600080fd5b80639d63848a11610171578063a964e52c1161014b578063a964e52c14610786578063b8a8383414610799578063ba03915b146107ac578063bc25cf77146107bf57600080fd5b80639d63848a1461074b578063a457c2d714610760578063a9059cbb1461077357600080fd5b80638da5cb5b116101ad5780638da5cb5b146106fb57806395d89b411461070e57806397509c4e146107165780639accab551461072b57600080fd5b806386b201041461064b578063871a78d21461066b57806389c4fa12146106d457600080fd5b806351eb05a6116102ad5780636854f77b1161024b57806374aa5fad1161022557806374aa5fad146105ef5780637a651372146105f65780638015d925146106165780638308abd41461063857600080fd5b80636854f77b146105ab5780636f56f4d3146105be57806370a08231146105c657600080fd5b806354fe2a961161028757806354fe2a96146105555780635b3112121461056857806365418ef51461058f57806365ec1a45146105a357600080fd5b806351eb05a614610508578063521968121461053457806352375bb11461053b57600080fd5b80632a9bc3f61161031a578063365a5306116102f4578063365a53061461049957806339509351146104b957806340894f17146104cc5780634932ed37146104e157600080fd5b80632a9bc3f6146104395780633035aa9c14610459578063313ce5671461048457600080fd5b806318160ddd1161035657806318160ddd146103df578063192fdf10146103f157806323b872dd1461040557806328cad17f1461041857600080fd5b806306fdde031461037d578063095ea7b31461039b5780630cfba8eb146103be575b600080fd5b6103856108da565b6040516103929190611c39565b60405180910390f35b6103ae6103a9366004611c68565b61096c565b6040519015158152602001610392565b6103d16103cc366004611c94565b610986565b604051610392929190611cec565b6002545b604051908152602001610392565b6103e36103ff366004611c94565b50601090565b6103ae610413366004611d0e565b610a18565b61042b610426366004611d4f565b610a3c565b604051610392929190611d71565b61044c610447366004611dde565b610a69565b6040516103929190611e63565b60055461046c906001600160a01b031681565b6040516001600160a01b039091168152602001610392565b60125b60405160ff9091168152602001610392565b6104ac6104a7366004611e76565b610a8f565b6040516103929190612075565b6103ae6104c7366004611c68565b610af8565b6104df6104da3660046120ca565b610b1a565b005b61046c7f000000000000000000000000000000000000000000000000000000000000000081565b61051f610516366004611e76565b50600590600690565b60408051928352602083019190915201610392565b60006103e3565b610543610bfb565b60405161039296959493929190612177565b6103d16105633660046120ca565b610c48565b61046c7f000000000000000000000000000000000000000000000000000000000000000081565b6103e361059d366004611c94565b50600f90565b6103e3610c89565b61042b6105b93660046121b3565b610ca6565b61044c610cdc565b6103e36105d4366004611c94565b6001600160a01b031660009081526020819052604090205490565b60076103e3565b610609610604366004611e76565b610cff565b604051610392919061222d565b610629610624366004612271565b610d34565b604051610392939291906122b3565b60085461046c906001600160a01b031681565b61065e610659366004611d4f565b610d6f565b60405161039291906122db565b610673610daa565b6040516103929190600061010082019050825182526020830151602083015260408301516040830152606083015160608301526080830151608083015260a083015160a083015260c083015160c083015260e083015160e083015292915050565b61046c7f000000000000000000000000000000000000000000000000000000000000000081565b60095461046c906001600160a01b031681565b610385610e1c565b61071e610e2b565b604051610392919061233d565b6040805160098152605b6020820152600e91810191909152606001610392565b610753610e3b565b60405161039291906125e2565b6103ae61076e366004611c68565b610e9c565b6103ae610781366004611c68565b610f1c565b61042b6107943660046125f5565b610f2a565b61044c6107a7366004611e76565b610fbc565b6107536107ba366004612648565b610fc5565b6104df6107cd366004611c94565b50565b61046c7f000000000000000000000000000000000000000000000000000000000000000081565b6107ff610fed565b604051610392939291906126bc565b6107ff611020565b61083d7f000000000000000000000000000000000000000000000000000000000000000081565b60405161ffff9091168152602001610392565b6103e361085e3660046126e1565b611053565b6104df61087136600461271a565b61107e565b61044c6108843660046127db565b6110f2565b61042b610897366004611e76565b61111d565b6108a461114c565b604051610392949392919061283a565b61046c6108c2366004611e76565b6111f3565b6104876108d5366004611e76565b61121d565b6060600380546108e990612892565b80601f016020809104026020016040519081016040528092919081815260200182805461091590612892565b80156109625780601f1061093757610100808354040283529160200191610962565b820191906000526020600020905b81548152906001019060200180831161094557829003601f168201915b5050505050905090565b60003361097a818585611251565b60019150505b92915050565b604080516003808252608082019092526060916000919060208201848036833701905050915060c8826000815181106109c1576109c16128cc565b60200260200101818152505061012c826001815181106109e3576109e36128cc565b60200260200101818152505061019082600281518110610a0557610a056128cc565b6020908102919091010152509160119150565b600033610a26858285611375565b610a318585856113ef565b506001949350505050565b60408051600280825260608083018452601793909291906020830190803683370190505090509250929050565b604080516002808252606080830184529260208301908036833701905050949350505050565b610a976118f9565b60148152600580546001600160a01b0316604080840191909152805182815260c08101909152906020820160a08036833750505060e0820152601560a0820152601660c0820152601760608201526018608082015260196020820152919050565b60003361097a818585610b0b8383611053565b610b1591906128f8565b611251565b600580546001600160a01b0319166001600160a01b038916179055610b4160068787611985565b50610b4e600785856119e8565b50336001600160a01b0316638308abd46040518163ffffffff1660e01b8152600401602060405180830381865afa158015610b8d573d6000803e3d6000fd5b505050506040513d601f19601f82011682018060405250810190610bb1919061290b565b600880546001600160a01b03929092166001600160a01b03199283168117909155600980549092163317909155610bf29069152d02c7e14af68000006115bd565b50505050505050565b60606000808080806001604051908082528060200260200182016040528015610c2e578160200160208202803683370190505b509660019650600295506003945060049350600592509050565b60408051600480825260a08201909252606091600091906020820160808036833701905050915060129050610c7d89826115bd565b97509795505050505050565b6000610c96436064612928565b610ca19060136128f8565b905090565b60408051600280825260608281019093526000929160019181602001602082028036833701905050915091509550959350505050565b604080516002808252606080830184529260208301908036833701905050905090565b606060025b604051908082528060200260200182016040528015610d2d578160200160208202803683370190505b5092915050565b604080516002808252606082810190935260009283929091600391600491816020016020820280368337019050509250925092509250925092565b60408051600080825260208201909252606091610da2565b610d8f6118f9565b815260200190600190039081610d875790505b509392505050565b610df260405180610100016040528060008152602001600081526020016000815260200160008152602001600081526020016000815260200160008152602001600081525090565b60018152600260208201526003604082015260046060820152600560a0820152600660c082015290565b6060600480546108e990612892565b610e33611a8c565b610ca161169c565b6060600680548060200260200160405190810160405280929190818152602001828054801561096257602002820191906000526020600020905b81546001600160a01b03168152600190910190602001808311610e75575050505050905090565b60003381610eaa8286611053565b905083811015610f0f5760405162461bcd60e51b815260206004820152602560248201527f45524332303a2064656372656173656420616c6c6f77616e63652062656c6f77604482015264207a65726f60d81b60648201526084015b60405180910390fd5b610a318286868403611251565b60003361097a8185856113ef565b6000606060028314610f3d576000610f7b565b83836001818110610f5057610f506128cc565b9050602002013584846000818110610f6a57610f6a6128cc565b90506020020135610f7b91906128f8565b610f868460186128f8565b610f9091906128f8565b604080516002808252606082018352929450919060208301908036833701905050905094509492505050565b60606006610d04565b6040805160028082526060808301845292602083019080368337019050509695505050505050565b604080516002808252606082810190935260009182918160200160208202803683370190505093600c9350600d92509050565b60408051600280825260608281019093526000918291816020016020820280368337019050509360029350600392509050565b6001600160a01b03918216600090815260016020908152604080832093909416825291909152205490565b604051636464a1eb60e01b81526001600160a01b03891690636464a1eb906110b6908a908a908a908a908a908a908a90600401612968565b600060405180830381600087803b1580156110d057600080fd5b505af11580156110e4573d6000803e3d6000fd5b505050505050505050505050565b60408051600780825261010082019092526060916020820160e0803683370190505095945050505050565b604080516002808252606082810190935260009291818160200160208202803683370190505091509150915091565b60408051600180825281830190925260609182918291829190602080830190803683375050604080516002808252606082019092529150602082015b60608152602001906001900390816111885750506040805160038082526080820190925290602082015b60608152602001906001900390816111b257505060408051600480825260a08201909252906020820160808036833701905050935093509350935090919293565b6006818154811061120357600080fd5b6000918252602090912001546001600160a01b0316905081565b6007818154811061122d57600080fd5b9060005260206000209060209182820401919006915054906101000a900460ff1681565b6001600160a01b0383166112b35760405162461bcd60e51b8152602060048201526024808201527f45524332303a20617070726f76652066726f6d20746865207a65726f206164646044820152637265737360e01b6064820152608401610f06565b6001600160a01b0382166113145760405162461bcd60e51b815260206004820152602260248201527f45524332303a20617070726f766520746f20746865207a65726f206164647265604482015261737360f01b6064820152608401610f06565b6001600160a01b0383811660008181526001602090815260408083209487168084529482529182902085905590518481527f8c5be1e5ebec7d5bd14f71427d1e84f3dd0314c0f7b2291e5b200ac8c7c3b925910160405180910390a3505050565b60006113818484611053565b905060001981146113e957818110156113dc5760405162461bcd60e51b815260206004820152601d60248201527f45524332303a20696e73756666696369656e7420616c6c6f77616e63650000006044820152606401610f06565b6113e98484848403611251565b50505050565b6001600160a01b0383166114535760405162461bcd60e51b815260206004820152602560248201527f45524332303a207472616e736665722066726f6d20746865207a65726f206164604482015264647265737360d81b6064820152608401610f06565b6001600160a01b0382166114b55760405162461bcd60e51b815260206004820152602360248201527f45524332303a207472616e7366657220746f20746865207a65726f206164647260448201526265737360e81b6064820152608401610f06565b6001600160a01b0383166000908152602081905260409020548181101561152d5760405162461bcd60e51b815260206004820152602660248201527f45524332303a207472616e7366657220616d6f756e7420657863656564732062604482015265616c616e636560d01b6064820152608401610f06565b6001600160a01b038085166000908152602081905260408082208585039055918516815290812080548492906115649084906128f8565b92505081905550826001600160a01b0316846001600160a01b03167fddf252ad1be2c89b69c2b068fc378daa952ba7f163c4a11628f55a4df523b3ef846040516115b091815260200190565b60405180910390a36113e9565b6001600160a01b0382166116135760405162461bcd60e51b815260206004820152601f60248201527f45524332303a206d696e7420746f20746865207a65726f2061646472657373006044820152606401610f06565b806002600082825461162591906128f8565b90915550506001600160a01b038216600090815260208190526040812080548392906116529084906128f8565b90915550506040518181526001600160a01b038316906000907fddf252ad1be2c89b69c2b068fc378daa952ba7f163c4a11628f55a4df523b3ef9060200160405180910390a35050565b6116a4611a8c565b30815261ffff7f00000000000000000000000000000000000000000000000000000000000000001660208201527f00000000000000000000000000000000000000000000000000000000000000006001600160a01b0390811660408301527f0000000000000000000000000000000000000000000000000000000000000000811660608301527f000000000000000000000000000000000000000000000000000000000000000081166080830152600580548216610160840152600e6101a08401527f000000000000000000000000000000000000000000000000000000000000000090911660a0830152600160c0830152600260e0830152600361010083015260046101208301526101408201526009610180820152600c6101e0820152600d6102008201526117d460025490565b610220820152600780546040805160208084028201810190925282815292919083018282801561184157602002820191906000526020600020906000905b825461010083900a900460ff168152602060019283018181049485019490930390920291018084116118125790505b5050505050816102a0018190525060068054806020026020016040519081016040528092919081815260200182805480156118a557602002820191906000526020600020905b81546001600160a01b03168152600190910190602001808311611887575b505050505061024082015260408051600180825281830190925290602080830190803683375050506102c082015260408051600280825260608201835290916020830190803683375050506102e082015290565b604051806101a00160405280600081526020016000815260200160006001600160a01b0316815260200160006001600160601b0316815260200160006001600160801b0316815260200160006001600160801b03168152602001600081526020016060815260200160008152602001606081526020016060815260200160608152602001606081525090565b8280548282559060005260206000209081019282156119d8579160200282015b828111156119d85781546001600160a01b0319166001600160a01b038435161782556020909201916001909101906119a5565b506119e4929150611bde565b5090565b82805482825590600052602060002090601f016020900481019282156119d85791602002820160005b83821115611a5257833560ff1683826101000a81548160ff021916908360ff1602179055509260200192600101602081600001049283019260010302611a11565b8015611a7f5782816101000a81549060ff0219169055600101602081600001049283019260010302611a52565b50506119e4929150611bde565b604051806103a0016040528060006001600160a01b03168152602001600061ffff16815260200160006001600160a01b0316815260200160006001600160a01b0316815260200160006001600160a01b0316815260200160006001600160a01b0316815260200160008152602001600081526020016000815260200160006001600160801b0316815260200160006001600160801b0316815260200160006001600160a01b0316815260200160006001600160601b03168152602001600065ffffffffffff168152602001600069ffffffffffffffffffff16815260200160006001600160801b03168152602001600081526020016000815260200160608152602001606081526020016060815260200160608152602001606081526020016060815260200160008152602001600081526020016000815260200160008152602001600065ffffffffffff1681525090565b5b808211156119e45760008155600101611bdf565b6000815180845260005b81811015611c1957602081850181015186830182015201611bfd565b506000602082860101526020601f19601f83011685010191505092915050565b602081526000611c4c6020830184611bf3565b9392505050565b6001600160a01b03811681146107cd57600080fd5b60008060408385031215611c7b57600080fd5b8235611c8681611c53565b946020939093013593505050565b600060208284031215611ca657600080fd5b8135611c4c81611c53565b600081518084526020808501945080840160005b83811015611ce157815187529582019590820190600101611cc5565b509495945050505050565b604081526000611cff6040830185611cb1565b90508260208301529392505050565b600080600060608486031215611d2357600080fd5b8335611d2e81611c53565b92506020840135611d3e81611c53565b929592945050506040919091013590565b60008060408385031215611d6257600080fd5b50508035926020909101359150565b828152604060208201526000611d8a6040830184611cb1565b949350505050565b60008083601f840112611da457600080fd5b50813567ffffffffffffffff811115611dbc57600080fd5b6020830191508360208260051b8501011115611dd757600080fd5b9250929050565b600080600060408486031215611df357600080fd5b83359250602084013567ffffffffffffffff811115611e1157600080fd5b611e1d86828701611d92565b9497909650939450505050565b600081518084526020808501945080840160005b83811015611ce15781516001600160801b031687529582019590820190600101611e3e565b602081526000611c4c6020830184611e2a565b600060208284031215611e8857600080fd5b5035919050565b600081518084526020808501945080840160005b83811015611ce15781516001600160a01b031687529582019590820190600101611ea3565b600081518084526020808501945080840160005b83811015611ce157815160ff1687529582019590820190600101611edc565b600081518084526020808501808196508360051b8101915082860160005b85811015611f43578284038952611f31848351611bf3565b98850198935090840190600101611f19565b5091979650505050505050565b60006101a082518452602083015160208501526040830151611f7d60408601826001600160a01b03169052565b506060830151611f9860608601826001600160601b03169052565b506080830151611fb360808601826001600160801b03169052565b5060a0830151611fce60a08601826001600160801b03169052565b5060c083015160c085015260e08301518160e0860152611ff082860182611e2a565b91505061010080840151818601525061012080840151858303828701526120178382611e8f565b9250505061014080840151858303828701526120338382611ec8565b92505050610160808401518583038287015261204f8382611efb565b92505050610180808401518583038287015261206b8382611efb565b9695505050505050565b602081526000611c4c6020830184611f50565b60008083601f84011261209a57600080fd5b50813567ffffffffffffffff8111156120b257600080fd5b602083019150836020828501011115611dd757600080fd5b60008060008060008060006080888a0312156120e557600080fd5b87356120f081611c53565b9650602088013567ffffffffffffffff8082111561210d57600080fd5b6121198b838c01611d92565b909850965060408a013591508082111561213257600080fd5b61213e8b838c01611d92565b909650945060608a013591508082111561215757600080fd5b506121648a828b01612088565b989b979a50959850939692959293505050565b60c08152600061218a60c0830189611e2a565b60208301979097525060408101949094526060840192909252608083015260a090910152919050565b6000806000806000606086880312156121cb57600080fd5b85359450602086013567ffffffffffffffff808211156121ea57600080fd5b6121f689838a01611d92565b9096509450604088013591508082111561220f57600080fd5b5061221c88828901611d92565b969995985093965092949392505050565b6020808252825182820181905260009190848201906040850190845b8181101561226557835183529284019291840191600101612249565b50909695505050505050565b6000806020838503121561228457600080fd5b823567ffffffffffffffff81111561229b57600080fd5b6122a785828601611d92565b90969095509350505050565b8381528260208201526060604082015260006122d26060830184611cb1565b95945050505050565b6000602080830181845280855180835260408601915060408160051b870101925083870160005b8281101561233057603f1988860301845261231e858351611f50565b94509285019290850190600101612302565b5092979650505050505050565b602081526123576020820183516001600160a01b03169052565b6000602083015161236e604084018261ffff169052565b5060408301516001600160a01b03811660608401525060608301516001600160a01b03811660808401525060808301516001600160a01b03811660a08401525060a08301516001600160a01b03811660c08401525060c083015160e0838101919091528301516101008084019190915283015161012080840191909152830151610140612405818501836001600160801b03169052565b8401519050610160612421848201836001600160801b03169052565b840151905061018061243d848201836001600160a01b03169052565b84015190506101a0612459848201836001600160601b03169052565b84015190506101c06124748482018365ffffffffffff169052565b84015190506101e06124938482018369ffffffffffffffffffff169052565b84015190506102006124af848201836001600160801b03169052565b84015161022084810191909152840151610240808501919091528401516103a0610260808601829052919250906124ea6103c0860184611e8f565b9250808601519050601f1961028081878603018188015261250b8584611efb565b9450808801519250506102a081878603018188015261252a8584611efb565b9450808801519250506102c08187860301818801526125498584611ec8565b9450808801519250506102e08187860301818801526125688584611e2a565b9450808801519250506103008187860301818801526125878584611e2a565b908801516103208881019190915288015161034080890191909152880151610360808901919091528801516103808089019190915288015165ffffffffffff81168589015290945091506125d89050565b5090949350505050565b602081526000611c4c6020830184611e8f565b6000806000806060858703121561260b57600080fd5b8435935060208501359250604085013567ffffffffffffffff81111561263057600080fd5b61263c87828801611d92565b95989497509550505050565b60008060008060006060868803121561266057600080fd5b853567ffffffffffffffff8082111561267857600080fd5b61268489838a01611d92565b90975095506020880135915061269982611c53565b909350604087013590808211156126af57600080fd5b5061221c88828901612088565b6060815260006126cf6060830186611e2a565b60208301949094525060400152919050565b600080604083850312156126f457600080fd5b82356126ff81611c53565b9150602083013561270f81611c53565b809150509250929050565b60008060008060008060008060a0898b03121561273657600080fd5b883561274181611c53565b9750602089013567ffffffffffffffff8082111561275e57600080fd5b61276a8c838d01611d92565b909950975060408b013591508082111561278357600080fd5b61278f8c838d01611d92565b909750955060608b013591506127a482611c53565b90935060808a013590808211156127ba57600080fd5b506127c78b828c01612088565b999c989b5096995094979396929594505050565b600080600080606085870312156127f157600080fd5b84359350602085013567ffffffffffffffff81111561280f57600080fd5b61281b87828801611d92565b909450925050604085013561282f81611c53565b939692955090935050565b60808152600061284d6080830187611e8f565b828103602084015261285f8187611efb565b905082810360408401526128738186611efb565b905082810360608401526128878185611ec8565b979650505050505050565b600181811c908216806128a657607f821691505b6020821081036128c657634e487b7160e01b600052602260045260246000fd5b50919050565b634e487b7160e01b600052603260045260246000fd5b634e487b7160e01b600052601160045260246000fd5b80820180821115610980576109806128e2565b60006020828403121561291d57600080fd5b8151611c4c81611c53565b8082028115828204841417610980576109806128e2565b81835281816020850137506000828201602090810191909152601f909101601f19169091010190565b6080808252810187905260008860a08301825b8a8110156129ab57823561298e81611c53565b6001600160a01b031682526020928301929091019060010161297b565b5083810360208501528781526001600160fb1b038811156129cb57600080fd5b8760051b9150818960208301376001600160a01b0387166040850152016020838203016060840152612a0160208201858761293f565b9a995050505050505050505056fea264697066735822122030d2e5e772e56e09d5847e518774a96d5fde21e6a73163f251fc27ccb5376ad864736f6c63430008110033",
    "linkReferences": {}
  },
  "methodIdentifiers": {
    "allowance(address,address)": "dd62ed3e",
    "approve(address,uint256)": "095ea7b3",
    "balanceOf(address)": "70a08231",
    "batchLiquidations(uint256[])": "8015d925",
    "borrowLiquidity(uint256,uint256)": "28cad17f",
    "cfmm()": "3035aa9c",
    "createLoan()": "65ec1a45",
    "decimals()": "313ce567",
    "decimals_(uint256)": "fcc8bd78",
    "decreaseAllowance(address,uint256)": "a457c2d7",
    "decreaseCollateral(uint256,uint256[],address)": "ea940b1d",
    "depositNoPull(address)": "65418ef5",
    "depositReserves(address,uint256[],uint256[],bytes)": "54fe2a96",
    "factory()": "c45a0155",
    "getCFMMBalances()": "c80994bb",
    "getConstantPoolData()": "97509c4e",
    "getLastCFMMPrice()": "74aa5fad",
    "getLatestCFMMBalances()": "cd189187",
    "getLatestCFMMReserves()": "6f56f4d3",
    "getLatestPoolData()": "c70c07f7",
    "getLatestRates()": "871a78d2",
    "getLoanCount()": "52196812",
    "getLoans(uint256,uint256)": "86b20104",
    "getPoolBalances()": "52375bb1",
    "getPoolData()": "fb29238b",
    "getRates()": "9accab55",
    "getRebalanceDeltas(uint256)": "7a651372",
    "getTokensMetaData()": "f344670d",
    "increaseAllowance(address,uint256)": "39509351",
    "increaseCollateral(uint256)": "b8a83834",
    "initialize(address,address[],uint8[],bytes)": "40894f17",
    "liquidate(uint256,int256[],uint256[])": "6854f77b",
    "liquidateWithLP(uint256)": "eff98e24",
    "liquidationStrategy()": "5b311212",
    "loan(uint256)": "365a5306",
    "longStrategy()": "4932ed37",
    "name()": "06fdde03",
    "owner()": "8da5cb5b",
    "protocolId()": "da1f12ab",
    "rebalanceCollateral(uint256,int256[])": "2a9bc3f6",
    "repayLiquidity(uint256,uint256,uint256[])": "a964e52c",
    "shortStrategy()": "89c4fa12",
    "skim(address)": "bc25cf77",
    "symbol()": "95d89b41",
    "sync()": "fff6cae9",
    "testSendTokensCallback(address,address[],uint256[],address,bytes)": "df3489e0",
    "tester()": "8308abd4",
    "tokens()": "9d63848a",
    "tokens_(uint256)": "f9b5533e",
    "totalSupply()": "18160ddd",
    "transfer(address,uint256)": "a9059cbb",
    "transferFrom(address,address,uint256)": "23b872dd",
    "updatePool(uint256)": "51eb05a6",
    "validateCFMM(address[],address,bytes)": "ba03915b",
    "withdrawNoPull(address)": "192fdf10",
    "withdrawReserves(address)": "0cfba8eb"
  },
  "id": 8
}