{
  "abi": [
    {
      "inputs": [
        {
          "internalType": "address",
          "name": "_feeToSetter",
          "type": "address"
        }
      ],
      "stateMutability": "nonpayable",
      "type": "constructor"
    },
    {
      "inputs": [],
      "name": "DeployFailed",
      "type": "error"
    },
    {
      "inputs": [],
      "name": "Forbidden",
      "type": "error"
    },
    {
      "inputs": [],
      "name": "PoolExists",
      "type": "error"
    },
    {
      "inputs": [],
      "name": "ProtocolExists",
      "type": "error"
    },
    {
      "inputs": [],
      "name": "ProtocolNotSet",
      "type": "error"
    },
    {
      "inputs": [],
      "name": "ProtocolRestricted",
      "type": "error"
    },
    {
      "inputs": [],
      "name": "ZeroAddress",
      "type": "error"
    },
    {
      "inputs": [],
      "name": "ZeroProtocol",
      "type": "error"
    },
    {
      "anonymous": false,
      "inputs": [
        {
          "indexed": true,
          "internalType": "address",
          "name": "pool",
          "type": "address"
        },
        {
          "indexed": true,
          "internalType": "address",
          "name": "to",
          "type": "address"
        },
        {
          "indexed": false,
          "internalType": "uint16",
          "name": "protocolFee",
          "type": "uint16"
        },
        {
          "indexed": false,
          "internalType": "uint24",
          "name": "origMin",
          "type": "uint24"
        },
        {
          "indexed": false,
          "internalType": "uint24",
          "name": "origMax",
          "type": "uint24"
        },
        {
          "indexed": false,
          "internalType": "bool",
          "name": "isSet",
          "type": "bool"
        }
      ],
      "name": "FeeUpdate",
      "type": "event"
    },
    {
      "anonymous": false,
      "inputs": [
        {
          "indexed": true,
          "internalType": "address",
          "name": "currentOwner",
          "type": "address"
        },
        {
          "indexed": true,
          "internalType": "address",
          "name": "newOwner",
          "type": "address"
        }
      ],
      "name": "OwnershipTransferStarted",
      "type": "event"
    },
    {
      "anonymous": false,
      "inputs": [
        {
          "indexed": true,
          "internalType": "address",
          "name": "previousOwner",
          "type": "address"
        },
        {
          "indexed": true,
          "internalType": "address",
          "name": "newOwner",
          "type": "address"
        }
      ],
      "name": "OwnershipTransferred",
      "type": "event"
    },
    {
      "anonymous": false,
      "inputs": [
        {
          "indexed": true,
          "internalType": "address",
          "name": "pool",
          "type": "address"
        },
        {
          "indexed": true,
          "internalType": "address",
          "name": "cfmm",
          "type": "address"
        },
        {
          "indexed": true,
          "internalType": "uint16",
          "name": "protocolId",
          "type": "uint16"
        },
        {
          "indexed": false,
          "internalType": "address",
          "name": "implementation",
          "type": "address"
        },
        {
          "indexed": false,
          "internalType": "address[]",
          "name": "tokens",
          "type": "address[]"
        },
        {
          "indexed": false,
          "internalType": "uint256",
          "name": "count",
          "type": "uint256"
        }
      ],
      "name": "PoolCreated",
      "type": "event"
    },
    {
      "inputs": [],
      "name": "acceptOwnership",
      "outputs": [],
      "stateMutability": "nonpayable",
      "type": "function"
    },
    {
      "inputs": [
        {
          "internalType": "address",
          "name": "_protocol",
          "type": "address"
        }
      ],
      "name": "addProtocol",
      "outputs": [],
      "stateMutability": "nonpayable",
      "type": "function"
    },
    {
      "inputs": [
        {
          "internalType": "uint256",
          "name": "",
          "type": "uint256"
        }
      ],
      "name": "allPools",
      "outputs": [
        {
          "internalType": "address",
          "name": "",
          "type": "address"
        }
      ],
      "stateMutability": "view",
      "type": "function"
    },
    {
      "inputs": [],
      "name": "allPoolsLength",
      "outputs": [
        {
          "internalType": "uint256",
          "name": "",
          "type": "uint256"
        }
      ],
      "stateMutability": "view",
      "type": "function"
    },
    {
      "inputs": [
        {
          "internalType": "uint16",
          "name": "protocolId",
          "type": "uint16"
        },
        {
          "internalType": "address",
          "name": "cfmm",
          "type": "address"
        },
        {
          "internalType": "address[]",
          "name": "tokens",
          "type": "address[]"
        },
        {
          "internalType": "bytes",
          "name": "_data",
          "type": "bytes"
        }
      ],
      "name": "createPool",
      "outputs": [
        {
          "internalType": "address",
          "name": "pool",
          "type": "address"
        }
      ],
      "stateMutability": "nonpayable",
      "type": "function"
    },
    {
      "inputs": [],
      "name": "fee",
      "outputs": [
        {
          "internalType": "uint16",
          "name": "",
          "type": "uint16"
        }
      ],
      "stateMutability": "view",
      "type": "function"
    },
    {
      "inputs": [],
      "name": "feeInfo",
      "outputs": [
        {
          "internalType": "address",
          "name": "",
          "type": "address"
        },
        {
          "internalType": "uint256",
          "name": "",
          "type": "uint256"
        },
        {
          "internalType": "uint256",
          "name": "",
          "type": "uint256"
        },
        {
          "internalType": "uint256",
          "name": "",
          "type": "uint256"
        }
      ],
      "stateMutability": "view",
      "type": "function"
    },
    {
      "inputs": [],
      "name": "feeTo",
      "outputs": [
        {
          "internalType": "address",
          "name": "",
          "type": "address"
        }
      ],
      "stateMutability": "view",
      "type": "function"
    },
    {
      "inputs": [],
      "name": "feeToSetter",
      "outputs": [
        {
          "internalType": "address",
          "name": "",
          "type": "address"
        }
      ],
      "stateMutability": "view",
      "type": "function"
    },
    {
      "inputs": [
        {
          "internalType": "address",
          "name": "",
          "type": "address"
        }
      ],
      "name": "getKey",
      "outputs": [
        {
          "internalType": "bytes32",
          "name": "",
          "type": "bytes32"
        }
      ],
      "stateMutability": "view",
      "type": "function"
    },
    {
      "inputs": [
        {
          "internalType": "bytes32",
          "name": "",
          "type": "bytes32"
        }
      ],
      "name": "getPool",
      "outputs": [
        {
          "internalType": "address",
          "name": "",
          "type": "address"
        }
      ],
      "stateMutability": "view",
      "type": "function"
    },
    {
      "inputs": [
        {
          "internalType": "address",
          "name": "",
          "type": "address"
        }
      ],
      "name": "getPoolFee",
      "outputs": [
        {
          "internalType": "address",
          "name": "_to",
          "type": "address"
        },
        {
          "internalType": "uint256",
          "name": "_protocolFee",
          "type": "uint256"
        },
        {
          "internalType": "uint256",
          "name": "_origMinFee",
          "type": "uint256"
        },
        {
          "internalType": "uint256",
          "name": "_origMaxFee",
          "type": "uint256"
        },
        {
          "internalType": "bool",
          "name": "_isSet",
          "type": "bool"
        }
      ],
      "stateMutability": "view",
      "type": "function"
    },
    {
      "inputs": [
        {
          "internalType": "uint256",
          "name": "",
          "type": "uint256"
        },
        {
          "internalType": "uint256",
          "name": "",
          "type": "uint256"
        }
      ],
      "name": "getPools",
      "outputs": [
        {
          "internalType": "address[]",
          "name": "_pools",
          "type": "address[]"
        }
      ],
      "stateMutability": "view",
      "type": "function"
    },
    {
      "inputs": [
        {
          "internalType": "uint16",
          "name": "",
          "type": "uint16"
        }
      ],
      "name": "getProtocol",
      "outputs": [
        {
          "internalType": "address",
          "name": "",
          "type": "address"
        }
      ],
      "stateMutability": "view",
      "type": "function"
    },
    {
      "inputs": [],
      "name": "implementation",
      "outputs": [
        {
          "internalType": "address",
          "name": "",
          "type": "address"
        }
      ],
      "stateMutability": "view",
      "type": "function"
    },
    {
      "inputs": [
        {
          "internalType": "uint16",
          "name": "",
          "type": "uint16"
        }
      ],
      "name": "isProtocolRestricted",
      "outputs": [
        {
          "internalType": "bool",
          "name": "",
          "type": "bool"
        }
      ],
      "stateMutability": "view",
      "type": "function"
    },
    {
      "inputs": [],
      "name": "origMax",
      "outputs": [
        {
          "internalType": "uint24",
          "name": "",
          "type": "uint24"
        }
      ],
      "stateMutability": "view",
      "type": "function"
    },
    {
      "inputs": [],
      "name": "origMin",
      "outputs": [
        {
          "internalType": "uint24",
          "name": "",
          "type": "uint24"
        }
      ],
      "stateMutability": "view",
      "type": "function"
    },
    {
      "inputs": [],
      "name": "owner",
      "outputs": [
        {
          "internalType": "address",
          "name": "",
          "type": "address"
        }
      ],
      "stateMutability": "view",
      "type": "function"
    },
    {
      "inputs": [],
      "name": "pendingOwner",
      "outputs": [
        {
          "internalType": "address",
          "name": "",
          "type": "address"
        }
      ],
      "stateMutability": "view",
      "type": "function"
    },
    {
      "inputs": [
        {
          "internalType": "uint16",
          "name": "",
          "type": "uint16"
        }
      ],
      "name": "removeProtocol",
      "outputs": [],
      "stateMutability": "nonpayable",
      "type": "function"
    },
    {
      "inputs": [
        {
          "internalType": "uint16",
          "name": "",
          "type": "uint16"
        },
        {
          "internalType": "bool",
          "name": "",
          "type": "bool"
        }
      ],
      "name": "setIsProtocolRestricted",
      "outputs": [],
      "stateMutability": "nonpayable",
      "type": "function"
    },
    {
      "inputs": [
        {
          "internalType": "address",
          "name": "_pool",
          "type": "address"
        },
        {
          "internalType": "address",
          "name": "_to",
          "type": "address"
        },
        {
          "internalType": "uint16",
          "name": "_protocolFee",
          "type": "uint16"
        },
        {
          "internalType": "uint24",
          "name": "_origMinFee",
          "type": "uint24"
        },
        {
          "internalType": "uint24",
          "name": "_origMaxFee",
          "type": "uint24"
        },
        {
          "internalType": "bool",
          "name": "_isSet",
          "type": "bool"
        }
      ],
      "name": "setPoolFee",
      "outputs": [],
      "stateMutability": "nonpayable",
      "type": "function"
    },
    {
      "inputs": [],
      "name": "tester",
      "outputs": [
        {
          "internalType": "address",
          "name": "",
          "type": "address"
        }
      ],
      "stateMutability": "view",
      "type": "function"
    },
    {
      "inputs": [
        {
          "internalType": "address",
          "name": "newOwner",
          "type": "address"
        }
      ],
      "name": "transferOwnership",
      "outputs": [],
      "stateMutability": "nonpayable",
      "type": "function"
    }
  ],
  "bytecode": {
    "object": "0x6080604052600480546001600160401b03191667271000271000271017905534801561002a57600080fd5b50604051610dc5380380610dc5833981016040819052610049916100a7565b60008054336001600160a01b0319918216811790925560048054600160401b600160e01b031916680100000000000000006001600160a01b0395909516948502179055600580548216909317909255600880549092161790556100d7565b6000602082840312156100b957600080fd5b81516001600160a01b03811681146100d057600080fd5b9392505050565b610cdf806100e66000396000f3fe608060405234801561001057600080fd5b50600436106101735760003560e01c80638da5cb5b116100de578063d7d1e12611610097578063efde4e6411610071578063efde4e6414610444578063f2fde38b1461044c578063f4bff5f11461045f578063f6c009271461047257600080fd5b8063d7d1e126146103e5578063ddca3f4314610409578063e30c39781461043157600080fd5b80638da5cb5b1461031257806393790f4414610325578063995b5aae14610353578063b3d5d66b14610392578063bbe95837146103a4578063d2c7c2a4146103c757600080fd5b8063466e0c0a11610130578063466e0c0a146102845780635c60da1b146102a5578063771d4c28146102b857806379ba5097146102e85780638308abd4146102f057806384915e7f1461030357600080fd5b8063017e7e581461017857806302b764ad146101af57806307746e25146101c7578063094b7415146101f157806341d1de971461020457806342fcc6fb14610217575b600080fd5b60045461019290600160401b90046001600160a01b031681565b6040516001600160a01b0390911681526020015b60405180910390f35b6101c56101bd36600461090f565b505050505050565b005b6004546101dd906301000000900462ffffff1681565b60405162ffffff90911681526020016101a6565b600554610192906001600160a01b031681565b610192610212366004610983565b61049b565b61025061022536600461099c565b50600454600160401b81046001600160a01b031691600160301b90910461ffff169060009081908190565b604080516001600160a01b03909616865260208601949094529284019190915260608301521515608082015260a0016101a6565b6101c56102923660046109be565b50600780546001600160a01b0319169055565b600754610192906001600160a01b031681565b6101c56102c636600461099c565b600780546001600160a01b0319166001600160a01b0392909216919091179055565b6101c56104c5565b600854610192906001600160a01b031681565b6004546101dd9062ffffff1681565b600054610192906001600160a01b031681565b61034561033336600461099c565b60036020526000908152604090205481565b6040519081526020016101a6565b60045460408051600160401b83046001600160a01b03168152600160301b90920461ffff166020830152600090820181905260608201526080016101a6565b6101c56103a03660046109d9565b5050565b6103ba6103b2366004610a0c565b606092915050565b6040516101a69190610a2e565b6101926103d53660046109be565b506007546001600160a01b031690565b6103f96103f33660046109be565b50600090565b60405190151581526020016101a6565b60045461041e90600160301b900461ffff1681565b60405161ffff90911681526020016101a6565b600154610192906001600160a01b031681565b600654610345565b6101c561045a36600461099c565b61056e565b61019261046d366004610ac4565b61060b565b610192610480366004610983565b6002602052600090815260409020546001600160a01b031681565b600681815481106104ab57600080fd5b6000918252602090912001546001600160a01b0316905081565b60015433906001600160a01b031681146105145760405162461bcd60e51b815260206004820152600b60248201526a2737ba2732bba7bbb732b960a91b60448201526064015b60405180910390fd5b600080546001600160a01b038381166001600160a01b031980841682178555600180549091169055604051919092169283917f8be0079c531659141344cd1fd0a4f28419497f9722a3daafe3b4186f6b6457e09190a35050565b6105766107cb565b6001600160a01b0381166105ba5760405162461bcd60e51b815260206004820152600b60248201526a5a65726f4164647265737360a81b604482015260640161050b565b600180546001600160a01b0319166001600160a01b0383811691821790925560008054604051929316917f38d16b8cac22d99fc7c124b9cd0de2d3fa1faef420bfe791d8c362d765e227009190a350565b6000806106188789610813565b604080516002808252606082018352929350600092909160208301908036833701905050905060128160008151811061065357610653610b86565b602002602001019060ff16908160ff168152505060128160018151811061067c5761067c610b86565b60ff909216602092830291909101909101526007546106a4906001600160a01b031683610850565b6040516340894f1760e01b81529093506001600160a01b038416906340894f17906106dd908b908b908b9087908c908c90600401610be3565b600060405180830381600087803b1580156106f757600080fd5b505af115801561070b573d6000803e3d6000fd5b50505060008381526002602052604080822080546001600160a01b038089166001600160a01b03199283168117909355600680546001810182558187527ff652222313e28459528d920b65115c16c04f3efc82aaedc97be59f3f377c0d3f01805490931684179092559054925161ffff8f169550908d169391927f0602b4d2a860b0800227fff13d2c7fa8d3457e5e7baa8d9136831cff34bedec6926107b79290918e918e9190610c73565b60405180910390a450509695505050505050565b6000546001600160a01b031633146108115760405162461bcd60e51b81526020600482015260096024820152682337b93134b23232b760b91b604482015260640161050b565b565b604080516001600160a01b03841660208083019190915261ffff841682840152825180830384018152606090920190925280519101205b92915050565b6000763d602d80600a3d3981f3363d3d373d3d3d363d730000008360601b60e81c176000526e5af43d82803e903d91602b57fd5bf38360781b1760205281603760096000f590506001600160a01b03811661084a5760405163b4f5411160e01b815260040160405180910390fd5b80356001600160a01b03811681146108d557600080fd5b919050565b803561ffff811681146108d557600080fd5b803562ffffff811681146108d557600080fd5b803580151581146108d557600080fd5b60008060008060008060c0878903121561092857600080fd5b610931876108be565b955061093f602088016108be565b945061094d604088016108da565b935061095b606088016108ec565b9250610969608088016108ec565b915061097760a088016108ff565b90509295509295509295565b60006020828403121561099557600080fd5b5035919050565b6000602082840312156109ae57600080fd5b6109b7826108be565b9392505050565b6000602082840312156109d057600080fd5b6109b7826108da565b600080604083850312156109ec57600080fd5b6109f5836108da565b9150610a03602084016108ff565b90509250929050565b60008060408385031215610a1f57600080fd5b50508035926020909101359150565b6020808252825182820181905260009190848201906040850190845b81811015610a6f5783516001600160a01b031683529284019291840191600101610a4a565b50909695505050505050565b60008083601f840112610a8d57600080fd5b50813567ffffffffffffffff811115610aa557600080fd5b602083019150836020828501011115610abd57600080fd5b9250929050565b60008060008060008060808789031215610add57600080fd5b610ae6876108da565b9550610af4602088016108be565b9450604087013567ffffffffffffffff80821115610b1157600080fd5b818901915089601f830112610b2557600080fd5b813581811115610b3457600080fd5b8a60208260051b8501011115610b4957600080fd5b602083019650809550506060890135915080821115610b6757600080fd5b50610b7489828a01610a7b565b979a9699509497509295939492505050565b634e487b7160e01b600052603260045260246000fd5b8183526000602080850194508260005b85811015610bd8576001600160a01b03610bc5836108be565b1687529582019590820190600101610bac565b509495945050505050565b6001600160a01b038716815260806020808301829052600091610c09908401888a610b9c565b838103604085015286518082528288019183019060005b81811015610c3f57835160ff1683529284019291840191600101610c20565b505084810360608601528581528587848301376000818701840152601f909501601f19169094010198975050505050505050565b6001600160a01b0385168152606060208201819052600090610c989083018587610b9c565b90508260408301529594505050505056fea2646970667358221220857522d9f319c5f7e6ad325156e3111038e8f724274410dd7d8f8e3820ed9dea64736f6c63430008110033",
    "linkReferences": {}
  },
  "methodIdentifiers": {
    "acceptOwnership()": "79ba5097",
    "addProtocol(address)": "771d4c28",
    "allPools(uint256)": "41d1de97",
    "allPoolsLength()": "efde4e64",
    "createPool(uint16,address,address[],bytes)": "f4bff5f1",
    "fee()": "ddca3f43",
    "feeInfo()": "995b5aae",
    "feeTo()": "017e7e58",
    "feeToSetter()": "094b7415",
    "getKey(address)": "93790f44",
    "getPool(bytes32)": "f6c00927",
    "getPoolFee(address)": "42fcc6fb",
    "getPools(uint256,uint256)": "bbe95837",
    "getProtocol(uint16)": "d2c7c2a4",
    "implementation()": "5c60da1b",
    "isProtocolRestricted(uint16)": "d7d1e126",
    "origMax()": "07746e25",
    "origMin()": "84915e7f",
    "owner()": "8da5cb5b",
    "pendingOwner()": "e30c3978",
    "removeProtocol(uint16)": "466e0c0a",
    "setIsProtocolRestricted(uint16,bool)": "b3d5d66b",
    "setPoolFee(address,address,uint16,uint24,uint24,bool)": "02b764ad",
    "tester()": "8308abd4",
    "transferOwnership(address)": "f2fde38b"
  },
  "id": 10
}