{
  "abi": [
    {
      "inputs": [
        {
          "internalType": "string",
          "name": "name_",
          "type": "string"
        },
        {
          "internalType": "string",
          "name": "symbol_",
          "type": "string"
        }
      ],
      "stateMutability": "nonpayable",
      "type": "constructor"
    },
    {
      "inputs": [],
      "name": "ERC721ApproveOwner",
      "type": "error"
    },
    {
      "inputs": [],
      "name": "ERC721ApproveToCaller",
      "type": "error"
    },
    {
      "inputs": [],
      "name": "ERC721Forbidden",
      "type": "error"
    },
    {
      "inputs": [],
      "name": "ERC721InvalidTokenID",
      "type": "error"
    },
    {
      "inputs": [],
      "name": "ERC721MintToZeroAddress",
      "type": "error"
    },
    {
      "inputs": [],
      "name": "ERC721TokenExists",
      "type": "error"
    },
    {
      "inputs": [],
      "name": "ERC721TransferFromWrongOwner",
      "type": "error"
    },
    {
      "inputs": [],
      "name": "ERC721TransferToNonReceiver",
      "type": "error"
    },
    {
      "inputs": [],
      "name": "ERC721TransferToZeroAddress",
      "type": "error"
    },
    {
      "inputs": [],
      "name": "ERC721ZeroAddress",
      "type": "error"
    },
    {
      "anonymous": false,
      "inputs": [
        {
          "indexed": true,
          "internalType": "address",
          "name": "owner",
          "type": "address"
        },
        {
          "indexed": true,
          "internalType": "address",
          "name": "approved",
          "type": "address"
        },
        {
          "indexed": true,
          "internalType": "uint256",
          "name": "tokenId",
          "type": "uint256"
        }
      ],
      "name": "Approval",
      "type": "event"
    },
    {
      "anonymous": false,
      "inputs": [
        {
          "indexed": true,
          "internalType": "address",
          "name": "owner",
          "type": "address"
        },
        {
          "indexed": true,
          "internalType": "address",
          "name": "operator",
          "type": "address"
        },
        {
          "indexed": false,
          "internalType": "bool",
          "name": "approved",
          "type": "bool"
        }
      ],
      "name": "ApprovalForAll",
      "type": "event"
    },
    {
      "anonymous": false,
      "inputs": [
        {
          "indexed": true,
          "internalType": "address",
          "name": "from",
          "type": "address"
        },
        {
          "indexed": true,
          "internalType": "address",
          "name": "to",
          "type": "address"
        },
        {
          "indexed": true,
          "internalType": "uint256",
          "name": "tokenId",
          "type": "uint256"
        }
      ],
      "name": "Transfer",
      "type": "event"
    },
    {
      "inputs": [
        {
          "internalType": "address",
          "name": "to",
          "type": "address"
        },
        {
          "internalType": "uint256",
          "name": "tokenId",
          "type": "uint256"
        }
      ],
      "name": "approve",
      "outputs": [],
      "stateMutability": "nonpayable",
      "type": "function"
    },
    {
      "inputs": [
        {
          "internalType": "address",
          "name": "owner",
          "type": "address"
        }
      ],
      "name": "balanceOf",
      "outputs": [
        {
          "internalType": "uint256",
          "name": "",
          "type": "uint256"
        }
      ],
      "stateMutability": "view",
      "type": "function"
    },
    {
      "inputs": [],
      "name": "baseURI",
      "outputs": [
        {
          "internalType": "string",
          "name": "",
          "type": "string"
        }
      ],
      "stateMutability": "view",
      "type": "function"
    },
    {
      "inputs": [
        {
          "internalType": "uint256",
          "name": "tokenId",
          "type": "uint256"
        }
      ],
      "name": "burn",
      "outputs": [],
      "stateMutability": "nonpayable",
      "type": "function"
    },
    {
      "inputs": [
        {
          "internalType": "uint256",
          "name": "tokenId",
          "type": "uint256"
        }
      ],
      "name": "exists",
      "outputs": [
        {
          "internalType": "bool",
          "name": "",
          "type": "bool"
        }
      ],
      "stateMutability": "view",
      "type": "function"
    },
    {
      "inputs": [
        {
          "internalType": "uint256",
          "name": "tokenId",
          "type": "uint256"
        }
      ],
      "name": "getApproved",
      "outputs": [
        {
          "internalType": "address",
          "name": "",
          "type": "address"
        }
      ],
      "stateMutability": "view",
      "type": "function"
    },
    {
      "inputs": [
        {
          "internalType": "address",
          "name": "owner",
          "type": "address"
        },
        {
          "internalType": "address",
          "name": "operator",
          "type": "address"
        }
      ],
      "name": "isApprovedForAll",
      "outputs": [
        {
          "internalType": "bool",
          "name": "",
          "type": "bool"
        }
      ],
      "stateMutability": "view",
      "type": "function"
    },
    {
      "inputs": [
        {
          "internalType": "address",
          "name": "to",
          "type": "address"
        },
        {
          "internalType": "uint256",
          "name": "tokenId",
          "type": "uint256"
        }
      ],
      "name": "mint",
      "outputs": [],
      "stateMutability": "nonpayable",
      "type": "function"
    },
    {
      "inputs": [],
      "name": "name",
      "outputs": [
        {
          "internalType": "string",
          "name": "",
          "type": "string"
        }
      ],
      "stateMutability": "view",
      "type": "function"
    },
    {
      "inputs": [
        {
          "internalType": "uint256",
          "name": "tokenId",
          "type": "uint256"
        }
      ],
      "name": "ownerOf",
      "outputs": [
        {
          "internalType": "address",
          "name": "",
          "type": "address"
        }
      ],
      "stateMutability": "view",
      "type": "function"
    },
    {
      "inputs": [
        {
          "internalType": "address",
          "name": "to",
          "type": "address"
        },
        {
          "internalType": "uint256",
          "name": "tokenId",
          "type": "uint256"
        },
        {
          "internalType": "bytes",
          "name": "_data",
          "type": "bytes"
        }
      ],
      "name": "safeMint",
      "outputs": [],
      "stateMutability": "nonpayable",
      "type": "function"
    },
    {
      "inputs": [
        {
          "internalType": "address",
          "name": "to",
          "type": "address"
        },
        {
          "internalType": "uint256",
          "name": "tokenId",
          "type": "uint256"
        }
      ],
      "name": "safeMint",
      "outputs": [],
      "stateMutability": "nonpayable",
      "type": "function"
    },
    {
      "inputs": [
        {
          "internalType": "address",
          "name": "from",
          "type": "address"
        },
        {
          "internalType": "address",
          "name": "to",
          "type": "address"
        },
        {
          "internalType": "uint256",
          "name": "tokenId",
          "type": "uint256"
        }
      ],
      "name": "safeTransferFrom",
      "outputs": [],
      "stateMutability": "nonpayable",
      "type": "function"
    },
    {
      "inputs": [
        {
          "internalType": "address",
          "name": "from",
          "type": "address"
        },
        {
          "internalType": "address",
          "name": "to",
          "type": "address"
        },
        {
          "internalType": "uint256",
          "name": "tokenId",
          "type": "uint256"
        },
        {
          "internalType": "bytes",
          "name": "data",
          "type": "bytes"
        }
      ],
      "name": "safeTransferFrom",
      "outputs": [],
      "stateMutability": "nonpayable",
      "type": "function"
    },
    {
      "inputs": [
        {
          "internalType": "address",
          "name": "operator",
          "type": "address"
        },
        {
          "internalType": "bool",
          "name": "approved",
          "type": "bool"
        }
      ],
      "name": "setApprovalForAll",
      "outputs": [],
      "stateMutability": "nonpayable",
      "type": "function"
    },
    {
      "inputs": [
        {
          "internalType": "bytes4",
          "name": "interfaceId",
          "type": "bytes4"
        }
      ],
      "name": "supportsInterface",
      "outputs": [
        {
          "internalType": "bool",
          "name": "",
          "type": "bool"
        }
      ],
      "stateMutability": "view",
      "type": "function"
    },
    {
      "inputs": [],
      "name": "symbol",
      "outputs": [
        {
          "internalType": "string",
          "name": "",
          "type": "string"
        }
      ],
      "stateMutability": "view",
      "type": "function"
    },
    {
      "inputs": [
        {
          "internalType": "uint256",
          "name": "tokenId",
          "type": "uint256"
        }
      ],
      "name": "tokenURI",
      "outputs": [
        {
          "internalType": "string",
          "name": "",
          "type": "string"
        }
      ],
      "stateMutability": "view",
      "type": "function"
    },
    {
      "inputs": [
        {
          "internalType": "address",
          "name": "from",
          "type": "address"
        },
        {
          "internalType": "address",
          "name": "to",
          "type": "address"
        },
        {
          "internalType": "uint256",
          "name": "tokenId",
          "type": "uint256"
        }
      ],
      "name": "transferFrom",
      "outputs": [],
      "stateMutability": "nonpayable",
      "type": "function"
    }
  ],
  "bytecode": {
    "object": "0x60806040523480156200001157600080fd5b50604051620014ec380380620014ec83398101604081905262000034916200011f565b600462000042838262000218565b50600562000051828262000218565b505050620002e4565b634e487b7160e01b600052604160045260246000fd5b600082601f8301126200008257600080fd5b81516001600160401b03808211156200009f576200009f6200005a565b604051601f8301601f19908116603f01168101908282118183101715620000ca57620000ca6200005a565b81604052838152602092508683858801011115620000e757600080fd5b600091505b838210156200010b5785820183015181830184015290820190620000ec565b600093810190920192909252949350505050565b600080604083850312156200013357600080fd5b82516001600160401b03808211156200014b57600080fd5b620001598683870162000070565b935060208501519150808211156200017057600080fd5b506200017f8582860162000070565b9150509250929050565b600181811c908216806200019e57607f821691505b602082108103620001bf57634e487b7160e01b600052602260045260246000fd5b50919050565b601f8211156200021357600081815260208120601f850160051c81016020861015620001ee5750805b601f850160051c820191505b818110156200020f57828155600101620001fa565b5050505b505050565b81516001600160401b038111156200023457620002346200005a565b6200024c8162000245845462000189565b84620001c5565b602080601f8311600181146200028457600084156200026b5750858301515b600019600386901b1c1916600185901b1785556200020f565b600085815260208120601f198616915b82811015620002b55788860151825594840194600190910190840162000294565b5085821015620002d45787850151600019600388901b60f8161c191681555b5050505050600190811b01905550565b6111f880620002f46000396000f3fe608060405234801561001057600080fd5b50600436106101215760003560e01c80636352211e116100ad578063a144819411610071578063a144819414610259578063a22cb4651461026c578063b88d4fde1461027f578063c87b56dd14610292578063e985e9c5146102a557600080fd5b80636352211e146102025780636c0360eb1461021557806370a082311461021d5780638832e6e31461023e57806395d89b411461025157600080fd5b806323b872dd116100f457806323b872dd146101a357806340c10f19146101b657806342842e0e146101c957806342966c68146101dc5780634f558e79146101ef57600080fd5b806301ffc9a71461012657806306fdde031461014e578063081812fc14610163578063095ea7b31461018e575b600080fd5b610139610134366004610d4f565b6102b8565b60405190151581526020015b60405180910390f35b61015661030a565b6040516101459190610dbc565b610176610171366004610dcf565b61039c565b6040516001600160a01b039091168152602001610145565b6101a161019c366004610e04565b6103c3565b005b6101a16101b1366004610e2e565b61044f565b6101a16101c4366004610e04565b610463565b6101a16101d7366004610e2e565b610471565b6101a16101ea366004610dcf565b61048c565b6101396101fd366004610dcf565b610498565b610176610210366004610dcf565b6104b7565b6101566104ed565b61023061022b366004610e6a565b610509565b604051908152602001610145565b6101a161024c366004610f28565b61054e565b610156610559565b6101a1610267366004610e04565b610568565b6101a161027a366004610f7f565b610572565b6101a161028d366004610fbb565b61057d565b6101566102a0366004610dcf565b610598565b6101396102b3366004611023565b61060c565b60006001600160e01b031982166380ac58cd60e01b14806102e957506001600160e01b03198216635b5e139f60e01b145b8061030457506301ffc9a760e01b6001600160e01b03198316145b92915050565b60606004805461031990611056565b80601f016020809104026020016040519081016040528092919081815260200182805461034590611056565b80156103925780601f1061036757610100808354040283529160200191610392565b820191906000526020600020905b81548152906001019060200180831161037557829003601f168201915b5050505050905090565b60006103a78261063a565b506000908152600260205260409020546001600160a01b031690565b60006103ce826104b7565b9050806001600160a01b0316836001600160a01b031603610402576040516390c88f1160e01b815260040160405180910390fd5b336001600160a01b038216148015906104225750610420813361060c565b155b1561044057604051639f7791bd60e01b815260040160405180910390fd5b61044a838361066f565b505050565b610458816106dd565b61044a838383610704565b61046d828261082c565b5050565b61044a8383836040518060200160405280600081525061057d565b61049581610912565b50565b6000818152602081905260408120546001600160a01b03161515610304565b6000818152602081905260408120546001600160a01b03168061030457604051633f0f7f7360e01b815260040160405180910390fd5b606061050460408051602081019091526000815290565b905090565b60006001600160a01b03821661053257604051630bb6521b60e41b815260040160405180910390fd5b506001600160a01b031660009081526001602052604090205490565b61044a8383836109af565b60606005805461031990611056565b61046d82826109e3565b61046d3383836109fd565b610586826106dd565b61059284848484610a9c565b50505050565b60606105a38261063a565b60006105ba60408051602081019091526000815290565b905060008151116105da5760405180602001604052806000815250610605565b806105e484610ad0565b6040516020016105f5929190611090565b6040516020818303038152906040525b9392505050565b6001600160a01b03918216600090815260036020908152604080832093909416825291909152205460ff1690565b6000818152602081905260409020546001600160a01b031661049557604051633f0f7f7360e01b815260040160405180910390fd5b600081815260026020526040902080546001600160a01b0319166001600160a01b03841690811790915581906106a4826104b7565b6001600160a01b03167f8c5be1e5ebec7d5bd14f71427d1e84f3dd0314c0f7b2291e5b200ac8c7c3b92560405160405180910390a45050565b6106e73382610bd9565b61049557604051639f7791bd60e01b815260040160405180910390fd5b826001600160a01b0316610717826104b7565b6001600160a01b03161461073e576040516306d8c27960e31b815260040160405180910390fd5b6001600160a01b03821661076557604051635a63192d60e01b815260040160405180910390fd5b61077060008261066f565b6001600160a01b0383166000908152600160208190526040822080549192909161079b9084906110d5565b90915550506001600160a01b038216600090815260016020819052604082208054919290916107cb9084906110e8565b909155505060008181526020819052604080822080546001600160a01b0319166001600160a01b0386811691821790925591518493918716917fddf252ad1be2c89b69c2b068fc378daa952ba7f163c4a11628f55a4df523b3ef91a4505050565b6001600160a01b0382166108535760405163271a2a5560e01b815260040160405180910390fd5b6000818152602081905260409020546001600160a01b03161561088957604051634ef46b0360e11b815260040160405180910390fd5b6001600160a01b038216600090815260016020819052604082208054919290916108b49084906110e8565b909155505060008181526020819052604080822080546001600160a01b0319166001600160a01b03861690811790915590518392907fddf252ad1be2c89b69c2b068fc378daa952ba7f163c4a11628f55a4df523b3ef908290a45050565b600061091d826104b7565b905061092a60008361066f565b6001600160a01b038116600090815260016020819052604082208054919290916109559084906110d5565b909155505060008281526020819052604080822080546001600160a01b0319169055518391906001600160a01b038416907fddf252ad1be2c89b69c2b068fc378daa952ba7f163c4a11628f55a4df523b3ef908390a45050565b6109b9838361082c565b6109c66000848484610c37565b61044a57604051633a3614b760e01b815260040160405180910390fd5b61046d8282604051806020016040528060008152506109af565b816001600160a01b0316836001600160a01b031603610a2f57604051630b7b99b960e21b815260040160405180910390fd5b6001600160a01b03838116600081815260036020908152604080832094871680845294825291829020805460ff191686151590811790915591519182527f17307eab39ab6107e8899845ad3d59bd9653f200f220920489ca2b5937696c31910160405180910390a3505050565b610aa7848484610704565b610ab384848484610c37565b61059257604051633a3614b760e01b815260040160405180910390fd5b606081600003610af75750506040805180820190915260018152600360fc1b602082015290565b8160005b8115610b215780610b0b816110fb565b9150610b1a9050600a8361112a565b9150610afb565b60008167ffffffffffffffff811115610b3c57610b3c610e85565b6040519080825280601f01601f191660200182016040528015610b66576020820181803683370190505b5090505b8415610bd157610b7b6001836110d5565b9150610b88600a8661113e565b610b939060306110e8565b60f81b818381518110610ba857610ba8611152565b60200101906001600160f81b031916908160001a905350610bca600a8661112a565b9450610b6a565b949350505050565b600080610be5836104b7565b9050806001600160a01b0316846001600160a01b03161480610c0c5750610c0c818561060c565b80610bd15750836001600160a01b0316610c258461039c565b6001600160a01b031614949350505050565b60006001600160a01b0384163b15610d2e57604051630a85bd0160e11b81526001600160a01b0385169063150b7a0290610c7b903390899088908890600401611168565b6020604051808303816000875af1925050508015610cb6575060408051601f3d908101601f19168201909252610cb3918101906111a5565b60015b610d14573d808015610ce4576040519150601f19603f3d011682016040523d82523d6000602084013e610ce9565b606091505b508051600003610d0c57604051633a3614b760e01b815260040160405180910390fd5b805181602001fd5b6001600160e01b031916630a85bd0160e11b149050610bd1565b506001949350505050565b6001600160e01b03198116811461049557600080fd5b600060208284031215610d6157600080fd5b813561060581610d39565b60005b83811015610d87578181015183820152602001610d6f565b50506000910152565b60008151808452610da8816020860160208601610d6c565b601f01601f19169290920160200192915050565b6020815260006106056020830184610d90565b600060208284031215610de157600080fd5b5035919050565b80356001600160a01b0381168114610dff57600080fd5b919050565b60008060408385031215610e1757600080fd5b610e2083610de8565b946020939093013593505050565b600080600060608486031215610e4357600080fd5b610e4c84610de8565b9250610e5a60208501610de8565b9150604084013590509250925092565b600060208284031215610e7c57600080fd5b61060582610de8565b634e487b7160e01b600052604160045260246000fd5b600082601f830112610eac57600080fd5b813567ffffffffffffffff80821115610ec757610ec7610e85565b604051601f8301601f19908116603f01168101908282118183101715610eef57610eef610e85565b81604052838152866020858801011115610f0857600080fd5b836020870160208301376000602085830101528094505050505092915050565b600080600060608486031215610f3d57600080fd5b610f4684610de8565b925060208401359150604084013567ffffffffffffffff811115610f6957600080fd5b610f7586828701610e9b565b9150509250925092565b60008060408385031215610f9257600080fd5b610f9b83610de8565b915060208301358015158114610fb057600080fd5b809150509250929050565b60008060008060808587031215610fd157600080fd5b610fda85610de8565b9350610fe860208601610de8565b925060408501359150606085013567ffffffffffffffff81111561100b57600080fd5b61101787828801610e9b565b91505092959194509250565b6000806040838503121561103657600080fd5b61103f83610de8565b915061104d60208401610de8565b90509250929050565b600181811c9082168061106a57607f821691505b60208210810361108a57634e487b7160e01b600052602260045260246000fd5b50919050565b600083516110a2818460208801610d6c565b8351908301906110b6818360208801610d6c565b01949350505050565b634e487b7160e01b600052601160045260246000fd5b81810381811115610304576103046110bf565b80820180821115610304576103046110bf565b60006001820161110d5761110d6110bf565b5060010190565b634e487b7160e01b600052601260045260246000fd5b60008261113957611139611114565b500490565b60008261114d5761114d611114565b500690565b634e487b7160e01b600052603260045260246000fd5b6001600160a01b038581168252841660208201526040810183905260806060820181905260009061119b90830184610d90565b9695505050505050565b6000602082840312156111b757600080fd5b815161060581610d3956fea2646970667358221220f75508ce8e5be47f52ebced676e3e3b5a15304313a2d313ec3a404111b60103364736f6c63430008110033",
    "linkReferences": {}
  },
  "methodIdentifiers": {
    "approve(address,uint256)": "095ea7b3",
    "balanceOf(address)": "70a08231",
    "baseURI()": "6c0360eb",
    "burn(uint256)": "42966c68",
    "exists(uint256)": "4f558e79",
    "getApproved(uint256)": "081812fc",
    "isApprovedForAll(address,address)": "e985e9c5",
    "mint(address,uint256)": "40c10f19",
    "name()": "06fdde03",
    "ownerOf(uint256)": "6352211e",
    "safeMint(address,uint256)": "a1448194",
    "safeMint(address,uint256,bytes)": "8832e6e3",
    "safeTransferFrom(address,address,uint256)": "42842e0e",
    "safeTransferFrom(address,address,uint256,bytes)": "b88d4fde",
    "setApprovalForAll(address,bool)": "a22cb465",
    "supportsInterface(bytes4)": "01ffc9a7",
    "symbol()": "95d89b41",
    "tokenURI(uint256)": "c87b56dd",
    "transferFrom(address,address,uint256)": "23b872dd"
  },
  "id": 17
}